:0300000002226475
:0C226400787FE4F6D8FD7581220222ABE1
:101FC800206B65795F7363616E0D0A00204B45597C
:101FD8005F325F505245530D0A000D0A3D3D3D3DAD
:101FE8003D3D3D3D3D3D3D3D3D3D3D3D3D3D3D3D19
:101FF8003D3D3D3D3D3D3D3D3D3D3D3D3D3D0D0A6C
:1020080000736B753A4B2564200D0A00736F667474
:102018002076657273696F6E3A2573200D0A003158
:102028002E30302E303000676170202564200D0A74
:102038000074696D6572202564200D0A00496E7070
:1020480075745F566F6C746167655F737464203D67
:102058002025640D0A003D3D3D3D3D3D3D3D3D3D56
:102068003D3D3D3D3D3D3D3D3D3D3D3D3D3D3D3D98
:0B2078003D3D3D3D3D3D3D3D0D0A005E
:0D237C0042009D00004100A00041009F00B4
:101E3000E4900000F090009FE0700A12245F900090
:101E400000EFF08005E4900000F0900000E06401F5
:101E5000702B7BFF7A1F79C8120A03122822EF70B9
:101E60000A7F01122828E4FF02273FE4FF122828F6
:101E70001222F012213A9000A07401F022122822BE
:101E8000EF6003021F06900000E0640270307BFFE9
:101E90007A1F79D4120A03900089E0C3940950058F
:101EA000E004F080069000897401F09000A07401B5
:101EB000F012213A900089E0FF12284080459000FE
:101EC00000E06403704090008AE0C394055005E090
:101ED00004F08005E490008AF0900089E0D394013A
:101EE0004016A3E0FF70059000888009EFD39403AB
:101EF000400690007B7402F090008AE0FF12283ABE
:061F00001222F01226304F
:011F060022B8
:0C169200900006ECF0A3EDF0AB07AA06F8
:10169E00E4A3F0A3F0A3F0A37428F0A31208F400BF
:1016AE000000009000101208F400000000C3EB943C
:1016BE005AEA94005003021756AE02AF03AD07ACC0
:1016CE0006E412032AE4FBFA797A784412020F90A8
:1016DE00000C1208E8900006E0FCA3E0FDE4120303
:1016EE002AE4FBFA797A784412020F90001012085D
:1016FE00E890000CE0F8A3E0F9A3E0FAA3E0FBA366
:10170E00E0FCA3E0FDA3E0FEA3E0FF1200119000B9
:10171E000CE0F8A3E0F9A3E0FAA3E0FB12020F7BC2
:10172E00007A80793B784412010690000C1208E88A
:10173E00E4FFFEFDFC90000CE0F8A3E0F9A3E0FA54
:10174E00A3E0FB1202AC50057E007FFF227F147EC9
:10175E00AE7DC37C4290000CE0F8A3E0F9A3E0FA62
:10176E00A3E0FB1202AC603F403D7F147EAE7DC312
:10177E007CC290000CE0F8A3E0F9A3E0FAA3E0FB32
:10178E001200157BCD7ACC79CC783E12020F120363
:10179E0063900008EEF0A3EFF090000BE02FF090B6
:1017AE00000AE03EF0803C90000CE0F8A3E0F9A3C4
:1017BE00E0FAA3E0FB7F147EAE7DC37C42120011E3
:1017CE007BCD7ACC79CC783E12020F120363900057
:1017DE0008EEF0A3EFF0C390000BE09FF090000A2C
:1017EE00E09EF0900089E0B4030E90000BE024FB25
:1017FE00F090000AE034FFF090000AE0FEA3E0FF54
:01180E0022B7
:101B7600E4900000F0A3F0A3F0A3F0A3F0A3F0908C
:101B8600009EE004F0700690009DE004F090009D39
:101B9600E0FEA3E0FFE4FCFD7B507AC3F9F8D31224
:101BA60008C14003021C74E490009DF0A3F07B0181
:101BB60090000904F0A37400F0A37404F07A00798D
:101BC6000212180F900002E0FEA3E0FFA3E0FCA3C0
:101BD600E0FD121692900000EEF0A3EFF0D3900015
:101BE60003E0945A900002E094004074122822EF19
:101BF600705BFF1228349000A0E0B40121E4F0D31A
:101C0600900001E09432900000E094004006E490D9
:101C1600007F800590007F7401F090007EF09000B8
:101C260000E0FEA3E0FF7C007D0A1206E490007748
:101C3600EEF0A3EFF0120E1B90008AE0FF12283A96
:101C4600900089E0FF1228401224F1800D7F0112D6
:101C56002834E4FF12273F122810E490009FF02258
:0E1C66007FFF12283412267C90009F7401F03C
:011C7400224D
:101F07001228061225DF1226E4D2AF1227B01227B5
:101F1700C4121A601226C47FC87E001226567F029A
:101F27001227E11225B51228197FB07E0412275710
:101F37001228101227037BFF7A1F79E2120A037B0C
:101F4700FF7A207909900034741FF0A374A9F01266
:101F57000A0390003474FFF0A37420F0A37427F0F1
:101F67007BFF7A207914120A037BFF7A20792F905E
:101F77000089E0FF900034E4F0A3EFF0120A037B3E
:101F8700FF7A20793990008AE0FF900034E4F0A3CB
:101F9700EFF0120A037BFF7A20794590008FE0FF6C
:101FA700A3E0900034CFF0A3EFF0120A037BFF7A8F
:101FB70020795E120A03121B76121E301228468001
:011FC700F524
:0A280600758E5190FE917401F022CE
:1024F1007F6490008FE07004A3E06402700D90008F
:1025010073E0C313F0A3E013F07F3290007EE0B4D8
:102511000102800C90007EE07009900073A3E0FF3F
:0325210012273F3F
:012524002294
:10213A00900089E014B4090040030221D29021558D
:10214A0075F003A4C58325F0C583730221700221AB
:10215A007B02218602219102219C0221A70221B23F
:10216A000221BD0221C89000757401F0A374F4F035
:10217A00229000757402F0A3741CF022900075740A
:10218A0002F0A3743AF0229000757402F0A3745816
:10219A00F0229000757402F0A3748AF02290007500
:1021AA007402F0A374BCF0229000757402F0A37458
:1021BA00EEF0229000757403F0A37420F0229000D0
:0921CA00757403F0A37452F022B5
:10270300E4FFFE1221D3D3EF9440EE940690008FA2
:0D271300E44006F0A37402F022F0A304F0ED
:012720002296
:0E27D300EF1F70011E144E6004000080F32200
:102757007D407C03ED1D70011C144C70F7EF1F705A
:06276700011E144E70EA91
:01276D002249
:1026E40090FF037401F090FF07F090FF02F075B4BF
:0F26F400817F507E001227D390FE9B7449F02205
:10276E00E4FFFE75B50743B440E5B430E5FB53B462
:05277E00DFAEB7AFB6AD
:012783002233
:10278400E4FFFE75B50343B440E5B430E5FB53B450
:05279400DFAEB7AFB697
:01279900221D
:10279A00E4FFFE75B50243B440E5B430E5FB53B43B
:0527AA00DFAEB7AFB681
:0127AF002207
:0B180F00900006EBF0A3EAF0A3E9F064
:10181A0090000C1208F400000000E4900010F0F0B0
:10182A0090000CE0F8A3E0F9A3E0FAA3E0FB12278A
:10183A0084E4FCFDEB2FFFEA3EFEED39FDEC38FCBB
:10184A0090000C1208E8900010E004F0E0C3940540
:10185A0040CE90000CE0FCA3E0FDA3E0FEA3E0FF75
:10186A00E47B05FAF9F812082190000C1208E8E462
:10187A007FA07E0FFDFC90000CE0F8A3E0F9A3E046
:10188A00FAA3E0FB120796E47BFF7A0FF9F8120835
:10189A0021900006E0FBA3E0FAA3E0F9EE8FF01234
:1018AA0007777F147E001227D390000C1208F400E9
:1018BA00000000E4900010F090000CE0F8A3E0F9BA
:1018CA00A3E0FAA3E0FB12276EE4FCFDEB2FFFEA8C
:1018DA003EFEED39FDEC38FC90000C1208E8900051
:1018EA0010E004F0E0C3940540CE90000CE0FCA3A5
:1018FA00E0FDA3E0FEA3E0FFE47B05FAF9F8120895
:10190A002190000C1208E8E47FA07E0FFDFC9000F5
:10191A000CE0F8A3E0F9A3E0FAA3E0FB120796E4CF
:10192A007BFF7A0FF9F8120821900009E0FBA3E087
:0A193A00FAA3E0F9EE8FF002077740
:1021D3009000001208F400000000E4900004F0F006
:1021E300900000E0F8A3E0F9A3E0FAA3E0FB1227D4
:1021F3009AE4FCFDEB2FFFEA3EFEED39FDEC38FCE3
:102203009000001208E8900004E004F0E0C3940595
:1022130040CE900000E0FCA3E0FDA3E0FEA3E0FFBE
:10222300E47B05FAF9F81208219000001208E8E4AB
:102233007FA07E0FFDFC900000E0F8A3E0F9A3E08F
:10224300FAA3E0FB120796E4FB7A10F9F8120821CF
:102253009000001208E8900000A3A3E0FEA3E0FFB3
:012263002258
:101C75000D0A3D3D3D3D3D3D3D3D3D3D3D3D3D3DF2
:101C85003D3D3D3D3D3D3D3D3D3D3D3D3D3D3D3D7F
:101C95003D3D3D3D3D3D3D3D3D3D0D0A00706F7770
:101CA5006572206F6E20666C617368206761703A9B
:101CB5002564202074696D65723A2564200D0A003B
:101CC5003D3D3D3D3D3D3D3D3D3D3D3D3D3D3D3D3F
:101CD5003D3D3D3D3D3D3D3D3D3D3D3D3D3D3D3D2F
:101CE5003D3D3D3D3D3D3D3D0D0A003D3D3D3D3DBF
:101CF5003D3D3D3D3D3D3D3D666972737420696ED8
:101D0500697420646174613D3D3D3D3D3D3D3D3D12
:101D15003D3D200D0A00307825303458202030789C
:101D2500253034582020307825303458202030781C
:101D350025303458200D0A00666C61736820676190
:101D4500703A2564202074696D65723A2564200D0A
:021D55000A0082
:1023890044008B202005014100910142008F00008B
:06282200900091E0FF228E
:06282800900091EFF02288
:1026A200D310AF01C3C0D075FDF075FC0F8EFA8F49
:1026B200F975FDD275FC2D75FDE175FC1ED0D09229
:0226C200AF2245
:10260800D310AF01C3C0D08FFB75FDF075FC0FAEC2
:1026180004AF058EFA8FF975FDB475FC4B75FDE1B5
:0826280075FC1ED0D092AF2218
:0C23F2007B017A0079897D027F047E3C2B
:1023FE00D310AF01C3C0D0900001EEF0A3EFF0A355
:0B240E00EDF0A3EBF0A3EAF0A3E9F06F
:10241900E4A3F0C2AFF0900003E0FF900007E0C32F
:102429009F502C900004E0FBA3E475F001120761B2
:10243900A9F0FA12068CFF900001E475F001120769
:1024490061ADF0FC122608900007E004F080C7D2C5
:01245900AFD3
:05245A00D0D092AF227A
:040003008F828E83D7
:03000700E493FF80
:01000A0022D3
:1024B100900001EEF0A3EFF0A3EBF0A3EAF0A3E9A3
:1024C100F0AF051DEF6028900001E475F0011207DF
:1024D1006185F082F583E493FF900003E0FBA3E4C0
:1024E10075F001120761A9F0FAEF1206D280D2222B
:10252500E4FDFCED2400FFE4343CFE120003748B53
:102535002DF582E43400F583E0B507030C80037FB5
:1025450000220DEDB404DCECC3940440037F0122AA
:022555007F0005
:012557002261
:101A6000E4900000F090FE927404F0122525EF70CF
:101A70000790000004F080597BFF7A1C7975120AE8
:101A8000037B017A0079897D027F047E3C1224B1B8
:101A90007BFF7A1C79A2900089E0FF900034E4F08B
:101AA000A3EFF090008AE0FF900036E4F0A3EFF09F
:101AB000120A037BFF7A1C79C5120A03900089E0A1
:101AC000D394095006A3E0940540069000007401E9
:101AD000F0900000E06401707A7BFF7A1C79F012CC
:101AE0000A039000897401F0A3F07F007E3C122667
:101AF000A2FB7A00798B7D041223FE1223F27B0174
:101B00007A00798B7D047F007E3C1224B17BFF7AC2
:101B10001D791B90008BE0FF900034E4F0A3EFF000
:101B200090008CE0FF900036E4F0A3EFF090008D81
:101B3000E0FF900038E4F0A3EFF090008EE0FF901B
:101B4000003AE4F0A3EFF0120A037BFF7A1C79C598
:101B5000120A037BFF7A1D793D900089E0FF900017
:101B600034E4F0A3EFF090008AE0FF900036E4F058
:061B7000A3EFF0020A03DE
:102630007F047E3C1226A27B017A00798B7D047F89
:10264000001223FE1223F27B017A0079897D027F3A
:06265000047E3C0224B1EF
:1025DF0090FF1674C1F090FF157460F090FFA07417
:1025EF0026F090FFA114F075CEFF75CD9875CC062F
:0925FF00759E02759810D2AC2201
:0C27EE00C2AC8F993099FDC299D2AC2288
:06282E00AE071227EE22A6
:1023990041009200420093000041009501420096DD
:0223A900000032
:0F27C40090FF177460F090FF00F090FF01F0227B
:10208300E4900002F0A28133900001F0900092E00E
:1020930014602614604E1470030221262403600387
:1020A30002212F900001E06003022134900093F09D
:1020B300A3F090009204F08078900001E0706B90A0
:1020C3000094E004F07006900093E004F0C39000E5
:1020D30094E09403900093E09400403E9000927447
:1020E30002F08036900001E0B40106A37404F0808E
:1020F3003B900094E004F07006900093E004F0C37A
:10210300900094E094C8900093E09400400C9000F9
:10211300027405F09000927403F07F0A7E00122788
:1021230057800E900001E0B401078000E490009214
:06213300F0900002E0FF45
:012139002283
:10245F00122083BF05037F0122900095E0601E309C
:10246F00A7032080187F327E00122757E490009533
:10247F00F020A7037F022220800F7F032230A709BD
:10248F003080069000957401F0308113D39000973F
:10249F00E09401900096E094004004E4F0A3F07FF4
:0124AF00002C
:0124B0002209
:0423AB004100A1004C
:10273F007E009000A1E0FD7C0012096BE47B64FA3F
:07274F00F9F81208218FDFE9
:012756002260
:1026560090FF1D74C0F090FF9C7435F0AC06AD077A
:102666007E7A7F121206F6EF149000A1F074FFF046
:06267600F5DE75DD972280
:0D27E10075BD17EF75F02BA490FEA0F0223F
:0428460043BD10225C
:102558007365742074696D65207365636F6E643A82
:1025680025640D0A0074696D65207365636F6E6478
:102578003A2564200D0A0074696D65206F6666202F
:032588000D0A0039
:1023AF00420084000042008200004200860000418B
:1023BF00007A0041007B004100880041007F00420D
:0D23CF00007C0000420080000041007E0004
:10272100900082EEF0A3EFF0E4A3F0A3F07BFF7A38
:0E273100257958900034EEF0A3EFF0020A0371
:10258B0090007FE0B4012290007CE475F00112070B
:10259B004BFED3E5F0940EEE9401400DE490007FDA
:0A25AB00F090007CF0A3F0A3F022F2
:1022F000E4900084F0A3F090008AE0FF7008900062
:1023000082F0A3F08052EFB4010C9000827407F0C9
:10231000A304F0E48042EFB4020D900082740EF04A
:10232000A37410F0E48031EFB4030D900082741CAC
:10233000F0A37420F0E48020EFB4040D90008274C8
:1023400038F0A37440F0E4800FEFB40517900082DA
:102350007470F0A37480F0E4900086F0A3F0900015
:1023600080F0A3F07BFF7A25796D900082E0FFA3D7
:0C237000E0900034CFF0A3EFF0020A036D
:1027B000E490FE80F0F589758CF5758A9643A80241
:0427C0004388102218
:03000B0002194493
:10194400C0E0C0F0C083C082C0D075D000C000C069
:1019540001C002C003C004C005C006C0071228228B
:10196400EF6003021A42900085E004F070069000D4
:1019740084E004F0C3900085E094F4900084E09443
:10198400015003021A4212258B900088E0B4022D04
:10199400900087E004F07006900086E004F0D39095
:1019A4000087E09440900086E094384010900088CE
:1019B400E4F0900086F0A3F090007A04F0D3900055
:1019C40083E09400900082E094004042A3E024FF6E
:1019D400F0900082E034FFF090007BE064027057E6
:1019E400900087E004F07006900086E004F0D39045
:1019F4000087E09440900086E09438403A90007A62
:101A04007401F0A3E4F0900086F0A3F08029900024
:101A14008AE060237F01122828900082E4F0A3F07A
:101A2400900086F0A3F090007BF0900088F07BFF9C
:101A34007A25797F120A03900084E4F0A3F0121D42
:101A440057D007D006D005D004D003D002D001D09F
:0C1A540000D0D0D082D083D0F0D0E0329F
:1023DC0042009B000041009A004100990041009886
:0123EC0000F0
:1025B50043D1E890FF62E04406F090FF61E04408F3
:1025C500F090FF60E04410F090FF6AE044F8F0C23C
:0A25D50097C296C295C294C29322E9
:06283400900099EFF02274
:0928100090009B74CEF0A3F022AD
:10267C00900098E0FF700F90009B74CEF0A3F09048
:10268C0000987401F022EFB4010B90009B74FFF0E2
:05269C00E4900098F03D
:0126A1002216
:06283A0090009CEFF0226B
:0628400090009BEFF02266
:0928190090009B74CCF0A3F022A6
:101D5700900099E0FF6006F46003021E2543D1E876
:101D670090009AE0B408004003021E1F901D7AF805
:101D7700282873021D92021DA2021DB3021DC6026E
:101D87001DDB021DEB021DFC021E0F53D1EF1214C7
:101D9700F612124390009A7401F022C292D2911265
:101DA70014FA12124390009A7402F022C292C2915E
:101DB700D2A31214FC12124390009A7403F022C2A9
:101DC70092C291C2A3D2B41214FE12124390009A87
:101DD7007404F02243D1101214F612124390009AA1
:101DE7007405F022C292D2911214FA121243900093
:101DF7009A7406F022C292C291D2A31214FC121254
:101E07004390009A7407F022C292C291C2A3D2B43F
:101E17001214FE1212438000E490009AF022900000
:091E270099E0B4010375D16822B1
:0512430090009BE0FF9C
:10124800EF12094512AF0112E702131F03135704E7
:10125800138F0513C70613FE0714380814720912F2
:10126800771E14EBCC14E0CE14A9FF000014F590FF
:10127800009AE0FF6003B40404C295C294EF6401CD
:101288006004EFB40504D295D294EF64026004EFD1
:10129800B40604D295D294EF64036008EF64076043
:1012A800030214F50214DB90009AE0FF6003B40413
:1012B80004C295C294EF64016004EFB40504D295AA
:1012C800C294EF64026004EFB40604D295C294EFAE
:1012D80064036008EF640760030214F50214339096
:1012E800009AE0FF6003B40404D295C294EF64014D
:1012F8006004EFB40504D295C294EF64026004EF71
:10130800B40604C295D294EF64036008EF640760E2
:10131800030214F502146D90009AE0FF6003B40410
:1013280004D295C294EF64016004EFB40504D29529
:10133800C294EF64026004EFB40604D295D294EF2D
:1013480064036008EF640760030214F50214A490B4
:10135800009AE0FF6003B40404C295C294EF6401EC
:101368006004EFB40504D295D294EF64026004EFF0
:10137800B40604D295D294EF64036008EF64076062
:10138800030214F502143390009AE0FF6003B404DA
:1013980004D295C294EF64016004EFB40504C295C9
:1013A800D294EF64026004EFB40604D295D294EFAD
:1013B80064036008EF640760030214F50214A49044
:1013C800009AE0FF6003B40404D295C294EF64016C
:1013D8006004EFB40504C295D294EF64026004EF90
:1013E800B40604D295D294EF64036008EF640760F2
:1013F800030214F5806F90009AE0FF6003B40404C0
:10140800D295C294EF64016004EFB40504D295C28A
:1014180094EF64026004EFB40604D295C294EF64BA
:10142800036008EF640760030214F5C295C29422B2
:1014380090009AE0FF6003B40404D295C294EF646C
:10144800016004EFB40504D295D294EF64026004FD
:10145800EFB40604D295D294EF64036008EF6407F2
:1014680060030214F5D295D2942290009AE0FF60AE
:1014780003B40404D295C294EF64016004EFB40588
:1014880004D295D294EF64026004EFB40604D295B6
:10149800D294EF64036005EF64077051D295C2944B
:1014A8002290009AE0FF6003B40404D295C294EF3E
:1014B80064016004EFB40504C295D294EF6402603D
:1014C80004EFB40604C295D294EF64036005EF6498
:1014D80007701AC295D29422C297C296C295C29436
:0E14E800C29322D297D296D295D294D293225A
:0D14F600D292C291C2A3C2B490009CE0FF4C
:10150300EF14605D1470030215A21470030215E05A
:1015130014700302161A1470030216542405600390
:1015230002169190009AE0FF6003B40406C297C2CA
:1015330096C293EF64016004EFB40506D297D29686
:10154300D293EF64026004EFB40606C297D296C248
:1015530093EF64036046EF6407600302169102167B
:101563008B90009AE0FF6003B40406D297C296C240
:1015730093EF64016004EFB40506D297D296D29339
:10158300EF64026004EFB40606C297C296C293EFFB
:1015930064036008EF6407600302169102168B90E0
:1015A300009AE0FF6003B40406C297C296C293EFA9
:1015B30064016004EFB40506D297D296D293EF6428
:1015C300026004EFB40606D297C296C293EF640397
:1015D3006008EF6407600302169102168B90009A6D
:1015E300E0FF6003B40406C297C296D293EF64018E
:1015F3006004EFB40506D297D296D293EF640260EB
:1016030004EFB40606C297C296C293EF6403600563
:10161300EF64077079807190009AE0FF6003B4046F
:1016230006C297D296C293EF64016004EFB4050635
:10163300D297D296D293EF64026004EFB40606C247
:1016430097C296C293EF64036005EF6407703F800F
:101653003790009AE0FF6003B40406C297C296C2B3
:1016630093EF64016004EFB40506D297D296D29348
:10167300EF64026004EFB40606C297C296D293EFFA
:0F16830064036004EFB40706D297D296D2932285
:0C27FA00000000000000000000000000D3
:0423ED004100790032
:1026C400E4900077F0A3F0900073F0A3F0A3F0A3DC
:1026D400F090007204F0900071F090007004F02209
:100E1B0078067C007D017BFF7A2779FA7E007F0CB8
:100E2B001206669000121208F400000000900016E3
:100E3B001208F400000000900077E0FEA3E0FF90A2
:100E4B000075E0FCA3E0FDD39FEC9E500302123B28
:100E5B00ED9FFFEC9EFED3EF9464EE9400400302F3
:100E6B001231E4FCFD9000061208E8E490006EF0ED
:100E7B00900065E0FCA3E0FDA3E0FEA3E0FFA3125E
:100E8B0008E8900061E0FCA3E0FDA3E0FEA3E0FF17
:100E9B00A31208E8900006E0FCA3E0FDA3E0FEA38C
:100EAB00E0FF9000611208E8900065E0FCA3E0FD14
:100EBB00A3E0FEA3E0FF900061E0F8A3E0F9A3E05C
:100ECB00FAA3E0FBD31208D74033900065E0F8A3F8
:100EDB00E0F9A3E0FAA3E0FB900061E0FCA3E0FDE6
:100EEB00A3E0FEA3E09BFFEE9AFEED99FDEC98FCD0
:100EFB009000061208E8E490006DF08031900061DC
:100F0B00E0F8A3E0F9A3E0FAA3E0FBA3E0FCA3E085
:100F1B00FDA3E0FEA3E0C39BFFEE9AFEED99FDEC73
:100F2B0098FC9000061208E890006D7401F0E47FC5
:100F3B0002FEFDFC900065E0F8A3E0F9A3E0FAA344
:100F4B00E0FB12079690000E1208E8900069E0FC97
:100F5B00A3E0FDA3E0FEA3E0FF900061E0F8A3E0B7
:100F6B00F9A3E0FAA3E02FFFEA3EFEE93DFDE83CE2
:100F7B00FC90000EE0F8A3E0F9A3E0FAA3E0FBC3BA
:100F8B001208D7504B900069E0FCA3E0FDA3E0FEF4
:100F9B00A3E0FF900061E0F8A3E0F9A3E0FAA3E07F
:100FAB002FFFEA3EFEE93DFDE83CFC90000EE0F829
:100FBB00A3E0F9A3E0FAC3EF9BFFEE9AFEED99FDD8
:100FCB00EC98FC90000E1208E8E490006FF0805D46
:100FDB0090000EE0FCA3E0FDA3E0FEA3E0FFC00445
:100FEB00C005C006C007900069E0FCA3E0FDA3E0CC
:100FFB00FEA3E0FF900061E0F8A3E0F9A3E0FAA301
:10100B00E02FFBEA3EFAE93DF9E83CF8D007D006C1
:10101B00D005D004C3EF9BFFEE9AFEED99FDEC9843
:10102B00FC90000E1208E890006F7401F0900070B5
:10103B00E0FFE4FCFDFE900006E0F8A3E0F9A3E07E
:10104B00FAA3E0FB1207969000061208E8900071D5
:10105B00E0FFE4FCFDFE900061E0F8A3E0F9A3E003
:10106B00FAA3E0FB12079690000A1208E8900072B0
:10107B00E0FFE4FCFDFE90000EE0F8A3E0F9A3E036
:10108B00FAA3E0FB12079690000E1208E890006D91
:10109B00E0702D900012E0FCA3E0FDA3E0FEA3E0C6
:1010AB00FF900006E0F8A3E0F9A3E0FAA3E0FBEF62
:1010BB002BFFEE3AFEED39FDEC38FC900012802B45
:1010CB00900016E0FCA3E0FDA3E0FEA3E0FF900080
:1010DB0006E0F8A3E0F9A3E0FAA3E0FBEF2BFFEEA9
:1010EB003AFEED39FDEC38FC9000161208E8900042
:1010FB006EE0702E900012E0FCA3E0FDA3E0FEA3D7
:10110B00E0FF900006E0F8A3E0F9A3E0FAA3E0FB10
:10111B00EF2BFFEE3AFEED39FDEC38FC900012128E
:10112B0008E890006FE0702B900012E0FCA3E0FD4C
:10113B00A3E0FEA3E0FF90000EE0F8A3E0F9A3E02C
:10114B00FAA3E0FBEF2BFFEE3AFEED39FDEC38FC9A
:10115B00A3802B900016E0FCA3E0FDA3E0FEA3E030
:10116B00FF90000EE0F8A3E0F9A3E0FAA3E0FBEF99
:10117B002BFFEE3AFEED39FDEC38FC900016120811
:10118B00E8900012E0F8A3E0F9A3E0FAA3E0FB90EB
:10119B000073E0FEA3E0FFE4FCFDEB2FFFEA3EFE55
:1011AB00ED39FDEC38FC9000121208E8900016E0C7
:1011BB00FCA3E0FDA3E0FEA3E0FF900012E0F8A388
:1011CB00E0F9A3E0FAA3E0FBD31208D7406290004A
:1011DB0016E0F8A3E0F9A3E0FAA3E0FB900012E01D
:1011EB00FCA3E0FDA3E0FEA3E09BFFEE9AFEED99CE
:1011FB00FDEC98FC9000061208E8E47F64FEFDFC11
:10120B00900006E0F8A3E0F9A3E0FAA3E0FBC31219
:10121B0008D75012900006A3A3E0FFA3E090007341
:10122B00CFF0A3EFF022900073E4F0A37464F022EC
:07123B00E4900073F0A3F042
:011242002289
:10000E000203CFE86480F8E933E83360110460F04E
:10001E00ED33EC337009E8FCE9FDEAFEEBFF220458
:10002E0060DED3EB9FEA9EE99DE8C2E78CF0C2F753
:10003E0095F0400CE8CCF8E9CDF9EACEFAEBCFFB1F
:10004E0012039A85D0F05804700320D5B3E80470DB
:10005E00075002B2D50203D992D5EC0460F7E4CC76
:10006E00C0E0C398F8603B94186008400DD0E0FBE8
:10007E000203B1E4FBFAC9FC8028E830E406E4C9C7
:10008E00FBE4CAFCE830E305E4C9CACBFCE854073C
:10009E006010F8C3E913F9EA13FAEB13FBEC13FC47
:1000AE00D8F130F52FC3E49CFCEF9BFFEE9AFEEDEA
:1000BE0099FDD0E0FBEF4E4D4C701222DB03020394
:1000CE00D6EC2CFCEF33FFEE33FEED33FDED30E7D7
:1000DE00EB0203B1EF2BFFEE3AFEED39FDD0E0FB64
:1000EE0050130BBB00030203D9ED13FDEE13FEEF0D
:0800FE0013FFEC13FC0203B137
:10010600EC4D6011E8497017ED33EC3304600DE4F3
:10011600FCFFFEFD22E933E8330470F80203CF1238
:10012600039A58046009E4CC248150062850090239
:1001360003D92840030203D6C0E0EB4A7044B980D5
:1001460006D0E0FB0203C5EF4E701CBD8008EBFF36
:10015600EAFEE9FD80EBE98DF0A4FEE5F00201EF91
:10016600E9CDF9EAFEEBFFEF89F0A4FCE5F0CE89D4
:10017600F0A42EFFE435F0CD89F0A42DFEE435F091
:100186008067EF4E7005BD80D780C3EF8BF0A4ACBF
:10019600F0EE8BF0A42CFCE435F0F8EF8AF0A42CFA
:1001A600E5F038FCE433CB8DF0A42CFCE5F03BF80D
:1001B600EE8AF0A42CFCE5F038F8E433CF89F0A4FD
:1001C6002CFCE5F038CF3400CE89F0A42FFFE5F003
:1001D6003EFEE433C98DF0A42EFEE5F039CD8AF05B
:1001E600A42FFFE5F03EFEE43DFD33D0E0FB5007D3
:1001F6000BBB000F0203D9EC2CFCEF33FFEE33FEF2
:06020600ED33FD0203B11F
:10020C000203D9EC5D046005E8590470030203CFC6
:10021C0012039A580460F6EC4860F2EC7004FDFE90
:10022C00FF22C860DB2481C85009C39860025006C5
:10023C000203D69850CAF582E9294B4A7005AB8265
:10024C000203C575F0007C1A7880C3EF9BEE9AED23
:10025C0099400DC3EF9BFFEE9AFEED99FDE842F03D
:10026C00DC23ACF0D0E0FFD0E0FED0E0FDAB822090
:10027C00E7101BEB60BAEC2CFCEF33FFEE33FEED1A
:10028C0033FD0203B1E803F830E705C0F075F00068
:10029C00EF2FFFEE33FEED33FD40B830E7C280AAFE
:1002AC0074F8CC6480CCC86480C8F58204604FC3F9
:1002BC00EB9FF5F0EA9E42F0E99D42F0E89C45F098
:1002CC00603C501DE5825FFFE582D313CB5BCBF422
:1002DC002B5582FB50280ABA002409B9002008804B
:1002EC001DE5825BFBE582D313CF5FCFF4C3132FE5
:1002FC005582FF50090EBE00050DBD00010CC3EB6D
:10030C009FF5F0EA9E42F0E99D42F0E89C45F060D2
:09031C0007CC4820E701B3EC22F4
:1003250075F020800E75F010800575F0087D007E53
:10033500007F003392D530D5031208B3EC3340105B
:10034500EF33FFEE33FEED33FDEC33FCD5F0ED225C
:0E035500E5F0247EA2D513CC92E7CDCEFF2298
:10036300EDD2E7CD33EC3392D524814006E4FFFE92
:10037300FDFC22FCE4CFCECDCC24E0501174FF80F1
:10038300EDC3CC13CCCD13CDCE13CECF13CF04708E
:07039300F030D5DE0208B3D3
:10099800E50D2434F582E43400F583E0050D22905A
:1009A8000031301003900034E475F001120925027B
:1009B800068C2009E97F2ED2098018EF540F249065
:1009C800D43440D4FF300D0BEF24BFB41A005003C9
:1009D8002461FFE50E6002150E0511E51170020590
:1009E8001030100E900031E475F001120925EF0265
:1009F80006D202282E7403D2108003E4C210F50D2B
:100A080090003112093CE4F50EF510F511E50E6081
:100A1800077F201209DB80F5750FFFC20AC209C2E1
:100A28000BC20CC20EC20FC2111209A7FF700D3003
:100A380010057F001209ECAF11AE1022B4255FC279
:100A4800D5C20D1209A7FF24D0B40A00501A75F0B8
:100A58000A780E30D50508B6FF0106C6A426F6208A
:100A6800D5047002D20C80D924CFB41A00EF5004F8
:100A7800C2E5D20D020CDED20A80C6D20980C0D2ED
:100A88000B80BCD2D580BAD20E80B47F201209DB8D
:100A9800200B077401B50E0040F1120998FF1209E6
:100AA800DB020A15D211D20F8095120998FB1209A0
:100AB80098FA120998F94A4B700679DC7A0D7BFF8F
:100AC800200B2EE50E602A7E008E827583001206AA
:100AD800A560060EEE650F70F0C2D5EBC0E0EAC067
:100AE800E0E9C0E0EE120D3FD0E0F9D0E0FAD0E046
:100AF800FB12068CFF60AAEBC0E0EAC0E0E9C0E0A8
:100B08001209DBD0E02401F9D0E03400FAD0E0FB90
:100B1800E50F0460DCD50FD98087D20B80A2120DB7
:100B28002160F7E50F7001041203E4A90F600DE5D9
:100B38000F600914F50F120DC9EF60F3EA30E702F0
:100B4800F404C3995079EAF4250F0430E701E4046A
:100B5800F50F800D120D2160C1EA050F250F120354
:100B6800E4EA900060F030E701E4250F04D50F04B3
:100B7800200E0114120D3FE4C0E0120DC990006070
:100B8800E0601320E70714F01209C3802204F0D0B4
:100B9800E014C0E07F001209C3E50F60071209BA2C
:100BA800150F800B300E031209BAD0E0020A15D0D7
:100BB800E00480C4120D21609EE50F041203E49046
:100BC8000060EAF0E50F200E026001042404120D13
:010BD8003FDD
:100BD90074FF04C0E0120DC91209C3E50F200E020B
:100BE90060031209BAD0E0B50FE87F451209CD902C
:100BF9000060E07F2B30E7047F2DF404C0E0120988
:100C0900DBD0E075F00A84C0F01209C4D0E0120903
:100C1900C4020A15791080027908C20FC21180082E
:100C2900D2D5790A8004790AC2D5E50F047002F594
:100C39000FE4FAFDFEFF120998FC7B08200A131243
:100C49000998FD7B1030090A120998FE120998FFCC
:100C59007B20EC3382D592D55013C3E43009069F2B
:100C6900FFE49EFEE4200A039DFDE49CFCE4CBF82E
:100C7900C20AEC700CCFCECDCCE824F8F870F38022
:100C890017C3EF33FFEE33FEED33FDEC33FCEB33EB
:100C9900FB994002FB0FD8E9EB300A05F8D0E0C414
:100CA90048B20AC0E00AEC4D4E4F78207B0070C272
:100CB900EAB50F0040BCC0E0120D41D0F0D0E020F1
:100CC9000A04C4C0E0C4B20AC0F01209C4D0F0D505
:100CD900F0EB020A151209450AB2530C1D580A8392
:100CE9004C0A7F420C214F0C29440C29490A98438C
:100CF9000C2F550B5C460BBC450B26470DFC500AC7
:100D0900872D0A8B2E0AAE2B0A8F230AAC200DE5FC
:100D19002A0A474800000AA6E50FB4FF03750F0623
:100D2900120998FC120998FD120998FE120998FFF8
:100D3900900059020421790AA2D5200C14300E0919
:100D4900B910020404B9080104A2D5200F02500108
:100D590004200B68920BB50E005034C0E07F2030A0
:100D69000C197F30A20B720F720E500F120D98C220
:100D79000BC20FC20EC2117F30800F300E03E9C0C3
:100D8900E01209DB300E03D0E0F9D0E0B50ECC302B
:100D99000E177F30B9100C1209DB7F58300D077F11
:100DA900788003B908031209DB300B057F2D02098E
:100DB900DB7F202011F87F2B200FF322920B80CFAD
:100DC9007F00B40700500B2459F582E43400F58301
:100DD900E0FF22286E756C6C2900D20A120998303E
:100DE9000AF8C20A780E30D50108F6020A472D50D2
:100DF9004349581209982403B405004001E4900DB1
:100E0900F7931209CC743A1209CCD20C750E04026C
:020E19000C1DAE
:10039A00E9D2E7C933E833F892D5EDD2E7CD33ECA9
:0703AA0033FC5002B2D52222
:1003B100EC30E7100FBF000C0EBE00080DBD0004AD
:1003C1000BEB6014A2D5EB13FCED92E7FD2274FF59
:1003D100FCFDFEFF22E480F8A2D574FF13FC7D80B2
:0303E100E480EFC6
:1003E400F920E73624F950037907E4F42402FBE505
:1003F40082158270021583DBF6E024FB501BE96052
:1004040014E4F0E582158270021583E004F0B40A66
:0D04140008E4F0D9EE7401F00A22C2D522EE
:10042100ED33EC3392D5FA602AB4FF33EDC2E77BAA
:10043100FF60067A047946E4227A04794F20D504D4
:100441007A04794A224E614E002B494E46002D49CD
:100451004E4600E47A08F0A3DAFC7B00740722C060
:1004610083C082ECC0E0EDC0E0EEC0E0EFC0E0EAA6
:1004710075F010A4CAABF075F04DA42BFBE435F078
:10048100FCEA2410FAEB34C5FBEC34D9FCEDC2E7ED
:10049100FF75F056A4F42411C5F0F434C58FF0A40F
:1004A1002AE5F03BE43CF020E714120556D0E0FFCA
:1004B100D0E0FED0E0FDD0E0FC12020F8014F40485
:1004C100120556D0E0FFD0E0FED0E0FDD0E0FC12F6
:1004D1000106D082D083E0FAEDD2E7CD33EC3324AC
:1004E10082FBE4C3CF33CFCE33CECD33CD33DBF379
:1004F1007B0775F00A846004F0A31B0AE5F0F0A302
:100501008FF0740AA4FFACF08EF0740AA42CFEAC38
:10051100F050010C8DF0740AA42CFDE435F0F0A329
:05052100DBDE7407227F
:100526003F8000004120000042C80000447A0000DD
:10053600461C400047C35000497424004B1896805F
:100546004CBEBC205A0E1BCA6753C21C749DC5AE56
:10055600FB60065407601C2323120584EB543860A5
:100566000912057012057F120106ECF8EDF9EEFA94
:10057600EFCB22EB12057F80F1543803241C900543
:1005860026FE93FC0EEE93FD0EEE930ECE93FF2207
:10227000021F07E493A3F8E493A34003F68001F25E
:1022800008DFF48029E493A3F85407240CC8C3336F
:10229000C4540F4420C8834004F456800146F6DF3E
:1022A000E4800B010204081020408090237CE47E2F
:1022B000019360BCA3FF543F30E509541FFEE49333
:1022C000A360010ECF54C025E060A840B8E493A3FA
:1022D000FAE493A3F8E493A3C8C582C8CAC583CA25
:1022E000F0A3C8C582C8CAC583CADFE9DEE780BEDD
:0123F10000EB
:10059600E709F608DFFA8046E709F208DFFA803E47
:1005A60088828C83E709F0A3DFFA8032E309F60834
:1005B600DFFA8078E309F208DFFA807088828C839C
:1005C600E309F0A3DFFA806489828A83E0A3F60850
:1005D600DFFA805889828A83E0A3F208DFFA804C2A
:1005E60080D280FA80C680D4806980F28033801001
:1005F60080A680EA809A80A880DA80E280CA80336A
:1006060089828A83ECFAE493A3C8C582C8CCC583E1
:10061600CCF0A3C8C582C8CCC583CCDFE9DEE780B1
:100626000D89828A83E493A3F608DFF9ECFAA9F030
:10063600EDFB2289828A83ECFAE0A3C8C582C8CC86
:10064600C583CCF0A3C8C582C8CCC583CCDFEADE9F
:10065600E880DB89828A83E493A3F208DFF980CC01
:1006660088F0EF60010E4E60C388F0ED2402B404FA
:100676000050B9F582EB2402B4040050AF232345A1
:0606860082239005E673DB
:10068C00BB010689828A83E0225002E722BBFE026C
:09069C00E32289828A83E493229F
:1006A500BB010CE58229F582E5833AF583E022500A
:1006B50006E92582F8E622BBFE06E92582F8E22254
:0D06C500E58229F582E5833AF583E493226E
:1006D200BB010689828A83F0225002F722BBFE0107
:0206E200F32201
:1006E400EF8DF0A4A8F0CF8CF0A428CE8DF0A42E2A
:0206F400FE22E4
:1006F600BC000BBE0029EF8DF084FFADF022E4CCE8
:10070600F875F008EF2FFFEE33FEEC33FCEE9DECB0
:10071600984005FCEE9DFE0FD5F0E9E4CEFD22EDF6
:10072600F8F5F0EE8420D21CFEADF075F008EF2F40
:10073600FFED33FD4007985006D5F0F222C398FD31
:050746000FD5F0EA22CE
:10074B00C5F0F8A3E028F0C5F0F8E5821582700239
:06075B001583E038F022D6
:10076100A3F8E0C5F025F0F0E5821582700215834B
:06077100E0C838F0E822A8
:10077700BB010A89828A83F0E5F0A3F0225006F7CD
:0F07870009A7F01922BBFE06F3E5F009F31922CA
:10079600E88FF0A4CC8BF0A42CFCE98EF0A42CFC02
:1007A6008AF0EDA42CFCEA8EF0A4CDA8F08BF0A480
:1007B6002DCC3825F0FDE98FF0A42CCD35F0FCEBDF
:1007C6008EF0A4FEA9F0EB8FF0A4CFC5F02ECD39A4
:0F07D600FEE43CFCEAA42DCE35F0FDE43CFC2211
:1007E50075F008758200EF2FFFEE33FECD33CDCCCB
:1007F50033CCC58233C5829BED9AEC99E58298404E
:100805000CF582EE9BFEED9AFDEC99FC0FD5F0D62A
:10081500E4CEFBE4CDFAE4CCF9A88222B800C1B954
:100825000059BA002DEC8BF084CFCECDFCE5F0CB92
:10083500F97818EF2FFFEE33FEED33FDEC33FCEBCB
:1008450033FB10D703994004EB99FB0FD8E5E4F986
:10085500FA227818EF2FFFEE33FEED33FDEC33FC73
:10086500C933C910D7059BE99A4007EC9BFCE99A67
:10087500F90FD8E0E4C9FAE4CCFB2275F010EF2FAC
:10088500FFEE33FEED33FDCC33CCC833C810D707AC
:100895009BEC9AE899400AED9BFDEC9AFCE899F8E7
:0E08A5000FD5F0DAE4CDFBE4CCFAE4C8F9227A
:0E08B300C3E49FFFE49EFEE49DFDE49CFC2256
:1008C100EB9FF5F0EA9E42F0E99D42F0EC6480C8AE
:0608D10064809845F0224E
:1008D700EB9FF5F0EA9E42F0E99D42F0E89C45F077
:0108E70022EE
:0C08E800ECF0A3EDF0A3EEF0A3EFF02283
:1008F400A8828583F0D083D08212090B12090B12CF
:10090400090B12090BE473E493A3C583C5F0C583F3
:10091400C8C582C8F0A3C583C5F0C583C8C582C84D
:0109240022B0
:10092500F8E0FBA3A3E0F925F0F0E582158270025B
:070935001583E0FA38F022FF
:09093C00EBF0A3EAF0A3E9F022BC
:10094500D083D082F8E4937012740193700DA3A341
:1009550093F8740193F5828883E473740293686055
:06096500EFA3A3A380DF55
:10096B00EC8EF0A4CCC5F0CCCDF8EFA4CEC5F02D19
:10097B00FDE43CFCE8A42EC8C5F03DFDE43CFCEFD7
:0D098B00A4FFE5F028FEE43DFDE43CFC2265
:00000001FF
