:030000000224FBDC
:0C24FB00787FE4F6D8FD758122022542AE
:10218000206B65795F7363616E0D0A00204B4559C2
:102190005F325F505245530D0A002564200D0A003E
:1021A0000D0A3D3D3D3D3D3D3D3D3D3D3D3D3D3DC2
:1021B0003D3D3D3D3D3D3D3D3D3D3D3D3D3D3D3D4F
:1021C0003D3D3D3D0D0A00736B753A4B2564200D76
:1021D0000A00736F66742076657273696F6E3A25B4
:1021E00073200D0A00312E30312E303000676170BF
:1021F000202564200D0A0074696D65722025642015
:102200000D0A00496E7075745F566F6C7461676576
:102210005F737464203D2025640D0A003D3D3D3D03
:102220003D3D3D3D3D3D3D3D3D3D3D3D3D3D3D3DDE
:102230003D3D3D3D3D3D3D3D3D3D3D3D3D3D0D0A31
:01224000009D
:0D20B0004200D400004100D7004100D600DE
:101E0500E4900000F09000D6E0700A12269290004F
:101E150000EFF08005E4900000F0900000E0640120
:101E250070379000CDE070317BFF7A2179801209FF
:101E3500C6122C49EF70087F01122C4FC2B522E45F
:101E4500FF122C4F1225879000B8E0FF1227EE12E3
:101E550026139000D77401F022122C49EF6003027B
:101E65001EEF900000E0640270387BFF7A21798CC8
:101E75001209C69000B8E0C394065005E004F0804E
:101E8500069000B87401F09000D77401F09000B886
:101E9500E0FF1227EE1226139000B8E0FF122C6720
:101EA5008045900000E0640370409000B9E0C39461
:101EB500055005E004F08005E49000B9F09000B805
:101EC500E0D394014016A3E0FF70059000B68009A9
:101ED500EFD3940340069000A57402F09000B9E09A
:0A1EE500FF122C61122587122A4318
:011EEF0022D0
:08224100900006EEF0A3EFF09F
:10224900900086E06402706A9000CDE064017062DB
:10225900900006A3E0FFE4900086F09000BC04F033
:10226900900067E0FED3940F4048EED39F400CE006
:102279009F9000BAF0A37401F08016900067E0FE09
:10228900C3EF9EFF9000BAF0122C0C9000BB7402B1
:10229900F09000BAE0FFC394024006EFD3941440D3
:1022A90007E49000BAF0A3F0122A437D027F0212DC
:1022B9002B169000BBE0FDB401149000BAE0FF7E3C
:1022C90000900006EE8FF012070EAFF0FE22EDB47B
:1022D90002189000BAE0FFC3900007E09FFF90004A
:1022E90006E09400FEF0A3EFF022900006E0FEA3C2
:0222F900E0FF04
:0122FB0022C0
:0C169C00900006ECF0A3EDF0AB07AA06EE
:1016A800E4A3F0A3F0A3F0A37428F0A31208B700F2
:1016B8000000009000101208B700000000C3EB946F
:1016C8005AEA94005003021760AE02AF03AD07ACAC
:1016D80006E4120342E4FBFA797A7844120227906E
:1016E800000C1208AB900006E0FCA3E0FDE4120336
:1016F80042E4FBFA797A7844120227900010120823
:10170800AB90000CE0F8A3E0F9A3E0FAA3E0FBA398
:10171800E0FCA3E0FDA3E0FEA3E0FF120029900097
:101728000CE0F8A3E0F9A3E0FAA3E0FB1202277BA0
:10173800007A80793B784412011E90000C1208ABA5
:10174800E4FFFEFDFC90000CE0F8A3E0F9A3E0FA4A
:10175800A3E0FB1202C450057E007FFF227F147EA7
:10176800AE7DC37C4290000CE0F8A3E0F9A3E0FA58
:10177800A3E0FB1202C4603F403D7F147EAE7DC3F0
:101788007CC290000CE0F8A3E0F9A3E0FAA3E0FB28
:1017980012002D7BCD7ACC79CC783E120227120329
:1017A8007B900008EEF0A3EFF090000BE02FF09094
:1017B800000AE03EF0803C90000CE0F8A3E0F9A3BA
:1017C800E0FAA3E0FB7F147EAE7DC37C42120029C1
:1017D8007BCD7ACC79CC783E12022712037B90001D
:1017E80008EEF0A3EFF0C390000BE09FF090000A22
:1017F800E09EF09000B8E0B4030E90000BE024FBEC
:10180800F090000AE034FFF090000AE0FEA3E0FF49
:0118180022AD
:101A9400E4900000F0A3F0A3F0A3F0A3F0A3F0906F
:101AA40000D5E004F070069000D4E004F09000D477
:101AB400E0FEA3E0FFE4FCFD7B507AC3F9F8D31207
:101AC40008844003021BC9E49000D4F0A3F07B0116
:101AD40090000904F0A37400F0A37404F07A007970
:101AE40002121BCA900002E0FEA3E0FFA3E0FCA3E5
:101AF400E0FD12169C900000EEF0A3EFF0122241DC
:101B0400900000EEF0A3EFF07BFF7A21799A900029
:101B140039EEF0A3EFF01209C6D3900003E0945A13
:101B2400900002E094005003021BB6122C49EF709F
:101B340060FF122C5B9000D7E0B40121E4F0D39055
:101B44000001E0944B900000E094004006E4900013
:101B5400AB80059000AB7401F09000AAF0900000F7
:101B6400E0FEA3E0FF7C007D0A1206FC90009DEEDF
:101B7400F0A3EFF0120DDE9000B9E0FF122C61909B
:101B840000B8E0FF122C679000B8E0FF122905802E
:101B94001B9000CDE0B4010AC2B5122C37122A8F73
:101BA400800A7F01122C5BC2B5122C37E49000D658
:101BB400F022E49000CDF07FFF122C5B122A699092
:051BC40000D67401F0E1
:011BC90022F9
:101FD100122C241229F2122AF7D2AF12000E122B60
:101FE100E212195B122AD7122C2E7F02122BFF123A
:101FF10029C8122C407FB07E04122B897F06122C37
:10200100617F07122C677F587E02122B89122C37B1
:10201100122B357BFF7A2179A01209C67BFF7A2129
:1020210079C7900039741FF0A374A9F01209C69002
:10203100003974FFF0A37421F0A374E5F07BFF7AFB
:102041002179D21209C67BFF7A2179ED9000B8E09F
:10205100FF900039E4F0A3EFF01209C67BFF7A216B
:1020610079F79000B9E0FF900039E4F0A3EFF012A6
:1020710009C67BFF7A2279039000C1E0FFA3E090BB
:102081000039CFF0A3EFF01209C67BFF7A22791C49
:102091001209C6121A94121E059000D6E0700B9018
:0F20A10000A0E0FEA3E0FF122710122C6D80E4D8
:0A2C2400758E5190FE917401F022AC
:102613009000B8E014B40900507490262B75F003B1
:10262300A4C58325F0C583730226460226510226DC
:102633005C02266702267C02267202267C02267C26
:1026430002268790009B7401F0A374C2F0229000CD
:102653009B7401F0A374F4F02290009B7402F0A326
:102663007412F02290009B7402F0A37494F02290F1
:10267300009B7403F0A314F02290009B7402F0A358
:0F26830074C6F02290009B7402F0A374F8F0224A
:102B3500E4FFFE12246AD3EF9440EE94069000C1A0
:0D2B4500E44006F0A37402F022F0A304F0B7
:012B52002260
:0E2BF100EF1F70011E144E6004000080F322DE
:102B89007D407C03ED1D70011C144C70F7EF1F7024
:062B9900011E144E70EA5B
:012B9F002213
:102AF70090FF037401F090FF07F090FF02F075B4A8
:0F2B0700817F507E00122BF190FE9B7449F022CB
:102BA000E4FFFE75B50743B440E5B430E5FB53B42C
:052BB000DFAEB7AFB677
:012BB50022FD
:102BB600E4FFFE75B50343B440E5B430E5FB53B41A
:052BC600DFAEB7AFB661
:012BCB0022E7
:102BCC00E4FFFE75B50243B440E5B430E5FB53B405
:052BDC00DFAEB7AFB64B
:012BE10022D1
:0B1BCA00900006EBF0A3EAF0A3E9F0A6
:101BD50090000C1208B700000000E4900010F0F02F
:101BE50090000CE0F8A3E0F9A3E0FAA3E0FB122BC8
:101BF500B6E4FCFDEB2FFFEA3EFEED39FDEC38FCCB
:101C050090000C1208AB900010E004F0E0C39405BE
:101C150040CE90000CE0FCA3E0FDA3E0FEA3E0FFB6
:101C2500E47B05FAF9F81207E490000C1208ABE41E
:101C35007FA07E0FFDFC90000CE0F8A3E0F9A3E087
:101C4500FAA3E0FB120759E47BFF7A0FF9F81207B4
:101C5500E4900006E0FBA3E0FAA3E0F9EE8FF012B2
:101C6500073A7F147E00122BF190000C1208B70082
:101C7500000000E4900010F090000CE0F8A3E0F9FB
:101C8500A3E0FAA3E0FB122BA0E4FCFDEB2FFFEA97
:101C95003EFEED39FDEC38FC90000C1208AB9000CF
:101CA50010E004F0E0C3940540CE90000CE0FCA3E6
:101CB500E0FDA3E0FEA3E0FFE47B05FAF9F81207D7
:101CC500E490000C1208ABE47FA07E0FFDFC9000B1
:101CD5000CE0F8A3E0F9A3E0FAA3E0FB120759E44E
:101CE5007BFF7A0FF9F81207E4900009E0FBA3E007
:0A1CF500FAA3E0F9EE8FF002073ABF
:10246A009000001208B700000000E4900004F0F0A9
:10247A00900000E0F8A3E0F9A3E0FAA3E0FB122B36
:10248A00CCE4FCFDEB2FFFEA3EFEED39FDEC38FC17
:10249A009000001208AB900004E004F0E0C3940539
:1024AA0040CE900000E0FCA3E0FDA3E0FEA3E0FF25
:1024BA00E47B05FAF9F81207E49000001208ABE48D
:1024CA007FA07E0FFDFC900000E0F8A3E0F9A3E0F6
:1024DA00FAA3E0FB120759E4FB7A10F9F81207E4B1
:1024EA009000001208AB900000A3A3E0FEA3E0FF57
:0124FA0022BF
:101CFF000D0A3D3D3D3D3D3D3D3D3D3D3D3D3D3D68
:101D0F003D3D3D3D3D3D3D3D3D3D3D3D3D3D3D3DF4
:101D1F003D3D3D3D3D3D3D3D3D3D0D0A00706F77E5
:101D2F006572206F6E20666C617368206761703A10
:101D3F002564202074696D65723A2564200D0A00B0
:101D4F00706F776572206F6E20666C617368207696
:101D5F00616C75653A256420207369676E3A256456
:101D6F00200D0A003D3D3D3D3D3D3D3D3D3D3D3D51
:101D7F003D3D3D3D3D3D3D3D3D3D3D3D3D3D3D3D84
:101D8F003D3D3D3D3D3D3D3D3D3D3D3D0D0A003D14
:101D9F003D3D3D3D3D3D3D3D3D3D3D3D66697273A4
:101DAF007420696E697420646174613D3D3D3D3DF1
:101DBF003D3D3D3D3D3D200D0A00307825303458E6
:101DCF002020307825303458202030782530345872
:101DDF002020307825303458200D0A00666C61734E
:101DEF0068206761703A2564202074696D65723AC6
:061DFF002564200D0A001E
:1020BD004500B800000000004400BD20200501418E
:0820CD0000C3014200C1000044
:062C49009000C3E0FF2231
:062C4F009000C3EFF0222B
:102AB500D310AF01C3C0D075FDF075FC0F8EFA8F32
:102AC500F975FDD275FC2D75FDE175FC1ED0D09212
:022AD500AF222E
:102A1B00D310AF01C3C0D08FFB75FDF075FC0FAEAB
:102A2B0004AF058EFA8FF975FDB475FC4B75FDE19E
:082A3B0075FC1ED0D092AF2201
:0C2781007B017A0079B87D057F047E3C66
:10278D00D310AF01C3C0D0900008EEF0A3EFF0A3BB
:0B279D00EDF0A3EBF0A3EAF0A3E9F0DD
:1027A800E4A3F0C2AFF090000AE0FF90000EE0C38F
:1027B8009F502C90000BE0FBA3E475F00112072456
:1027C800A9F0FA1206A4FF900008E475F0011207B8
:1027D80024ADF0FC122A1B90000EE004F080C7D252
:0127E800AF41
:0527E900D0D092AF22E8
:040003008F828E83D7
:03000700E493FF80
:01000A0022D3
:10289200900008EEF0A3EFF0A3EBF0A3EAF0A3E9B7
:1028A200F0AF051DEF6028900008E475F0011207F3
:1028B2002485F082F583E493FF90000AE0FBA3E411
:1028C20075F001120724A9F0FAEF1206EA80D2226B
:1028D200E4FDFCED2400FFE4343CFE12000374BD71
:1028E2002DF582E43400F583E0B507030C80037F05
:1028F20000220DEDB404DCECC3940440037F0122FA
:022902007F0054
:0129040022B0
:10195B00E4900000F090FE927404F01228D2EF7025
:10196B000790000004F0807C7BFF7A1C79FF120942
:10197B00C67B017A0079B87D057F047E3C122892E4
:10198B007BFF7A1D792C9000B8E0FF900039E4F0D2
:10199B00A3EFF09000B9E0FF90003BE4F0A3EFF071
:1019AB001209C67BFF7A1D794F9000BAE0FF9000B9
:1019BB0039E4F0A3EFF09000BBE0FF90003BE4F0C4
:1019CB00A3EFF01209C67BFF7A1D79731209C6903B
:1019DB0000B8E0D394065006A3E0940540069000AF
:1019EB00007401F0900000E06401707A7BFF7A1DB7
:1019FB00799E1209C69000B87401F0A3F07F007EA7
:101A0B003C122AB5FB7A0079BD7D0412278D122773
:101A1B00817B017A0079BD7D047F007E3C12289288
:101A2B007BFF7A1D79C99000BDE0FF900039E4F08F
:101A3B00A3EFF09000BEE0FF90003BE4F0A3EFF0CB
:101A4B009000BFE0FF90003DE4F0A3EFF09000C0EA
:101A5B00E0FF90003FE4F0A3EFF01209C67BFF7AA2
:101A6B001D79731209C67BFF7A1D79EB9000B8E0E4
:101A7B00FF900039E4F0A3EFF09000B9E0FF900085
:091A8B003BE4F0A3EFF00209C6F0
:102A43007F047E3C122AB57B017A0079BD7D047F29
:102A53000012278D1227817B017A0079B87D057FCB
:062A6300047E3C022892F3
:1020D5005E00680000000000000000000000000035
:1020E50000000000000000000000000000000000EB
:0920F50000410086004100670073
:1029F20090FF1674C1F090FF157460F090FFA07400
:102A020026F090FFA114F075CEFF75CD9875CC0617
:092A1200759E02759810D2AC22E9
:0C2C0C00C2AC8F993099FDC299D2AC2265
:032C7100022C0C26
:0B299B0090000DEBF0A3EAF0A3E9F0C0
:1029A600E4FEEEC39D501A90000DE0FBA3E0FAA3EF
:1029B600E0F98E827583001206BDFF122C710E801F
:0129C600E12F
:0129C70022ED
:102B16009000087455F0A3EFF0A3EDF0A3740DF048
:0F2B2600A3740AF07B017A0079087D0502299BD0
:062C5500AE07122C0C2258
:030023000228456B
:0D284500C0E0C083C082C0D075D000C007C5
:10285200E59830E030AF995398FE900086E014601E
:1028620019047021EFB4551D900068F0900066E0E5
:1028720004F09000867401F0800B900067EFF090F6
:0528820000867402F065
:0B288700D007D0D0D082D083D0E03248
:1020FE004100CD004100C4004200C500004100C7B0
:0F210E00004200C800004100CA014200CB00009F
:0F2BE20090FF177460F090FF00F090FF01F02259
:1022FC00E4900002F0A28133900001F09000C4E061
:10230C0014602614604E14700302239F2403600390
:10231C000223A8900001E060030223AD9000C5F0F9
:10232C00A3F09000C404F08078900001E0706B90F2
:10233C0000C6E004F070069000C5E004F0C3900005
:10234C00C6E094039000C5E09400403E9000C47435
:10235C0002F08036900001E0B40106A37404F08012
:10236C003B9000C6E004F070069000C5E004F0C39A
:10237C009000C6E094969000C5E09400400C90004C
:10238C00027405F09000C47403F07F0A7E00122BD7
:10239C0089800E900001E0B401078000E49000C435
:0623AC00F0900002E0FFCA
:0123B2002208
:1023B300E4900002F0A28033900001F09000C7E0A7
:1023C30014602614604E1470030224562403600321
:1023D30002245F900001E060030224649000C8F0CF
:1023E300A3F09000C704F08078900001E0706B9038
:1023F30000C9E004F070069000C8E004F0C3900048
:10240300C9E094039000C8E09400403E9000C77474
:1024130002F08036900001E0B40106A37404F0805A
:102423003B9000C9E004F070069000C8E004F0C3DC
:102433009000C9E094909000C8E09401400C900093
:10244300027406F09000C77403F07F0A7E00122B1B
:1024530089800E900001E0B401078000E49000C77A
:06246300F0900002E0FF12
:012469002250
:102692001222FCBF05037F01221223B3BF062112BF
:1026A2002C49BF01149000BCE0700E9000CD04F0E4
:1026B2009000BCF0122A43803CE49000CDF08035BB
:1026C2009000CAE0602330A70320801D9000CDE077
:1026D20070177F32FE122B89E49000CAF020A70304
:1026E2007F022220800F7F032230A70930800690CC
:1026F20000CA7401F0308113D39000CCE0940190B1
:0D27020000CBE094004004E4F0A3F07F0061
:01270F0022A7
:04211D004100D800A5
:102B71007E009000D8E0FD7C0012092EE47B64FA0F
:072B8100F9F81207E48FDFF1
:012B8800222A
:092C2E0090FF1D74C0F0C2B52234
:0D2BFF0075BD17EF75F02BA490FEA0F0221D
:042C6D0043BD102231
:102938007365742074696D65207365636F6E643A9E
:1029480025640D0A0074696D65207365636F6E6494
:102958003A2564200D0A0074696D65206F6666204B
:032968000D0A0055
:102121004200B000004200AE00004200B400004195
:1021310000A4004100A5004100B6004100B70041E4
:1021410000AB004200A600004200AC00004200A823
:1021510000004100AA004200B200004200A00000BD
:052161004200A2000095
:10271000900000EEF0A3EFF0122C49EF70629000F1
:10272000C1E0FCA3E0FD64014C700F900001E025C6
:10273000E0F0900000E033F08011ED64024C700B8B
:10274000900000E0C313F0A3E013F09000B3E004A6
:10275000F070069000B2E004F09000B2E0FEA3E05A
:10276000FFD3900001E09F900000E09E4004D2B5AE
:102770008002C2B5EF64C84E70069000B2F0A3F0BC
:012780002236
:102905009000AAE0B4010A9000A0E4F0A37464F07A
:1029150022EF24FE600D14600A24FC500624067084
:10292500118000900099E0FFA3E09000A0CFF0A3F4
:03293500EFF0229E
:102B53009000AEEEF0A3EFF0E4A3F0A3F07BFF7AD6
:0E2B6300297938900039EEF0A3EFF00209C690
:1027EE00EFB40A0050509027FBF8282873022819DE
:1027FE0002282302282E02283002283B02283B0200
:10280E00283B02283B02283B02283B9000A2E4F022
:10281E00A3741EF0229000A27401F0A3740EF02295
:10282E0080009000A27401F0A3744AF0229000A2DE
:07283E00E4F0A374F0F022A6
:10296B009000ABE0B401289000A6E475F0011207CB
:10297B000EFEC39000A3E095F09000A2E09E500FD6
:10298B00E49000ABF09000A6F0A3F09000AAF02228
:10258700E49000B0F0A3F09000B9E0FF700890006D
:10259700AEF0A3F08052EFB4010C9000AE7407F0D8
:1025A700A304F0E48042EFB4020D9000AE740EF085
:1025B700A37410F0E48031EFB4030D9000AE741CE7
:1025C700F0A37420F0E48020EFB4040D9000AE7403
:1025D70038F0A37440F0E4800FEFB405179000AE15
:1025E7007470F0A37480F0E49000B4F0A3F090004E
:1025F700ACF0A3F07BFF7A29794D9000AEE0FFA302
:0C260700E0900039CFF0A3EFF00209C60C
:10000E00E490FE80F0F589758CF5758A9643A8020A
:04001E0043881022E1
:03000B00021819BF
:10181900C0E0C0F0C083C082C0D075D000C000C095
:1018290001C002C003C004C005C006C007122C498C
:10183900EF60030219169000B1E004F07006900001
:10184900B0E004F0C39000B1E094F49000B0E094EB
:1018590001500302193D12296B9000B6E0B4022D24
:101869009000B5E004F070069000B4E004F0D39065
:1018790000B5E094409000B4E0943840109000B670
:10188900E4F09000B4F0A3F09000A404F0D3900029
:10189900AFE094009000AEE094004042A3E024FF42
:1018A900F09000AEE034FFF09000A5E064027057BC
:1018B9009000B5E004F070069000B4E004F0D39015
:1018C90000B5E094409000B4E09438403A9000A408
:1018D9007401F0A3E4F09000B4F0A3F08029900023
:1018E900B9E060237F01122C4F9000AEE4F0A3F021
:1018F9009000B4F0A3F09000A5F09000B6F07BFF43
:101909007A29795F1209C69000B0E480249000CD4D
:10191900E0B401209000A8E475F00112070EFED38F
:10192900E5F09460EE94EA400B9000CDE4F090006D
:10193900A8F0A3F0121EF0D007D006D005D004D02D
:1019490003D002D001D000D0D0D082D083D0F0D043
:02195900E0327A
:102166004200D200004100D1004100D0004100CE23
:05217600004100CF0054
:1029C80043D1E890FF62E04406F090FF61E04408DC
:1029D800F090FF60E04410F090FF6AE044F8F0C225
:0A29E80097C296C295C294C29322D2
:062C5B009000D0EFF02212
:092C37009000D274CEF0A3F0224B
:102A69009000CEE0FF700F9000D274CEF0A3F090EA
:102A790000CE7401F022EFB4010B9000D274FFF084
:052A8900E49000CEF016
:012A8E002225
:102A8F009000CFE0FF700F9000D274CEF0A3F090C3
:102A9F0000CF7401F022EFB4010B9000D2741EF03E
:052AAF00E49000CFF0EF
:012AB40022FF
:062C61009000D3EFF02209
:062C67009000D2EFF02204
:092C40009000D274CCF0A3F02244
:101EF0009000D0E0FF600EF4600B9000CDE0640134
:101F00006003021FC643D1E89000D1E0B40800404E
:101F100003021FC0901F1BF8282873021F33021FE3
:101F200043021F54021F67021F7C021F8C021F9D69
:101F3000021FB053D1EF1214B91212069000D174DF
:101F400001F022C292D2911214BD1212069000D159
:101F50007402F022C292C291D2A31214BF121206CE
:101F60009000D17403F022C292C291C2A3D2B412E3
:101F700014C11212069000D17404F02243D1101241
:101F800014B91212069000D17405F022C292D291B7
:101F90001214BD1212069000D17406F022C292C231
:101FA00091D2A31214BF1212069000D17407F0222E
:101FB000C292C291C2A3D2B41214C11212068000FE
:101FC000E49000D1F0229000D0E0B4010375D16814
:011FD00022EE
:051206009000D2E0FFA2
:10120B00EF12090812720112AA0212E203131A0456
:10121B00135205138A0613C10713FB081435091261
:10122B003A1E14AECC14A3CE146CFF000014B8906D
:10123B0000D1E0FF6003B40404C295C294EF6401D3
:10124B006004EFB40504D295D294EF64026004EF0E
:10125B00B40604D295D294EF64036008EF64076080
:10126B00030214B802149E9000D1E0FF6003B40493
:10127B0004C295C294EF64016004EFB40504D295E7
:10128B00C294EF64026004EFB40604D295C294EFEB
:10129B0064036008EF640760030214B80213F6904E
:1012AB0000D1E0FF6003B40404D295C294EF640153
:1012BB006004EFB40504D295C294EF64026004EFAE
:1012CB00B40604C295D294EF64036008EF64076020
:1012DB00030214B80214309000D1E0FF6003B40491
:1012EB0004D295C294EF64016004EFB40504D29567
:1012FB00C294EF64026004EFB40604D295D294EF6B
:10130B0064036008EF640760030214B8021467906B
:10131B0000D1E0FF6003B40404C295C294EF6401F2
:10132B006004EFB40504D295D294EF64026004EF2D
:10133B00B40604D295D294EF64036008EF6407609F
:10134B00030214B80213F69000D1E0FF6003B4045B
:10135B0004D295C294EF64016004EFB40504C29506
:10136B00D294EF64026004EFB40604D295D294EFEA
:10137B0064036008EF640760030214B802146790FB
:10138B0000D1E0FF6003B40404D295C294EF640172
:10139B006004EFB40504C295D294EF64026004EFCD
:1013AB00B40604D295D294EF64036008EF6407602F
:1013BB00030214B8806F9000D1E0FF6003B4040403
:1013CB00D295C294EF64016004EFB40504D295C2C8
:1013DB0094EF64026004EFB40604D295C294EF64F8
:1013EB00036008EF640760030214B8C295C294222D
:1013FB009000D1E0FF6003B40404D295C294EF6473
:10140B00016004EFB40504D295D294EF640260043A
:10141B00EFB40604D295D294EF64036008EF64072F
:10142B0060030214B8D295D294229000D1E0FF60F1
:10143B0003B40404D295C294EF64016004EFB405C5
:10144B0004D295D294EF64026004EFB40604D295F3
:10145B00D294EF64036005EF64077051D295C29488
:10146B00229000D1E0FF6003B40404D295C294EF44
:10147B0064016004EFB40504C295D294EF6402607A
:10148B0004EFB40604C295D294EF64036005EF64D5
:10149B0007701AC295D29422C297C296C295C29473
:0E14AB00C29322D297D296D295D294D2932297
:0D14B900D292C291C2A3C2B49000D3E0FF52
:1014C600EFB40700400302169B9014D6F828287341
:1014D6000214EB0215290215670215A50215E20290
:1014E600161F02165E9000D1E0FF6003B40406C228
:1014F60097C296C293EF64016004EFB40506D297D3
:10150600D296D293EF64026004EFB40606C297D275
:1015160096C293EF64036046EF6407600302169B6E
:101526000216579000D1E0FF6003B40406D297C2BA
:1015360096C293EF64016004EFB40506D297D29683
:10154600D293EF64026004EFB40606C297C296C255
:1015560093EF64036008EF6407600302169B0216AC
:10156600579000D1E0FF6003B40406C297C296C24A
:1015760093EF64016004EFB40506D297D296D29336
:10158600EF64026004EFB40606D297C296C293EFE8
:1015960064036008EF6407600302169B0216579007
:1015A60000D1E0FF6003B40406C297C296D293EF5F
:1015B60064016004EFB40506D297D296D293EF6425
:1015C600026004EFB40606C297C296C293EF6403A4
:1015D6006008EF6407600302169B80759000D1E0F7
:1015E600FF6003B40406C297D296C293EF6401600B
:1015F60004EFB40506D297D296D293EF6402600444
:10160600EFB40606C297C296C293EF64036008EF72
:101616006407600302169B80389000D1E0FF6003E8
:10162600B40406C297C296C293EF64016004EFB495
:101636000506D297D296D293EF64026004EFB40601
:1016460006C297C296D293EF64036005EF640770F3
:1016560044D297D296D293229000D1E0FF6003B491
:101666000406C297C296C293EF64016004EFB40504
:1016760006C297C296C293EF64026004EFB40606F0
:10168600C297C296C293EF64036004EFB40706C222
:0616960097C296C29322E8
:0C2C1800000000000000000000000000B0
:04217B0041009F0080
:102AD700E490009DF0A3F0900099F0A3F0A3F0A379
:102AE700F090009804F0900097F090009604F02280
:100DDE0078067C007D017BFF7A2C79187E007F0CD3
:100DEE0012067E9000121208B70000000090001646
:100DFE001208B70000000090009DE0FEA3E0FF90F7
:100E0E00009BE0FCA3E0FDD39FEC9E50030211FE7D
:100E1E00ED9FFFEC9EFED3EF9464EE940040030230
:100E2E0011F4E4FCFD9000061208ABE4900094F07F
:100E3E0090008BE0FCA3E0FDA3E0FEA3E0FFA31275
:100E4E0008AB900087E0FCA3E0FDA3E0FEA3E0FF6B
:100E5E00A31208AB900006E0FCA3E0FDA3E0FEA306
:100E6E00E0FF9000871208AB90008BE0FCA3E0FD42
:100E7E00A3E0FEA3E0FF900087E0F8A3E0F9A3E073
:100E8E00FAA3E0FBD312089A403390008BE0F8A34C
:100E9E00E0F9A3E0FAA3E0FB900087E0FCA3E0FDFD
:100EAE00A3E0FEA3E09BFFEE9AFEED99FDEC98FC0D
:100EBE009000061208ABE4900093F080319000870A
:100ECE00E0F8A3E0F9A3E0FAA3E0FBA3E0FCA3E0C3
:100EDE00FDA3E0FEA3E0C39BFFEE9AFEED99FDECB1
:100EEE0098FC9000061208AB9000937401F0E47F1A
:100EFE0002FEFDFC90008BE0F8A3E0F9A3E0FAA35C
:100F0E00E0FB12075990000E1208AB90008FE0FC28
:100F1E00A3E0FDA3E0FEA3E0FF900087E0F8A3E0CE
:100F2E00F9A3E0FAA3E02FFFEA3EFEE93DFDE83C1F
:100F3E00FC90000EE0F8A3E0F9A3E0FAA3E0FBC3F7
:100F4E0012089A504B90008FE0FCA3E0FDA3E0FE48
:100F5E00A3E0FF900087E0F8A3E0F9A3E0FAA3E096
:100F6E002FFFEA3EFEE93DFDE83CFC90000EE0F866
:100F7E00A3E0F9A3E0FAC3EF9BFFEE9AFEED99FD15
:100F8E00EC98FC90000E1208ABE4900095F0805D9A
:100F9E0090000EE0FCA3E0FDA3E0FEA3E0FFC00482
:100FAE00C005C006C00790008FE0FCA3E0FDA3E0E3
:100FBE00FEA3E0FF900087E0F8A3E0F9A3E0FAA318
:100FCE00E02FFBEA3EFAE93DF9E83CF8D007D006FF
:100FDE00D005D004C3EF9BFFEE9AFEED99FDEC9881
:100FEE00FC90000E1208AB9000957401F0900096E4
:100FFE00E0FFE4FCFDFE900006E0F8A3E0F9A3E0BC
:10100E00FAA3E0FB1207599000061208AB90009766
:10101E00E0FFE4FCFDFE900087E0F8A3E0F9A3E01A
:10102E00FAA3E0FB12075990000A1208AB90009841
:10103E00E0FFE4FCFDFE90000EE0F8A3E0F9A3E073
:10104E00FAA3E0FB12075990000E1208AB90009322
:10105E00E0702D900012E0FCA3E0FDA3E0FEA3E003
:10106E00FF900006E0F8A3E0F9A3E0FAA3E0FBEF9F
:10107E002BFFEE3AFEED39FDEC38FC900012802B82
:10108E00900016E0FCA3E0FDA3E0FEA3E0FF9000BD
:10109E0006E0F8A3E0F9A3E0FAA3E0FBEF2BFFEEE6
:1010AE003AFEED39FDEC38FC9000161208AB9000BC
:1010BE0094E0702E900012E0FCA3E0FDA3E0FEA3EE
:1010CE00E0FF900006E0F8A3E0F9A3E0FAA3E0FB4E
:1010DE00EF2BFFEE3AFEED39FDEC38FC90001212CC
:1010EE0008AB900095E0702B900012E0FCA3E0FDA1
:1010FE00A3E0FEA3E0FF90000EE0F8A3E0F9A3E06A
:10110E00FAA3E0FBEF2BFFEE3AFEED39FDEC38FCD7
:10111E00A3802B900016E0FCA3E0FDA3E0FEA3E06D
:10112E00FF90000EE0F8A3E0F9A3E0FAA3E0FBEFD6
:10113E002BFFEE3AFEED39FDEC38FC90001612084E
:10114E00AB900012E0F8A3E0F9A3E0FAA3E0FB9065
:10115E000099E0FEA3E0FFE4FCFDEB2FFFEA3EFE6C
:10116E00ED39FDEC38FC9000121208AB900016E041
:10117E00FCA3E0FDA3E0FEA3E0FF900012E0F8A3C5
:10118E00E0F9A3E0FAA3E0FBD312089A40629000C4
:10119E0016E0F8A3E0F9A3E0FAA3E0FB900012E05A
:1011AE00FCA3E0FDA3E0FEA3E09BFFEE9AFEED990B
:1011BE00FDEC98FC9000061208ABE47F64FEFDFC8B
:1011CE00900006E0F8A3E0F9A3E0FAA3E0FBC31257
:1011DE00089A5012900006A3A3E0FFA3E090009996
:1011EE00CFF0A3EFF022900099E4F0A37464F02204
:0711FE00E4900099F0A3F05A
:0112050022C6
:100026000203E7E86480F8E933E83360110460F01E
:10003600ED33EC337009E8FCE9FDEAFEEBFF220440
:1000460060DED3EB9FEA9EE99DE8C2E78CF0C2F73B
:1000560095F0400CE8CCF8E9CDF9EACEFAEBCFFB07
:100066001203B285D0F05804700320D5B3E80470AB
:10007600075002B2D50203F192D5EC0460F7E4CC46
:10008600C0E0C398F8603B94186008400DD0E0FBD0
:100096000203C9E4FBFAC9FC8028E830E406E4C997
:1000A600FBE4CAFCE830E305E4C9CACBFCE8540724
:1000B6006010F8C3E913F9EA13FAEB13FBEC13FC2F
:1000C600D8F130F52FC3E49CFCEF9BFFEE9AFEEDD2
:1000D60099FDD0E0FBEF4E4D4C701222DB0302037C
:1000E600EEEC2CFCEF33FFEE33FEED33FDED30E7A7
:1000F600EB0203C9EF2BFFEE3AFEED39FDD0E0FB34
:1001060050130BBB00030203F1ED13FDEE13FEEFDC
:0801160013FFEC13FC0203C906
:10011E00EC4D6011E8497017ED33EC3304600DE4DB
:10012E00FCFFFEFD22E933E8330470F80203E71208
:10013E0003B258046009E4CC248150062850090209
:10014E0003F12840030203EEC0E0EB4A7044B9808D
:10015E0006D0E0FB0203DDEF4E701CBD8008EBFF06
:10016E00EAFEE9FD80EBE98DF0A4FEE5F002020760
:10017E00E9CDF9EAFEEBFFEF89F0A4FCE5F0CE89BC
:10018E00F0A42EFFE435F0CD89F0A42DFEE435F079
:10019E008067EF4E7005BD80D780C3EF8BF0A4ACA7
:1001AE00F0EE8BF0A42CFCE435F0F8EF8AF0A42CE2
:1001BE00E5F038FCE433CB8DF0A42CFCE5F03BF8F5
:1001CE00EE8AF0A42CFCE5F038F8E433CF89F0A4E5
:1001DE002CFCE5F038CF3400CE89F0A42FFFE5F0EB
:1001EE003EFEE433C98DF0A42EFEE5F039CD8AF043
:1001FE00A42FFFE5F03EFEE43DFD33D0E0FB5007BB
:10020E000BBB000F0203F1EC2CFCEF33FFEE33FEC1
:06021E00ED33FD0203C9EF
:100224000203F1EC5D046005E8590470030203E77E
:100234001203B2580460F6EC4860F2EC7004FDFE60
:10024400FF22C860DB2481C85009C39860025006AD
:100254000203EE9850CAF582E9294B4A7005AB8235
:100264000203DD75F0007C1A7880C3EF9BEE9AEDF3
:1002740099400DC3EF9BFFEE9AFEED99FDE842F025
:10028400DC23ACF0D0E0FFD0E0FED0E0FDAB822078
:10029400E7101BEB60BAEC2CFCEF33FFEE33FEED02
:1002A40033FD0203C9E803F830E705C0F075F00038
:1002B400EF2FFFEE33FEED33FD40B830E7C280AAE6
:1002C40074F8CC6480CCC86480C8F58204604FC3E1
:1002D400EB9FF5F0EA9E42F0E99D42F0E89C45F080
:1002E400603C501DE5825FFFE582D313CB5BCBF40A
:1002F4002B5582FB50280ABA002409B90020088033
:100304001DE5825BFBE582D313CF5FCFF4C3132FCC
:100314005582FF50090EBE00050DBD00010CC3EB54
:100324009FF5F0EA9E42F0E99D42F0E89C45F060BA
:0903340007CC4820E701B3EC22DC
:10033D0075F020800E75F010800575F0087D007E3B
:10034D00007F003392D530D503120876EC33401080
:10035D00EF33FFEE33FEED33FDEC33FCD5F0ED2244
:0E036D00E5F0247EA2D513CC92E7CDCEFF2280
:10037B00EDD2E7CD33EC3392D524814006E4FFFE7A
:10038B00FDFC22FCE4CFCECDCC24E0501174FF80D9
:10039B00EDC3CC13CCCD13CDCE13CECF13CF047076
:0703AB00F030D5DE020876F8
:10095B00E50D2439F582E43400F583E0050D229092
:10096B000036301003900039E475F0011208E802EC
:10097B0006A42009E97F2ED2098018EF540F24908A
:10098B00D43440D4FF300D0BEF24BFB41A00500306
:10099B002461FFE50E6002150E0511E511700205CD
:1009AB001030100E900036E475F0011208E8EF02DB
:1009BB0006EA022C557403D2108003E4C210F50D25
:1009CB009000361208FFE4F50EF510F511E50E60F8
:1009DB00077F2012099E80F5750FFFC20AC209C25C
:1009EB000BC20CC20EC20FC21112096AFF700D307E
:1009FB0010057F001209AFAF11AE1022B4255FC2F4
:100A0B00D5C20D12096AFF24D0B40A00501A75F032
:100A1B000A780E30D50508B6FF0106C6A426F620C7
:100A2B00D5047002D20C80D924CFB41A00EF500435
:100A3B00C2E5D20D020CA1D20A80C6D20980C0D267
:100A4B000B80BCD2D580BAD20E80B47F2012099E07
:100A5B00200B077401B50E0040F112095BFF120960
:100A6B009E0209D8D211D20F809512095BFB120995
:100A7B005BFA12095BF94A4B7006799F7A0D7BFF83
:100A8B00200B2EE50E602A7E008E827583001206E7
:100A9B00BD60060EEE650F70F0C2D5EBC0E0EAC08C
:100AAB00E0E9C0E0EE120D02D0E0F9D0E0FAD0E0C0
:100ABB00FB1206A4FF60AAEBC0E0EAC0E0E9C0E0CD
:100ACB0012099ED0E02401F9D0E03400FAD0E0FB0B
:100ADB00E50F0460DCD50FD98087D20B80A2120CF6
:100AEB00E460F7E50F7001041203FCA90F600DE53C
:100AFB000F600914F50F120D8CEF60F3EA30E7026B
:100B0B00F404C3995079EAF4250F0430E701E404A7
:100B1B00F50F800D120CE460C1EA050F250F1203CF
:100B2B00FCEA900065F030E701E4250F04D50F04D3
:100B3B00200E0114120D02E4C0E0120D8C90006522
:100B4B00E0601320E70714F0120986802204F0D02E
:100B5B00E014C0E07F00120986E50F600712097DE3
:100B6B00150F800B300E0312097DD0E00209D8D08F
:100B7B00E00480C4120CE4609EE50F041203FC90A9
:100B8B000065EAF0E50F200E026001042404120D4B
:010B9B000257
:100B9C0074FF04C0E0120D8C120986E50F200E02C2
:100BAC00600312097DD0E0B50FE87F4512099090E3
:100BBC000065E07F2B30E7047F2DF404C0E01209C0
:100BCC009ED0E075F00A84C0F0120987D0E01209BB
:100BDC00870209D8791080027908C20FC2118008E7
:100BEC00D2D5790A8004790AC2D5E50F047002F5D2
:100BFC000FE4FAFDFEFF12095BFC7B08200A1312BE
:100C0C00095BFD7B1030090A12095BFE12095BFFC0
:100C1C007B20EC3382D592D55013C3E43009069F68
:100C2C00FFE49EFEE4200A039DFDE49CFCE4CBF86B
:100C3C00C20AEC700CCFCECDCCE824F8F870F3805F
:100C4C0017C3EF33FFEE33FEED33FDEC33FCEB3328
:100C5C00FB994002FB0FD8E9EB300A05F8D0E0C451
:100C6C0048B20AC0E00AEC4D4E4F78207B0070C2AF
:100C7C00EAB50F0040BCC0E0120D04D0F0D0E0206B
:100C8C000A04C4C0E0C4B20AC0F0120987D0F0D57F
:100C9C00F0EB0209D81209080A75530BE0580A4602
:100CAC004C0A42420BE44F0BEC440BEC490A5B43FD
:100CBC000BF2550B1F460B7F450AE9470DBF500A37
:100CCC004A2D0A4E2E0A712B0A52230A6F200DA8A8
:100CDC002A0A0A4800000A69E50FB4FF03750F06DB
:100CEC0012095BFC12095BFD12095BFE12095BFF2A
:100CFC0090005E020439790AA2D5200C14300E093A
:100D0C00B910020404B9080104A2D5200F02500145
:100D1C0004200B68920BB50E005034C0E07F2030DD
:100D2C000C197F30A20B720F720E500F120D5BC29A
:100D3C000BC20FC20EC2117F30800F300E03E9C000
:100D4C00E012099E300E03D0E0F9D0E0B50ECC30A5
:100D5C000E177F30B9100C12099E7F58300D077F8B
:100D6C00788003B9080312099E300B057F2D020908
:100D7C009E7F202011F87F2B200FF322920B80CF27
:100D8C007F00B40700500B245EF582E43400F58339
:100D9C00E0FF22286E756C6C2900D20A12095B30B8
:100DAC000AF8C20A780E30D50108F6020A0A2D504C
:100DBC0043495812095B2403B405004001E4900D2B
:100DCC00BA9312098F743A12098FD20C750E040261
:020DDC000BE02A
:1003B200E9D2E7C933E833F892D5EDD2E7CD33EC91
:0703C20033FC5002B2D5220A
:1003C900EC30E7100FBF000C0EBE00080DBD000495
:1003D9000BEB6014A2D5EB13FCED92E7FD2274FF41
:1003E900FCFDFEFF22E480F8A2D574FF13FC7D809A
:0303F900E480EFAE
:1003FC00F920E73624F950037907E4F42402FBE5ED
:10040C0082158270021583DBF6E024FB501BE96039
:10041C0014E4F0E582158270021583E004F0B40A4E
:0D042C0008E4F0D9EE7401F00A22C2D522D6
:10043900ED33EC3392D5FA602AB4FF33EDC2E77B92
:10044900FF60067A04795EE4227A04796720D5048C
:100459007A047962224E614E002B494E46002D499D
:100469004E4600E47A08F0A3DAFC7B00740722C048
:1004790083C082ECC0E0EDC0E0EEC0E0EFC0E0EA8E
:1004890075F010A4CAABF075F04DA42BFBE435F060
:10049900FCEA2410FAEB34C5FBEC34D9FCEDC2E7D5
:1004A900FF75F056A4F42411C5F0F434C58FF0A4F7
:1004B9002AE5F03BE43CF020E71412056ED0E0FF9A
:1004C900D0E0FED0E0FDD0E0FC1202278014F40455
:1004D90012056ED0E0FFD0E0FED0E0FDD0E0FC12C6
:1004E900011ED082D083E0FAEDD2E7CD33EC33247C
:1004F90082FBE4C3CF33CFCE33CECD33CD33DBF361
:100509007B0775F00A846004F0A31B0AE5F0F0A3E9
:100519008FF0740AA4FFACF08EF0740AA42CFEAC20
:10052900F050010C8DF0740AA42CFDE435F0F0A311
:05053900DBDE74072267
:10053E003F8000004120000042C80000447A0000C5
:10054E00461C400047C35000497424004B18968047
:10055E004CBEBC205A0E1BCA6753C21C749DC5AE3E
:10056E00FB60065407601C232312059CEB54386075
:10057E000912058812059712011EECF8EDF9EEFA34
:10058E00EFCB22EB12059780F1543803241C900513
:10059E003EFE93FC0EEE93FD0EEE930ECE93FF22D7
:10250700021FD1E493A3F8E493A34003F68001F2FA
:1025170008DFF48029E493A3F85407240CC8C333D5
:10252700C4540F4420C8834004F456800146F6DFA4
:10253700E4800B01020408102040809020B0E47E64
:10254700019360BCA3FF543F30E509541FFEE49399
:10255700A360010ECF54C025E060A840B8E493A360
:10256700FAE493A3F8E493A3C8C582C8CAC583CA8B
:10257700F0A3C8C582C8CAC583CADFE9DEE780BE43
:01217F00005F
:1005AE00E709F608DFFA8046E709F208DFFA803E2F
:1005BE0088828C83E709F0A3DFFA8032E309F6081C
:1005CE00DFFA8078E309F208DFFA807088828C8384
:1005DE00E309F0A3DFFA806489828A83E0A3F60838
:1005EE00DFFA805889828A83E0A3F208DFFA804C12
:1005FE0080D280FA80C680D4806980F280338010E9
:10060E0080A680EA809A80A880DA80E280CA803351
:10061E0089828A83ECFAE493A3C8C582C8CCC583C9
:10062E00CCF0A3C8C582C8CCC583CCDFE9DEE78099
:10063E000D89828A83E493A3F608DFF9ECFAA9F018
:10064E00EDFB2289828A83ECFAE0A3C8C582C8CC6E
:10065E00C583CCF0A3C8C582C8CCC583CCDFEADE87
:10066E00E880DB89828A83E493A3F208DFF980CCE9
:10067E0088F0EF60010E4E60C388F0ED2402B404E2
:10068E000050B9F582EB2402B4040050AF23234589
:06069E0082239005FE73AB
:1006A400BB010689828A83E0225002E722BBFE0254
:0906B400E32289828A83E4932287
:1006BD00BB010CE58229F582E5833AF583E02250F2
:1006CD0006E92582F8E622BBFE06E92582F8E2223C
:0D06DD00E58229F582E5833AF583E4932256
:1006EA00BB010689828A83F0225002F722BBFE01EF
:0206FA00F322E9
:1006FC00EF8DF0A4A8F0CF8CF0A428CE8DF0A42E12
:02070C00FE22CB
:10070E00C5F0F8A3E028F0C5F0F8E5821582700276
:06071E001583E038F02213
:10072400A3F8E0C5F025F0F0E58215827002158388
:06073400E0C838F0E822E5
:10073A00BB010A89828A83F0E5F0A3F0225006F70A
:0F074A0009A7F01922BBFE06F3E5F009F3192207
:10075900E88FF0A4CC8BF0A42CFCE98EF0A42CFC3F
:100769008AF0EDA42CFCEA8EF0A4CDA8F08BF0A4BD
:100779002DCC3825F0FDE98FF0A42CCD35F0FCEB1C
:100789008EF0A4FEA9F0EB8FF0A4CFC5F02ECD39E1
:0F079900FEE43CFCEAA42DCE35F0FDE43CFC224E
:1007A80075F008758200EF2FFFEE33FECD33CDCC08
:1007B80033CCC58233C5829BED9AEC99E58298408B
:1007C8000CF582EE9BFEED9AFDEC99FC0FD5F0D668
:1007D800E4CEFBE4CDFAE4CCF9A88222B800C1B992
:1007E8000059BA002DEC8BF084CFCECDFCE5F0CBD0
:1007F800F97818EF2FFFEE33FEED33FDEC33FCEB09
:1008080033FB10D703994004EB99FB0FD8E5E4F9C3
:10081800FA227818EF2FFFEE33FEED33FDEC33FCB0
:10082800C933C910D7059BE99A4007EC9BFCE99AA4
:10083800F90FD8E0E4C9FAE4CCFB2275F010EF2FE9
:10084800FFEE33FEED33FDCC33CCC833C810D707E9
:100858009BEC9AE899400AED9BFDEC9AFCE899F824
:0E0868000FD5F0DAE4CDFBE4CCFAE4C8F922B7
:0E087600C3E49FFFE49EFEE49DFDE49CFC2293
:10088400EB9FF5F0EA9E42F0E99D42F0EC6480C8EB
:0608940064809845F0228B
:10089A00EB9FF5F0EA9E42F0E99D42F0E89C45F0B4
:0108AA00222B
:0C08AB00ECF0A3EDF0A3EEF0A3EFF022C0
:1008B700A8828583F0D083D0821208CE1208CE1288
:1008C70008CE1208CEE473E493A3C583C5F0C583AD
:1008D700C8C582C8F0A3C583C5F0C583C8C582C88B
:0108E70022EE
:1008E800F8E0FBA3A3E0F925F0F0E5821582700299
:0708F8001583E0FA38F0223D
:0908FF00EBF0A3EAF0A3E9F022FA
:10090800D083D082F8E4937012740193700DA3A37E
:1009180093F8740193F5828883E473740293686092
:06092800EFA3A3A380DF92
:10092E00EC8EF0A4CCC5F0CCCDF8EFA4CEC5F02D56
:10093E00FDE43CFCE8A42EC8C5F03DFDE43CFCEF14
:0D094E00A4FFE5F028FEE43DFDE43CFC22A2
:00000001FF
