:03000000023018B3
:0C301800787FE4F6D8FD75812102305F5E
:102EE6000D0A3D3D3D3D3D3D3D3D3D3D3D3D3D3D6F
:102EF6003D3D3D3D3D3D3D3D3D3D3D3D3D3D3D3DFC
:102F06003D3D3D3D0D0A00736B753A4B2564200D22
:102F16000A00736F66742076657273696F6E3A2560
:102F260073200D0A00312E30302E3030006761706C
:102F3600202564200D0A0074696D657220256420C1
:102F46000D0A00496E7075745F566F6C7461676523
:102F56005F737464203D2025640D0A003D3D3D3DB0
:102F66003D3D3D3D3D3D3D3D3D3D3D3D3D3D3D3D8B
:102F76003D3D3D3D3D3D3D3D3D3D3D3D3D3D0D0ADE
:012F8600004A
:0D26EC004201510000410154004101530022
:102A9000E4900078F0900153E0700A1236B990008B
:102AA00078EFF08005E4900078F0900078E0640121
:102AB000702E90012CE070281240FCEF70087F010E
:102AC000124102C2B522E4FF1241021230A4900169
:102AD00017E0FF1238F01232C59001547401F02251
:102AE0001240FCEF6003022B68900078E0640270F3
:102AF0002F900117E0C394065005E004F080069083
:102B000001177401F09001547401F0900117E0FF77
:102B10001238F01232C5900117E0FF12411A8045B9
:102B2000900078E064037040900118E0C394055071
:102B300005E004F08005E4900118F0900117E0D35F
:102B400094014016A3E0FF70059001018009EFD3C6
:102B5000940340069000F07402F0900118E0FF1218
:082B600041141230A4123DEAF9
:012B6800224A
:082B690090007EEEF0A3EFF0F6
:102B71009000D1E06402706A90012CE064017062FF
:102B810090007EA3E0FFE49000D1F090011B04F0DF
:102B91009000B2E0FED3940F4048EED39F400CE08A
:102BA1009F900119F0A37401F080169000B2E0FE2D
:102BB100C3EF9EFF900119F012000E90011A7402EA
:102BC100F0900119E0FFC394024006EFD394144042
:102BD10007E4900119F0A3F0123DEA7D027F021291
:102BE1003F2C90011AE0FDB40114900119E0FF7E21
:102BF1000090007EEE8FF0120730AFF0FE22EDB4B0
:102C01000218900119E0FFC390007FE09FFF900040
:102C11007EE09400FEF0A3EFF02290007EE0FEA3A0
:022C2100E0FFD2
:012C2300228E
:0C192E0090007EECF0A3EDF0AB07AA06E1
:10193A00E4A3F0A3F0A3F0A37428F0A31208FF0015
:10194A000000009000881208FF00000000C3EB941A
:10195A005AEA940050030219F2AE02AF03AD07AC83
:10196A0006E4120342E4FBFA797A784412022790D9
:10197A0000841208F390007EE0FCA3E0FDE4120369
:10198A0042E4FBFA797A7844120227900088120816
:10199A00F3900084E0F8A3E0F9A3E0FAA3E0FBA344
:1019AA00E0FCA3E0FDA3E0FEA3E0FF120029900003
:1019BA0084E0F8A3E0F9A3E0FAA3E0FB1202277B94
:1019CA00007A80793B784412011E9000841208F351
:1019DA00E4FFFEFDFC900084E0F8A3E0F9A3E0FA3E
:1019EA00A3E0FB1202C450057E007FFF227F147E13
:1019FA00AE7DC37C42900084E0F8A3E0F9A3E0FA4C
:101A0A00A3E0FB1202C4603F403D7F147EAE7DC35B
:101A1A007CC2900084E0F8A3E0F9A3E0FAA3E0FB1B
:101A2A0012002D7BCD7ACC79CC783E120227120394
:101A3A007B900080EEF0A3EFF0900083E02FF0900F
:101A4A000082E03EF0803C900084E0F8A3E0F9A335
:101A5A00E0FAA3E0FB7F147EAE7DC37C421200292C
:101A6A007BCD7ACC79CC783E12022712037B900088
:101A7A0080EEF0A3EFF0C3900083E09FF090008225
:101A8A00E09EF0900117E0B4030E900083E024FB7F
:101A9A00F0900082E034FFF0900082E0FEA3E0FFC5
:011AAA002219
:1023A800E4900078F0A3F0A3F0A3F0A3F0A3F090DA
:1023B8000152E004F07006900151E004F0900151E0
:1023C800E0FEA3E0FFE4FCFD7B507AC3F9F8D312EA
:1023D80008A640030224CCE4900151F0A3F07B014D
:1023E80090008104F0A37400F0A3747CF07A007963
:1023F8007A12227390007AE0FEA3E0FFA3E0FCA328
:10240800E0FD12192E900078EEF0A3EFF0122B6980
:10241800900078EEF0A3EFF0D390007BE0945A9010
:10242800007AE0940050030224B91240FCEF706077
:10243800FF12410E900154E0B40121E4F0D3900062
:1024480079E0944B900078E094004006E49000F620
:1024580080059000F67401F09000F5F0900078E0A7
:10246800FEA3E0FF7C007D0A12071E9000E8EEF054
:10247800A3EFF0120E26900118E0FF12411490010C
:1024880017E0FF12411A900117E0FF123BE2801B90
:1024980090012CE0B4010AC2B51240E1123E368028
:1024A8000A7F0112410EC2B51240E1E4900153F0D7
:1024B80022E490012CF07FFF12410E123E10900191
:0424C800537401F058
:0124CC0022ED
:1028CA001240BA123CF9123F0DD2AF124028124000
:1028DA0050121EC9123EED1240D87F0212407B12DE
:1028EA003D231240EA7FB07E04123FB87F061241B0
:1028FA00147F0712411A7F587E02123FB81240E134
:10290A00123F4B123EA87BFF7A2E79E6120A0E7B03
:10291A00FF7A2F790D90007F741FF0A374A9F0122B
:10292A000A0E90007F74FFF0A3742FF0A3742BF0AB
:10293A007BFF7A2F7918120A0E7BFF7A2F79339050
:10294A000117E0FF90007FE4F0A3EFF0120A0E7B7C
:10295A00FF7A2F793D900118E0FF90007FE4F0A301
:10296A00EFF0120A0E7BFF7A2F7949900120E0FFDF
:10297A00A3E090007FCFF0A3EFF0120A0E7BFF7A5C
:10298A002F7962120A0E1215011223A8122A9090A8
:10299A000153E0700B9000EBE0FEA3E0FF12342C31
:0529AA0012413880E13C
:0A40BA00758E5190FE917401F02202
:1032C500900117E014B4090050749032DD75F003D5
:1032D500A4C58325F0C583730232F8023303023394
:1032E5000E02331902332E02332402332E02332EFB
:1032F5000233399000E67401F0A374C2F022900005
:10330500E67401F0A374F4F0229000E67402F0A3D1
:103315007412F0229000E67402F0A37494F02290E7
:1033250000E67403F0A314F0229000E67402F0A303
:0F33350074C6F0229000E67402F0A374F8F02240
:103F4B00E4FFFE122F87D3EF9440EE9406900120EE
:0D3F5B00E44006F0A37402F022F0A304F08D
:013F68002236
:0E405F00EF1F70011E144E6004000080F3225B
:103FB8007D407C03ED1D70011C144C70F7EF1F70E1
:063FC800011E144E70EA18
:013FCE0022D0
:103F0D0090FF037401F090FF07F090FF02F075B47D
:0F3F1D00817F507E0012405F90FE9B7449F0221E
:103FE600E4FFFE75B50743B440E5B430E5FB53B4D2
:053FF600DFAEB7AFB61D
:013FFB0022A3
:103FFC00E4FFFE75B50343B440E5B430E5FB53B4C0
:05400C00DFAEB7AFB606
:01401100228C
:10401200E4FFFE75B50243B440E5B430E5FB53B4AA
:05402200DFAEB7AFB6F0
:014027002276
:0B22730090007EEBF0A3EAF0A3E9F07E
:10227E009000841208FF00000000E4900088F0F047
:10228E00900084E0F8A3E0F9A3E0FAA3E0FB123F8C
:10229E00FCE4FCFDEB2FFFEA3EFEED39FDEC38FCD5
:1022AE009000841208F3900088E004F0E0C39405D7
:1022BE0040CE900084E0FCA3E0FDA3E0FEA3E0FF8F
:1022CE00E47B05FAF9F81208069000841208F3E48C
:1022DE007FA07E0FFDFC900084E0F8A3E0F9A3E060
:1022EE00FAA3E0FB12077BE47BFF7A0FF9F81208E2
:1022FE000690007EE0FBA3E0FAA3E0F9EE8FF01269
:10230E00075C7F147E0012405F9000841208FF006D
:10231E00000000E4900088F0900084E0F8A3E0F95B
:10232E00A3E0FAA3E0FB123FE6E4FCFDEB2FFFEA8D
:10233E003EFEED39FDEC38FC9000841208F390005F
:10234E0088E004F0E0C3940540CE900084E0FCA346
:10235E00E0FDA3E0FEA3E0FFE47B05FAF9F8120826
:10236E00069000841208F3E47FA07E0FFDFC90001F
:10237E0084E0F8A3E0F9A3E0FAA3E0FB12077BE404
:10238E007BFF7A0FF9F8120806900081E0FBA3E0BC
:0A239E00FAA3E0F9EE8FF002075CED
:102F87009000781208FF00000000E490007CF0F049
:102F9700900078E0F8A3E0F9A3E0FAA3E0FB124081
:102FA70012E4FCFDEB2FFFEA3EFEED39FDEC38FCA9
:102FB7009000781208F390007CE004F0E0C39405D9
:102FC70040CE900078E0FCA3E0FDA3E0FEA3E0FF85
:102FD700E47B05FAF9F81208069000781208F3E482
:102FE7007FA07E0FFDFC900078E0F8A3E0F9A3E056
:102FF700FAA3E0FB12077BE4FB7A10F9F812080644
:103007009000781208F3900078A3A3E0FEA3E0FFF6
:013017002296
:1025E6000D0A3D3D3D3D3D3D3D3D3D3D3D3D3D3D78
:1025F6003D3D3D3D3D3D3D3D3D3D3D3D3D3D3D3D05
:102606003D3D3D3D3D3D3D3D3D3D0D0A00706F77F5
:102616006572206F6E20666C617368206761703A20
:102626002564202074696D65723A2564200D0A00C0
:10263600706F776572206F6E20666C6173682076A6
:10264600616C75653A256420207369676E3A256466
:10265600200D0A003D3D3D3D3D3D3D3D3D3D3D3D61
:102666003D3D3D3D3D3D3D3D3D3D3D3D3D3D3D3D94
:102676003D3D3D3D3D3D3D3D3D3D3D3D0D0A003D24
:102686003D3D3D3D3D3D3D3D3D3D3D3D66697273B4
:102696007420696E697420646174613D3D3D3D3D01
:1026A6003D3D3D3D3D3D200D0A00307825303458F6
:1026B6002020307825303458202030782530345882
:1026C6002020307825303458200D0A00666C61735E
:1026D60068206761703A2564202074696D65723AD6
:0626E6002564200D0A002E
:1026F900450117000000000044011C20200501418C
:08270900012201420120000041
:0640FC00900122E0FF220A
:06410200900122EFF02203
:103ECB00D310AF01C3C0D075FDF075FC0F8EFA8F08
:103EDB00F975FDD275FC2D75FDE175FC1ED0D092E8
:023EEB00AF2204
:103D4D00D310AF01C3C0D08FFB75FDF075FC0FAE66
:103D5D0004AF058EFA8FF975FDB475FC4B75FDE159
:083D6D0075FC1ED0D092AF22BC
:0C350E007B017A0179177D057F047E3C6B
:10351A00D310AF01C3C0D0900094EEF0A3EFF0A394
:0B352A00EDF0A3EBF0A3EAF0A3E9F042
:10353500E4A3F0C2AFF0900096E0FF90009AE0C3DC
:103545009F502C900097E0FBA3E475F0011207460D
:10355500A9F0FA1206A4FF900094E475F001120791
:1035650046ADF0FC123D4D90009AE004F080C7D2C4
:01357500AFA6
:05357600D0D092AF224D
:040003008F828E83D7
:03000700E493FF80
:01000A0022D3
:103AC200900094EEF0A3EFF0A3EBF0A3EAF0A3E9E9
:103AD200F0AF051DEF6028900094E475F001120725
:103AE2004685F082F583E493FF900096E0FBA3E421
:103AF20075F001120746A9F0FAEF1206EA80D22207
:103BAF00E4FDFCED2400FFE4343CFE120003741C22
:103BBF002DF582E43401F583E0B507030C80037F14
:103BCF0000220DEDB404DCECC3940440037F01220A
:023BDF007F0065
:013BE10022C1
:101EC900E4900078F090FE927404F0123BAFEF704A
:101ED9000790007804F0807C7BFF7A2579E6120A66
:101EE9000E7B017A0179177D057F047E3C123AC287
:101EF9007BFF7A267913900117E0FF90007FE4F0C9
:101F0900A3EFF0900118E0FF900081E4F0A3EFF057
:101F1900120A0E7BFF7A267936900119E0FF9000AC
:101F29007FE4F0A3EFF090011AE0FF900081E4F064
:101F3900A3EFF0120A0E7BFF7A26795A120A0E9045
:101F49000117E0D394065006A3E0940540069000DB
:101F5900787401F0900078E06401707A7BFF7A264A
:101F69007985120A0E9001177401F0A3F07F007EA3
:101F79003C123ECBFB7A01791C7D0412351A1235CD
:101F89000E7B017A01791C7D047F007E3C123AC2E6
:101F99007BFF7A2679B090011CE0FF90007FE4F086
:101FA900A3EFF090011DE0FF900081E4F0A3EFF0B2
:101FB90090011EE0FF900083E4F0A3EFF090011F71
:101FC900E0FF900085E4F0A3EFF0120A0E7BFF7AA0
:101FD90026795A120A0E7BFF7A2679D2900117E0E8
:101FE900FF90007FE4F0A3EFF0900118E0FF90006C
:091FF90081E4F0A3EFF0020A0EEE
:103DEA007F047E3C123ECB7B017A01791C7D047FE5
:103DFA000012351A12350E7B017A0179177D057F7B
:063E0A00047E3C023AC2F6
:102711005E00B300000000000000000000000000A7
:1027210000000000000000000000000000000000A8
:09273100004100D1004100B2009A
:103CF90090FF1674C1F090FF157460F090FFA074E6
:103D090026F090FFA114F075CEFF75CD9875CC06FD
:0A3D1900759E0275981043A8102251
:10000E0053A8EF8F99E59830E1FB5398FD43A81064
:04001E0043981022D1
:03413C0002000E70
:0B3C7400900085EBF0A3EAF0A3E9F05C
:103C7F00E4FEEEC39D501A900085E0FBA3E0FAA38B
:103C8F00E0F98E827583001206BDFF12413C0E8053
:013C9F00E143
:013CA0002201
:103F2C009000807455F0A3EFF0A3EDF0A3740DF0A6
:0F3F3C00A3740AF07B017A0079807D05023C7442
:06410800AE0712000E22BA
:03002300023A3A64
:103A3A00C0E0C0F0C083C082C0D075D000C000C052
:0D3A4A0001C002C003C004C005C006C007D3
:0D3A5700E59830E008AF995398FE122D92CB
:103A6400D007D006D005D004D003D002D001D000B6
:0B3A7400D0D0D082D083D0F0D0E03260
:10273A0041012C00410123004201240000410126ED
:0F274A000042012700004101290142012A00003D
:0F40500090FF177460F090FF00F090FF01F022D6
:102C2400E490007AF0A28133900079F0900123E0DF
:102C340014602614604E147003022CC7240360032E
:102C4400022CD0900079E06003022CD5900124F08E
:102C5400A3F090012304F08078900079E0706B90E9
:102C64000125E004F07006900124E004F0C3900113
:102C740025E09403900124E09400403E90012374E5
:102C840002F08036900079E0B40106A37404F08069
:102C94003B900125E004F07006900124E004F0C3A9
:102CA400900125E09482900124E09400400C90006F
:102CB4007A7405F09001237403F07F0A7E00123FBA
:102CC400B8800E900079E0B401078000E4900123FD
:062CD400F090007AE0FF21
:012CDA0022D7
:102CDB00E490007AF0A28033900079F0900126E026
:102CEB0014602614604E147003022D7E24036003BF
:102CFB00022D87900079E06003022D8C900127F064
:102D0B00A3F090012604F08078900079E0706B902E
:102D1B000128E004F07006900127E004F0C3900155
:102D2B0028E09403900127E09400403E9001267424
:102D3B0002F08036900079E0B40106A37404F080B1
:102D4B003B900128E004F07006900127E004F0C3EB
:102D5B00900128E09490900127E09401400C9000A2
:102D6B007A7406F09001267403F07F0A7E00123FFE
:102D7B00B8800E900079E0B401078000E490012642
:062D8B00F090007AE0FF69
:012D9100221F
:1036B900122C24BF05037F0122122CDBBF06211225
:1036C90040FCBF011490011BE0700E90012C04F026
:1036D90090011BF0123DEA803CE490012CF080350A
:1036E900900129E0602330A70320801D90012CE080
:1036F90070177F32FE123FB8E4900129F020A7032A
:103709007F022220800F7F032230A7093080069094
:0737190001297401F07F009B
:013720002286
:0427590041015B00DF
:103FA0007E0090015BE0FD7C00120976E47B64FA00
:073FB000F9F81208068FDF8B
:013FB70022E7
:0940D80090FF1D74C0F0C2B52276
:0D407B0075BD17EF75F02BA490FEA0F0228C
:0441380043BD102251
:103D75007365742074696D65207365636F6E643A4D
:103D850025640D0A0074696D65207365636F6E6443
:073D95003A2564200D0A002D
:10275D004200FB00004200F900004200FF00004172
:10276D0000EF004100F00041010100410102004174
:10277D0000F6004200F100004200F700004200F3B5
:10278D0000004100F5004200FD00004200EB00009A
:05279D004200ED000008
:10342C00900078EEF0A3EFF01240FCEF7062900188
:10343C0020E0FCA3E0FD64014C700F900079E025C6
:10344C00E0F0900078E033F08011ED64024C700BEA
:10345C00900078E0C313F0A3E013F09000FEE004BA
:10346C00F070069000FDE004F09000FDE0FEA3E09B
:10347C00FFD3900079E09F900078E09E4004D2B595
:10348C008002C2B5EF64C84E70069000FDF0A3F048
:01349C00220D
:103BE2009000F5E0B4010A9000EBE4F0A37464F0F5
:103BF20022EF24FE600D14600A24FC500624067095
:103C02001180009000E4E0FFA3E09000EBCFF0A36E
:033C1200EFF022AE
:103F69009000F9EEF0A3EFF0E4A3F0A3F07BFF7A61
:0E3F79003D797590007FEEF0A3EFF0020A0E86
:1038F000EFB40A0050509038FDF828287302391BA5
:1039000002392502393002393202393D02393D028D
:10391000393D02393D02393D02393D9000EDE4F078
:10392000A3741EF0229000ED7401F0A3740EF02237
:1039300080009000ED7401F0A3744AF0229000ED35
:07394000E4F0A374F0F02293
:103C15009000F6E0B401289000F1E475F001120778
:103C250030FEC39000EEE095F09000EDE09E500F61
:103C3500E49000F6F09000F1F0A3F09000F5F0228A
:1030A400E49000FBF0A3F0900118E0FF700890009A
:1030B400F9F0A3F08052EFB4010C9000F97407F01A
:1030C400A304F0E48042EFB4020D9000F9740EF012
:1030D400A37410F0E48031EFB4030D9000F9741C74
:1030E400F0A37420F0E48020EFB4040D9000F97490
:1030F40038F0A37440F0E4800FEFB405179000F9A2
:103104007470F0A37480F0E49000FFF0A3F09000DA
:10311400F7F0A3F07BFF7A3D798A9000F9E0FFA3F2
:0C312400E090007FCFF0A3EFF0020A0E55
:10402800E490FE80F0F589758CF5758A9643A802B0
:044038004388102287
:03000B00022002CE
:10200200C0E0C0F0C083C082C0D075D000C000C0A4
:1020120001C002C003C004C005C006C0071240FCD4
:10202200EF60030220F69000FCE004F070069000DE
:10203200FBE004F0C39000FCE094F49000FBE09419
:1020420001500302211D123C15900101E0B4022D42
:10205200900100E004F070069000FFE004F0D390DD
:102062000100E094409000FFE0943840109001019C
:10207200E4F09000FFF0A3F09000EF04F0D39000A2
:10208200FAE094009000F9E094004042A3E024FFBB
:10209200F09000F9E034FFF09000F0E06402704E3E
:1020A200900100E004F070069000FFE004F0D3908D
:1020B2000100E094409000FFE0943840319000EF3E
:1020C2007401F0A3E4F09000FFF0A3F080209001EF
:1020D20018E0601A7F011241029000F9E4F0A3F0C7
:1020E2009000FFF0A3F09000F0F0900101F090005A
:1020F200FBE4802490012CE0B401209000F3E4750D
:10210200F001120730FED3E5F09460EE94EA400B42
:1021120090012CE4F09000F3F0A3F01229AFD00765
:10212200D006D005D004D003D002D001D000D0D048
:09213200D082D083D0F0D0E0325D
:1027A2004201430000410142004101410041013F19
:0527B2000041014000A0
:103D230043D1E890FF62E04406F090FF61E044086D
:103D3300F090FF60E04410F090FF6AE044F8F0C2B6
:0A3D430097C296C295C294C2932263
:06410E00900141EFF022D8
:0940E10090014374CEF0A3F0221B
:103E100090013FE0FF700F90014374CEF0A3F0904B
:103E2000013F7401F022EFB4010B90014374FFF0E5
:053E3000E490013FF0E9
:013E3500226A
:103E3600900140E0FF700F90014374CEF0A3F09024
:103E460001407401F022EFB4010B900143741EF09F
:053E5600E4900140F0C2
:013E5B002244
:06411400900144EFF022CF
:06411A00900143EFF022CA
:0940EA0090014374CCF0A3F02214
:1029AF00900141E0FF600EF4600B90012CE0640198
:1029BF006003022A8543D1E8900142E0B408004049
:1029CF0003022A7F9029DAF82828730229F2022AB3
:1029DF0002022A13022A26022A3B022A4B022A5CEF
:1029EF00022A6F53D1EF12174B12124E90014274FD
:1029FF0001F022C292D29112174F12124E90014241
:102A0F007402F022C292C291D2A312175112124E27
:102A1F009001427403F022C292C291C2A3D2B412A7
:102A2F00175312124E9001427404F02243D1101228
:102A3F00174B12124E9001427405F022C292D2919E
:102A4F0012174F12124E9001427406F022C292C218
:102A5F0091D2A312175112124E9001427407F02215
:102A6F00C292C291C2A3D2B412175312124E800057
:102A7F00E4900142F022900141E0B4010375D16866
:012A8F002224
:05124E00900143E0FFE8
:10125300EF12095012BA0112F202132A03136204A5
:10126300139A0513D206140907144308147D0912AF
:10127300821E14F6CC14EBCE14B4FF0000150090BC
:101283000142E0FF6003B40404C295C294EF640119
:101293006004EFB40504D295D294EF64026004EFC6
:1012A300B40604D295D294EF64036008EF64076038
:1012B300030215000214E6900142E0FF6003B40448
:1012C30004C295C294EF64016004EFB40504D2959F
:1012D300C294EF64026004EFB40604D295C294EFA3
:1012E30064036008EF6407600302150002143E9074
:1012F3000142E0FF6003B40404D295C294EF640199
:101303006004EFB40504D295C294EF64026004EF65
:10131300B40604C295D294EF64036008EF640760D7
:1013230003021500021478900142E0FF6003B40445
:1013330004D295C294EF64016004EFB40504D2951E
:10134300C294EF64026004EFB40604D295D294EF22
:1013530064036008EF640760030215000214AF9092
:101363000142E0FF6003B40404C295C294EF640138
:101373006004EFB40504D295D294EF64026004EFE5
:10138300B40604D295D294EF64036008EF64076057
:101393000302150002143E900142E0FF6003B4040F
:1013A30004D295C294EF64016004EFB40504C295BE
:1013B300D294EF64026004EFB40604D295D294EFA2
:1013C30064036008EF640760030215000214AF9022
:1013D3000142E0FF6003B40404D295C294EF6401B8
:1013E3006004EFB40504C295D294EF64026004EF85
:1013F300B40604D295D294EF64036008EF640760E7
:1014030003021500806F900142E0FF6003B40404FF
:10141300D295C294EF64016004EFB40504D295C27F
:1014230094EF64026004EFB40604D295C294EF64AF
:10143300036008EF64076003021500C295C294229B
:10144300900142E0FF6003B40404D295C294EF64B8
:10145300016004EFB40504D295D294EF64026004F2
:10146300EFB40604D295D294EF64036008EF6407E7
:101473006003021500D295D29422900142E0FF60EE
:1014830003B40404D295C294EF64016004EFB4057D
:1014930004D295D294EF64026004EFB40604D295AB
:1014A300D294EF64036005EF64077051D295C29440
:1014B30022900142E0FF6003B40404D295C294EF8A
:1014C30064016004EFB40504C295D294EF64026032
:1014D30004EFB40604C295D294EF64036005EF648D
:1014E30007701AC295D29422C297C296C295C2942B
:0E14F300C29322D297D296D295D294D293224F
:0D174B00D292C291C2A3C2B4900144E0FF4B
:10175800EFB40700400302192D901768F828287382
:1017680002177D0217BB0217F90218370218740214
:1017780018B10218F0900142E0FF6003B40406C2F9
:1017880097C296C293EF64016004EFB40506D2973E
:10179800D296D293EF64026004EFB40606C297D2E1
:1017A80096C293EF64036046EF6407600302192D45
:1017B8000218E9900142E0FF6003B40406D297C220
:1017C80096C293EF64016004EFB40506D297D296EF
:1017D800D293EF64026004EFB40606C297C296C2C1
:1017E80093EF64036008EF6407600302192D021881
:1017F800E9900142E0FF6003B40406C297C296C2B2
:1018080093EF64016004EFB40506D297D296D293A1
:10181800EF64026004EFB40606D297C296C293EF53
:1018280064036008EF6407600302192D0218E99049
:101838000142E0FF6003B40406C297C296D293EF58
:1018480064016004EFB40506D297D296D293EF6490
:10185800026004EFB40606C297C296C293EF64030F
:101868006008EF6407600302192D8075900142E05B
:10187800FF6003B40406C297D296C293EF64016076
:1018880004EFB40506D297D296D293EF64026004AF
:10189800EFB40606C297C296C293EF64036008EFDE
:1018A8006407600302192D8038900142E0FF60034D
:1018B800B40406C297C296C293EF64016004EFB401
:1018C8000506D297D296D293EF64026004EFB4066D
:1018D80006C297C296D293EF64036005EF6407705F
:1018E80044D297D296D29322900142E0FF6003B48B
:1018F8000406C297C296C293EF64016004EFB40570
:1019080006C297C296C293EF64026004EFB406065B
:10191800C297C296C293EF64036004EFB40706C28D
:0619280097C296C2932253
:0C40A20000000000000000000000000012
:0427B7004100EA00F3
:103EED00E49000E8F0A3F09000E4F0A3F0A3F0A3B9
:103EFD00F09000E304F09000E2F09000E104F02275
:100E2600787E7C007D017BFF7A4079A27E007F0C74
:100E360012067E90008A1208FF0000000090008EC5
:100E46001208FF000000009000E8E0FEA3E0FF901B
:100E560000E6E0FCA3E0FDD39FEC9E5003021246A1
:100E6600ED9FFFEC9EFED3EF9464EE9400400302E8
:100E7600123CE4FCFD90007E1208F3E49000DFF0E3
:100E86009000D6E0FCA3E0FDA3E0FEA3E0FFA312E2
:100E960008F39000D2E0FCA3E0FDA3E0FEA3E0FF90
:100EA600A31208F390007EE0FCA3E0FDA3E0FEA3FE
:100EB600E0FF9000D21208F39000D6E0FCA3E0FD1C
:100EC600A3E0FEA3E0FF9000D2E0F8A3E0F9A3E0E0
:100ED600FAA3E0FBD31208BC40339000D6E0F8A397
:100EE600E0F9A3E0FAA3E0FB9000D2E0FCA3E0FD6A
:100EF600A3E0FEA3E09BFFEE9AFEED99FDEC98FCC5
:100F060090007E1208F3E49000DEF080319000D26B
:100F1600E0F8A3E0F9A3E0FAA3E0FBA3E0FCA3E07A
:100F2600FDA3E0FEA3E0C39BFFEE9AFEED99FDEC68
:100F360098FC90007E1208F39000DE7401F0E47FC6
:100F460002FEFDFC9000D6E0F8A3E0F9A3E0FAA3C8
:100F5600E0FB12077B9000861208F39000DAE0FCB3
:100F6600A3E0FDA3E0FEA3E0FF9000D2E0F8A3E03B
:100F7600F9A3E0FAA3E02FFFEA3EFEE93DFDE83CD7
:100F8600FC900086E0F8A3E0F9A3E0FAA3E0FBC337
:100F96001208BC504B9000DAE0FCA3E0FDA3E0FE93
:100FA600A3E0FF9000D2E0F8A3E0F9A3E0FAA3E003
:100FB6002FFFEA3EFEE93DFDE83CFC900086E0F8A6
:100FC600A3E0F9A3E0FAC3EF9BFFEE9AFEED99FDCD
:100FD600EC98FC9000861208F3E49000E0F0805D47
:100FE600900086E0FCA3E0FDA3E0FEA3E0FFC004C2
:100FF600C005C006C0079000DAE0FCA3E0FDA3E050
:10100600FEA3E0FF9000D2E0F8A3E0F9A3E0FAA384
:10101600E02FFBEA3EFAE93DF9E83CF8D007D006B6
:10102600D005D004C3EF9BFFEE9AFEED99FDEC9838
:10103600FC9000861208F39000E07401F09000E145
:10104600E0FFE4FCFDFE90007EE0F8A3E0F9A3E0FB
:10105600FAA3E0FB12077B90007E1208F39000E2F1
:10106600E0FFE4FCFDFE9000D2E0F8A3E0F9A3E087
:10107600FAA3E0FB12077B9000821208F39000E3CC
:10108600E0FFE4FCFDFE900086E0F8A3E0F9A3E0B3
:10109600FAA3E0FB12077B9000861208F39000DEAD
:1010A600E0702D90008AE0FCA3E0FDA3E0FEA3E043
:1010B600FF90007EE0F8A3E0F9A3E0FAA3E0FBEFDF
:1010C6002BFFEE3AFEED39FDEC38FC90008A802BC2
:1010D60090008EE0FCA3E0FDA3E0FEA3E0FF9000FD
:1010E6007EE0F8A3E0F9A3E0FAA3E0FBEF2BFFEE26
:1010F6003AFEED39FDEC38FC90008E1208F39000B4
:10110600DFE0702E90008AE0FCA3E0FDA3E0FEA3E2
:10111600E0FF90007EE0F8A3E0F9A3E0FAA3E0FB8D
:10112600EF2BFFEE3AFEED39FDEC38FC90008A120B
:1011360008F39000E0E0702B90008AE0FCA3E0FD4D
:10114600A3E0FEA3E0FF900086E0F8A3E0F9A3E0A9
:10115600FAA3E0FBEF2BFFEE3AFEED39FDEC38FC8F
:10116600A3802B90008EE0FCA3E0FDA3E0FEA3E0AD
:10117600FF900086E0F8A3E0F9A3E0FAA3E0FBEF16
:101186002BFFEE3AFEED39FDEC38FC90008E12088E
:10119600F390008AE0F8A3E0F9A3E0FAA3E0FB905D
:1011A60000E4E0FEA3E0FFE4FCFDEB2FFFEA3EFED9
:1011B600ED39FDEC38FC90008A1208F390008EE0C1
:1011C600FCA3E0FDA3E0FEA3E0FF90008AE0F8A305
:1011D600E0F9A3E0FAA3E0FBD31208BC406290005A
:1011E6008EE0F8A3E0F9A3E0FAA3E0FB90008AE022
:1011F600FCA3E0FDA3E0FEA3E09BFFEE9AFEED99C3
:10120600FDEC98FC90007E1208F3E47F64FEFDFC82
:1012160090007EE0F8A3E0F9A3E0FAA3E0FBC31296
:1012260008BC501290007EA3A3E0FFA3E09000E468
:10123600CFF0A3EFF0229000E4E4F0A37464F02270
:07124600E49000E4F0A3F0C6
:01124D00227E
:103E5C00637263206572726F7220286372633A30EA
:103E6C00782558202062757420646174613A30782A
:063E7C002558290D0A0083
:0527BB0042015900007D
:10349D00EFC39430400CEFD39439500674D02FFF06
:1034AD008022EFC39441400CEFD394465006EF2495
:1034BD00C9FF8010EFC39461400AEFD394665004A6
:1034CD00EF24A9FFEF540FC454F0FFEDC394304027
:1034DD000CEDD39439500674D02DFD801EEDC394A0
:1034ED00414008EDD394465002800CEDC3946140E9
:1034FD000AEDD394665004ED24A9FDED540F4FFF52
:01350D00229B
:0B334400900090EBF0A3EAF0A3E9F08A
:10334F00A31208FF00000000900090E0FBA3E0FA3A
:10335F00A3E04A4B7005FFFEFDFC2290009312087C
:10336F00FF00000000900090E0FBA3E475F0011255
:10337F000746A9F0FA1206A46021900093E0FCA37F
:10338F00E0FDA3E0FEA3E02401FFE43EFEE43DFDEB
:10339F00E43CFC9000931208F380CA900093E0FC89
:0933AF00A3E0FDA3E0FEA3E0FF92
:0133B80022F2
:0B38980090012DEBF0A3EAF0A3E9F093
:1038A300900133EBF0A3EAF0A3E9F090012DE0FBE4
:1038B300A3E0FAA3E04A4B7004FBFAF9229001312A
:1038C30074FFF5F012074645F06016900133E0FBF4
:1038D300A3E475F001120746A9F0FAED1206EA8097
:0C38E300DC90012DE0FBA3E0FAA3E0F96B
:0138EF0022B6
:0B1AAB009000A0EBF0A3EAF0A3E9F02C
:101AB6009000A8EBF0A3EAF0A3E9F09000A3E0F908
:101AC600A3E0FAA3E09000ABC9F0A3EAF0A3E9F023
:101AD6009000A0E0FBA3E0FAA3E04A4B600CA3E071
:101AE600FBA3E0FAA3E04A4B70077B007A0079007B
:101AF600229000ABE0FBA3E0FAA3E0F9C003C0022A
:101B0600C0019000A8A3E0FAA3E0F9D3D082D08365
:101B1600D0E0E99582EA958340339000ABA3E0FAE2
:101B2600A3E0F99000A6E0FEA3E0FFE92FF9EA3E64
:101B3600FAC003C002C001A3A3E0FAA3E0F9D3D020
:101B460082D083D0E0E99582EA95834056E49000FE
:101B5600AEF0A3F09000A6E0FEA3E0FF9000AEE09A
:101B6600FCA3E0FDC39FEC9E4003021C069000AB65
:101B7600E0FBA3E0FAA3E0F98D828C831206BDFF99
:101B86009000A8E0FBA3E0FAA3E0F98D828C83EF36
:101B96001206FC9000AFE004F070069000AEE00480
:101BA600F080B19000A6E0FFA3E09000AECFF0A3D6
:101BB600EFF09000AEE0FEA3E0FFD39400EE9400B9
:101BC600403E9000ABE0FBA3E0FAA3E0F9EF24FF70
:101BD600FFEE34FFFE8F82F5831206BDFD9000A84E
:101BE600E0FBA3E0FAA3E0F98F828E83ED1206FCF8
:101BF6009000AFE024FFF09000AEE034FFF080B23A
:0B1C06009000A0E0FBA3E0FAA3E0F9CF
:011C110022B0
:0B35E700900136EBF0A3EAF0A3E9F03E
:1035F20090013CEBF0A3EAF0A3E9F0900139E0FB83
:10360200A3E0FAA3E0F91206A46028900139A3E42A
:1036120075F001120746A9F0FA1206A4FF900136CE
:10362200E0FBA3E475F001120746A9F0FAEF1206D7
:10363200EA80C8900136E0FBA3E0FAA3E0F9E412C5
:0D36420006EA90013CE0FBA3E0FAA3E0F9EA
:01364F002258
:1033B900900145EBF0A3EAF0A3E9F0900145E0FBA9
:1033C900A3E0FAA3E0F91206A4FF6029900148E0FE
:1033D900FBA3E0FAA3E0F91206A46019B507169059
:1033E9000146E475F001120730900149E475F001D6
:1033F90012073080C6900148E0FBA3E0FAA3E0F988
:103409001206A4FF3395E0FE900145E0FBA3E0FA24
:10341900A3E0F91206A4FD3395E0FCC3ED9FFFEC90
:033429009EFE22E2
:103784009001551208F3900155E0FCA3E0FDA3E07D
:10379400FEA3E0FF78181208CDEF1206EA90015557
:1037A400E0FCA3E0FDA3E0FEA3E0FF78101208CD47
:1037B400900001EF1206FC900155E0FCA3E0FDA38C
:1037C400E0FEA3E0FF78081208CD900002EF120695
:1037D400FC900155A3A3A3E0FF900003EF0206FCB5
:0B213B00900099EBF0A3EAF0A3E9F09C
:10214600A31208FF000000001206A4FFE4FCFDFE37
:1021560090009C1208F390009CE0FCA3E0FDA3E035
:10216600FEA3E0FF78081208E090009C1208F390A6
:10217600009CE0F8A3E0F9A3E0FAA3E0FBC000C0EE
:1021860001C002C003900099E0FBA3E0FAA3E0F9C6
:102196009000011206BDFFD003D002D001D000EBA3
:1021A6004FFFEAFEE9FDE8FC90009C1208F3900060
:1021B6009CE0FCA3E0FDA3E0FEA3E0FF7808120884
:1021C600E090009C1208F390009CE0F8A3E0F9A3CD
:1021D600E0FAA3E0FBC000C001C002C00390009972
:1021E600E0FBA3E0FAA3E0F99000021206BDFFD0DF
:1021F60003D002D001D000EB4FFFEAFEE9FDE8FC78
:1022060090009C1208F390009CE0FCA3E0FDA3E084
:10221600FEA3E0FF78081208E090009C1208F390F5
:10222600009CE0F8A3E0F9A3E0FAA3E0FBC000C03D
:1022360001C002C003900099E0FBA3E0FAA3E0F915
:102246009000031206BDFFD003D002D001D000EBF0
:102256004FFFEAFEE9FDE8FC90009C1208F39000AF
:0C2266009CE0FCA3E0FDA3E0FEA3E0FF71
:012272002249
:0D37E400900094EBF0A3EAF0A3E9F0AD072C
:1037F100E4FFFE900002E0B401020F22123CCDE48E
:10380100FD123CCD900097E0FD123CCD900098E078
:10381100FD123CCD900094E0FBA3E0FAA3E0F9A3F4
:10382100E0FDA3E090009ECDF0A3EDF0123584AB56
:0C38310007AA067D037F071236507F01B6
:01383D002268
:073A7F00900094EDF0AC078C
:103A8600E4FFFE900002E0B401020F22AD04123CF6
:103A9600CD7D01123CCDE4FD123CCD7D01123CCD25
:103AA600900094E07003FD80027D01123CCDAB07CF
:0B3AB600AA067D037F071236507F0137
:013AC10022E2
:022E4000AD07DC
:102E4200E4FFFE900002E0B401020F22123CCD7DAD
:102E520002123CCDE4FD123CCD7D04123CCDC006F5
:102E6200C007900098E0FCA3E0FDA3E0FEA3E0FF12
:102E720078181208CDAD07D007D006123CCDC00697
:102E8200C007900098E0FCA3E0FDA3E0FEA3E0FFF2
:102E920078101208CDAD07D007D006123CCDC0067F
:102EA200C007900098E0FCA3E0FDA3E0FEA3E0FFD2
:102EB20078081208CDAD07D007D006123CCDC00667
:102EC200C007900098E0FCA3A3A3E0FFE4AD07D005
:102ED20007D006123CCDAB07AA067D037F07123648
:032EE200507F011D
:012EE50022CA
:0D383E0090014CEBF0A3EAF0A3E9F0AD0718
:10384B00E4FFFE900002E0B401020F22123CCD7D9A
:10385B0003123CCD90014FE0FD123CCD900150E0A6
:10386B00FD123CCD90014CE0FBA3E0FAA3E0F9A3E1
:10387B00E0FDA3E090009ECDF0A3EDF0123584ABFC
:0C388B0007AA067D037F071236507F015C
:01389700220E
:073B0200900094EDF0AC0708
:103B0900E4FFFE900002E0B401020F22AD04123C72
:103B1900CD7D04123CCDE4FD123CCD7D01123CCD9E
:103B2900900094E0FD123CCDAB07AA067D037F0708
:053B39001236507F016F
:013B3E002264
:021C1200AD071C
:101C1400E4900090F0A3F0900002E0B401037F018F
:101C240022900090E0FEA3E0FF123CCD900090EEE5
:101C3400F0A3EFF07D05123CCD900090EEF0A3EF01
:101C4400F0E4FD123CCD900090EEF0A3EFF0900094
:101C54008CE0FCA3E0FDA3E0FEA374FFFFE47BFFA4
:101C6400FAF9F8C31208BC7020900090E0FEA3E0DB
:101C7400FF7D01123CCD900090EEF0A3EFF09000B8
:101C84008CA3A3A3E0FD021D5390008CE0FCA3E011
:101C9400FDA3A374FFFFFEE47BFF7AFFF9F8C312F0
:101CA40008BC9000907009E0FEA3E0FF7D0280571D
:101CB400E0FEA3E0FF7D04123CCD900090EEF0A383
:101CC400EFF0C006C00790008CE0FCA3E0FDA3E0A9
:101CD400FEA3E0FF78181208CDAD07D007D0061296
:101CE4003CCD900090EEF0A3EFF0C006C00790004A
:101CF4008CE0FCA3E0FDA3E0FEA3E0FF7810120853
:101D0400CDAD07D007D006123CCD900090EEF0A3E5
:101D1400EFF0C006C00790008CE0FCA3E0FDA3E058
:101D2400FEA3E0FF78081208CDAD07D007D0061255
:101D34003CCD900090EEF0A3EFF0C006C0079000F9
:101D44008CE0FCA3A3A3E0FFE4AD07D007D0061208
:101D54003CCD900090EEF0A3EFF0900090E0FAA359
:0B1D6400E0FB7D037F071236507F017B
:011D6F002251
:0D408800900094ECF0A3EDF01206A4FF22CE
:0D409500900094ECF0A3EDF01206A4FF22C1
:0C40AE00900097ECF0A3EDF012213B22F3
:102D92009000B0EFF0900071A3E0FAA3E0AE02FF62
:102DA200900074A3E0FAA3E0C39FFFEA9EFEEF64E3
:102DB200014E7003022E3F900074E0FBA3E0FAA3E1
:102DC200E0F9C003C002C001900071A3E0FAA3E0E1
:102DD200F9D3D082D083D0E0E99582EA958340236B
:102DE200900074A3E0FAA3E0AE02FF900071A3E0AA
:102DF200FAA3E09FFFEA9EFEC3EF9417EE6480946D
:102E020080503A900071A3E0FAA3E0C390003A9593
:102E120082EA9583400E9000717401F0A37400F071
:102E2200A37423F09000B0E0FF900071E0FBA3E4F4
:0E2E320075F001120746A9F0FAEF1206EA2227
:10150100E4900078F0A3F0A3F0A3F0C390015AE0B7
:10151100941F900159E094005026123B7AEFD39426
:1015210000401D123721900159E475F00112074660
:10153100FC740325F0F58274003CF583EFF080CB59
:10154100C390015AE09407900159E09400500302BE
:10155100174A900078E0FEA3E0FFC390015AE09F94
:10156100FD900159E09EFCC3ED9407EC94005003FB
:101571000216FD74032FF58274003EF583E0645575
:101581006010900079E004F070C8900078E004F0F9
:1015910080C0900078E0FEA3E0FF2404F58274008F
:1015A1003EF583E064AA6010900079E004F070A237
:1015B100900078E004F0809A74052FF58274003E63
:1015C100F583E06009900079E024020216D09000D2
:1015D10078E0FCA3E0FD2407F58274003CF583E08C
:1015E10090007AF0A3E4F074082DF58274003CF5C4
:1015F10083E02407FFE433FE90007BE02FF09000AE
:101601007AE03EF0E0FEA3E0FFD39426EE940040A2
:1016110009900079E024030216D0900078E0FCA341
:10162100E0FDC390015AE09DFD900159E09CFCD37F
:10163100EF9DEE9C40030216FD900078E0FEA3E0D2
:101641002403F974003EFA7B0190007BE024FFFD46
:1016510090007AE034FFFC1239F090007AE0FCA3AC
:10166100E0FD900078E0FAA3E0FB2DFDEA3CFC747C
:10167100022DF58274003CF583E06F605D74032BED
:10168100F974003AFA7B0190007BE024FFFD9000A1
:101691007AE034FFFC1239F090007FEFF07BFF7AA3
:1016A1003E795C90007AE0FEA3E0FF900079E02FA4
:1016B100FF900078E03EFE74022FF58274003EF543
:1016C10083E0900080F0120A0E900079E02403F08C
:1016D100900078E03400F0021553900078E0FEA30A
:1016E100E0FF121D7090007AE0FEA3E0FF90007908
:1016F100E02FF0900078E03EF0021553900078E082
:10170100FEA3E0FFC390015AE09FFD900159E09EC6
:10171100FCF0A3EDF0D39400EC9400402C74032F63
:10172100F974003EFA9000A37401F0A3EAF0A3E972
:10173100F0900159E0FFA3E09000A6CFF0A3EFF0F5
:091741007B017A007903121AAB56
:01174A00227C
:103EA8009000717401F0A37400F0A37423F09000E3
:103EB800747401F0A37400F0A37423F09000777475
:033EC800FFF022E6
:06412000900022E0FF22E6
:0E406D00E4900022F0FBFA7D037F040236503F
:06412600900001E0FF2201
:023FCF00AD073C
:103FD100E4FF900001F0FE123CCDEFFB7A007D037F
:053FE1007F05023650CF
:06412C00900077E0FF2285
:0A40C400E4FBFA7D037F0E02365084
:064132004B38313035006E
:1027C0005401030101020203020404050406020885
:0727D000010D051801650071
:03413F0002000E6D
:1032420078857C007D017BFF7A4179327E007F06A2
:1032520012067E1240FCAD077F01123A7F90009861
:103262001208FF000000197F02122E4090009812EF
:1032720008FF000000197F03122E40900117E0FDA5
:103282007F04123B02E4FD7F05123B02900098127C
:1032920008FF000000007F06122E40E4FD7F0812A6
:1032A2003A7F90008C1208FF000000007F0D121C74
:1032B20012E4FD7F18123A7F7B017A0079857F65DF
:0332C2000237E4EC
:103D9C00124088900093EFF070047F018002E4FFE2
:103DAC00124102900093E0FD7F01123A7FEFB401C3
:063DBC00037F01227F00DD
:013DC20022DE
:103CA1001240AE9000931208F3900093E0FCA3E061
:103CB100FDA3E0FEA3E0FF9000981208F37F02123B
:0B3CC1002E40EFB401037F01227F00C2
:013CCC0022D5
:10313000124095900093EFF0B4090050689031442C
:10314000F828287302315F02316702316F0231774C
:1031500002317F02318702318F02319702319F9015
:1031600001177401F0803E9001177402F0803690D0
:1031700001177403F0802E9001177404F0802690DC
:1031800001177405F0801E9001177406F0801690E8
:1031900001177407F0800E9001177408F0800690F4
:1031A00001177409F0123DEA900093E0FD7F0412CC
:0B31B0003B02EFB401037F01227F000F
:0131BB0022F1
:10394700124095EF14601714601C14602114602650
:1039570014602B2405702DE4900118F08026900147
:10396700187401F0801E9001187402F080169001FF
:10397700187403F0800E9001187404F0800690010B
:10398700187405F0AD077F05123B02EFB401037F02
:0439970001227F008A
:01399B002209
:103E8200124088EF9000F6700504F0E4800374019C
:103E9200F09000F5F0AD077F08123A7FEFB401030E
:053EA2007F01227F00FA
:013EA70022F8
:10403C00124088AD077F18123A7FEFB401037F015D
:03404C00227F00D0
:01404F00224E
:103F8700AF05900097ECF0A3EFF07F651237E4EFF1
:083F9700B401037F01227F0049
:013F9F0022FF
:0B27DC0090008DEBF0A3EAF0A3E9F001
:1027E700EF24E8700302289524B370030228AB2472
:1027F70064B4080040030228C490280E75F003A4AF
:10280700C58325F0C5837302282602283D0228C404
:102817000228530228690228C40228C402287F908C
:10282700008DE0FBA3E0FAA3E0F9A3E0FCA3E0FD41
:10283700123D9C0228BF90008DE0FBA3E0FAA3E0C5
:10284700F9A3E0FCA3E0FD123CA1806C90008DE0B1
:10285700FBA3E0FAA3E0F9A3E0FCA3E0FD1231300B
:10286700805690008DE0FBA3E0FAA3E0F9A3E0FC1B
:10287700A3E0FD123947804090008DE0FBA3E0FA0A
:10288700A3E0F9A3E0FCA3E0FD123E82802A9000BA
:102897008DE0FBA3E0FAA3E0F9A3E0FCA3E0FD12BF
:1028A700403C801490008DE0FBA3E0FAA3E0F9A37D
:1028B700E0FCA3E0FD123F87900092EFF0900092BA
:0228C700E0FF30
:0128C90022EC
:034142007F0A22CF
:0940F300900085EFF0A3EDF0222E
:103B3F007B2270223A22006939716E6F6864677A4E
:103B4F0066756A6475617500222C2276223A22000E
:103B5F00312E302E3000222C226D223A0032007D81
:0B3B6F0000000000000000000000004B
:0427D70041000000BD
:083CCD0090009CEEF0A3EFF063
:103CD5002440F974003EFA7B01ED1206EA90009D3E
:103CE500E004F0700690009CE004F090009CE0FE7B
:033CF500A3E0FF4A
:013CF80022A9
:09357B00900085E0FF7E007BFF5B
:1035840090009BEBF0A3EAF0A3E9F0900099EEF031
:03359400A3EFF0B2
:103597002440F974003EFA7B01C002C001A3E0F9A0
:1035A700A3E0FAA3E09000A3C9F0A3EAF0A3E9F02F
:1035B70090009EE0FFA3E09000A6CFF0A3EFF0D02D
:1035C70001D002121AAB90009EE0FEA3E0FF90002C
:0F35D7009AE02FF0900099E03EF0E0FEA3E0FFB5
:0135E60022C2
:1039F00090009EEBF0A3EAF0A3E9F0A3ECF0A3EDB6
:013A0000F0D5
:103A0100E4A3F0FFFED39000A2E09F9000A1E09E0E
:103A1100402190009EE0FBA3E475F001120746A946
:103A2100F0FA1206A4FD9000A3E02DF00FBF0001F3
:083A31000E80D29000A3E0FF1B
:013A3900226A
:10399C0090009EEBF0A3EAF0A3E9F0A3ECF0A3ED0A
:1039AC00F090009EE0FBA3E0FAA3E04A4B6034A346
:1039BC00E07002A3E0602C9000A174FFF5F01207F8
:1039CC004645F0601E90009EE0FBA3E0FAA3E0F9F0
:1039DC001206A4FF12413F90009FE475F0011207FC
:0439EC003080D42231
:0836500090009CEAF0A3EBF0EE
:1036580090003A7455F0A374AAF0A3EDF0A3EFF02C
:1036680090009CE0FCA3E0FDEC90003EF0EDA3F0A0
:1036780090009DE02407F090009CE03400F07B016E
:103688007A00793AA3E024FFFD90009CE034FFFC27
:103698001239F0AE0790009CE0FCA3E0FD2439F558
:1036A8008274003CF583EFF07B017A00793A0239A5
:0136B8009C75
:103DC300E4FF900000E0700DFEFD123CCD9000007A
:103DD3007401F080077E007D01123CCDEFFB7A0079
:073DE3007D03E4FF023650EE
:1024CD00E4900085F078867C007D017BFF7A3B7976
:1024DD0070FE7F0A12067E7BFF7A3B793F123344F2
:1024ED0090009EEEF0A3EFF07A3B793F12357B9092
:1024FD000085EFF07BFF7A3B794612334490009EC6
:10250D00EEF0A3EFF07A3B794612357B900085EF24
:10251D00F07BFF7A3B795712334490009EEEF0A387
:10252D00EFF0900085E0FF7E007BFF7A3B7957123C
:10253D003584900085EFF07BFF7A3B795F12334451
:10254D0090009EEEF0A3EFF0900085E0FF7E007B03
:10255D00FF7A3B795F123584900085EFF07BFF7A2F
:10256D003B796512334490009EEEF0A3EFF090009E
:10257D0085E0FF7E007BFF7A3B7965123584900004
:10258D0085EFF07BFF7A3B796C12334490009EEE21
:10259D00F0A3EFF0900085E0FF7E007BFF7A3B79A2
:1025AD006C123584900085EFF07BFF7A3B796E12CB
:1025BD00334490009EEEF0A3EFF0900085E0FF7E97
:1025CD00007BFF7A3B796E123584900085EFF0FB2E
:0925DD007A007D037F01023650F3
:0A40CE00E4FBFA7D037F0202365086
:053C450090008CEFF07F
:103C4A00124142E4FEEEC39F501D75F002EEA42419
:103C5A0003F582E5F03401F583E0FD90008CE0FC89
:093C6A00ED6C60030E80DEAF0674
:013C7300222E
:0B31BC00900085EBF0A3EAF0A3E9F01F
:1031C7001206A4900088F0FD9000011206BD900041
:1031D70089F09000021206BD90008AF0A3E4F090F7
:1031E70000031206BDFF90008BE02FF090008AE0ED
:1031F7003400F0AF05123C4575F002EFA42404F546
:1032070082E5F03401F583E0FF900089E06F600309
:103217007F0022900088E0FF900085E0FBA3E0FAA2
:10322700A3E02404F9E43AFA90008AE0FDA3E090D1
:0A3237000090CDF0A3EDF01227DCAB
:01324100226A
:081D700090007CEEF0A3EFF0FF
:101D780090007CE0FEA3E02406F58274003EF58323
:101D8800E0FF1209501DAC001DAF011DB2021DB5C8
:101D9800031DD4041DD9051DE0061EA0081EA30EB0
:101DA80000001EC8023DC30224CD0240CE90007C34
:101DB800E0FEA3E02409F58274003EF583E090007C
:101DC80077F0E4FBFA7D037F03023650900022800F
:101DD800039000017401F02290007CE0FCA3E0FD78
:101DE8002407F58274003CF583E0FE74082DF58223
:101DF80074003CF583E0FDEDFF900083EEF0A3EF67
:101E0800F0E4900081F0A3F0900083E0FEA3E0FFEF
:101E1800C3900082E09F900081E09E4003021EC8AC
:101E2800E0FEA3E0FF90007CE0FCA3E0FD2FFBECCC
:101E38003EFA740B2BF58274003AF583E090007E2D
:101E4800F0A3E4F0740C2BF58274003AF583E0FFFC
:101E580090007FE02FF090007EE03400F074092DB0
:101E6800F974003CFA7B01900081E0FEA3E029F9B7
:101E7800EA3EFA1231BC900080EFF090007FE02437
:101E880004FF90007EE03400FE900082E02FF09086
:101E98000081E03EF0021E1002324290007CE0FE1B
:101EA800A3E0FF2409F58274003EF583E0FD740A7F
:101EB8002FF58274003EF583E0FEAF05FD1240F376
:011EC80022F7
:103B7A00900074E0FBA3E0FAA3E0F9C003C002C01E
:103B8A0001900071E0FBA3E0FAA3E0F9D082D083B0
:103B9A00D0E06B7008E965827003EA658360037F91
:053BAA0001227F002252
:10372100900071E0FBA3E0FAA3E0F9C003C002C07E
:1037310001A3E0FBA3E0FAA3E0F9D082D083D0E0BB
:103741006B7008E965827003EA65836035900074E7
:10375100A3E0FAA3E0C390003A9582EA9583400E74
:103761009000747401F0A37400F0A37423F090002E
:1037710074E0FBA3E475F001120746A9F0FA120602
:02378100A4FFA3
:013783002223
:100026000203E7E86480F8E933E83360110460F01E
:10003600ED33EC337009E8FCE9FDEAFEEBFF220440
:1000460060DED3EB9FEA9EE99DE8C2E78CF0C2F73B
:1000560095F0400CE8CCF8E9CDF9EACEFAEBCFFB07
:100066001203B285D0F05804700320D5B3E80470AB
:10007600075002B2D50203F192D5EC0460F7E4CC46
:10008600C0E0C398F8603B94186008400DD0E0FBD0
:100096000203C9E4FBFAC9FC8028E830E406E4C997
:1000A600FBE4CAFCE830E305E4C9CACBFCE8540724
:1000B6006010F8C3E913F9EA13FAEB13FBEC13FC2F
:1000C600D8F130F52FC3E49CFCEF9BFFEE9AFEEDD2
:1000D60099FDD0E0FBEF4E4D4C701222DB0302037C
:1000E600EEEC2CFCEF33FFEE33FEED33FDED30E7A7
:1000F600EB0203C9EF2BFFEE3AFEED39FDD0E0FB34
:1001060050130BBB00030203F1ED13FDEE13FEEFDC
:0801160013FFEC13FC0203C906
:10011E00EC4D6011E8497017ED33EC3304600DE4DB
:10012E00FCFFFEFD22E933E8330470F80203E71208
:10013E0003B258046009E4CC248150062850090209
:10014E0003F12840030203EEC0E0EB4A7044B9808D
:10015E0006D0E0FB0203DDEF4E701CBD8008EBFF06
:10016E00EAFEE9FD80EBE98DF0A4FEE5F002020760
:10017E00E9CDF9EAFEEBFFEF89F0A4FCE5F0CE89BC
:10018E00F0A42EFFE435F0CD89F0A42DFEE435F079
:10019E008067EF4E7005BD80D780C3EF8BF0A4ACA7
:1001AE00F0EE8BF0A42CFCE435F0F8EF8AF0A42CE2
:1001BE00E5F038FCE433CB8DF0A42CFCE5F03BF8F5
:1001CE00EE8AF0A42CFCE5F038F8E433CF89F0A4E5
:1001DE002CFCE5F038CF3400CE89F0A42FFFE5F0EB
:1001EE003EFEE433C98DF0A42EFEE5F039CD8AF043
:1001FE00A42FFFE5F03EFEE43DFD33D0E0FB5007BB
:10020E000BBB000F0203F1EC2CFCEF33FFEE33FEC1
:06021E00ED33FD0203C9EF
:100224000203F1EC5D046005E8590470030203E77E
:100234001203B2580460F6EC4860F2EC7004FDFE60
:10024400FF22C860DB2481C85009C39860025006AD
:100254000203EE9850CAF582E9294B4A7005AB8235
:100264000203DD75F0007C1A7880C3EF9BEE9AEDF3
:1002740099400DC3EF9BFFEE9AFEED99FDE842F025
:10028400DC23ACF0D0E0FFD0E0FED0E0FDAB822078
:10029400E7101BEB60BAEC2CFCEF33FFEE33FEED02
:1002A40033FD0203C9E803F830E705C0F075F00038
:1002B400EF2FFFEE33FEED33FD40B830E7C280AAE6
:1002C40074F8CC6480CCC86480C8F58204604FC3E1
:1002D400EB9FF5F0EA9E42F0E99D42F0E89C45F080
:1002E400603C501DE5825FFFE582D313CB5BCBF40A
:1002F4002B5582FB50280ABA002409B90020088033
:100304001DE5825BFBE582D313CF5FCFF4C3132FCC
:100314005582FF50090EBE00050DBD00010CC3EB54
:100324009FF5F0EA9E42F0E99D42F0E89C45F060BA
:0903340007CC4820E701B3EC22DC
:10033D0075F020800E75F010800575F0087D007E3B
:10034D00007F003392D530D503120898EC3340105E
:10035D00EF33FFEE33FEED33FDEC33FCD5F0ED2244
:0E036D00E5F0247EA2D513CC92E7CDCEFF2280
:10037B00EDD2E7CD33EC3392D524814006E4FFFE7A
:10038B00FDFC22FCE4CFCECDCC24E0501174FF80D9
:10039B00EDC3CC13CCCD13CDCE13CECF13CF047076
:0703AB00F030D5DE020898D6
:1009A300E508247FF582E43400F583E0050822900E
:1009B300007C30070390007FE475F00112093002D8
:1009C30006A42000E97F2ED2008018EF540F249054
:1009D300D43440D4FF30040BEF24BFB41A005003C7
:1009E3002461FFE50960021509050CE50C70020599
:1009F3000B30070E90007CE475F001120930EF0212
:100A030006EA0241087403D2078003E4C207F5082B
:100A130090007C120947E4F509F50BF50CE5096034
:100A2300077F201209E680F5750AFFC201C200C2E2
:100A330002C203C205C206C2081209B2FF700D301A
:100A430007057F001209F7AF0CAE0B22B4255FC276
:100A5300D5C2041209B2FF24D0B40A00501A75F0AB
:100A63000A780930D50508B6FF0106C6A426F62084
:100A7300D5047002D20380D924CFB41A00EF5004F6
:100A8300C2E5D204020CE9D20180C6D20080C0D2F2
:100A93000280BCD2D580BAD20580B47F201209E689
:100AA3002002077401B5090040F11209A3FF1209DE
:100AB300E6020A20D208D20680951209A3FB120986
:100AC300A3FA1209A3F94A4B700679E77A0D7BFF63
:100AD30020022EE509602A7E008E827583001206AD
:100AE300BD60060EEE650A70F0C2D5EBC0E0EAC049
:100AF300E0E9C0E0EE120D4AD0E0F9D0E0FAD0E030
:100B0300FB1206A4FF60AAEBC0E0EAC0E0E9C0E084
:100B13001209E6D0E02401F9D0E03400FAD0E0FB7A
:100B2300E50A0460DCD50AD98087D20280A2120DBF
:100B33002C60F7E50A7001041203FCA90A600DE5B5
:100B43000A600914F50A120DD4EF60F3EA30E702E4
:100B5300F404C3995079EAF4250A0430E701E40464
:100B6300F50A800D120D2C60C1EA050A250A12034D
:100B7300FCEA9000ABF030E701E4250A04D50A044F
:100B830020050114120D4AE4C0E0120DD49000AB0D
:100B9300E0601320E70714F01209CE802204F0D09E
:100BA300E014C0E07F001209CEE50A60071209C510
:100BB300150A800B3005031209C5D0E0020A20D0C4
:100BC300E00480C4120D2C609EE50A041203FC901D
:100BD30000ABEAF0E50A2005026001042404120DCB
:010BE3004AC7
:100BE40074FF04C0E0120DD41209CEE50A200502F8
:100BF40060031209C5D0E0B50AE87F451209D89010
:100C040000ABE07F2B30E7047F2DF404C0E0120931
:100C1400E6D0E075F00A84C0F01209CFD0E01209E2
:100C2400CF020A20791080027908C206C20880081F
:100C3400D2D5790A8004790AC2D5E50A047002F58E
:100C44000AE4FAFDFEFF1209A3FC7B08200113123B
:100C540009A3FD7B1030000A1209A3FE1209A3FFA9
:100C64007B20EC3382D592D55013C3E43000069F29
:100C7400FFE49EFEE42001039DFDE49CFCE4CBF82C
:100C8400C201EC700CCFCECDCCE824F8F870F38020
:100C940017C3EF33FFEE33FEED33FDEC33FCEB33E0
:100CA400FB994002FB0FD8E9EB300105F8D0E0C412
:100CB40048B201C0E00AEC4D4E4F78207B0070C270
:100CC400EAB50A0040BCC0E0120D4CD0F0D0E020E0
:100CD4000104C4C0E0C4B201C0F01209CFD0F0D501
:100CE400F0EB020A201209500ABD530C28580A8E50
:100CF4004C0A8A420C2C4F0C34440C34490AA3434A
:100D04000C3A550B67460BC7450B31470E07500A83
:100D1400922D0A962E0AB92B0A9A230AB7200DF0AF
:100D24002A0A524800000AB1E50AB4FF03750A060C
:100D34001209A3FC1209A3FD1209A3FE1209A3FFC1
:100D44009000A4020439790AA2D5200314300509BD
:100D5400B910020404B9080104A2D5200602500106
:100D6400042002689202B509005034C0E07F2030AC
:100D740003197F30A20272067205500F120DA3C22E
:100D840002C206C205C2087F30800F300503E9C0E5
:100D9400E01209E6300503D0E0F9D0E0B509CC3023
:100DA40005177F30B9100C1209E67F583004077F0D
:100DB400788003B908031209E63002057F2D020981
:100DC400E67F202008F87F2B2006F322920280CFB2
:100DD4007F00B40700500B24A4F582E43400F583AB
:100DE400E0FF22286E756C6C2900D2011209A33031
:100DF40001F8C201780930D50108F6020A522D50D3
:100E04004349581209A32403B405004001E4900E99
:100E140002931209D7743A1209D7D203750904024E
:020E24000C2898
:1003B200E9D2E7C933E833F892D5EDD2E7CD33EC91
:0703C20033FC5002B2D5220A
:1003C900EC30E7100FBF000C0EBE00080DBD000495
:1003D9000BEB6014A2D5EB13FCED92E7FD2274FF41
:1003E900FCFDFEFF22E480F8A2D574FF13FC7D809A
:0303F900E480EFAE
:1003FC00F920E73624F950037907E4F42402FBE5ED
:10040C0082158270021583DBF6E024FB501BE96039
:10041C0014E4F0E582158270021583E004F0B40A4E
:0D042C0008E4F0D9EE7401F00A22C2D522D6
:10043900ED33EC3392D5FA602AB4FF33EDC2E77B92
:10044900FF60067A04795EE4227A04796720D5048C
:100459007A047962224E614E002B494E46002D499D
:100469004E4600E47A08F0A3DAFC7B00740722C048
:1004790083C082ECC0E0EDC0E0EEC0E0EFC0E0EA8E
:1004890075F010A4CAABF075F04DA42BFBE435F060
:10049900FCEA2410FAEB34C5FBEC34D9FCEDC2E7D5
:1004A900FF75F056A4F42411C5F0F434C58FF0A4F7
:1004B9002AE5F03BE43CF020E71412056ED0E0FF9A
:1004C900D0E0FED0E0FDD0E0FC1202278014F40455
:1004D90012056ED0E0FFD0E0FED0E0FDD0E0FC12C6
:1004E900011ED082D083E0FAEDD2E7CD33EC33247C
:1004F90082FBE4C3CF33CFCE33CECD33CD33DBF361
:100509007B0775F00A846004F0A31B0AE5F0F0A3E9
:100519008FF0740AA4FFACF08EF0740AA42CFEAC20
:10052900F050010C8DF0740AA42CFDE435F0F0A311
:05053900DBDE74072267
:10053E003F8000004120000042C80000447A0000C5
:10054E00461C400047C35000497424004B18968047
:10055E004CBEBC205A0E1BCA6753C21C749DC5AE3E
:10056E00FB60065407601C232312059CEB54386075
:10057E000912058812059712011EECF8EDF9EEFA34
:10058E00EFCB22EB12059780F1543803241C900513
:10059E003EFE93FC0EEE93FD0EEE930ECE93FF22D7
:103024000228CAE493A3F8E493A34003F68001F2D0
:1030340008DFF48029E493A3F85407240CC8C333AD
:10304400C4540F4420C8834004F456800146F6DF7C
:10305400E4800B01020408102040809026ECE47EFA
:10306400019360BCA3FF543F30E509541FFEE49371
:10307400A360010ECF54C025E060A840B8E493A338
:10308400FAE493A3F8E493A3C8C582C8CAC583CA63
:10309400F0A3C8C582C8CAC583CADFE9DEE780BE1B
:0127DB0000FD
:1005AE00E709F608DFFA8046E709F208DFFA803E2F
:1005BE0088828C83E709F0A3DFFA8032E309F6081C
:1005CE00DFFA8078E309F208DFFA807088828C8384
:1005DE00E309F0A3DFFA806489828A83E0A3F60838
:1005EE00DFFA805889828A83E0A3F208DFFA804C12
:1005FE0080D280FA80C680D4806980F280338010E9
:10060E0080A680EA809A80A880DA80E280CA803351
:10061E0089828A83ECFAE493A3C8C582C8CCC583C9
:10062E00CCF0A3C8C582C8CCC583CCDFE9DEE78099
:10063E000D89828A83E493A3F608DFF9ECFAA9F018
:10064E00EDFB2289828A83ECFAE0A3C8C582C8CC6E
:10065E00C583CCF0A3C8C582C8CCC583CCDFEADE87
:10066E00E880DB89828A83E493A3F208DFF980CCE9
:10067E0088F0EF60010E4E60C388F0ED2402B404E2
:10068E000050B9F582EB2402B4040050AF23234589
:06069E0082239005FE73AB
:1006A400BB010689828A83E0225002E722BBFE0254
:0906B400E32289828A83E4932287
:1006BD00BB010CE58229F582E5833AF583E02250F2
:1006CD0006E92582F8E622BBFE06E92582F8E2223C
:0D06DD00E58229F582E5833AF583E4932256
:1006EA00BB010689828A83F0225002F722BBFE01EF
:0206FA00F322E9
:1006FC00F8BB010DE58229F582E5833AF583E8F034
:10070C00225006E92582C8F622BBFE05E92582C8DF
:02071C00F222C7
:10071E00EF8DF0A4A8F0CF8CF0A428CE8DF0A42EEF
:02072E00FE22A9
:10073000C5F0F8A3E028F0C5F0F8E5821582700254
:060740001583E038F022F1
:10074600A3F8E0C5F025F0F0E58215827002158366
:06075600E0C838F0E822C3
:10075C00BB010A89828A83F0E5F0A3F0225006F7E8
:0F076C0009A7F01922BBFE06F3E5F009F31922E5
:10077B00E88FF0A4CC8BF0A42CFCE98EF0A42CFC1D
:10078B008AF0EDA42CFCEA8EF0A4CDA8F08BF0A49B
:10079B002DCC3825F0FDE98FF0A42CCD35F0FCEBFA
:1007AB008EF0A4FEA9F0EB8FF0A4CFC5F02ECD39BF
:0F07BB00FEE43CFCEAA42DCE35F0FDE43CFC222C
:1007CA0075F008758200EF2FFFEE33FECD33CDCCE6
:1007DA0033CCC58233C5829BED9AEC99E582984069
:1007EA000CF582EE9BFEED9AFDEC99FC0FD5F0D646
:1007FA00E4CEFBE4CDFAE4CCF9A88222B800C1B970
:10080A000059BA002DEC8BF084CFCECDFCE5F0CBAD
:10081A00F97818EF2FFFEE33FEED33FDEC33FCEBE6
:10082A0033FB10D703994004EB99FB0FD8E5E4F9A1
:10083A00FA227818EF2FFFEE33FEED33FDEC33FC8E
:10084A00C933C910D7059BE99A4007EC9BFCE99A82
:10085A00F90FD8E0E4C9FAE4CCFB2275F010EF2FC7
:10086A00FFEE33FEED33FDCC33CCC833C810D707C7
:10087A009BEC9AE899400AED9BFDEC9AFCE899F802
:0E088A000FD5F0DAE4CDFBE4CCFAE4C8F92295
:0E089800C3E49FFFE49EFEE49DFDE49CFC2271
:1008A600EB9FF5F0EA9E42F0E99D42F0EC6480C8C9
:0608B60064809845F02269
:1008BC00EB9FF5F0EA9E42F0E99D42F0E89C45F092
:0108CC002209
:1008CD00E8600FECC313FCED13FDEE13FEEF13FF09
:0308DD00D8F1222D
:1008E000E8600FEFC333FFEE33FEED33FDEC33FC76
:0308F000D8F1221A
:0C08F300ECF0A3EDF0A3EEF0A3EFF02278
:1008FF00A8828583F0D083D08212091612091612AE
:10090F000916120916E473E493A3C583C5F0C583D2
:10091F00C8C582C8F0A3C583C5F0C583C8C582C842
:01092F0022A5
:10093000F8E0FBA3A3E0F925F0F0E5821582700250
:070940001583E0FA38F022F4
:09094700EBF0A3EAF0A3E9F022B1
:10095000D083D082F8E4937012740193700DA3A336
:1009600093F8740193F5828883E47374029368604A
:06097000EFA3A3A380DF4A
:10097600EC8EF0A4CCC5F0CCCDF8EFA4CEC5F02D0E
:10098600FDE43CFCE8A42EC8C5F03DFDE43CFCEFCC
:0D099600A4FFE5F028FEE43DFDE43CFC225A
:00000001FF
