:03000000022FDBF1
:0C2FDB00787FE4F6D8FD758121023022D9
:102EA9000D0A3D3D3D3D3D3D3D3D3D3D3D3D3D3DAC
:102EB9003D3D3D3D3D3D3D3D3D3D3D3D3D3D3D3D39
:102EC9003D3D3D3D0D0A00736B753A4B2564200D60
:102ED9000A00736F66742076657273696F6E3A259E
:102EE90073200D0A00312E30302E303000676170AA
:102EF900202564200D0A0074696D657220256420FF
:102F09000D0A00496E7075745F566F6C7461676560
:102F19005F737464203D2025640D0A003D3D3D3DED
:102F29003D3D3D3D3D3D3D3D3D3D3D3D3D3D3D3DC8
:102F39003D3D3D3D3D3D3D3D3D3D3D3D3D3D0D0A1B
:012F49000087
:0D26EC00420152000041015500410154001F
:1029A000E4900078F0900154E0700A1235EB90004A
:1029B00078EFF08005E4900078F0900078E0640112
:1029C000702E900127E07028123FEDEF70087F0114
:1029D000123FF3C2B522E4FF123FF31230679001B9
:1029E00012E0FF1238871231799001557401F022FC
:1029F000123FEDEF6003022A78900078E0640270E5
:102A00002F900112E0C394065005E004F080069078
:102A100001127401F09001557401F0900112E0FF71
:102A2000123887123179900112E0FF12400580457B
:102A3000900078E064037040900113E0C394055067
:102A400005E004F08005E4900113F0900112E0D35A
:102A500094014016A3E0FF70059000FE8009EFD3BB
:102A6000940340069000ED7402F0900113E0FF1211
:082A70003FFF123067123CE643
:012A7800223B
:082A790090007EEEF0A3EFF0E7
:102A81009000CEE06402706A900127E064017062F8
:102A910090007EA3E0FFE49000CEF090011604F0D8
:102AA1009000AFE0FED3940F4048EED39F400CE07E
:102AB1009F900114F0A37401F080169000AFE0FE26
:102AC100C3EF9EFF900114F0123F8790011574022D
:102AD100F0900114E0FFC394024006EFD394144038
:102AE10007E4900114F0A3F0123CE67D027F02128C
:102AF1003E02900115E0FDB40114900114E0FF7E47
:102B01000090007EEE8FF0120730AFF0FE22EDB4A0
:102B11000218900114E0FFC390007FE09FFF900036
:102B21007EE09400FEF0A3EFF02290007EE0FEA391
:022B3100E0FFC3
:012B3300227F
:0C192E0090007EECF0A3EDF0AB07AA06E1
:10193A00E4A3F0A3F0A3F0A37428F0A31208FF0015
:10194A000000009000881208FF00000000C3EB941A
:10195A005AEA940050030219F2AE02AF03AD07AC83
:10196A0006E4120342E4FBFA797A784412022790D9
:10197A0000841208F390007EE0FCA3E0FDE4120369
:10198A0042E4FBFA797A7844120227900088120816
:10199A00F3900084E0F8A3E0F9A3E0FAA3E0FBA344
:1019AA00E0FCA3E0FDA3E0FEA3E0FF120029900003
:1019BA0084E0F8A3E0F9A3E0FAA3E0FB1202277B94
:1019CA00007A80793B784412011E9000841208F351
:1019DA00E4FFFEFDFC900084E0F8A3E0F9A3E0FA3E
:1019EA00A3E0FB1202C450057E007FFF227F147E13
:1019FA00AE7DC37C42900084E0F8A3E0F9A3E0FA4C
:101A0A00A3E0FB1202C4603F403D7F147EAE7DC35B
:101A1A007CC2900084E0F8A3E0F9A3E0FAA3E0FB1B
:101A2A0012002D7BCD7ACC79CC783E120227120394
:101A3A007B900080EEF0A3EFF0900083E02FF0900F
:101A4A000082E03EF0803C900084E0F8A3E0F9A335
:101A5A00E0FAA3E0FB7F147EAE7DC37C421200292C
:101A6A007BCD7ACC79CC783E12022712037B900088
:101A7A0080EEF0A3EFF0C3900083E09FF090008225
:101A8A00E09EF0900112E0B4030E900083E024FB84
:101A9A00F0900082E034FFF0900082E0FEA3E0FFC5
:011AAA002219
:1023A800E4900078F0A3F0A3F0A3F0A3F0A3F090DA
:1023B8000153E004F07006900152E004F0900152DD
:1023C800E0FEA3E0FFE4FCFD7B507AC3F9F8D312EA
:1023D80008A640030224CCE4900152F0A3F07B014C
:1023E80090008104F0A37400F0A3747CF07A007963
:1023F8007A12227390007AE0FEA3E0FFA3E0FCA328
:10240800E0FD12192E900078EEF0A3EFF0122A7971
:10241800900078EEF0A3EFF0D390007BE0945A9010
:10242800007AE0940050030224B9123FEDEF706087
:10243800FF123FF9900155E0B40121E4F0D3900078
:1024480079E0944B900078E094004006E49000F323
:1024580080059000F37401F09000F2F0900078E0AD
:10246800FEA3E0FF7C007D0A12071E9000E5EEF057
:10247800A3EFF0120E26900113E0FF123FFF900128
:1024880012E0FF124005900112E0FF123ADF801BB4
:10249800900127E0B4010AC2B5123FD2123D328042
:1024A8000A7F01123FF9C2B5123FD2E4900154F0FD
:1024B80022E4900127F07FFF123FF9123D0C9001B2
:0424C800547401F057
:0124CC0022ED
:1027DA00123FAB123C20123DE3D2AF12000E123F61
:1027EA0035121EC9123DC3123FC97F02123F601241
:1027FA003BF6123FDB7FB07E04123E757F06123F26
:10280A00FF7F071240057F587E02123E75123FD2A3
:10281A00123E21123D7E7BFF7A2E79A9120A0E7B87
:10282A00FF7A2E79D090007F741FF0A374A9F0125A
:10283A000A0E90007F74FFF0A3742EF0A374EEF0DA
:10284A007BFF7A2E79DB120A0E7BFF7A2E79F690BD
:10285A000112E0FF90007FE4F0A3EFF0120A0E7B72
:10286A00FF7A2F7900900113E0FF90007FE4F0A334
:10287A00EFF0120A0E7BFF7A2F790C90011BE0FF12
:10288A00A3E090007FCFF0A3EFF0120A0E7BFF7A4D
:10289A002F7925120A0E1223A81229A0900154E0BA
:1028AA00700B9000E8E0FEA3E0FF12335E12150100
:0528BA0012401D80E149
:0A3FAB00758E5190FE917401F02212
:10317900900112E014B40900507490319175F00374
:10318900A4C58325F0C583730231AC0231B702317E
:10319900C20231CD0231E20231D80231E20231E21A
:1031A9000231ED9000E37401F0A374C2F0229000A3
:1031B900E37401F0A374F4F0229000E37402F0A325
:1031C9007412F0229000E37402F0A37494F0229038
:1031D90000E37403F0A314F0229000E37402F0A357
:0F31E90074C6F0229000E37402F0A374F8F02291
:103E2100E4FFFE122F4AD3EF9440EE940690011B5B
:0D3E3100E44006F0A37402F022F0A304F0B8
:013E3E002261
:0E3F4400EF1F70011E144E6004000080F32277
:103E75007D407C03ED1D70011C144C70F7EF1F7025
:063E8500011E144E70EA5C
:013E8B002214
:103DE30090FF037401F090FF07F090FF02F075B4A9
:0F3DF300817F507E00123F4490FE9B7449F02266
:103EA300E4FFFE75B50743B440E5B430E5FB53B416
:053EB300DFAEB7AFB661
:013EB80022E7
:103EB900E4FFFE75B50343B440E5B430E5FB53B404
:053EC900DFAEB7AFB64B
:013ECE0022D1
:103ECF00E4FFFE75B50243B440E5B430E5FB53B4EF
:053EDF00DFAEB7AFB635
:013EE40022BB
:0B22730090007EEBF0A3EAF0A3E9F07E
:10227E009000841208FF00000000E4900088F0F047
:10228E00900084E0F8A3E0F9A3E0FAA3E0FB123E8D
:10229E00B9E4FCFDEB2FFFEA3EFEED39FDEC38FC18
:1022AE009000841208F3900088E004F0E0C39405D7
:1022BE0040CE900084E0FCA3E0FDA3E0FEA3E0FF8F
:1022CE00E47B05FAF9F81208069000841208F3E48C
:1022DE007FA07E0FFDFC900084E0F8A3E0F9A3E060
:1022EE00FAA3E0FB12077BE47BFF7A0FF9F81208E2
:1022FE000690007EE0FBA3E0FAA3E0F9EE8FF01269
:10230E00075C7F147E00123F449000841208FF0089
:10231E00000000E4900088F0900084E0F8A3E0F95B
:10232E00A3E0FAA3E0FB123EA3E4FCFDEB2FFFEAD1
:10233E003EFEED39FDEC38FC9000841208F390005F
:10234E0088E004F0E0C3940540CE900084E0FCA346
:10235E00E0FDA3E0FEA3E0FFE47B05FAF9F8120826
:10236E00069000841208F3E47FA07E0FFDFC90001F
:10237E0084E0F8A3E0F9A3E0FAA3E0FB12077BE404
:10238E007BFF7A0FF9F8120806900081E0FBA3E0BC
:0A239E00FAA3E0F9EE8FF002075CED
:102F4A009000781208FF00000000E490007CF0F086
:102F5A00900078E0F8A3E0F9A3E0FAA3E0FB123EC0
:102F6A00CFE4FCFDEB2FFFEA3EFEED39FDEC38FC29
:102F7A009000781208F390007CE004F0E0C3940516
:102F8A0040CE900078E0FCA3E0FDA3E0FEA3E0FFC2
:102F9A00E47B05FAF9F81208069000781208F3E4BF
:102FAA007FA07E0FFDFC900078E0F8A3E0F9A3E093
:102FBA00FAA3E0FB12077BE4FB7A10F9F812080681
:102FCA009000781208F3900078A3A3E0FEA3E0FF34
:012FDA0022D4
:1025E6000D0A3D3D3D3D3D3D3D3D3D3D3D3D3D3D78
:1025F6003D3D3D3D3D3D3D3D3D3D3D3D3D3D3D3D05
:102606003D3D3D3D3D3D3D3D3D3D0D0A00706F77F5
:102616006572206F6E20666C617368206761703A20
:102626002564202074696D65723A2564200D0A00C0
:10263600706F776572206F6E20666C6173682076A6
:10264600616C75653A256420207369676E3A256466
:10265600200D0A003D3D3D3D3D3D3D3D3D3D3D3D61
:102666003D3D3D3D3D3D3D3D3D3D3D3D3D3D3D3D94
:102676003D3D3D3D3D3D3D3D3D3D3D3D0D0A003D24
:102686003D3D3D3D3D3D3D3D3D3D3D3D66697273B4
:102696007420696E697420646174613D3D3D3D3D01
:1026A6003D3D3D3D3D3D200D0A00307825303458F6
:1026B6002020307825303458202030782530345882
:1026C6002020307825303458200D0A00666C61735E
:1026D60068206761703A2564202074696D65723AD6
:0626E6002564200D0A002E
:1026F9004501120000000000440117202005014196
:08270900011D0142011B00004B
:063FED0090011DE0FF221F
:063FF30090011DEFF02219
:103DA100D310AF01C3C0D075FDF075FC0F8EFA8F33
:103DB100F975FDD275FC2D75FDE175FC1ED0D09213
:023DC100AF222F
:103C4900D310AF01C3C0D08FFB75FDF075FC0FAE6B
:103C590004AF058EFA8FF975FDB475FC4B75FDE15E
:083C690075FC1ED0D092AF22C1
:0C3440007B017A0179127D057F047E3C3F
:10344C00D310AF01C3C0D0900080EEF0A3EFF0A377
:0B345C00EDF0A3EBF0A3EAF0A3E9F011
:10346700E4A3F0C2AFF0900082E0FF900086E0C3D3
:103477009F502C900083E0FBA3E475F001120746F0
:10348700A9F0FA1206A4FF900080E475F001120774
:1034970046ADF0FC123C49900086E004F080C7D2AC
:0134A700AF75
:0534A800D0D092AF221C
:040003008F828E83D7
:03000700E493FF80
:01000A0022D3
:1039BF00900080EEF0A3EFF0A3EBF0A3EAF0A3E901
:1039CF00F0AF051DEF6028900080E475F00112073D
:1039DF004685F082F583E493FF900082E0FBA3E439
:1039EF0075F001120746A9F0FAEF1206EA80D2220B
:103AAC00E4FDFCED2400FFE4343CFE12000374172B
:103ABC002DF582E43401F583E0B507030C80037F18
:103ACC0000220DEDB404DCECC3940440037F01220E
:023ADC007F0069
:013ADE0022C5
:101EC900E4900078F090FE927404F0123AACEF704E
:101ED9000790007804F0807C7BFF7A2579E6120A66
:101EE9000E7B017A0179127D057F047E3C1239BF90
:101EF9007BFF7A267913900112E0FF90007FE4F0CE
:101F0900A3EFF0900113E0FF900081E4F0A3EFF05C
:101F1900120A0E7BFF7A267936900114E0FF9000B1
:101F29007FE4F0A3EFF0900115E0FF900081E4F069
:101F3900A3EFF0120A0E7BFF7A26795A120A0E9045
:101F49000112E0D394065006A3E0940540069000E0
:101F5900787401F0900078E06401707A7BFF7A264A
:101F69007985120A0E9001127401F0A3F07F007EA8
:101F79003C123DA1FB7A0179177D0412344C1234CD
:101F8900407B017A0179177D047F007E3C1239BFBD
:101F99007BFF7A2679B0900117E0FF90007FE4F08B
:101FA900A3EFF0900118E0FF900081E4F0A3EFF0B7
:101FB900900119E0FF900083E4F0A3EFF090011A7B
:101FC900E0FF900085E4F0A3EFF0120A0E7BFF7AA0
:101FD90026795A120A0E7BFF7A2679D2900112E0ED
:101FE900FF90007FE4F0A3EFF0900113E0FF900071
:091FF90081E4F0A3EFF0020A0EEE
:103CE6007F047E3C123DA17B017A0179177D047F1A
:103CF6000012344C1234407B017A0179127D057F23
:063D0600047E3C0239BFFF
:102711005E00B000000000000000000000000000AA
:1027210000000000000000000000000000000000A8
:09273100004100CE004100AF00A0
:103C200090FF1674C1F090FF157460F090FFA074BF
:103C300026F090FFA114F075CEFF75CD9875CC06D7
:093C4000759E02759810D2AC22A9
:0C3F8700C2AC8F993099FDC299D2AC22D7
:03402100023F87D4
:0B3B7100900085EBF0A3EAF0A3E9F060
:103B7C00E4FEEEC39D501A900085E0FBA3E0FAA38F
:103B8C00E0F98E827583001206BDFF1240210E8073
:013B9C00E147
:013B9D002205
:103E02009000807455F0A3EFF0A3EDF0A3740DF0D1
:0F3E1200A3740AF07B017A0079807D05023B7171
:0100220022BB
:030023000231F8AF
:1031F800C0E0C0F0C083C082C0D075D000C000C09D
:0D32080001C002C003C004C005C006C0071D
:103215009000ACE4F0E59830E03CE599F05398FE79
:10322500E0FF122D559000CEE014601C047027902D
:1032350000ACE0B455209000B0F09000AEE004F092
:103245009000CE7401F0800E9000ACE09000AFF0DD
:063255009000CE7402F0AF
:10325B00D007D006D005D004D003D002D001D000C7
:0B326B00D0D0D082D083D0F0D0E03271
:10273A004101270041011E0042011F000041012101
:0F274A000042012200004101240142012500004C
:0F3F350090FF177460F090FF00F090FF01F022F2
:102B3400E490007AF0A28133900079F090011EE0D5
:102B440014602614604E147003022BD72403600310
:102B5400022BE0900079E06003022BE590011FF066
:102B6400A3F090011E04F08078900079E0706B90DF
:102B74000120E004F0700690011FE004F0C390010E
:102B840020E0940390011FE09400403E90011E74E5
:102B940002F08036900079E0B40106A37404F0805A
:102BA4003B900120E004F0700690011FE004F0C3A4
:102BB400900120E0948290011FE09400400C90006A
:102BC4007A7405F090011E7403F07F0A7E00123EB1
:102BD40075800E900079E0B401078000E490011E36
:062BE400F090007AE0FF12
:012BEA0022C8
:102BEB00E490007AF0A28033900079F0900121E01C
:102BFB0014602614604E147003022C8E24036003A1
:102C0B00022C97900079E06003022C9C900122F03B
:102C1B00A3F090012104F08078900079E0706B9024
:102C2B000123E004F07006900122E004F0C3900150
:102C3B0023E09403900122E09400403E9001217424
:102C4B0002F08036900079E0B40106A37404F080A2
:102C5B003B900123E004F07006900122E004F0C3E6
:102C6B00900123E09490900122E09401400C90009D
:102C7B007A7406F09001217403F07F0A7E00123EF5
:102C8B0075800E900079E0B401078000E49001217B
:062C9B00F090007AE0FF5A
:012CA1002210
:1035EB00122B34BF05037F0122122BEBBF062112D6
:1035FB003FEDBF0114900116E0700E90012704F00F
:10360B00900116F0123CE6803CE4900127F08035E7
:10361B00900124E0602330A70320801D900127E058
:10362B0070177F32FE123E75E4900124F020A70341
:10363B007F022220800F7F032230A7093080069063
:07364B0001247401F07F006F
:013652002255
:0427590041015C00DE
:103E5D007E0090015CE0FD7C00120976E47B64FA43
:073E6D00F9F81208068FDFCF
:013E7400222B
:093FC90090FF1D74C0F0C2B52286
:0D3F600075BD17EF75F02BA490FEA0F022A8
:04401D0043BD10226D
:103C71007365742074696D65207365636F6E643A52
:103C810025640D0A0074696D65207365636F6E6448
:073C91003A2564200D0A0032
:10275D004200F800004200F600004200FC0000417B
:10276D0000EC004100ED004100FE004100FF004182
:10277D0000F3004200EE00004200F400004200F0C1
:10278D0000004100F2004200FA00004200E80000A3
:05279D004200EA00000B
:10335E00900078EEF0A3EFF0123FEDEF7062900167
:10336E001BE0FCA3E0FD64014C700F900079E0259A
:10337E00E0F0900078E033F08011ED64024C700BB9
:10338E00900078E0C313F0A3E013F09000FBE0048C
:10339E00F070069000FAE004F09000FAE0FEA3E070
:1033AE00FFD3900079E09F900078E09E4004D2B564
:1033BE008002C2B5EF64C84E70069000FAF0A3F01A
:0133CE0022DC
:103ADF009000F2E0B4010A9000E8E4F0A37464F0FF
:103AEF0022EF24FE600D14600A24FC500624067099
:103AFF001180009000E1E0FFA3E09000E8CFF0A379
:033B0F00EFF022B2
:103E3F009000F6EEF0A3EFF0E4A3F0A3F07BFF7A8F
:0E3E4F003C797190007FEEF0A3EFF0020A0EB6
:10388700EFB40A005050903894F82828730238B2E1
:103897000238BC0238C70238C90238D40238D40209
:1038A70038D40238D40238D40238D49000EAE4F08D
:1038B700A3741EF0229000EA7401F0A3740EF022A4
:1038C70080009000EA7401F0A3744AF0229000EAA5
:0738D700E4F0A374F0F022FD
:103B12009000F3E0B401289000EEE475F001120782
:103B220030FEC39000EBE095F09000EAE09E500F6B
:103B3200E49000F3F09000EEF0A3F09000F2F02297
:10306700E49000F8F0A3F0900113E0FF70089000DF
:10307700F6F0A3F08052EFB4010C9000F67407F05D
:10308700A304F0E48042EFB4020D9000F6740EF052
:10309700A37410F0E48031EFB4030D9000F6741CB4
:1030A700F0A37420F0E48020EFB4040D9000F674D0
:1030B70038F0A37440F0E4800FEFB405179000F6E2
:1030C7007470F0A37480F0E49000FCF0A3F090001B
:1030D700F4F0A3F07BFF7A3C79869000F6E0FFA33B
:0C30E700E090007FCFF0A3EFF0020A0E93
:10000E00E490FE80F0F589758CF5758A9643A8020A
:04001E0043881022E1
:03000B00022002CE
:10200200C0E0C0F0C083C082C0D075D000C000C0A4
:1020120001C002C003C004C005C006C007123FEDE4
:10202200EF60030220F69000F9E004F070069000E1
:10203200F8E004F0C39000F9E094F49000F8E09422
:1020420001500302211D123B129000FEE0B4022D4A
:102052009000FDE004F070069000FCE004F0D390E4
:1020620000FDE094409000FCE0943840109000FEA7
:10207200E4F09000FCF0A3F09000EC04F0D39000A8
:10208200F7E094009000F6E094004042A3E024FFC1
:10209200F09000F6E034FFF09000EDE06402704E44
:1020A2009000FDE004F070069000FCE004F0D39094
:1020B20000FDE094409000FCE0943840319000EC48
:1020C2007401F0A3E4F09000FCF0A3F080209001F2
:1020D20013E0601A7F01123FF39000F6E4F0A3F0E0
:1020E2009000FCF0A3F09000EDF09000FEF0900064
:1020F200F8E48024900127E0B401209000F0E47518
:10210200F001120730FED3E5F09460EE94EA400B42
:10211200900127E4F09000F0F0A3F01228BFD0075E
:10212200D006D005D004D003D002D001D000D0D048
:09213200D082D083D0F0D0E0325D
:1027A20042013E000041013D0041013C0041013A2D
:0527B2000041013B00A5
:103BF60043D1E890FF62E04406F090FF61E044089C
:103C0600F090FF60E04410F090FF6AE044F8F0C2E4
:0A3C160097C296C295C294C2932291
:063FF90090013CEFF022F4
:093FD20090013E74CEF0A3F02230
:103D0C0090013AE0FF700F90013E74CEF0A3F0905A
:103D1C00013A7401F022EFB4010B90013E74FFF0F4
:053D2C00E490013AF0F3
:013D3100226F
:103D320090013BE0FF700F90013E74CEF0A3F09033
:103D4200013B7401F022EFB4010B90013E741EF0AE
:053D5200E490013BF0CC
:013D57002249
:063FFF0090013FEFF022EB
:0640050090013EEFF022E5
:093FDB0090013E74CCF0A3F02229
:1028BF0090013CE0FF600EF4600B900127E0640193
:1028CF00600302299543D1E890013DE0B408004030
:1028DF000302298F9028EAF8282873022902022977
:1028EF001202292302293602294B02295B02296C85
:1028FF0002297F53D1EF12174B12124E90013D74E4
:10290F0001F022C292D29112174F12124E90013D36
:10291F007402F022C292C291D2A312175112124E18
:10292F0090013D7403F022C292C291C2A3D2B4129D
:10293F00175312124E90013D7404F02243D110121E
:10294F00174B12124E90013D7405F022C292D29194
:10295F0012174F12124E90013D7406F022C292C20E
:10296F0091D2A312175112124E90013D7407F0220B
:10297F00C292C291C2A3D2B412175312124E800048
:10298F00E490013DF02290013CE0B4010375D16861
:01299F002215
:05124E0090013EE0FFED
:10125300EF12095012BA0112F202132A03136204A5
:10126300139A0513D206140907144308147D0912AF
:10127300821E14F6CC14EBCE14B4FF0000150090BC
:10128300013DE0FF6003B40404C295C294EF64011E
:101293006004EFB40504D295D294EF64026004EFC6
:1012A300B40604D295D294EF64036008EF64076038
:1012B300030215000214E690013DE0FF6003B4044D
:1012C30004C295C294EF64016004EFB40504D2959F
:1012D300C294EF64026004EFB40604D295C294EFA3
:1012E30064036008EF6407600302150002143E9074
:1012F300013DE0FF6003B40404D295C294EF64019E
:101303006004EFB40504D295C294EF64026004EF65
:10131300B40604C295D294EF64036008EF640760D7
:101323000302150002147890013DE0FF6003B4044A
:1013330004D295C294EF64016004EFB40504D2951E
:10134300C294EF64026004EFB40604D295D294EF22
:1013530064036008EF640760030215000214AF9092
:10136300013DE0FF6003B40404C295C294EF64013D
:101373006004EFB40504D295D294EF64026004EFE5
:10138300B40604D295D294EF64036008EF64076057
:101393000302150002143E90013DE0FF6003B40414
:1013A30004D295C294EF64016004EFB40504C295BE
:1013B300D294EF64026004EFB40604D295D294EFA2
:1013C30064036008EF640760030215000214AF9022
:1013D300013DE0FF6003B40404D295C294EF6401BD
:1013E3006004EFB40504C295D294EF64026004EF85
:1013F300B40604D295D294EF64036008EF640760E7
:1014030003021500806F90013DE0FF6003B4040404
:10141300D295C294EF64016004EFB40504D295C27F
:1014230094EF64026004EFB40604D295C294EF64AF
:10143300036008EF64076003021500C295C294229B
:1014430090013DE0FF6003B40404D295C294EF64BD
:10145300016004EFB40504D295D294EF64026004F2
:10146300EFB40604D295D294EF64036008EF6407E7
:101473006003021500D295D2942290013DE0FF60F3
:1014830003B40404D295C294EF64016004EFB4057D
:1014930004D295D294EF64026004EFB40604D295AB
:1014A300D294EF64036005EF64077051D295C29440
:1014B3002290013DE0FF6003B40404D295C294EF8F
:1014C30064016004EFB40504C295D294EF64026032
:1014D30004EFB40604C295D294EF64036005EF648D
:1014E30007701AC295D29422C297C296C295C2942B
:0E14F300C29322D297D296D295D294D293224F
:0D174B00D292C291C2A3C2B490013FE0FF50
:10175800EFB40700400302192D901768F828287382
:1017680002177D0217BB0217F90218370218740214
:1017780018B10218F090013DE0FF6003B40406C2FE
:1017880097C296C293EF64016004EFB40506D2973E
:10179800D296D293EF64026004EFB40606C297D2E1
:1017A80096C293EF64036046EF6407600302192D45
:1017B8000218E990013DE0FF6003B40406D297C225
:1017C80096C293EF64016004EFB40506D297D296EF
:1017D800D293EF64026004EFB40606C297C296C2C1
:1017E80093EF64036008EF6407600302192D021881
:1017F800E990013DE0FF6003B40406C297C296C2B7
:1018080093EF64016004EFB40506D297D296D293A1
:10181800EF64026004EFB40606D297C296C293EF53
:1018280064036008EF6407600302192D0218E99049
:10183800013DE0FF6003B40406C297C296D293EF5D
:1018480064016004EFB40506D297D296D293EF6490
:10185800026004EFB40606C297C296C293EF64030F
:101868006008EF6407600302192D807590013DE060
:10187800FF6003B40406C297D296C293EF64016076
:1018880004EFB40506D297D296D293EF64026004AF
:10189800EFB40606C297C296C293EF64036008EFDE
:1018A8006407600302192D803890013DE0FF600352
:1018B800B40406C297C296C293EF64016004EFB401
:1018C8000506D297D296D293EF64026004EFB4066D
:1018D80006C297C296D293EF64036005EF6407705F
:1018E80044D297D296D2932290013DE0FF6003B490
:1018F8000406C297C296C293EF64016004EFB40570
:1019080006C297C296C293EF64026004EFB406065B
:10191800C297C296C293EF64036004EFB40706C28D
:0619280097C296C2932253
:0C3F930000000000000000000000000022
:0427B7004100E700F6
:103DC300E49000E5F0A3F09000E1F0A3F0A3F0A3EA
:103DD300F09000E004F09000DFF09000DE04F022A9
:100E2600787E7C007D017BFF7A3F79937E007F0C84
:100E360012067E90008A1208FF0000000090008EC5
:100E46001208FF000000009000E5E0FEA3E0FF901E
:100E560000E3E0FCA3E0FDD39FEC9E5003021246A4
:100E6600ED9FFFEC9EFED3EF9464EE9400400302E8
:100E7600123CE4FCFD90007E1208F3E49000DCF0E6
:100E86009000D3E0FCA3E0FDA3E0FEA3E0FFA312E5
:100E960008F39000CFE0FCA3E0FDA3E0FEA3E0FF93
:100EA600A31208F390007EE0FCA3E0FDA3E0FEA3FE
:100EB600E0FF9000CF1208F39000D3E0FCA3E0FD22
:100EC600A3E0FEA3E0FF9000CFE0F8A3E0F9A3E0E3
:100ED600FAA3E0FBD31208BC40339000D3E0F8A39A
:100EE600E0F9A3E0FAA3E0FB9000CFE0FCA3E0FD6D
:100EF600A3E0FEA3E09BFFEE9AFEED99FDEC98FCC5
:100F060090007E1208F3E49000DBF080319000CF71
:100F1600E0F8A3E0F9A3E0FAA3E0FBA3E0FCA3E07A
:100F2600FDA3E0FEA3E0C39BFFEE9AFEED99FDEC68
:100F360098FC90007E1208F39000DB7401F0E47FC9
:100F460002FEFDFC9000D3E0F8A3E0F9A3E0FAA3CB
:100F5600E0FB12077B9000861208F39000D7E0FCB6
:100F6600A3E0FDA3E0FEA3E0FF9000CFE0F8A3E03E
:100F7600F9A3E0FAA3E02FFFEA3EFEE93DFDE83CD7
:100F8600FC900086E0F8A3E0F9A3E0FAA3E0FBC337
:100F96001208BC504B9000D7E0FCA3E0FDA3E0FE96
:100FA600A3E0FF9000CFE0F8A3E0F9A3E0FAA3E006
:100FB6002FFFEA3EFEE93DFDE83CFC900086E0F8A6
:100FC600A3E0F9A3E0FAC3EF9BFFEE9AFEED99FDCD
:100FD600EC98FC9000861208F3E49000DDF0805D4A
:100FE600900086E0FCA3E0FDA3E0FEA3E0FFC004C2
:100FF600C005C006C0079000D7E0FCA3E0FDA3E053
:10100600FEA3E0FF9000CFE0F8A3E0F9A3E0FAA387
:10101600E02FFBEA3EFAE93DF9E83CF8D007D006B6
:10102600D005D004C3EF9BFFEE9AFEED99FDEC9838
:10103600FC9000861208F39000DD7401F09000DE4B
:10104600E0FFE4FCFDFE90007EE0F8A3E0F9A3E0FB
:10105600FAA3E0FB12077B90007E1208F39000DFF4
:10106600E0FFE4FCFDFE9000CFE0F8A3E0F9A3E08A
:10107600FAA3E0FB12077B9000821208F39000E0CF
:10108600E0FFE4FCFDFE900086E0F8A3E0F9A3E0B3
:10109600FAA3E0FB12077B9000861208F39000DBB0
:1010A600E0702D90008AE0FCA3E0FDA3E0FEA3E043
:1010B600FF90007EE0F8A3E0F9A3E0FAA3E0FBEFDF
:1010C6002BFFEE3AFEED39FDEC38FC90008A802BC2
:1010D60090008EE0FCA3E0FDA3E0FEA3E0FF9000FD
:1010E6007EE0F8A3E0F9A3E0FAA3E0FBEF2BFFEE26
:1010F6003AFEED39FDEC38FC90008E1208F39000B4
:10110600DCE0702E90008AE0FCA3E0FDA3E0FEA3E5
:10111600E0FF90007EE0F8A3E0F9A3E0FAA3E0FB8D
:10112600EF2BFFEE3AFEED39FDEC38FC90008A120B
:1011360008F39000DDE0702B90008AE0FCA3E0FD50
:10114600A3E0FEA3E0FF900086E0F8A3E0F9A3E0A9
:10115600FAA3E0FBEF2BFFEE3AFEED39FDEC38FC8F
:10116600A3802B90008EE0FCA3E0FDA3E0FEA3E0AD
:10117600FF900086E0F8A3E0F9A3E0FAA3E0FBEF16
:101186002BFFEE3AFEED39FDEC38FC90008E12088E
:10119600F390008AE0F8A3E0F9A3E0FAA3E0FB905D
:1011A60000E1E0FEA3E0FFE4FCFDEB2FFFEA3EFEDC
:1011B600ED39FDEC38FC90008A1208F390008EE0C1
:1011C600FCA3E0FDA3E0FEA3E0FF90008AE0F8A305
:1011D600E0F9A3E0FAA3E0FBD31208BC406290005A
:1011E6008EE0F8A3E0F9A3E0FAA3E0FB90008AE022
:1011F600FCA3E0FDA3E0FEA3E09BFFEE9AFEED99C3
:10120600FDEC98FC90007E1208F3E47F64FEFDFC82
:1012160090007EE0F8A3E0F9A3E0FAA3E0FBC31296
:1012260008BC501290007EA3A3E0FFA3E09000E16B
:10123600CFF0A3EFF0229000E1E4F0A37464F02273
:07124600E49000E1F0A3F0C9
:01124D00227E
:103D5800637263206572726F7220286372633A30EF
:103D6800782558202062757420646174613A30782F
:063D78002558290D0A0088
:0527BB0042015A00007C
:1033CF00EFC39430400CEFD39439500674D02FFFD5
:1033DF008022EFC39441400CEFD394465006EF2464
:1033EF00C9FF8010EFC39461400AEFD39466500475
:1033FF00EF24A9FFEF540FC454F0FFEDC3943040F6
:10340F000CEDD39439500674D02DFD801EEDC3946E
:10341F00414008EDD394465002800CEDC3946140B7
:10342F000AEDD394665004ED24A9FDED540F4FFF20
:01343F00226A
:0B327600900090EBF0A3EAF0A3E9F059
:10328100A31208FF00000000900090E0FBA3E0FA09
:10329100A3E04A4B7005FFFEFDFC2290009312084B
:1032A100FF00000000900090E0FBA3E475F0011224
:1032B1000746A9F0FA1206A46021900093E0FCA34E
:1032C100E0FDA3E0FEA3E02401FFE43EFEE43DFDBA
:1032D100E43CFC9000931208F380CA900093E0FC58
:0932E100A3E0FDA3E0FEA3E0FF61
:0132EA0022C1
:0B382F00900128EBF0A3EAF0A3E9F001
:10383A0090012EEBF0A3EAF0A3E9F0900128E0FB57
:10384A00A3E0FAA3E04A4B7004FBFAF92290012C98
:10385A0074FFF5F012074645F0601690012EE0FB62
:10386A00A3E475F001120746A9F0FAED1206EA8000
:0C387A00DC900128E0FBA3E0FAA3E0F9D9
:01388600221F
:0B1AAB00900097EBF0A3EAF0A3E9F035
:101AB60090009FEBF0A3EAF0A3E9F090009AE0F91A
:101AC600A3E0FAA3E09000A2C9F0A3EAF0A3E9F02C
:101AD600900097E0FBA3E0FAA3E04A4B600CA3E07A
:101AE600FBA3E0FAA3E04A4B70077B007A0079007B
:101AF600229000A2E0FBA3E0FAA3E0F9C003C00233
:101B0600C00190009FA3E0FAA3E0F9D3D082D0836E
:101B1600D0E0E99582EA958340339000A2A3E0FAEB
:101B2600A3E0F990009DE0FEA3E0FFE92FF9EA3E6D
:101B3600FAC003C002C001A3A3E0FAA3E0F9D3D020
:101B460082D083D0E0E99582EA95834056E49000FE
:101B5600A5F0A3F090009DE0FEA3E0FF9000A5E0B5
:101B6600FCA3E0FDC39FEC9E4003021C069000A26E
:101B7600E0FBA3E0FAA3E0F98D828C831206BDFF99
:101B860090009FE0FBA3E0FAA3E0F98D828C83EF3F
:101B96001206FC9000A6E004F070069000A5E00492
:101BA600F080B190009DE0FFA3E09000A5CFF0A3E8
:101BB600EFF09000A5E0FEA3E0FFD39400EE9400C2
:101BC600403E9000A2E0FBA3E0FAA3E0F9EF24FF79
:101BD600FFEE34FFFE8F82F5831206BDFD90009F57
:101BE600E0FBA3E0FAA3E0F98F828E83ED1206FCF8
:101BF6009000A6E024FFF09000A5E034FFF080B24C
:0B1C0600900097E0FBA3E0FAA3E0F9D8
:011C110022B0
:0B351900900131EBF0A3EAF0A3E9F011
:10352400900137EBF0A3EAF0A3E9F0900134E0FB5B
:10353400A3E0FAA3E0F91206A46028900134A3E4FE
:1035440075F001120746A9F0FA1206A4FF900131A2
:10355400E0FBA3E475F001120746A9F0FAEF1206A6
:10356400EA80C8900131E0FBA3E0FAA3E0F9E41299
:0D35740006EA900137E0FBA3E0FAA3E0F9BE
:013581002227
:1032EB00900140EBF0A3EAF0A3E9F0900140E0FB82
:1032FB00A3E0FAA3E0F91206A4FF6029900143E0D2
:10330B00FBA3E0FAA3E0F91206A46019B507169027
:10331B000141E475F001120730900144E475F001AE
:10332B0012073080C6900143E0FBA3E0FAA3E0F95B
:10333B001206A4FF3395E0FE900140E0FBA3E0FAF8
:10334B00A3E0F91206A4FD3395E0FCC3ED9FFFEC5F
:03335B009EFE22B1
:10371B009001561208F3900156E0FCA3E0FDA3E0E4
:10372B00FEA3E0FF78181208CDEF1206EA900156BF
:10373B00E0FCA3E0FDA3E0FEA3E0FF78101208CDB0
:10374B00900001EF1206FC900156E0FCA3E0FDA3F4
:10375B00E0FEA3E0FF78081208CD900002EF1206FE
:10376B00FC900156A3A3A3E0FF900003EF0206FC1D
:0B213B00900099EBF0A3EAF0A3E9F09C
:10214600A31208FF000000001206A4FFE4FCFDFE37
:1021560090009C1208F390009CE0FCA3E0FDA3E035
:10216600FEA3E0FF78081208E090009C1208F390A6
:10217600009CE0F8A3E0F9A3E0FAA3E0FBC000C0EE
:1021860001C002C003900099E0FBA3E0FAA3E0F9C6
:102196009000011206BDFFD003D002D001D000EBA3
:1021A6004FFFEAFEE9FDE8FC90009C1208F3900060
:1021B6009CE0FCA3E0FDA3E0FEA3E0FF7808120884
:1021C600E090009C1208F390009CE0F8A3E0F9A3CD
:1021D600E0FAA3E0FBC000C001C002C00390009972
:1021E600E0FBA3E0FAA3E0F99000021206BDFFD0DF
:1021F60003D002D001D000EB4FFFEAFEE9FDE8FC78
:1022060090009C1208F390009CE0FCA3E0FDA3E084
:10221600FEA3E0FF78081208E090009C1208F390F5
:10222600009CE0F8A3E0F9A3E0FAA3E0FBC000C03D
:1022360001C002C003900099E0FBA3E0FAA3E0F915
:102246009000031206BDFFD003D002D001D000EBF0
:102256004FFFEAFEE9FDE8FC90009C1208F39000AF
:0C2266009CE0FCA3E0FDA3E0FEA3E0FF71
:012272002249
:0D377B00900147EBF0A3EAF0A3E9F0AD07E1
:10378800E4FFFE900002E0B401020F22123BCAE4FB
:10379800FD123BCA90014AE0FD123BCA90014BE082
:1037A800FD123BCA900147E0FBA3E0FAA3E0F9A3AE
:1037B800E0FDA3E0900095CDF0A3EDF01234B6AB98
:0C37C80007AA067D037F071235827F01EF
:0137D40022D2
:07397C00900094EDF0AC0790
:10398300E4FFFE900002E0B401020F22AD04123BFB
:10399300CA7D01123BCAE4FD123BCA7D01123BCA38
:1039A300900094E07003FD80027D01123BCAAB07D7
:0B39B300AA067D037F071235827F010A
:0139BE0022E6
:022E0300AD0719
:102E0500E4FFFE900002E0B401020F22123BCA7DEE
:102E150002123BCAE4FD123BCA7D04123BCAC0063E
:102E2500C007900098E0FCA3E0FDA3E0FEA3E0FF4F
:102E350078181208CDAD07D007D006123BCAC006D8
:102E4500C007900098E0FCA3E0FDA3E0FEA3E0FF2F
:102E550078101208CDAD07D007D006123BCAC006C0
:102E6500C007900098E0FCA3E0FDA3E0FEA3E0FF0F
:102E750078081208CDAD07D007D006123BCAC006A8
:102E8500C007900098E0FCA3A3A3E0FFE4AD07D042
:102E950007D006123BCAAB07AA067D037F0712358A
:032EA500827F0128
:012EA8002207
:0D37D50090014DEBF0A3EAF0A3E9F0AD0781
:1037E200E4FFFE900002E0B401020F22123BCA7D08
:1037F20003123BCA900150E0FD123BCA900151E016
:10380200FD123BCA90014DE0FBA3E0FAA3E0F9A34D
:10381200E0FDA3E0900095CDF0A3EDF01234B6AB3D
:0C38220007AA067D037F071235827F0194
:01382E002277
:0739FF00900093EDF0AC070E
:103A0600E4FFFE900002E0B401020F22AD04123B77
:103A1600CA7D04123BCAE4FD123BCA7D01123BCAB1
:103A2600900093E0FD123BCAAB07AA067D037F0711
:053A36001235827F0142
:013A3B002268
:021C1200AD071C
:101C1400E490008AF0A3F0900002E0B401037F0195
:101C24002290008AE0FEA3E0FF123BCA90008AEEF5
:101C3400F0A3EFF07D05123BCA90008AEEF0A3EF0B
:101C4400F0E4FD123BCA90008AEEF0A3EFF090009E
:101C540086E0FCA3E0FDA3E0FEA374FFFFE47BFFAA
:101C6400FAF9F8C31208BC702090008AE0FEA3E0E1
:101C7400FF7D01123BCA90008AEEF0A3EFF09000C2
:101C840086A3A3A3E0FD021D53900086E0FCA3E01D
:101C9400FDA3A374FFFFFEE47BFF7AFFF9F8C312F0
:101CA40008BC90008A7009E0FEA3E0FF7D02805723
:101CB400E0FEA3E0FF7D04123BCA90008AEEF0A38D
:101CC400EFF0C006C007900086E0FCA3E0FDA3E0AF
:101CD400FEA3E0FF78181208CDAD07D007D0061296
:101CE4003BCA90008AEEF0A3EFF0C006C007900054
:101CF40086E0FCA3E0FDA3E0FEA3E0FF7810120859
:101D0400CDAD07D007D006123BCA90008AEEF0A3EF
:101D1400EFF0C006C007900086E0FCA3E0FDA3E05E
:101D2400FEA3E0FF78081208CDAD07D007D0061255
:101D34003BCA90008AEEF0A3EFF0C006C007900003
:101D440086E0FCA3A3A3E0FFE4AD07D007D006120E
:101D54003BCA90008AEEF0A3EFF090008AE0FAA369
:0B1D6400E0FB7D037F071235827F014A
:011D6F002251
:0D3F6D00900094ECF0A3EDF01206A4FF22EA
:0D3F7A00900093ECF0A3EDF01206A4FF22DE
:0C3F9F00900097ECF0A3EDF012213B2203
:102D55009000ADEFF0900071A3E0FAA3E0AE02FFA2
:102D6500900074A3E0FAA3E0C39FFFEA9EFEEF6420
:102D7500014E7003022E02900074E0FBA3E0FAA35B
:102D8500E0F9C003C002C001900071A3E0FAA3E01E
:102D9500F9D3D082D083D0E0E99582EA95834023A8
:102DA500900074A3E0FAA3E0AE02FF900071A3E0E7
:102DB500FAA3E09FFFEA9EFEC3EF9417EE648094AA
:102DC50080503A900071A3E0FAA3E0C390003A95D1
:102DD50082EA9583400E9000717401F0A37400F0AF
:102DE500A37423F09000ADE0FF900071E0FBA3E435
:0E2DF50075F001120746A9F0FAEF1206EA2265
:10150100E4900078F0A3F0A3F0A3F0C390015BE0B6
:10151100941F90015AE094005026123A77EFD39429
:1015210000401D1236B890015AE475F001120746C9
:10153100FC740325F0F58274003CF583EFF080CB59
:10154100C390015BE0940790015AE09400500302BC
:10155100174A900078E0FEA3E0FFC390015BE09F93
:10156100FD90015AE09EFCC3ED9407EC94005003FA
:101571000216FD74032FF58274003EF583E0645575
:101581006010900079E004F070C8900078E004F0F9
:1015910080C0900078E0FEA3E0FF2404F58274008F
:1015A1003EF583E064AA6010900079E004F070A237
:1015B100900078E004F0809A74052FF58274003E63
:1015C100F583E06009900079E024020216D09000D2
:1015D10078E0FCA3E0FD2407F58274003CF583E08C
:1015E10090007AF0A3E4F074082DF58274003CF5C4
:1015F10083E02407FFE433FE90007BE02FF09000AE
:101601007AE03EF0E0FEA3E0FFD39426EE940040A2
:1016110009900079E024030216D0900078E0FCA341
:10162100E0FDC390015BE09DFD90015AE09CFCD37D
:10163100EF9DEE9C40030216FD900078E0FEA3E0D2
:101641002403F974003EFA7B0190007BE024FFFD46
:1016510090007AE034FFFC12393290007AE0FCA36A
:10166100E0FD900078E0FAA3E0FB2DFDEA3CFC747C
:10167100022DF58274003CF583E06F605D74032BED
:10168100F974003AFA7B0190007BE024FFFD9000A1
:101691007AE034FFFC12393290007FEFF07BFF7A61
:1016A1003D795890007AE0FEA3E0FF900079E02FA9
:1016B100FF900078E03EFE74022FF58274003EF543
:1016C10083E0900080F0120A0E900079E02403F08C
:1016D100900078E03400F0021553900078E0FEA30A
:1016E100E0FF121D7090007AE0FEA3E0FF90007908
:1016F100E02FF0900078E03EF0021553900078E082
:10170100FEA3E0FFC390015BE09FFD90015AE09EC4
:10171100FCF0A3EDF0D39400EC9400402C74032F63
:10172100F974003EFA90009A7401F0A3EAF0A3E97B
:10173100F090015AE0FFA3E090009DCFF0A3EFF0FD
:091741007B017A007903121AAB56
:01174A00227C
:103D7E009000717401F0A37400F0A37423F090000E
:103D8E00747401F0A37400F0A37423F090007774A0
:033D9E00FFF02211
:06400B00900022E0FF22FC
:0E3F5200E4900022F0FBFA7D037F040235822A
:06401100900001E0FF2217
:023E8C00AD0780
:103E8E00E4FF900001F0FE123BCAEFFB7A007D03C7
:053E9E007F05023582E2
:06401700900077E0FF229B
:0A3FB500E4FBFA7D037F0E02358263
:1027C000520100010102020302040405040602088A
:0527D000010D051801D8
:03402400023F87D1
:10365300123FEDAD077F0112397C9000981208FFED
:10366300000000197F02122E039000981208FF0039
:103673000000197F03122E03900112E0FD7F041254
:1036830039FFE4FD7F051239FF9000981208FF000F
:103693000000007F06122E03E4FD7F0812397C90A0
:1036A30000861208FF000000007F0D121C12E4FDCB
:0536B3007F1802397CC4
:103C9800123F6D900093EFF070047F018002E4FF03
:103CA800123FF3900093E0FD7F0112397CEFB401DD
:063CB800037F01227F00E2
:013CBE0022E3
:103B9E00123F9F9000931208F3900093E0FCA3E075
:103BAE00FDA3E0FEA3E0FF9000981208F37F02123F
:0B3BBE002E03EFB401037F01227F0003
:013BC90022D9
:103EE500123F7AAD077F041239FFEFB401037F015A
:033EF500227F0029
:013EF80022A7
:103EF900123F7AAD077F051239FFEFB401037F0145
:033F0900227F0014
:013F0C002292
:103F0D00123F6DAD077F0812397CEFB401037F01BD
:033F1D00227F0000
:013F2000227E
:103F2100123F6DAD077F1812397CEFB401037F0199
:033F3100227F00EC
:013F3400226A
:0B2CA20090008DEBF0A3EAF0A3E9F036
:102CAD00EF24FE602C24FE603E14605124FD606311
:102CBD0024F0607524176003022D4F90008DE0FB0A
:102CCD00A3E0FAA3E0F9A3E0FCA3E0FD123C988099
:102CDD006C90008DE0FBA3E0FAA3E0F9A3E0FCA368
:102CED00E0FD123B9E805690008DE0FBA3E0FAA321
:102CFD00E0F9A3E0FCA3E0FD123EE5804090008DDD
:102D0D00E0FBA3E0FAA3E0F9A3E0FCA3E0FD123E93
:102D1D00F9802A90008DE0FBA3E0FAA3E0F9A3E08F
:102D2D00FCA3E0FD123F0D801490008DE0FBA3E0AD
:102D3D00FAA3E0F9A3E0FCA3E0FD123F219000927D
:072D4D00EFF0900092E0FF9F
:012D5400225C
:034027007F0922EC
:093FE400900085EFF0A3EDF0223E
:103A3C007B2270223A22006939716E6F6864677A52
:103A4C0066756A6475617500222C2276223A220012
:103A5C00312E302E3000222C226D223A0032007D85
:0B3A6C0000000000000000000000004F
:0427D50041000000BF
:083BCA0090009CEEF0A3EFF067
:103BD2002440F974003EFA7B01ED1206EA90009D42
:103BE200E004F0700690009CE004F090009CE0FE7F
:033BF200A3E0FF4E
:013BF50022AD
:0934AD00900085E0FF7E007BFF2A
:1034B600900092EBF0A3EAF0A3E9F0900090EEF012
:0334C600A3EFF081
:1034C9002440F974003EFA7B01C002C001A3E0F96F
:1034D900A3E0FAA3E090009AC9F0A3EAF0A3E9F007
:1034E900900095E0FFA3E090009DCFF0A3EFF0D00E
:1034F90001D002121AAB900095E0FEA3E0FF900004
:0F35090091E02FF0900090E03EF0E0FEA3E0FF95
:013518002290
:1039320090009EEBF0A3EAF0A3E9F0A3ECF0A3ED74
:01394200F094
:10394300E4A3F0FFFED39000A2E09F9000A1E09ECD
:10395300402190009EE0FBA3E475F001120746A905
:10396300F0FA1206A4FD9000A3E02DF00FBF0001B2
:083973000E80D29000A3E0FFDA
:01397B002229
:1038DE0090009EEBF0A3EAF0A3E9F0A3ECF0A3EDC9
:1038EE00F090009EE0FBA3E0FAA3E04A4B6034A305
:1038FE00E07002A3E0602C9000A174FFF5F01207B7
:10390E004645F0601E90009EE0FBA3E0FAA3E0F9AE
:10391E001206A4FF12402490009FE475F0011207D6
:04392E003080D422EF
:0835820090009CEAF0A3EBF0BD
:10358A0090003A7455F0A374AAF0A3EDF0A3EFF0FB
:10359A0090009CE0FCA3E0FDEC90003EF0EDA3F06F
:1035AA0090009DE02407F090009CE03400F07B013D
:1035BA007A00793AA3E024FFFD90009CE034FFFCF6
:1035CA00123932AE0790009CE0FCA3E0FD2439F5E5
:1035DA008274003CF583EFF07B017A00793A023875
:0135EA00DE02
:103CBF00E4FF900000E0700DFEFD123BCA90000083
:103CCF007401F080077E007D01123BCAEFFB7A0082
:073CDF007D03E4FF023582C2
:1024CD00E4900085F078867C007D017BFF7A3A7977
:1024DD006DFE7F0A12067E7BFF7A3A793C123276C8
:1024ED00900095EEF0A3EFF07A3A793C1234AD906E
:1024FD000085EFF07BFF7A3A7943123276900095A2
:10250D00EEF0A3EFF07A3A79431234AD900085EFF7
:10251D00F07BFF7A3A7954123276900095EEF0A363
:10252D00EFF0900085E0FF7E007BFF7A3A79541240
:10253D0034B6900085EFF07BFF7A3A795C123276F3
:10254D00900095EEF0A3EFF0900085E0FF7E007B0C
:10255D00FF7A3A795C1234B6900085EFF07BFF7A02
:10256D003A7962123276900095EEF0A3EFF090007A
:10257D0085E0FF7E007BFF7A3A79621234B69000D7
:10258D0085EFF07BFF7A3A7969123276900095EEFD
:10259D00F0A3EFF0900085E0FF7E007BFF7A3A79A3
:1025AD00691234B6900085EFF07BFF7A3A796B12A1
:1025BD003276900095EEF0A3EFF0900085E0FF7E6F
:1025CD00007BFF7A3A796B1234B6900085EFF0FB01
:0925DD007A007D037F01023582C2
:0A3FBF00E4FBFA7D037F0202358265
:053B420090008CEFF083
:103B4700124027E4FEEEC39F501D75F002EEA42439
:103B570000F582E5F03401F583E0FD90008CE0FC90
:093B6700ED6C60030E80DEAF0678
:013B70002232
:0B30F300900085EBF0A3EAF0A3E9F0E9
:1030FE001206A4900088F0FD9000011206BD90000B
:10310E0089F09000021206BD90008AF0A3E4F090C0
:10311E0000031206BDFF90008BE02FF090008AE0B6
:10312E003400F0AF05123B4275F002EFA42401F516
:10313E0082E5F03401F583E0FF900089E06F6003D3
:10314E007F0022900088E0FF900085E0FBA3E0FA6C
:10315E00A3E02404F9E43AFA90008AE0FDA3E0909B
:0A316E000090CDF0A3EDF0122CA2AA
:013178002234
:081D700090007CEEF0A3EFF0FF
:101D780090007CE0FEA3E02406F58274003EF58323
:101D8800E0FF1209501DAC001DAF011DB2021DB5C8
:101D9800031DD4041DD9051DE0061EA0081EA30EB0
:101DA80000001EC8023CBF0224CD023FBF90007C49
:101DB800E0FEA3E02409F58274003EF583E090007C
:101DC80077F0E4FBFA7D037F0302358290002280DE
:101DD800039000017401F02290007CE0FCA3E0FD78
:101DE8002407F58274003CF583E0FE74082DF58223
:101DF80074003CF583E0FDEDFF900083EEF0A3EF67
:101E0800F0E4900081F0A3F0900083E0FEA3E0FFEF
:101E1800C3900082E09F900081E09E4003021EC8AC
:101E2800E0FEA3E0FF90007CE0FCA3E0FD2FFBECCC
:101E38003EFA740B2BF58274003AF583E090007E2D
:101E4800F0A3E4F0740C2BF58274003AF583E0FFFC
:101E580090007FE02FF090007EE03400F074092DB0
:101E6800F974003CFA7B01900081E0FEA3E029F9B7
:101E7800EA3EFA1230F3900080EFF090007FE02401
:101E880004FF90007EE03400FE900082E02FF09086
:101E98000081E03EF0021E1002365390007CE0FE06
:101EA800A3E0FF2409F58274003EF583E0FD740A7F
:101EB8002FF58274003EF583E0FEAF05FD123FE486
:011EC80022F7
:103A7700900074E0FBA3E0FAA3E0F9C003C002C022
:103A870001900071E0FBA3E0FAA3E0F9D082D083B4
:103A9700D0E06B7008E965827003EA658360037F95
:053AA70001227F002256
:1036B800900071E0FBA3E0FAA3E0F9C003C002C0E8
:1036C80001A3E0FBA3E0FAA3E0F9D082D083D0E025
:1036D8006B7008E965827003EA6583603590007451
:1036E800A3E0FAA3E0C390003A9582EA9583400EDE
:1036F8009000747401F0A37400F0A37423F0900098
:1037080074E0FBA3E475F001120746A9F0FA12066B
:02371800A4FF0C
:01371A00228C
:100026000203E7E86480F8E933E83360110460F01E
:10003600ED33EC337009E8FCE9FDEAFEEBFF220440
:1000460060DED3EB9FEA9EE99DE8C2E78CF0C2F73B
:1000560095F0400CE8CCF8E9CDF9EACEFAEBCFFB07
:100066001203B285D0F05804700320D5B3E80470AB
:10007600075002B2D50203F192D5EC0460F7E4CC46
:10008600C0E0C398F8603B94186008400DD0E0FBD0
:100096000203C9E4FBFAC9FC8028E830E406E4C997
:1000A600FBE4CAFCE830E305E4C9CACBFCE8540724
:1000B6006010F8C3E913F9EA13FAEB13FBEC13FC2F
:1000C600D8F130F52FC3E49CFCEF9BFFEE9AFEEDD2
:1000D60099FDD0E0FBEF4E4D4C701222DB0302037C
:1000E600EEEC2CFCEF33FFEE33FEED33FDED30E7A7
:1000F600EB0203C9EF2BFFEE3AFEED39FDD0E0FB34
:1001060050130BBB00030203F1ED13FDEE13FEEFDC
:0801160013FFEC13FC0203C906
:10011E00EC4D6011E8497017ED33EC3304600DE4DB
:10012E00FCFFFEFD22E933E8330470F80203E71208
:10013E0003B258046009E4CC248150062850090209
:10014E0003F12840030203EEC0E0EB4A7044B9808D
:10015E0006D0E0FB0203DDEF4E701CBD8008EBFF06
:10016E00EAFEE9FD80EBE98DF0A4FEE5F002020760
:10017E00E9CDF9EAFEEBFFEF89F0A4FCE5F0CE89BC
:10018E00F0A42EFFE435F0CD89F0A42DFEE435F079
:10019E008067EF4E7005BD80D780C3EF8BF0A4ACA7
:1001AE00F0EE8BF0A42CFCE435F0F8EF8AF0A42CE2
:1001BE00E5F038FCE433CB8DF0A42CFCE5F03BF8F5
:1001CE00EE8AF0A42CFCE5F038F8E433CF89F0A4E5
:1001DE002CFCE5F038CF3400CE89F0A42FFFE5F0EB
:1001EE003EFEE433C98DF0A42EFEE5F039CD8AF043
:1001FE00A42FFFE5F03EFEE43DFD33D0E0FB5007BB
:10020E000BBB000F0203F1EC2CFCEF33FFEE33FEC1
:06021E00ED33FD0203C9EF
:100224000203F1EC5D046005E8590470030203E77E
:100234001203B2580460F6EC4860F2EC7004FDFE60
:10024400FF22C860DB2481C85009C39860025006AD
:100254000203EE9850CAF582E9294B4A7005AB8235
:100264000203DD75F0007C1A7880C3EF9BEE9AEDF3
:1002740099400DC3EF9BFFEE9AFEED99FDE842F025
:10028400DC23ACF0D0E0FFD0E0FED0E0FDAB822078
:10029400E7101BEB60BAEC2CFCEF33FFEE33FEED02
:1002A40033FD0203C9E803F830E705C0F075F00038
:1002B400EF2FFFEE33FEED33FD40B830E7C280AAE6
:1002C40074F8CC6480CCC86480C8F58204604FC3E1
:1002D400EB9FF5F0EA9E42F0E99D42F0E89C45F080
:1002E400603C501DE5825FFFE582D313CB5BCBF40A
:1002F4002B5582FB50280ABA002409B90020088033
:100304001DE5825BFBE582D313CF5FCFF4C3132FCC
:100314005582FF50090EBE00050DBD00010CC3EB54
:100324009FF5F0EA9E42F0E99D42F0E89C45F060BA
:0903340007CC4820E701B3EC22DC
:10033D0075F020800E75F010800575F0087D007E3B
:10034D00007F003392D530D503120898EC3340105E
:10035D00EF33FFEE33FEED33FDEC33FCD5F0ED2244
:0E036D00E5F0247EA2D513CC92E7CDCEFF2280
:10037B00EDD2E7CD33EC3392D524814006E4FFFE7A
:10038B00FDFC22FCE4CFCECDCC24E0501174FF80D9
:10039B00EDC3CC13CCCD13CDCE13CECF13CF047076
:0703AB00F030D5DE020898D6
:1009A300E508247FF582E43400F583E0050822900E
:1009B300007C30070390007FE475F00112093002D8
:1009C30006A42000E97F2ED2008018EF540F249054
:1009D300D43440D4FF30040BEF24BFB41A005003C7
:1009E3002461FFE50960021509050CE50C70020599
:1009F3000B30070E90007CE475F001120930EF0212
:100A030006EA0200227403D2078003E4C207F50852
:100A130090007C120947E4F509F50BF50CE5096034
:100A2300077F201209E680F5750AFFC201C200C2E2
:100A330002C203C205C206C2081209B2FF700D301A
:100A430007057F001209F7AF0CAE0B22B4255FC276
:100A5300D5C2041209B2FF24D0B40A00501A75F0AB
:100A63000A780930D50508B6FF0106C6A426F62084
:100A7300D5047002D20380D924CFB41A00EF5004F6
:100A8300C2E5D204020CE9D20180C6D20080C0D2F2
:100A93000280BCD2D580BAD20580B47F201209E689
:100AA3002002077401B5090040F11209A3FF1209DE
:100AB300E6020A20D208D20680951209A3FB120986
:100AC300A3FA1209A3F94A4B700679E77A0D7BFF63
:100AD30020022EE509602A7E008E827583001206AD
:100AE300BD60060EEE650A70F0C2D5EBC0E0EAC049
:100AF300E0E9C0E0EE120D4AD0E0F9D0E0FAD0E030
:100B0300FB1206A4FF60AAEBC0E0EAC0E0E9C0E084
:100B13001209E6D0E02401F9D0E03400FAD0E0FB7A
:100B2300E50A0460DCD50AD98087D20280A2120DBF
:100B33002C60F7E50A7001041203FCA90A600DE5B5
:100B43000A600914F50A120DD4EF60F3EA30E702E4
:100B5300F404C3995079EAF4250A0430E701E40464
:100B6300F50A800D120D2C60C1EA050A250A12034D
:100B7300FCEA9000ABF030E701E4250A04D50A044F
:100B830020050114120D4AE4C0E0120DD49000AB0D
:100B9300E0601320E70714F01209CE802204F0D09E
:100BA300E014C0E07F001209CEE50A60071209C510
:100BB300150A800B3005031209C5D0E0020A20D0C4
:100BC300E00480C4120D2C609EE50A041203FC901D
:100BD30000ABEAF0E50A2005026001042404120DCB
:010BE3004AC7
:100BE40074FF04C0E0120DD41209CEE50A200502F8
:100BF40060031209C5D0E0B50AE87F451209D89010
:100C040000ABE07F2B30E7047F2DF404C0E0120931
:100C1400E6D0E075F00A84C0F01209CFD0E01209E2
:100C2400CF020A20791080027908C206C20880081F
:100C3400D2D5790A8004790AC2D5E50A047002F58E
:100C44000AE4FAFDFEFF1209A3FC7B08200113123B
:100C540009A3FD7B1030000A1209A3FE1209A3FFA9
:100C64007B20EC3382D592D55013C3E43000069F29
:100C7400FFE49EFEE42001039DFDE49CFCE4CBF82C
:100C8400C201EC700CCFCECDCCE824F8F870F38020
:100C940017C3EF33FFEE33FEED33FDEC33FCEB33E0
:100CA400FB994002FB0FD8E9EB300105F8D0E0C412
:100CB40048B201C0E00AEC4D4E4F78207B0070C270
:100CC400EAB50A0040BCC0E0120D4CD0F0D0E020E0
:100CD4000104C4C0E0C4B201C0F01209CFD0F0D501
:100CE400F0EB020A201209500ABD530C28580A8E50
:100CF4004C0A8A420C2C4F0C34440C34490AA3434A
:100D04000C3A550B67460BC7450B31470E07500A83
:100D1400922D0A962E0AB92B0A9A230AB7200DF0AF
:100D24002A0A524800000AB1E50AB4FF03750A060C
:100D34001209A3FC1209A3FD1209A3FE1209A3FFC1
:100D44009000A4020439790AA2D5200314300509BD
:100D5400B910020404B9080104A2D5200602500106
:100D6400042002689202B509005034C0E07F2030AC
:100D740003197F30A20272067205500F120DA3C22E
:100D840002C206C205C2087F30800F300503E9C0E5
:100D9400E01209E6300503D0E0F9D0E0B509CC3023
:100DA40005177F30B9100C1209E67F583004077F0D
:100DB400788003B908031209E63002057F2D020981
:100DC400E67F202008F87F2B2006F322920280CFB2
:100DD4007F00B40700500B24A4F582E43400F583AB
:100DE400E0FF22286E756C6C2900D2011209A33031
:100DF40001F8C201780930D50108F6020A522D50D3
:100E04004349581209A32403B405004001E4900E99
:100E140002931209D7743A1209D7D203750904024E
:020E24000C2898
:1003B200E9D2E7C933E833F892D5EDD2E7CD33EC91
:0703C20033FC5002B2D5220A
:1003C900EC30E7100FBF000C0EBE00080DBD000495
:1003D9000BEB6014A2D5EB13FCED92E7FD2274FF41
:1003E900FCFDFEFF22E480F8A2D574FF13FC7D809A
:0303F900E480EFAE
:1003FC00F920E73624F950037907E4F42402FBE5ED
:10040C0082158270021583DBF6E024FB501BE96039
:10041C0014E4F0E582158270021583E004F0B40A4E
:0D042C0008E4F0D9EE7401F00A22C2D522D6
:10043900ED33EC3392D5FA602AB4FF33EDC2E77B92
:10044900FF60067A04795EE4227A04796720D5048C
:100459007A047962224E614E002B494E46002D499D
:100469004E4600E47A08F0A3DAFC7B00740722C048
:1004790083C082ECC0E0EDC0E0EEC0E0EFC0E0EA8E
:1004890075F010A4CAABF075F04DA42BFBE435F060
:10049900FCEA2410FAEB34C5FBEC34D9FCEDC2E7D5
:1004A900FF75F056A4F42411C5F0F434C58FF0A4F7
:1004B9002AE5F03BE43CF020E71412056ED0E0FF9A
:1004C900D0E0FED0E0FDD0E0FC1202278014F40455
:1004D90012056ED0E0FFD0E0FED0E0FDD0E0FC12C6
:1004E900011ED082D083E0FAEDD2E7CD33EC33247C
:1004F90082FBE4C3CF33CFCE33CECD33CD33DBF361
:100509007B0775F00A846004F0A31B0AE5F0F0A3E9
:100519008FF0740AA4FFACF08EF0740AA42CFEAC20
:10052900F050010C8DF0740AA42CFDE435F0F0A311
:05053900DBDE74072267
:10053E003F8000004120000042C80000447A0000C5
:10054E00461C400047C35000497424004B18968047
:10055E004CBEBC205A0E1BCA6753C21C749DC5AE3E
:10056E00FB60065407601C232312059CEB54386075
:10057E000912058812059712011EECF8EDF9EEFA34
:10058E00EFCB22EB12059780F1543803241C900513
:10059E003EFE93FC0EEE93FD0EEE930ECE93FF22D7
:102FE7000227DAE493A3F8E493A34003F68001F2FF
:102FF70008DFF48029E493A3F85407240CC8C333EB
:10300700C4540F4420C8834004F456800146F6DFB9
:10301700E4800B01020408102040809026ECE47E37
:10302700019360BCA3FF543F30E509541FFEE493AE
:10303700A360010ECF54C025E060A840B8E493A375
:10304700FAE493A3F8E493A3C8C582C8CAC583CAA0
:10305700F0A3C8C582C8CAC583CADFE9DEE780BE58
:0127D90000FF
:1005AE00E709F608DFFA8046E709F208DFFA803E2F
:1005BE0088828C83E709F0A3DFFA8032E309F6081C
:1005CE00DFFA8078E309F208DFFA807088828C8384
:1005DE00E309F0A3DFFA806489828A83E0A3F60838
:1005EE00DFFA805889828A83E0A3F208DFFA804C12
:1005FE0080D280FA80C680D4806980F280338010E9
:10060E0080A680EA809A80A880DA80E280CA803351
:10061E0089828A83ECFAE493A3C8C582C8CCC583C9
:10062E00CCF0A3C8C582C8CCC583CCDFE9DEE78099
:10063E000D89828A83E493A3F608DFF9ECFAA9F018
:10064E00EDFB2289828A83ECFAE0A3C8C582C8CC6E
:10065E00C583CCF0A3C8C582C8CCC583CCDFEADE87
:10066E00E880DB89828A83E493A3F208DFF980CCE9
:10067E0088F0EF60010E4E60C388F0ED2402B404E2
:10068E000050B9F582EB2402B4040050AF23234589
:06069E0082239005FE73AB
:1006A400BB010689828A83E0225002E722BBFE0254
:0906B400E32289828A83E4932287
:1006BD00BB010CE58229F582E5833AF583E02250F2
:1006CD0006E92582F8E622BBFE06E92582F8E2223C
:0D06DD00E58229F582E5833AF583E4932256
:1006EA00BB010689828A83F0225002F722BBFE01EF
:0206FA00F322E9
:1006FC00F8BB010DE58229F582E5833AF583E8F034
:10070C00225006E92582C8F622BBFE05E92582C8DF
:02071C00F222C7
:10071E00EF8DF0A4A8F0CF8CF0A428CE8DF0A42EEF
:02072E00FE22A9
:10073000C5F0F8A3E028F0C5F0F8E5821582700254
:060740001583E038F022F1
:10074600A3F8E0C5F025F0F0E58215827002158366
:06075600E0C838F0E822C3
:10075C00BB010A89828A83F0E5F0A3F0225006F7E8
:0F076C0009A7F01922BBFE06F3E5F009F31922E5
:10077B00E88FF0A4CC8BF0A42CFCE98EF0A42CFC1D
:10078B008AF0EDA42CFCEA8EF0A4CDA8F08BF0A49B
:10079B002DCC3825F0FDE98FF0A42CCD35F0FCEBFA
:1007AB008EF0A4FEA9F0EB8FF0A4CFC5F02ECD39BF
:0F07BB00FEE43CFCEAA42DCE35F0FDE43CFC222C
:1007CA0075F008758200EF2FFFEE33FECD33CDCCE6
:1007DA0033CCC58233C5829BED9AEC99E582984069
:1007EA000CF582EE9BFEED9AFDEC99FC0FD5F0D646
:1007FA00E4CEFBE4CDFAE4CCF9A88222B800C1B970
:10080A000059BA002DEC8BF084CFCECDFCE5F0CBAD
:10081A00F97818EF2FFFEE33FEED33FDEC33FCEBE6
:10082A0033FB10D703994004EB99FB0FD8E5E4F9A1
:10083A00FA227818EF2FFFEE33FEED33FDEC33FC8E
:10084A00C933C910D7059BE99A4007EC9BFCE99A82
:10085A00F90FD8E0E4C9FAE4CCFB2275F010EF2FC7
:10086A00FFEE33FEED33FDCC33CCC833C810D707C7
:10087A009BEC9AE899400AED9BFDEC9AFCE899F802
:0E088A000FD5F0DAE4CDFBE4CCFAE4C8F92295
:0E089800C3E49FFFE49EFEE49DFDE49CFC2271
:1008A600EB9FF5F0EA9E42F0E99D42F0EC6480C8C9
:0608B60064809845F02269
:1008BC00EB9FF5F0EA9E42F0E99D42F0E89C45F092
:0108CC002209
:1008CD00E8600FECC313FCED13FDEE13FEEF13FF09
:0308DD00D8F1222D
:1008E000E8600FEFC333FFEE33FEED33FDEC33FC76
:0308F000D8F1221A
:0C08F300ECF0A3EDF0A3EEF0A3EFF02278
:1008FF00A8828583F0D083D08212091612091612AE
:10090F000916120916E473E493A3C583C5F0C583D2
:10091F00C8C582C8F0A3C583C5F0C583C8C582C842
:01092F0022A5
:10093000F8E0FBA3A3E0F925F0F0E5821582700250
:070940001583E0FA38F022F4
:09094700EBF0A3EAF0A3E9F022B1
:10095000D083D082F8E4937012740193700DA3A336
:1009600093F8740193F5828883E47374029368604A
:06097000EFA3A3A380DF4A
:10097600EC8EF0A4CCC5F0CCCDF8EFA4CEC5F02D0E
:10098600FDE43CFCE8A42EC8C5F03DFDE43CFCEFCC
:0D099600A4FFE5F028FEE43DFDE43CFC225A
:00000001FF
