:030000000224EEE9
:0C24EE00787FE4F6D8FD758121022535C9
:1023AB0052203D20256620200D0A002564200D0AB1
:1023BB00000D0A3D3D3D3D3D3D3D3D3D3D3D3D3DE2
:1023CB003D3D3D3D3D3D3D3D3D3D3D3D3D3D3D3D32
:1023DB003D3D3D3D3D0D0A00736B753A4B25642029
:1023EB000D0A00736F66742076657273696F6E3AAF
:1023FB002573200D0A00312E30302E3030006761EE
:10240B0070202564200D0A0074696D6572202564A7
:10241B00200D0A00496E7075745F566F6C7461679E
:10242B00655F737464203D2025640D0A003D3D3DBE
:10243B003D3D3D3D3D3D3D3D3D3D3D3D3D3D3D3DC1
:10244B003D3D3D3D3D3D3D3D3D3D3D3D3D3D3D0DE1
:02245B000A0075
:0D20B2004200B200004100B5004100B40042
:101FD900E4900000F09000B4E0700A1227639000CA
:101FE90000EFF08005E4900000F0900000E064014B
:101FF900702E9000ABE07028122C1BEF70087F0147
:10200900122C21C2B522E4FF122C2112257A90004C
:1020190096E0FF1227CB1226069000B57401F02234
:10202900122C1BEF60030220B1900000E0640270E3
:102039002F900096E0C394065005E004F0800690C6
:1020490000967401F09000B57401F0900096E0FFDD
:102059001227CB122606900096E0FF122C398045F4
:10206900900000E064037040900097E0C39405502D
:1020790005E004F08005E4900097F0900096E0D325
:1020890094014016A3E0FF70059000948009EFD3F6
:10209900940340069000837402F0900097E0FF12C9
:0820A9002C3312257A122A15CE
:0120B100220C
:08218200900006EEF0A3EFF05F
:10218A00900064E06402706A9000ABE064017062DF
:10219A00900006A3E0FFE4900064F090009A04F037
:1021AA00900045E0FED3940F4048EED39F400CE0E8
:1021BA009F900098F0A37401F08016900045E0FE0D
:1021CA00C3EF9EFF900098F0122BDE9000997402E4
:1021DA00F0900098E0FFC394024006EFD3941440B5
:1021EA0007E4900098F0A3F0122A157D027F0212EC
:1021FA002AE8900099E0FDB40114900098E0FF7E6F
:10220A0000900006EE8FF012070EAFF0FE22EDB43A
:10221A000218900098E0FFC3900007E09FFF90002B
:10222A0006E09400FEF0A3EFF022900006E0FEA381
:02223A00E0FFC3
:01223C00227F
:0C169C00900006ECF0A3EDF0AB07AA06EE
:1016A800E4A3F0A3F0A3F0A37428F0A31208B700F2
:1016B8000000009000101208B700000000C3EB946F
:1016C8005AEA94005003021760AE02AF03AD07ACAC
:1016D80006E4120342E4FBFA797A7844120227906E
:1016E800000C1208AB900006E0FCA3E0FDE4120336
:1016F80042E4FBFA797A7844120227900010120823
:10170800AB90000CE0F8A3E0F9A3E0FAA3E0FBA398
:10171800E0FCA3E0FDA3E0FEA3E0FF120029900097
:101728000CE0F8A3E0F9A3E0FAA3E0FB1202277BA0
:10173800007A80793B784412011E90000C1208ABA5
:10174800E4FFFEFDFC90000CE0F8A3E0F9A3E0FA4A
:10175800A3E0FB1202C450057E007FFF227BFF7AC4
:101768002379AB90000CE0FCA3E0FDA3E0FEA3E02E
:10177800FF9000171208AB1209C67F147EAE7DC316
:101788007C4290000CE0F8A3E0F9A3E0FAA3E0FBA8
:101798001202C4603F403D7F147EAE7DC37CC29080
:1017A800000CE0F8A3E0F9A3E0FAA3E0FB12002D97
:1017B8007BCD7ACC79CC783E12022712037B90003D
:1017C80008EEF0A3EFF090000BE02FF090000AE095
:1017D8003EF0803C90000CE0F8A3E0F9A3E0FAA307
:1017E800E0FB7F147EAE7DC37C421200297BCD7A5C
:1017F800CC79CC783E12022712037B900008EEF0D9
:10180800A3EFF0C390000BE09FF090000AE09EF079
:10181800900096E0B4030E90000BE024FBF09000DB
:0D1828000AE034FFF090000AE0FEA3E0FFAC
:011835002290
:101AA800E4900000F0A3F0A3F0A3F0A3F0A3F0905B
:101AB80000B3E004F070069000B2E004F09000B2C9
:101AC800E0FEA3E0FFE4FCFD7B507AC3F9F8D312F3
:101AD80008844003021BDDE49000B2F0A3F07B0110
:101AE80090000904F0A37400F0A37404F07A00795C
:101AF80002121BDE900002E0FEA3E0FFA3E0FCA3BD
:101B0800E0FD12169C900000EEF0A3EFF012218287
:101B1800900000EEF0A3EFF07BFF7A2379B69000F7
:101B280017EEF0A3EFF01209C6D3900003E0945A21
:101B3800900002E094005003021BCA122C1BEF70A5
:101B480060FF122C2D9000B5E0B40121E4F0D39091
:101B58000001E09455900000E094004006E49000F5
:101B68008980059000897401F0900088F090000049
:101B7800E0FEA3E0FF7C007D0A1206FC90007BEEED
:101B8800F0A3EFF0120DDE900097E0FF122C3390D7
:101B98000096E0FF122C39900096E0FF1228AF80E3
:101BA8001B9000ABE0B4010AC2B5122C09122A61DD
:101BB800800A7F01122C2DC2B5122C09E49000B4C2
:101BC800F022E49000ABF07FFF122C2D122A3B90FC
:051BD80000B47401F0EF
:011BDD0022E5
:101EFA00122BF612299D122AC9D2AF12000E122BEA
:101F0A00B4121836122AA9122C007F02122BD112EF
:101F1A002973122C127FB07E04122B5B7F06122CBF
:101F2A00337F07122C397F587E02122B5B122C0941
:101F3A00122B077BFF7A2379BC1209C67BFF7A230F
:101F4A0079E3900017741FF0A374A9F01209C690E0
:101F5A00001774FFF0A37424F0A37401F07BFF7AD6
:101F6A002379EE1209C67BFF7A247909900096E05C
:101F7A00FF900017E4F0A3EFF01209C67BFF7A2462
:101F8A007913900097E0FF900017E4F0A3EFF012A6
:101F9A0009C67BFF7A24791F90009FE0FFA3E09097
:101FAA000017CFF0A3EFF01209C67BFF7A24793825
:101FBA001209C6121AA8121FD99000B4E0700B9029
:0F1FCA00007EE0FEA3E0FF122685122C3F80E48C
:0A2BF600758E5190FE917401F022DB
:10260600900096E014B40900507490261E75F003ED
:10261600A4C58325F0C58373022639022644022603
:102626004F02265A02266F02266502266F02266F81
:1026360002267A9000797401F0A374C2F022900009
:10264600797401F0A374F4F0229000797402F0A377
:102656007412F0229000797402F0A37494F0229020
:1026660000797403F0A314F0229000797402F0A3A9
:0F26760074C6F0229000797402F0A374F8F02279
:102B0700E4FFFE12245DD3EF9440EE940690009FFD
:0D2B1700E44006F0A37402F022F0A304F0E5
:012B2400228E
:0E2BC300EF1F70011E144E6004000080F3220C
:102B5B007D407C03ED1D70011C144C70F7EF1F7052
:062B6B00011E144E70EA89
:012B71002241
:102AC90090FF037401F090FF07F090FF02F075B4D6
:0F2AD900817F507E00122BC390FE9B7449F02228
:102B7200E4FFFE75B50743B440E5B430E5FB53B45A
:052B8200DFAEB7AFB6A5
:012B8700222B
:102B8800E4FFFE75B50343B440E5B430E5FB53B448
:052B9800DFAEB7AFB68F
:012B9D002215
:102B9E00E4FFFE75B50243B440E5B430E5FB53B433
:052BAE00DFAEB7AFB679
:012BB30022FF
:0B1BDE00900006EBF0A3EAF0A3E9F092
:101BE90090000C1208B700000000E4900010F0F01B
:101BF90090000CE0F8A3E0F9A3E0FAA3E0FB122BB4
:101C090088E4FCFDEB2FFFEA3EFEED39FDEC38FCE4
:101C190090000C1208AB900010E004F0E0C39405AA
:101C290040CE90000CE0FCA3E0FDA3E0FEA3E0FFA2
:101C3900E47B05FAF9F81207E490000C1208ABE40A
:101C49007FA07E0FFDFC90000CE0F8A3E0F9A3E073
:101C5900FAA3E0FB120759E47BFF7A0FF9F81207A0
:101C6900E4900006E0FBA3E0FAA3E0F9EE8FF0129E
:101C7900073A7F147E00122BC390000C1208B7009C
:101C8900000000E4900010F090000CE0F8A3E0F9E7
:101C9900A3E0FAA3E0FB122B72E4FCFDEB2FFFEAB1
:101CA9003EFEED39FDEC38FC90000C1208AB9000BB
:101CB90010E004F0E0C3940540CE90000CE0FCA3D2
:101CC900E0FDA3E0FEA3E0FFE47B05FAF9F81207C3
:101CD900E490000C1208ABE47FA07E0FFDFC90009D
:101CE9000CE0F8A3E0F9A3E0FAA3E0FB120759E43A
:101CF9007BFF7A0FF9F81207E4900009E0FBA3E0F3
:0A1D0900FAA3E0F9EE8FF002073AAA
:10245D009000001208B700000000E4900004F0F0B6
:10246D00900000E0F8A3E0F9A3E0FAA3E0FB122B43
:10247D009EE4FCFDEB2FFFEA3EFEED39FDEC38FC52
:10248D009000001208AB900004E004F0E0C3940546
:10249D0040CE900000E0FCA3E0FDA3E0FEA3E0FF32
:1024AD00E47B05FAF9F81207E49000001208ABE49A
:1024BD007FA07E0FFDFC900000E0F8A3E0F9A3E003
:1024CD00FAA3E0FB120759E4FB7A10F9F81207E4BE
:1024DD009000001208AB900000A3A3E0FEA3E0FF64
:0124ED0022CC
:101D13000D0A3D3D3D3D3D3D3D3D3D3D3D3D3D3D53
:101D23003D3D3D3D3D3D3D3D3D3D3D3D3D3D3D3DE0
:101D33003D3D3D3D3D3D3D3D3D3D0D0A00706F77D1
:101D43006572206F6E20666C617368206761703AFC
:101D53002564202074696D65723A2564200D0A009C
:101D6300706F776572206F6E20666C617368207682
:101D7300616C75653A256420207369676E3A256442
:101D8300200D0A003D3D3D3D3D3D3D3D3D3D3D3D3D
:101D93003D3D3D3D3D3D3D3D3D3D3D3D3D3D3D3D70
:101DA3003D3D3D3D3D3D3D3D3D3D3D3D0D0A003D00
:101DB3003D3D3D3D3D3D3D3D3D3D3D3D6669727390
:101DC3007420696E697420646174613D3D3D3D3DDD
:101DD3003D3D3D3D3D3D200D0A00307825303458D2
:101DE300202030782530345820203078253034585E
:101DF3002020307825303458200D0A00666C61733A
:101E030068206761703A2564202074696D65723AB1
:061E13002564200D0A0009
:1020BF00450096000000000044009B2020050141D0
:0820CF0000A10142009F000086
:062C1B009000A1E0FF2281
:062C21009000A1EFF0227B
:102A8700D310AF01C3C0D075FDF075FC0F8EFA8F60
:102A9700F975FDD275FC2D75FDE175FC1ED0D09240
:022AA700AF225C
:1029C600D310AF01C3C0D08FFB75FDF075FC0FAE01
:1029D60004AF058EFA8FF975FDB475FC4B75FDE1F4
:0829E60075FC1ED0D092AF2257
:0C26F6007B017A0079967D057F047E3C14
:10270200D310AF01C3C0D0900008EEF0A3EFF0A346
:0B271200EDF0A3EBF0A3EAF0A3E9F068
:10271D00E4A3F0C2AFF090000AE0FF90000EE0C31A
:10272D009F502C90000BE0FBA3E475F001120724E1
:10273D00A9F0FA1206A4FF900008E475F001120743
:10274D0024ADF0FC1229C690000EE004F080C7D233
:01275D00AFCC
:05275E00D0D092AF2273
:040003008F828E83D7
:03000700E493FF80
:01000A0022D3
:10286F00900008EEF0A3EFF0A3EBF0A3EAF0A3E9DA
:10287F00F0AF051DEF6028900008E475F001120716
:10288F002485F082F583E493FF90000AE0FBA3E434
:10289F0075F001120724A9F0FAEF1206EA80D2228E
:1028E300E4FDFCED2400FFE4343CFE120003749B82
:1028F3002DF582E43400F583E0B507030C80037FF4
:1029030000220DEDB404DCECC3940440037F0122E8
:022913007F0043
:01291500229F
:10183600E4900000F090FE927404F01228E3EF703A
:101846000790000004F0807C7BFF7A1D7913120953
:10185600C67B017A0079967D057F047E3C12286F4F
:101866007BFF7A1D7940900096E0FF900017E4F028
:10187600A3EFF0900097E0FF900019E4F0A3EFF0DB
:101886001209C67BFF7A1D7963900098E0FF9000ED
:1018960017E4F0A3EFF0900099E0FF900019E4F050
:1018A600A3EFF01209C67BFF7A1D79871209C6904D
:1018B6000096E0D394065006A3E0940540069000F7
:1018C600007401F0900000E06401707A7BFF7A1DDD
:1018D60079B21209C69000967401F0A3F07F007EDB
:1018E6003C122A87FB7A00799B7D04122702122676
:1018F600F67B017A00799B7D047F007E3C12286F7F
:101906007BFF7A1D79DD90009BE0FF900017E4F0E5
:10191600A3EFF090009CE0FF900019E4F0A3EFF035
:1019260090009DE0FF90001BE4F0A3EFF090009E76
:10193600E0FF90001DE4F0A3EFF01209C67BFF7AEA
:101946001D79871209C67BFF7A1D79FF900096E004
:10195600FF900017E4F0A3EFF0900097E0FF9000EF
:0919660019E4F0A3EFF00209C638
:102A15007F047E3C122A877B017A00799B7D047FA7
:102A2500001227021226F67B017A0079967D057F32
:062A3500047E3C02286F44
:1020D7005E00460000000000000000000000000055
:1020E70000000000000000000000000000000000E9
:0920F700004100640041004500B5
:10299D0090FF1674C1F090FF157460F090FFA07455
:1029AD0026F090FFA114F075CEFF75CD9875CC066D
:0929BD00759E02759810D2AC223F
:0C2BDE00C2AC8F993099FDC299D2AC2294
:032C4300022BDE83
:0B29460090000DEBF0A3EAF0A3E9F015
:10295100E4FEEEC39D501A90000DE0FBA3E0FAA344
:10296100E0F98E827583001206BDFF122C430E80A2
:01297100E184
:012972002242
:102AE8009000087455F0A3EFF0A3EDF0A3740DF077
:0F2AF800A3740AF07B017A0079087D0502294654
:062C2700AE07122BDE22B5
:030023000228228E
:0D282200C0E0C083C082C0D075D000C007E8
:10282F00E59830E030AF995398FE900064E0146063
:10283F0019047021EFB4551D900046F0900044E04C
:10284F0004F09000647401F0800B900045EFF0905D
:05285F0000647402F0AA
:0B286400D007D0D0D082D083D0E0326B
:102100004100AB004100A2004200A300004100A535
:0F211000004200A600004100A8014200A9000003
:0F2BB40090FF177460F090FF00F090FF01F02287
:10223D00E4900002F0A28133900001F09000A2E042
:10224D0014602614604E1470030222E02403600310
:10225D000222E9900001E060030222EE9000A3F05B
:10226D00A3F09000A204F08078900001E0706B90D4
:10227D0000A4E004F070069000A3E004F0C3900009
:10228D00A4E094039000A3E09400403E9000A2745B
:10229D0002F08036900001E0B40106A37404F080D2
:1022AD003B9000A4E004F070069000A3E004F0C39E
:1022BD009000A4E094829000A3E09400400C900064
:1022CD00027405F09000A27403F07F0A7E00122BB9
:1022DD005B800E900001E0B401078000E49000A245
:0622ED00F0900002E0FF8A
:0122F30022C8
:1022F400E4900002F0A28033900001F09000A5E089
:1023040014602614604E14700302239724036003A0
:102314000223A0900001E060030223A59000A6F030
:10232400A3F09000A504F08078900001E0706B9019
:1023340000A7E004F070069000A6E004F0C390004B
:10234400A7E094039000A6E09400403E9000A5749A
:1023540002F08036900001E0B40106A37404F0801A
:102364003B9000A7E004F070069000A6E004F0C3E0
:102374009000A7E094909000A6E09401400C900097
:10238400027406F09000A57403F07F0A7E00122BFD
:102394005B800E900001E0B401078000E49000A58A
:0623A400F0900002E0FFD2
:0123AA002210
:1027630012223DBF05037F01221222F4BF0621126C
:102773002C1BBF011490009AE0700E9000AB04F084
:1027830090009AF0122A15803CE49000ABF080355B
:102793009000A8E0602330A70320801D9000ABE0E9
:1027A30070177F32FE122B5BE49000A8F020A70382
:1027B3007F022220800F7F032230A70930800690FA
:0727C30000A87401F07F0083
:0127CA0022EC
:04211F004100B600C5
:102B43007E009000B6E0FD7C0012092EE47B64FA5F
:072B5300F9F81207E48FDF1F
:012B5A002258
:092C000090FF1D74C0F0C2B52262
:0D2BD10075BD17EF75F02BA490FEA0F0224B
:042C3F0043BD10225F
:1029EE007365742074696D65207365636F6E643AE8
:1029FE0025640D0A0074696D65207365636F6E64DE
:072A0E003A2564200D0A00C7
:1021230042008E000042008C0000420092000041F9
:10213300008200410083004100940041009500416A
:10214300008900420084000042008A0000420086A9
:10215300000041008800420090000042007E000021
:052163004200800000B5
:10268500900000EEF0A3EFF0122C1BEF70629000AB
:102695009FE0FCA3E0FD64014C700F900001E02574
:1026A500E0F0900000E033F08011ED64024C700B17
:1026B500900000E0C313F0A3E013F0900091E00454
:1026C500F07006900090E004F0900090E0FEA3E02A
:1026D500FFD3900001E09F900000E09E4004D2B53A
:1026E5008002C2B5EF64C84E7006900090F0A3F06A
:0126F50022C2
:1028AF00900088E0B401028021EF24FE600D1460D7
:1028BF000A24FC5006240670118000900077E0FF78
:1028CF00A3E090007ECFF0A3EFF090007EE4F0A3A2
:0428DF007464F0220B
:102B250090008CEEF0A3EFF0E4A3F0A3F07BFF7A26
:0E2B35002979EE900017EEF0A3EFF00209C62A
:1027CB00EFB40A0050509027D8F82828730227F648
:1027DB0002280002280B02280D02281802281802D2
:1027EB002818022818022818022818900080E4F0F4
:1027FB00A3741EF0229000807401F0A3740EF022DB
:10280B0080009000807401F0A3744AF02290008045
:07281B00E4F0A374F0F022C9
:10291600900089E0B40128900084E475F001120764
:102926000EFEC3900081E095F0900080E09E500F6F
:10293600E4900089F0900084F0A3F0900088F022E3
:10257A00E490008EF0A3F0900097E0FF70089000BE
:10258A008CF0A3F08052EFB4010C90008C7407F029
:10259A00A304F0E48042EFB4020D90008C740EF0B4
:1025AA00A37410F0E48031EFB4030D90008C741C16
:1025BA00F0A37420F0E48020EFB4040D90008C7432
:1025CA0038F0A37440F0E4800FEFB4051790008C44
:1025DA007470F0A37480F0E4900092F0A3F090007D
:1025EA008AF0A3F07BFF7A2A790390008CE0FFA39C
:0C25FA00E0900017CFF0A3EFF00209C63C
:10000E00E490FE80F0F589758CF5758A9643A8020A
:04001E0043881022E1
:03000B0002196F68
:10196F00C0E0C0F0C083C082C0D075D000C000C03E
:10197F0001C002C003C004C005C006C007122C1B63
:10198F00EF6003021A6390008FE004F0700690007E
:10199F008EE004F0C390008FE094F490008EE094FA
:1019AF00015003021A8A122916900094E0B4022DF6
:1019BF00900093E004F07006900092E004F0D39052
:1019CF000093E09440900092E0943840109000947F
:1019DF00E4F0900092F0A3F090008204F0D3900016
:1019EF008DE0940090008CE094004042A3E024FF2F
:1019FF00F090008CE034FFF0900083E06402704EB2
:101A0F00900093E004F07006900092E004F0D39001
:101A1F000093E09440900092E0943840319000821F
:101A2F007401F0A3E4F0900092F0A3F080209000F6
:101A3F0097E0601A7F01122C2190008CE4F0A3F044
:101A4F00900092F0A3F0900083F0900094F090003B
:101A5F008EE480249000ABE0B40120900086E47502
:101A6F00F00112070EFED3E5F09460EE94EA400BFE
:101A7F009000ABE4F0900086F0A3F0121E19D0078F
:101A8F00D006D005D004D003D002D001D000D0D0E2
:091A9F00D082D083D0F0D0E032F7
:102168004200B000004100AF004100AE004100ACA9
:05217800004100AD0074
:1029730043D1E890FF62E04406F090FF61E0440831
:10298300F090FF60E04410F090FF6AE044F8F0C27A
:0A29930097C296C295C294C2932227
:062C2D009000AEEFF02262
:092C09009000B074CEF0A3F0229B
:102A3B009000ACE0FF700F9000B074CEF0A3F0905C
:102A4B0000AC7401F022EFB4010B9000B074FFF0F6
:052A5B00E49000ACF066
:012A60002253
:102A61009000ADE0FF700F9000B074CEF0A3F09035
:102A710000AD7401F022EFB4010B9000B0741EF0B0
:052A8100E49000ADF03F
:012A8600222D
:062C33009000B1EFF02259
:062C39009000B0EFF02254
:092C12009000B074CCF0A3F02294
:101E19009000AEE0FF600EF4600B9000ABE064014F
:101E29006003021EEF43D1E89000AFE0B408004020
:101E390003021EE9901E44F8282873021E5C021E44
:101E49006C021E7D021E90021EA5021EB5021EC650
:101E5900021ED953D1EF1214B91212069000AF74B1
:101E690001F022C292D2911214BD1212069000AF53
:101E79007402F022C292C291D2A31214BF121206A6
:101E89009000AF7403F022C292C291C2A3D2B412DD
:101E990014C11212069000AF7404F02243D110123B
:101EA90014B91212069000AF7405F022C292D291B1
:101EB9001214BD1212069000AF7406F022C292C22B
:101EC90091D2A31214BF1212069000AF7407F02228
:101ED900C292C291C2A3D2B41214C11212068000D6
:101EE900E49000AFF0229000AEE0B4010375D16830
:011EF90022C6
:051206009000B0E0FFC4
:10120B00EF12090812720112AA0212E203131A0456
:10121B00135205138A0613C10713FB081435091261
:10122B003A1E14AECC14A3CE146CFF000014B8906D
:10123B0000AFE0FF6003B40404C295C294EF6401F5
:10124B006004EFB40504D295D294EF64026004EF0E
:10125B00B40604D295D294EF64036008EF64076080
:10126B00030214B802149E9000AFE0FF6003B404B5
:10127B0004C295C294EF64016004EFB40504D295E7
:10128B00C294EF64026004EFB40604D295C294EFEB
:10129B0064036008EF640760030214B80213F6904E
:1012AB0000AFE0FF6003B40404D295C294EF640175
:1012BB006004EFB40504D295C294EF64026004EFAE
:1012CB00B40604C295D294EF64036008EF64076020
:1012DB00030214B80214309000AFE0FF6003B404B3
:1012EB0004D295C294EF64016004EFB40504D29567
:1012FB00C294EF64026004EFB40604D295D294EF6B
:10130B0064036008EF640760030214B8021467906B
:10131B0000AFE0FF6003B40404C295C294EF640114
:10132B006004EFB40504D295D294EF64026004EF2D
:10133B00B40604D295D294EF64036008EF6407609F
:10134B00030214B80213F69000AFE0FF6003B4047D
:10135B0004D295C294EF64016004EFB40504C29506
:10136B00D294EF64026004EFB40604D295D294EFEA
:10137B0064036008EF640760030214B802146790FB
:10138B0000AFE0FF6003B40404D295C294EF640194
:10139B006004EFB40504C295D294EF64026004EFCD
:1013AB00B40604D295D294EF64036008EF6407602F
:1013BB00030214B8806F9000AFE0FF6003B4040425
:1013CB00D295C294EF64016004EFB40504D295C2C8
:1013DB0094EF64026004EFB40604D295C294EF64F8
:1013EB00036008EF640760030214B8C295C294222D
:1013FB009000AFE0FF6003B40404D295C294EF6495
:10140B00016004EFB40504D295D294EF640260043A
:10141B00EFB40604D295D294EF64036008EF64072F
:10142B0060030214B8D295D294229000AFE0FF6013
:10143B0003B40404D295C294EF64016004EFB405C5
:10144B0004D295D294EF64026004EFB40604D295F3
:10145B00D294EF64036005EF64077051D295C29488
:10146B00229000AFE0FF6003B40404D295C294EF66
:10147B0064016004EFB40504C295D294EF6402607A
:10148B0004EFB40604C295D294EF64036005EF64D5
:10149B0007701AC295D29422C297C296C295C29473
:0E14AB00C29322D297D296D295D294D2932297
:0D14B900D292C291C2A3C2B49000B1E0FF74
:1014C600EFB40700400302169B9014D6F828287341
:1014D6000214EB0215290215670215A50215E20290
:1014E600161F02165E9000AFE0FF6003B40406C24A
:1014F60097C296C293EF64016004EFB40506D297D3
:10150600D296D293EF64026004EFB40606C297D275
:1015160096C293EF64036046EF6407600302169B6E
:101526000216579000AFE0FF6003B40406D297C2DC
:1015360096C293EF64016004EFB40506D297D29683
:10154600D293EF64026004EFB40606C297C296C255
:1015560093EF64036008EF6407600302169B0216AC
:10156600579000AFE0FF6003B40406C297C296C26C
:1015760093EF64016004EFB40506D297D296D29336
:10158600EF64026004EFB40606D297C296C293EFE8
:1015960064036008EF6407600302169B0216579007
:1015A60000AFE0FF6003B40406C297C296D293EF81
:1015B60064016004EFB40506D297D296D293EF6425
:1015C600026004EFB40606C297C296C293EF6403A4
:1015D6006008EF6407600302169B80759000AFE019
:1015E600FF6003B40406C297D296C293EF6401600B
:1015F60004EFB40506D297D296D293EF6402600444
:10160600EFB40606C297C296C293EF64036008EF72
:101616006407600302169B80389000AFE0FF60030A
:10162600B40406C297C296C293EF64016004EFB495
:101636000506D297D296D293EF64026004EFB40601
:1016460006C297C296D293EF64036005EF640770F3
:1016560044D297D296D293229000AFE0FF6003B4B3
:101666000406C297C296C293EF64016004EFB40504
:1016760006C297C296C293EF64026004EFB40606F0
:10168600C297C296C293EF64036004EFB40706C222
:0616960097C296C29322E8
:0C2BEA00000000000000000000000000DF
:04217D0041007D00A0
:102AA900E490007BF0A3F0900077F0A3F0A3F0A3EB
:102AB900F090007604F0900075F090007404F02214
:100DDE0078067C007D017BFF7A2B79EA7E007F0C02
:100DEE0012067E9000121208B70000000090001646
:100DFE001208B70000000090007BE0FEA3E0FF9019
:100E0E000079E0FCA3E0FDD39FEC9E50030211FE9F
:100E1E00ED9FFFEC9EFED3EF9464EE940040030230
:100E2E0011F4E4FCFD9000061208ABE4900072F0A1
:100E3E00900069E0FCA3E0FDA3E0FEA3E0FFA31297
:100E4E0008AB900065E0FCA3E0FDA3E0FEA3E0FF8D
:100E5E00A31208AB900006E0FCA3E0FDA3E0FEA306
:100E6E00E0FF9000651208AB900069E0FCA3E0FD86
:100E7E00A3E0FEA3E0FF900065E0F8A3E0F9A3E095
:100E8E00FAA3E0FBD312089A4033900069E0F8A36E
:100E9E00E0F9A3E0FAA3E0FB900065E0FCA3E0FD1F
:100EAE00A3E0FEA3E09BFFEE9AFEED99FDEC98FC0D
:100EBE009000061208ABE4900071F080319000654E
:100ECE00E0F8A3E0F9A3E0FAA3E0FBA3E0FCA3E0C3
:100EDE00FDA3E0FEA3E0C39BFFEE9AFEED99FDECB1
:100EEE0098FC9000061208AB9000717401F0E47F3C
:100EFE0002FEFDFC900069E0F8A3E0F9A3E0FAA37E
:100F0E00E0FB12075990000E1208AB90006DE0FC4A
:100F1E00A3E0FDA3E0FEA3E0FF900065E0F8A3E0F0
:100F2E00F9A3E0FAA3E02FFFEA3EFEE93DFDE83C1F
:100F3E00FC90000EE0F8A3E0F9A3E0FAA3E0FBC3F7
:100F4E0012089A504B90006DE0FCA3E0FDA3E0FE6A
:100F5E00A3E0FF900065E0F8A3E0F9A3E0FAA3E0B8
:100F6E002FFFEA3EFEE93DFDE83CFC90000EE0F866
:100F7E00A3E0F9A3E0FAC3EF9BFFEE9AFEED99FD15
:100F8E00EC98FC90000E1208ABE4900073F0805DBC
:100F9E0090000EE0FCA3E0FDA3E0FEA3E0FFC00482
:100FAE00C005C006C00790006DE0FCA3E0FDA3E005
:100FBE00FEA3E0FF900065E0F8A3E0F9A3E0FAA33A
:100FCE00E02FFBEA3EFAE93DF9E83CF8D007D006FF
:100FDE00D005D004C3EF9BFFEE9AFEED99FDEC9881
:100FEE00FC90000E1208AB9000737401F090007428
:100FFE00E0FFE4FCFDFE900006E0F8A3E0F9A3E0BC
:10100E00FAA3E0FB1207599000061208AB90007588
:10101E00E0FFE4FCFDFE900065E0F8A3E0F9A3E03C
:10102E00FAA3E0FB12075990000A1208AB90007663
:10103E00E0FFE4FCFDFE90000EE0F8A3E0F9A3E073
:10104E00FAA3E0FB12075990000E1208AB90007144
:10105E00E0702D900012E0FCA3E0FDA3E0FEA3E003
:10106E00FF900006E0F8A3E0F9A3E0FAA3E0FBEF9F
:10107E002BFFEE3AFEED39FDEC38FC900012802B82
:10108E00900016E0FCA3E0FDA3E0FEA3E0FF9000BD
:10109E0006E0F8A3E0F9A3E0FAA3E0FBEF2BFFEEE6
:1010AE003AFEED39FDEC38FC9000161208AB9000BC
:1010BE0072E0702E900012E0FCA3E0FDA3E0FEA310
:1010CE00E0FF900006E0F8A3E0F9A3E0FAA3E0FB4E
:1010DE00EF2BFFEE3AFEED39FDEC38FC90001212CC
:1010EE0008AB900073E0702B900012E0FCA3E0FDC3
:1010FE00A3E0FEA3E0FF90000EE0F8A3E0F9A3E06A
:10110E00FAA3E0FBEF2BFFEE3AFEED39FDEC38FCD7
:10111E00A3802B900016E0FCA3E0FDA3E0FEA3E06D
:10112E00FF90000EE0F8A3E0F9A3E0FAA3E0FBEFD6
:10113E002BFFEE3AFEED39FDEC38FC90001612084E
:10114E00AB900012E0F8A3E0F9A3E0FAA3E0FB9065
:10115E000077E0FEA3E0FFE4FCFDEB2FFFEA3EFE8E
:10116E00ED39FDEC38FC9000121208AB900016E041
:10117E00FCA3E0FDA3E0FEA3E0FF900012E0F8A3C5
:10118E00E0F9A3E0FAA3E0FBD312089A40629000C4
:10119E0016E0F8A3E0F9A3E0FAA3E0FB900012E05A
:1011AE00FCA3E0FDA3E0FEA3E09BFFEE9AFEED990B
:1011BE00FDEC98FC9000061208ABE47F64FEFDFC8B
:1011CE00900006E0F8A3E0F9A3E0FAA3E0FBC31257
:1011DE00089A5012900006A3A3E0FFA3E0900077B8
:1011EE00CFF0A3EFF022900077E4F0A37464F02226
:0711FE00E4900077F0A3F07C
:0112050022C6
:100026000203E7E86480F8E933E83360110460F01E
:10003600ED33EC337009E8FCE9FDEAFEEBFF220440
:1000460060DED3EB9FEA9EE99DE8C2E78CF0C2F73B
:1000560095F0400CE8CCF8E9CDF9EACEFAEBCFFB07
:100066001203B285D0F05804700320D5B3E80470AB
:10007600075002B2D50203F192D5EC0460F7E4CC46
:10008600C0E0C398F8603B94186008400DD0E0FBD0
:100096000203C9E4FBFAC9FC8028E830E406E4C997
:1000A600FBE4CAFCE830E305E4C9CACBFCE8540724
:1000B6006010F8C3E913F9EA13FAEB13FBEC13FC2F
:1000C600D8F130F52FC3E49CFCEF9BFFEE9AFEEDD2
:1000D60099FDD0E0FBEF4E4D4C701222DB0302037C
:1000E600EEEC2CFCEF33FFEE33FEED33FDED30E7A7
:1000F600EB0203C9EF2BFFEE3AFEED39FDD0E0FB34
:1001060050130BBB00030203F1ED13FDEE13FEEFDC
:0801160013FFEC13FC0203C906
:10011E00EC4D6011E8497017ED33EC3304600DE4DB
:10012E00FCFFFEFD22E933E8330470F80203E71208
:10013E0003B258046009E4CC248150062850090209
:10014E0003F12840030203EEC0E0EB4A7044B9808D
:10015E0006D0E0FB0203DDEF4E701CBD8008EBFF06
:10016E00EAFEE9FD80EBE98DF0A4FEE5F002020760
:10017E00E9CDF9EAFEEBFFEF89F0A4FCE5F0CE89BC
:10018E00F0A42EFFE435F0CD89F0A42DFEE435F079
:10019E008067EF4E7005BD80D780C3EF8BF0A4ACA7
:1001AE00F0EE8BF0A42CFCE435F0F8EF8AF0A42CE2
:1001BE00E5F038FCE433CB8DF0A42CFCE5F03BF8F5
:1001CE00EE8AF0A42CFCE5F038F8E433CF89F0A4E5
:1001DE002CFCE5F038CF3400CE89F0A42FFFE5F0EB
:1001EE003EFEE433C98DF0A42EFEE5F039CD8AF043
:1001FE00A42FFFE5F03EFEE43DFD33D0E0FB5007BB
:10020E000BBB000F0203F1EC2CFCEF33FFEE33FEC1
:06021E00ED33FD0203C9EF
:100224000203F1EC5D046005E8590470030203E77E
:100234001203B2580460F6EC4860F2EC7004FDFE60
:10024400FF22C860DB2481C85009C39860025006AD
:100254000203EE9850CAF582E9294B4A7005AB8235
:100264000203DD75F0007C1A7880C3EF9BEE9AEDF3
:1002740099400DC3EF9BFFEE9AFEED99FDE842F025
:10028400DC23ACF0D0E0FFD0E0FED0E0FDAB822078
:10029400E7101BEB60BAEC2CFCEF33FFEE33FEED02
:1002A40033FD0203C9E803F830E705C0F075F00038
:1002B400EF2FFFEE33FEED33FD40B830E7C280AAE6
:1002C40074F8CC6480CCC86480C8F58204604FC3E1
:1002D400EB9FF5F0EA9E42F0E99D42F0E89C45F080
:1002E400603C501DE5825FFFE582D313CB5BCBF40A
:1002F4002B5582FB50280ABA002409B90020088033
:100304001DE5825BFBE582D313CF5FCFF4C3132FCC
:100314005582FF50090EBE00050DBD00010CC3EB54
:100324009FF5F0EA9E42F0E99D42F0E89C45F060BA
:0903340007CC4820E701B3EC22DC
:10033D0075F020800E75F010800575F0087D007E3B
:10034D00007F003392D530D503120876EC33401080
:10035D00EF33FFEE33FEED33FDEC33FCD5F0ED2244
:0E036D00E5F0247EA2D513CC92E7CDCEFF2280
:10037B00EDD2E7CD33EC3392D524814006E4FFFE7A
:10038B00FDFC22FCE4CFCECDCC24E0501174FF80D9
:10039B00EDC3CC13CCCD13CDCE13CECF13CF047076
:0703AB00F030D5DE020876F8
:10095B00E5082417F582E43400F583E005082290BE
:10096B000014300703900017E475F0011208E80239
:10097B0006A42000E97F2ED2008018EF540F24909C
:10098B00D43440D4FF30040BEF24BFB41A0050030F
:10099B002461FFE50960021509050CE50C700205E1
:1009AB000B30070E900014E475F0011208E8EF020B
:1009BB0006EA022C277403D2078003E4C207F5086A
:1009CB009000141208FFE4F509F50BF50CE509602E
:1009DB00077F2012099E80F5750AFFC201C200C273
:1009EB0002C203C205C206C20812096AFF700D30AB
:1009FB0007057F001209AFAF0CAE0B22B4255FC207
:100A0B00D5C20412096AFF24D0B40A00501A75F03B
:100A1B000A780930D50508B6FF0106C6A426F620CC
:100A2B00D5047002D20380D924CFB41A00EF50043E
:100A3B00C2E5D204020CA1D20180C6D20080C0D282
:100A4B000280BCD2D580BAD20580B47F2012099E19
:100A5B002002077401B5090040F112095BFF12096E
:100A6B009E0209D8D208D206809512095BFB1209A7
:100A7B005BFA12095BF94A4B7006799F7A0D7BFF83
:100A8B0020022EE509602A7E008E827583001206F5
:100A9B00BD60060EEE650A70F0C2D5EBC0E0EAC091
:100AAB00E0E9C0E0EE120D02D0E0F9D0E0FAD0E0C0
:100ABB00FB1206A4FF60AAEBC0E0EAC0E0E9C0E0CD
:100ACB0012099ED0E02401F9D0E03400FAD0E0FB0B
:100ADB00E50A0460DCD50AD98087D20280A2120C09
:100AEB00E460F7E50A7001041203FCA90A600DE546
:100AFB000A600914F50A120D8CEF60F3EA30E70275
:100B0B00F404C3995079EAF4250A0430E701E404AC
:100B1B00F50A800D120CE460C1EA050A250A1203DE
:100B2B00FCEA900043F030E701E4250A04D50A04FF
:100B3B0020050114120D02E4C0E0120D8C9000434D
:100B4B00E0601320E70714F0120986802204F0D02E
:100B5B00E014C0E07F00120986E50A600712097DE8
:100B6B00150A800B30050312097DD0E00209D8D09D
:100B7B00E00480C4120CE4609EE50A041203FC90AE
:100B8B000043EAF0E50A2005026001042404120D7B
:010B9B000257
:100B9C0074FF04C0E0120D8C120986E50A200502D0
:100BAC00600312097DD0E0B50AE87F4512099090E8
:100BBC000043E07F2B30E7047F2DF404C0E01209E2
:100BCC009ED0E075F00A84C0F0120987D0E01209BB
:100BDC00870209D8791080027908C206C2088008F9
:100BEC00D2D5790A8004790AC2D5E50A047002F5D7
:100BFC000AE4FAFDFEFF12095BFC7B0820011312CC
:100C0C00095BFD7B1030000A12095BFE12095BFFC9
:100C1C007B20EC3382D592D55013C3E43000069F71
:100C2C00FFE49EFEE42001039DFDE49CFCE4CBF874
:100C3C00C201EC700CCFCECDCCE824F8F870F38068
:100C4C0017C3EF33FFEE33FEED33FDEC33FCEB3328
:100C5C00FB994002FB0FD8E9EB300105F8D0E0C45A
:100C6C0048B201C0E00AEC4D4E4F78207B0070C2B8
:100C7C00EAB50A0040BCC0E0120D04D0F0D0E02070
:100C8C000104C4C0E0C4B201C0F0120987D0F0D591
:100C9C00F0EB0209D81209080A75530BE0580A4602
:100CAC004C0A42420BE44F0BEC440BEC490A5B43FD
:100CBC000BF2550B1F460B7F450AE9470DBF500A37
:100CCC004A2D0A4E2E0A712B0A52230A6F200DA8A8
:100CDC002A0A0A4800000A69E50AB4FF03750A06E5
:100CEC0012095BFC12095BFD12095BFE12095BFF2A
:100CFC0090003C020439790AA2D52003143005096E
:100D0C00B910020404B9080104A2D520060250014E
:100D1C00042002689202B509005034C0E07F2030F4
:100D2C0003197F30A20272067205500F120D5BC2BE
:100D3C0002C206C205C2087F30800F300503E9C02D
:100D4C00E012099E300503D0E0F9D0E0B509CC30B3
:100D5C0005177F30B9100C12099E7F583004077F9D
:100D6C00788003B9080312099E3002057F2D020911
:100D7C009E7F202008F87F2B2006F322920280CF42
:100D8C007F00B40700500B243CF582E43400F5835B
:100D9C00E0FF22286E756C6C2900D20112095B30C1
:100DAC0001F8C201780930D50108F6020A0A2D5063
:100DBC0043495812095B2403B405004001E4900D2B
:100DCC00BA9312098F743A12098FD203750904026F
:020DDC000BE02A
:1003B200E9D2E7C933E833F892D5EDD2E7CD33EC91
:0703C20033FC5002B2D5220A
:1003C900EC30E7100FBF000C0EBE00080DBD000495
:1003D9000BEB6014A2D5EB13FCED92E7FD2274FF41
:1003E900FCFDFEFF22E480F8A2D574FF13FC7D809A
:0303F900E480EFAE
:1003FC00F920E73624F950037907E4F42402FBE5ED
:10040C0082158270021583DBF6E024FB501BE96039
:10041C0014E4F0E582158270021583E004F0B40A4E
:0D042C0008E4F0D9EE7401F00A22C2D522D6
:10043900ED33EC3392D5FA602AB4FF33EDC2E77B92
:10044900FF60067A04795EE4227A04796720D5048C
:100459007A047962224E614E002B494E46002D499D
:100469004E4600E47A08F0A3DAFC7B00740722C048
:1004790083C082ECC0E0EDC0E0EEC0E0EFC0E0EA8E
:1004890075F010A4CAABF075F04DA42BFBE435F060
:10049900FCEA2410FAEB34C5FBEC34D9FCEDC2E7D5
:1004A900FF75F056A4F42411C5F0F434C58FF0A4F7
:1004B9002AE5F03BE43CF020E71412056ED0E0FF9A
:1004C900D0E0FED0E0FDD0E0FC1202278014F40455
:1004D90012056ED0E0FFD0E0FED0E0FDD0E0FC12C6
:1004E900011ED082D083E0FAEDD2E7CD33EC33247C
:1004F90082FBE4C3CF33CFCE33CECD33CD33DBF361
:100509007B0775F00A846004F0A31B0AE5F0F0A3E9
:100519008FF0740AA4FFACF08EF0740AA42CFEAC20
:10052900F050010C8DF0740AA42CFDE435F0F0A311
:05053900DBDE74072267
:10053E003F8000004120000042C80000447A0000C5
:10054E00461C400047C35000497424004B18968047
:10055E004CBEBC205A0E1BCA6753C21C749DC5AE3E
:10056E00FB60065407601C232312059CEB54386075
:10057E000912058812059712011EECF8EDF9EEFA34
:10058E00EFCB22EB12059780F1543803241C900513
:10059E003EFE93FC0EEE93FD0EEE930ECE93FF22D7
:1024FA00021EFAE493A3F8E493A34003F68001F2E0
:10250A0008DFF48029E493A3F85407240CC8C333E2
:10251A00C4540F4420C8834004F456800146F6DFB1
:10252A00E4800B01020408102040809020B2E47E6F
:10253A00019360BCA3FF543F30E509541FFEE493A6
:10254A00A360010ECF54C025E060A840B8E493A36D
:10255A00FAE493A3F8E493A3C8C582C8CAC583CA98
:10256A00F0A3C8C582C8CAC583CADFE9DEE780BE50
:01218100005D
:1005AE00E709F608DFFA8046E709F208DFFA803E2F
:1005BE0088828C83E709F0A3DFFA8032E309F6081C
:1005CE00DFFA8078E309F208DFFA807088828C8384
:1005DE00E309F0A3DFFA806489828A83E0A3F60838
:1005EE00DFFA805889828A83E0A3F208DFFA804C12
:1005FE0080D280FA80C680D4806980F280338010E9
:10060E0080A680EA809A80A880DA80E280CA803351
:10061E0089828A83ECFAE493A3C8C582C8CCC583C9
:10062E00CCF0A3C8C582C8CCC583CCDFE9DEE78099
:10063E000D89828A83E493A3F608DFF9ECFAA9F018
:10064E00EDFB2289828A83ECFAE0A3C8C582C8CC6E
:10065E00C583CCF0A3C8C582C8CCC583CCDFEADE87
:10066E00E880DB89828A83E493A3F208DFF980CCE9
:10067E0088F0EF60010E4E60C388F0ED2402B404E2
:10068E000050B9F582EB2402B4040050AF23234589
:06069E0082239005FE73AB
:1006A400BB010689828A83E0225002E722BBFE0254
:0906B400E32289828A83E4932287
:1006BD00BB010CE58229F582E5833AF583E02250F2
:1006CD0006E92582F8E622BBFE06E92582F8E2223C
:0D06DD00E58229F582E5833AF583E4932256
:1006EA00BB010689828A83F0225002F722BBFE01EF
:0206FA00F322E9
:1006FC00EF8DF0A4A8F0CF8CF0A428CE8DF0A42E12
:02070C00FE22CB
:10070E00C5F0F8A3E028F0C5F0F8E5821582700276
:06071E001583E038F02213
:10072400A3F8E0C5F025F0F0E58215827002158388
:06073400E0C838F0E822E5
:10073A00BB010A89828A83F0E5F0A3F0225006F70A
:0F074A0009A7F01922BBFE06F3E5F009F3192207
:10075900E88FF0A4CC8BF0A42CFCE98EF0A42CFC3F
:100769008AF0EDA42CFCEA8EF0A4CDA8F08BF0A4BD
:100779002DCC3825F0FDE98FF0A42CCD35F0FCEB1C
:100789008EF0A4FEA9F0EB8FF0A4CFC5F02ECD39E1
:0F079900FEE43CFCEAA42DCE35F0FDE43CFC224E
:1007A80075F008758200EF2FFFEE33FECD33CDCC08
:1007B80033CCC58233C5829BED9AEC99E58298408B
:1007C8000CF582EE9BFEED9AFDEC99FC0FD5F0D668
:1007D800E4CEFBE4CDFAE4CCF9A88222B800C1B992
:1007E8000059BA002DEC8BF084CFCECDFCE5F0CBD0
:1007F800F97818EF2FFFEE33FEED33FDEC33FCEB09
:1008080033FB10D703994004EB99FB0FD8E5E4F9C3
:10081800FA227818EF2FFFEE33FEED33FDEC33FCB0
:10082800C933C910D7059BE99A4007EC9BFCE99AA4
:10083800F90FD8E0E4C9FAE4CCFB2275F010EF2FE9
:10084800FFEE33FEED33FDCC33CCC833C810D707E9
:100858009BEC9AE899400AED9BFDEC9AFCE899F824
:0E0868000FD5F0DAE4CDFBE4CCFAE4C8F922B7
:0E087600C3E49FFFE49EFEE49DFDE49CFC2293
:10088400EB9FF5F0EA9E42F0E99D42F0EC6480C8EB
:0608940064809845F0228B
:10089A00EB9FF5F0EA9E42F0E99D42F0E89C45F0B4
:0108AA00222B
:0C08AB00ECF0A3EDF0A3EEF0A3EFF022C0
:1008B700A8828583F0D083D0821208CE1208CE1288
:1008C70008CE1208CEE473E493A3C583C5F0C583AD
:1008D700C8C582C8F0A3C583C5F0C583C8C582C88B
:0108E70022EE
:1008E800F8E0FBA3A3E0F925F0F0E5821582700299
:0708F8001583E0FA38F0223D
:0908FF00EBF0A3EAF0A3E9F022FA
:10090800D083D082F8E4937012740193700DA3A37E
:1009180093F8740193F5828883E473740293686092
:06092800EFA3A3A380DF92
:10092E00EC8EF0A4CCC5F0CCCDF8EFA4CEC5F02D56
:10093E00FDE43CFCE8A42EC8C5F03DFDE43CFCEF14
:0D094E00A4FFE5F028FEE43DFDE43CFC22A2
:00000001FF
