:030000000224AF28
:0C24AF00787FE4F6D8FD7581210224F648
:10237D000D0A3D3D3D3D3D3D3D3D3D3D3D3D3D3DE3
:10238D003D3D3D3D3D3D3D3D3D3D3D3D3D3D3D3D70
:10239D003D3D3D3D0D0A00736B753A4B2564200D97
:1023AD000A00736F66742076657273696F6E3A25D5
:1023BD0073200D0A00312E30302E303000676170E1
:1023CD00202564200D0A0074696D65722025642036
:1023DD000D0A00496E7075745F566F6C7461676598
:1023ED005F737464203D2025640D0A003D3D3D3D25
:1023FD003D3D3D3D3D3D3D3D3D3D3D3D3D3D3D3D00
:10240D003D3D3D3D3D3D3D3D3D3D3D3D3D3D0D0A52
:01241D0000BE
:0D20840042009F00004100A2004100A100A9
:101FAB00E4900000F09000A1E0700A12272490004A
:101FBB0000EFF08005E4900000F0900000E0640179
:101FCB00702E900098E07028122BDBEF70087F01C9
:101FDB00122BE1C2B522E4FF122BE112253B90003C
:101FEB0083E0FF12278C1225C79000A27401F02208
:101FFB00122BDBEF6003022083900000E064027081
:10200B002F900083E0C394065005E004F080069007
:10201B0000837401F09000A27401F0900083E0FF44
:10202B0012278C1225C7900083E0FF122BF98045F5
:10203B00900000E064037040900084E0C39405506E
:10204B0005E004F08005E4900084F0900083E0D379
:10205B0094014016A3E0FF70059000818009EFD337
:10206B00940340069000707402F0900084E0FF121D
:08207B002BF312253B1229D5BD
:01208300223A
:08215400900006EEF0A3EFF08D
:10215C00900051E06402706A900098E06401706233
:10216C00900006A3E0FFE4900051F090008704F08B
:10217C00900032E0FED3940F4048EED39F400CE029
:10218C009F900085F0A37401F08016900032E0FE61
:10219C00C3EF9EFF900085F0122B9E900086740278
:1021AC00F0900085E0FFC394024006EFD3941440F6
:1021BC0007E4900085F0A3F01229D57D027F02126E
:1021CC002AA8900086E0FDB40114900085E0FF7E03
:1021DC0000900006EE8FF012070EAFF0FE22EDB469
:1021EC000218900085E0FFC3900007E09FFF90006D
:1021FC0006E09400FEF0A3EFF022900006E0FEA3B0
:02220C00E0FFF1
:01220E0022AD
:0C169C00900006ECF0A3EDF0AB07AA06EE
:1016A800E4A3F0A3F0A3F0A37428F0A31208B700F2
:1016B8000000009000101208B700000000C3EB946F
:1016C8005AEA94005003021760AE02AF03AD07ACAC
:1016D80006E4120342E4FBFA797A7844120227906E
:1016E800000C1208AB900006E0FCA3E0FDE4120336
:1016F80042E4FBFA797A7844120227900010120823
:10170800AB90000CE0F8A3E0F9A3E0FAA3E0FBA398
:10171800E0FCA3E0FDA3E0FEA3E0FF120029900097
:101728000CE0F8A3E0F9A3E0FAA3E0FB1202277BA0
:10173800007A80793B784412011E90000C1208ABA5
:10174800E4FFFEFDFC90000CE0F8A3E0F9A3E0FA4A
:10175800A3E0FB1202C450057E007FFF227F147EA7
:10176800AE7DC37C4290000CE0F8A3E0F9A3E0FA58
:10177800A3E0FB1202C4603F403D7F147EAE7DC3F0
:101788007CC290000CE0F8A3E0F9A3E0FAA3E0FB28
:1017980012002D7BCD7ACC79CC783E120227120329
:1017A8007B900008EEF0A3EFF090000BE02FF09094
:1017B800000AE03EF0803C90000CE0F8A3E0F9A3BA
:1017C800E0FAA3E0FB7F147EAE7DC37C42120029C1
:1017D8007BCD7ACC79CC783E12022712037B90001D
:1017E80008EEF0A3EFF0C390000BE09FF090000A22
:1017F800E09EF0900083E0B4030E90000BE024FB21
:10180800F090000AE034FFF090000AE0FEA3E0FF49
:0118180022AD
:101BC000E4900000F0A3F0A3F0A3F0A3F0A3F09042
:101BD00000A0E004F0700690009FE004F090009FE9
:101BE000E0FEA3E0FFE4FCFD7B507AC3F9F8D312DA
:101BF00008844003021CE4E490009FF0A3F07B0102
:101C000090000904F0A37400F0A37404F07A007942
:101C100002121A8B900002E0FEA3E0FFA3E0FCA3F7
:101C2000E0FD12169C900000EEF0A3EFF01221549C
:101C3000900000EEF0A3EFF0D3900003E0945A90F0
:101C40000002E094005003021CD1122BDBEF706005
:101C5000FF122BED9000A2E0B40121E4F0D390003C
:101C600001E0944B900000E094004006E490007680
:101C700080059000767401F0900075F0900000E00F
:101C8000FEA3E0FF7C007D0A1206FC900068EEF0E7
:101C9000A3EFF0120DDE900084E0FF122BF3900012
:101CA00083E0FF122BF9900083E0FF1228A3801B32
:101CB000900098E0B4010AC2B5122BC9122A218003
:101CC0000A7F01122BEDC2B5122BC9E49000A1F0DE
:101CD00022E4900098F07FFF122BED1229FB900078
:041CE000A17401F0FA
:011CE40022DD
:101ECC00122BB612295D122A89D2AF12000E122BD8
:101EDC0074121819122A69122BC07F02122B91123C
:101EEC002933122BD27FB07E04122B1B7F06122BB0
:101EFC00F37F07122BF97F587E02122B1B122BC972
:101F0C00122AC77BFF7A23797D1209C67BFF7A23BD
:101F1C0079A4900004741FF0A374A9F01209C69060
:101F2C00000474FFF0A37423F0A374C2F07BFF7A57
:101F3C002379AF1209C67BFF7A2379CA900083E01C
:101F4C00FF900004E4F0A3EFF01209C67BFF7A23A4
:101F5C0079D4900084E0FF900004E4F0A3EFF01239
:101F6C0009C67BFF7A2379E090008CE0FFA3E09018
:101F7C000004CFF0A3EFF01209C67BFF7A2379F9A6
:101F8C001209C6121BC0121FAB9000A1E0700B907F
:0F1F9C00006BE0FEA3E0FF122646122BFF80E44D
:0A2BB600758E5190FE917401F0221B
:1025C700900083E014B4090050749025DF75F00380
:1025D700A4C58325F0C583730225FA0226050226C2
:1025E7001002261B0226300226260226300226303B
:1025F70002263B9000667401F0A374C2F02290009B
:10260700667401F0A374F4F0229000667402F0A3DC
:102617007412F0229000667402F0A37494F0229072
:1026270000667403F0A314F0229000667402F0A30E
:0F26370074C6F0229000667402F0A374F8F022CB
:102AC700E4FFFE12241ED3EF9440EE940690008C90
:0D2AD700E44006F0A37402F022F0A304F026
:012AE40022CF
:0E2B8300EF1F70011E144E6004000080F3224C
:102B1B007D407C03ED1D70011C144C70F7EF1F7092
:062B2B00011E144E70EAC9
:012B31002281
:102A890090FF037401F090FF07F090FF02F075B416
:0F2A9900817F507E00122B8390FE9B7449F022A8
:102B3200E4FFFE75B50743B440E5B430E5FB53B49A
:052B4200DFAEB7AFB6E5
:012B4700226B
:102B4800E4FFFE75B50343B440E5B430E5FB53B488
:052B5800DFAEB7AFB6CF
:012B5D002255
:102B5E00E4FFFE75B50243B440E5B430E5FB53B473
:052B6E00DFAEB7AFB6B9
:012B7300223F
:0B1A8B00900006EBF0A3EAF0A3E9F0E6
:101A960090000C1208B700000000E4900010F0F06F
:101AA60090000CE0F8A3E0F9A3E0FAA3E0FB122B08
:101AB60048E4FCFDEB2FFFEA3EFEED39FDEC38FC79
:101AC60090000C1208AB900010E004F0E0C39405FF
:101AD60040CE90000CE0FCA3E0FDA3E0FEA3E0FFF7
:101AE600E47B05FAF9F81207E490000C1208ABE45F
:101AF6007FA07E0FFDFC90000CE0F8A3E0F9A3E0C8
:101B0600FAA3E0FB120759E47BFF7A0FF9F81207F4
:101B1600E4900006E0FBA3E0FAA3E0F9EE8FF012F2
:101B2600073A7F147E00122B8390000C1208B70030
:101B3600000000E4900010F090000CE0F8A3E0F93B
:101B4600A3E0FAA3E0FB122B32E4FCFDEB2FFFEA45
:101B56003EFEED39FDEC38FC90000C1208AB90000F
:101B660010E004F0E0C3940540CE90000CE0FCA326
:101B7600E0FDA3E0FEA3E0FFE47B05FAF9F8120717
:101B8600E490000C1208ABE47FA07E0FFDFC9000F1
:101B96000CE0F8A3E0F9A3E0FAA3E0FB120759E48E
:101BA6007BFF7A0FF9F81207E4900009E0FBA3E047
:0A1BB600FAA3E0F9EE8FF002073AFF
:10241E009000001208B700000000E4900004F0F0F5
:10242E00900000E0F8A3E0F9A3E0FAA3E0FB122B82
:10243E005EE4FCFDEB2FFFEA3EFEED39FDEC38FCD1
:10244E009000001208AB900004E004F0E0C3940585
:10245E0040CE900000E0FCA3E0FDA3E0FEA3E0FF71
:10246E00E47B05FAF9F81207E49000001208ABE4D9
:10247E007FA07E0FFDFC900000E0F8A3E0F9A3E042
:10248E00FAA3E0FB120759E4FB7A10F9F81207E4FD
:10249E009000001208AB900000A3A3E0FEA3E0FFA3
:0124AE00220B
:101CE5000D0A3D3D3D3D3D3D3D3D3D3D3D3D3D3D82
:101CF5003D3D3D3D3D3D3D3D3D3D3D3D3D3D3D3D0F
:101D05003D3D3D3D3D3D3D3D3D3D0D0A00706F77FF
:101D15006572206F6E20666C617368206761703A2A
:101D25002564202074696D65723A2564200D0A00CA
:101D3500706F776572206F6E20666C6173682076B0
:101D4500616C75653A256420207369676E3A256470
:101D5500200D0A003D3D3D3D3D3D3D3D3D3D3D3D6B
:101D65003D3D3D3D3D3D3D3D3D3D3D3D3D3D3D3D9E
:101D75003D3D3D3D3D3D3D3D3D3D3D3D0D0A003D2E
:101D85003D3D3D3D3D3D3D3D3D3D3D3D66697273BE
:101D95007420696E697420646174613D3D3D3D3D0B
:101DA5003D3D3D3D3D3D200D0A0030782530345800
:101DB500202030782530345820203078253034588C
:101DC5002020307825303458200D0A00666C617368
:101DD50068206761703A2564202074696D65723AE0
:061DE5002564200D0A0038
:102091004500830000000000440088202005014124
:0820A100008E0142008C0000DA
:062BDB0090008EE0FF22D5
:062BE10090008EEFF022CF
:102A4700D310AF01C3C0D075FDF075FC0F8EFA8FA0
:102A5700F975FDD275FC2D75FDE175FC1ED0D09280
:022A6700AF229C
:10298600D310AF01C3C0D08FFB75FDF075FC0FAE41
:1029960004AF058EFA8FF975FDB475FC4B75FDE134
:0829A60075FC1ED0D092AF2297
:0C26B7007B017A0079837D057F047E3C66
:1026C300D310AF01C3C0D0900008EEF0A3EFF0A386
:0B26D300EDF0A3EBF0A3EAF0A3E9F0A8
:1026DE00E4A3F0C2AFF090000AE0FF90000EE0C35A
:1026EE009F502C90000BE0FBA3E475F00112072421
:1026FE00A9F0FA1206A4FF900008E475F001120783
:10270E0024ADF0FC12298690000EE004F080C7D2B2
:01271E00AF0B
:05271F00D0D092AF22B2
:040003008F828E83D7
:03000700E493FF80
:01000A0022D3
:10283000900008EEF0A3EFF0A3EBF0A3EAF0A3E919
:10284000F0AF051DEF6028900008E475F001120755
:102850002485F082F583E493FF90000AE0FBA3E473
:1028600075F001120724A9F0FAEF1206EA80D222CD
:10287000E4FDFCED2400FFE4343CFE120003748808
:102880002DF582E43400F583E0B507030C80037F67
:1028900000220DEDB404DCECC3940440037F01225C
:0228A0007F00B7
:0128A2002213
:10181900E4900000F090FE927404F0122870EF70CA
:101829000790000004F0807C7BFF7A1C79E512099F
:10183900C67B017A0079837D057F047E3C122830BE
:101849007BFF7A1D7912900083E0FF900004E4F099
:10185900A3EFF0900084E0FF900006E4F0A3EFF01E
:101869001209C67BFF7A1D7935900085E0FF90004B
:1018790004E4F0A3EFF0900086E0FF900006E4F0A6
:10188900A3EFF01209C67BFF7A1D79591209C69098
:101899000083E0D394065006A3E094054006900027
:1018A900007401F0900000E06401707A7BFF7A1DFA
:1018B90079841209C69000837401F0A3F07F007E39
:1018C9003C122A47FB7A0079887D041226C3122626
:1018D900B77B017A0079887D047F007E3C1228302D
:1018E9007BFF7A1D79AF900088E0FF900004E4F057
:1018F900A3EFF0900089E0FF900006E4F0A3EFF079
:1019090090008AE0FF900008E4F0A3EFF090008BCC
:10191900E0FF90000AE4F0A3EFF01209C67BFF7A1A
:101929001D79591209C67BFF7A1D79D1900083E090
:10193900FF900004E4F0A3EFF0900084E0FF900032
:0919490006E4F0A3EFF00209C668
:1029D5007F047E3C122A477B017A0079887D047F3B
:1029E500001226C31226B77B017A0079837D057F05
:0629F500047E3C022830C4
:1020A9005E00330000000000000000000000000096
:1020B9000000000000000000000000000000000017
:0920C90000410051004100320009
:10295D0090FF1674C1F090FF157460F090FFA07495
:10296D0026F090FFA114F075CEFF75CD9875CC06AD
:09297D00759E02759810D2AC227F
:0C2B9E00C2AC8F993099FDC299D2AC22D4
:032C0300022B9E03
:0B29060090000DEBF0A3EAF0A3E9F055
:10291100E4FEEEC39D501A90000DE0FBA3E0FAA384
:10292100E0F98E827583001206BDFF122C030E8022
:01293100E1C4
:012932002282
:102AA8009000087455F0A3EFF0A3EDF0A3740DF0B7
:0F2AB800A3740AF07B017A0079087D05022906D4
:062BE700AE07122B9E2236
:030023000227E3CE
:0D27E300C0E0C083C082C0D075D000C00728
:1027F000E59830E030AF995398FE900051E01460B6
:1028000019047021EFB4551D900033F0900031E0B1
:1028100004F09000517401F0800B900032EFF090C2
:0528200000517402F0FC
:0B282500D007D0D0D082D083D0E032AA
:1020D2004100980041008F004200900000410092B0
:0F20E2000042009300004100950142009600006B
:0F2B740090FF177460F090FF00F090FF01F022C7
:10220F00E4900002F0A28133900001F090008FE083
:10221F0014602614604E1470030222B2240360036C
:10222F000222BB900001E060030222C0900090F0F8
:10223F00A3F090008F04F08078900001E0706B9015
:10224F000091E004F07006900090E004F0C390005D
:10225F0091E09403900090E09400403E90008F74C2
:10226F0002F08036900001E0B40106A37404F08000
:10227F003B900091E004F07006900090E004F0C3F2
:10228F00900091E09482900090E09400400C9000B8
:10229F00027405F090008F7403F07F0A7E00122BFA
:1022AF001B800E900001E0B401078000E490008FC6
:0622BF00F0900002E0FFB8
:0122C50022F6
:1022C600E4900002F0A28033900001F0900092E0CA
:1022D60014602614604E14700302236924036003FD
:1022E600022372900001E06003022377900093F0CE
:1022F600A3F090009204F08078900001E0706B905B
:102306000094E004F07006900093E004F0C390009F
:1023160094E09403900093E09400403E9000927401
:1023260002F08036900001E0B40106A37404F08048
:102336003B900094E004F07006900093E004F0C334
:10234600900094E09490900093E09401400C9000EB
:10235600027406F09000927403F07F0A7E00122B3E
:102366001B800E900001E0B401078000E49000920B
:06237600F0900002E0FF00
:01237C00223E
:1027240012220FBF05037F01221222C6BF06211207
:102734002BDBBF0114900087E0700E90009804F02A
:10274400900087F01229D5803CE4900098F0803501
:10275400900095E0602330A70320801D900098E04E
:1027640070177F32FE122B1BE4900095F020A70314
:102774007F022220800F7F032230A7093080069039
:0727840000957401F07F00D5
:01278B00222B
:0420F1004100A30007
:102B03007E009000A3E0FD7C0012092EE47B64FAB2
:072B1300F9F81207E48FDF5F
:012B1A002298
:092BC00090FF1D74C0F0C2B522A3
:0D2B910075BD17EF75F02BA490FEA0F0228B
:042BFF0043BD1022A0
:1029AE007365742074696D65207365636F6E643A28
:1029BE0025640D0A0074696D65207365636F6E641E
:0729CE003A2564200D0A0008
:1020F50042007B0000420079000042007F00004161
:10210500006F0041007000410081004100820041E4
:102115000076004200710000420077000042007323
:1021250000004100750042007D000042006B000088
:0521350042006D0000F6
:10264600900000EEF0A3EFF0122BDBEF706290002B
:102656008CE0FCA3E0FD64014C700F900001E025C6
:10266600E0F0900000E033F08011ED64024C700B56
:10267600900000E0C313F0A3E013F090007EE004A6
:10268600F0700690007DE004F090007DE0FEA3E08F
:10269600FFD3900001E09F900000E09E4004D2B579
:1026A6008002C2B5EF64C84E700690007DF0A3F0BC
:0126B6002201
:1028A300900075E0B4010A90006BE4F0A37464F047
:1028B30022EF24FE600D14600A24FC5006240670E7
:1028C300118000900064E0FFA3E090006BCFF0A3C1
:0328D300EFF02201
:102AE500900079EEF0A3EFF0E4A3F0A3F07BFF7A7A
:0E2AF5002979AE900004EEF0A3EFF00209C6BE
:10278C00EFB40A005050902799F82828730227B705
:10279C000227C10227CC0227CE0227D90227D90251
:1027AC0027D90227D90227D90227D990006DE4F046
:1027BC00A3741EF02290006D7401F0A3740EF0222D
:1027CC00800090006D7401F0A3744AF02290006DAB
:0727DC00E4F0A374F0F02209
:1028D600900076E0B40128900071E475F0011207CB
:1028E6000EFEC390006EE095F090006DE09E500FD6
:1028F600E4900076F0900071F0A3F0900075F0225D
:10253B00E490007BF0A3F0900084E0FF7008900023
:10254B0079F0A3F08052EFB4010C9000797407F08E
:10255B00A304F0E48042EFB4020D900079740EF006
:10256B00A37410F0E48031EFB4030D900079741C68
:10257B00F0A37420F0E48020EFB4040D9000797484
:10258B0038F0A37440F0E4800FEFB4051790007996
:10259B007470F0A37480F0E490007FF0A3F09000CF
:1025AB0077F0A3F07BFF7A2979C3900079E0FFA342
:0C25BB00E0900004CFF0A3EFF00209C68E
:10000E00E490FE80F0F589758CF5758A9643A8020A
:04001E0043881022E1
:03000B0002195285
:10195200C0E0C0F0C083C082C0D075D000C000C05B
:1019620001C002C003C004C005C006C007122BDBC1
:10197200EF6003021A4690007CE004F070069000CB
:101982007BE004F0C390007CE094F490007BE09450
:10199200015003021A6D1228D6900081E0B4022D84
:1019A200900080E004F0700690007FE004F0D39095
:1019B2000080E0944090007FE094384010900081D5
:1019C200E4F090007FF0A3F090006F04F0D3900059
:1019D2007AE09400900079E094004042A3E024FF72
:1019E200F0900079E034FFF0900070E06402704EF5
:1019F200900080E004F0700690007FE004F0D39045
:101A02000080E0944090007FE09438403190006F75
:101A12007401F0A3E4F090007FF0A3F08020900026
:101A220084E0601A7F01122BE1900079E4F0A3F0C8
:101A320090007FF0A3F0900070F0900081F0900091
:101A42007BE48024900098E0B40120900073E47558
:101A5200F00112070EFED3E5F09460EE94EA400B1B
:101A6200900098E4F0900073F0A3F0121DEBD00701
:101A7200D006D005D004D003D002D001D000D0D0FF
:091A8200D082D083D0F0D0E03214
:10213A0042009D000041009C0041009B0041009923
:05214A000041009A00B5
:1029330043D1E890FF62E04406F090FF61E0440871
:10294300F090FF60E04410F090FF6AE044F8F0C2BA
:0A29530097C296C295C294C2932267
:062BED0090009BEFF022B6
:092BC90090009D74CEF0A3F022EF
:1029FB00900099E0FF700F90009D74CEF0A3F090C3
:102A0B0000997401F022EFB4010B90009D74FFF05C
:052A1B00E4900099F0B9
:012A20002293
:102A210090009AE0FF700F90009D74CEF0A3F0909B
:102A3100009A7401F022EFB4010B90009D741EF016
:052A4100E490009AF092
:012A4600226D
:062BF30090009EEFF022AD
:062BF90090009DEFF022A8
:092BD20090009D74CCF0A3F022E8
:101DEB0090009BE0FF600EF4600B900098E06401A4
:101DFB006003021EC143D1E890009CE0B408004090
:101E0B0003021EBB901E16F8282873021E2E021EFC
:101E1B003E021E4F021E62021E77021E87021E9892
:101E2B00021EAB53D1EF1214B912120690009C7420
:101E3B0001F022C292D2911214BD12120690009C94
:101E4B007402F022C292C291D2A31214BF121206D4
:101E5B0090009C7403F022C292C291C2A3D2B4121E
:101E6B0014C112120690009C7404F02243D110127C
:101E7B0014B912120690009C7405F022C292D291F2
:101E8B001214BD12120690009C7406F022C292C26C
:101E9B0091D2A31214BF12120690009C7407F02269
:101EAB00C292C291C2A3D2B41214C1121206800004
:101EBB00E490009CF02290009BE0B4010375D16884
:011ECB0022F4
:0512060090009DE0FFD7
:10120B00EF12090812720112AA0212E203131A0456
:10121B00135205138A0613C10713FB081435091261
:10122B003A1E14AECC14A3CE146CFF000014B8906D
:10123B00009CE0FF6003B40404C295C294EF640108
:10124B006004EFB40504D295D294EF64026004EF0E
:10125B00B40604D295D294EF64036008EF64076080
:10126B00030214B802149E90009CE0FF6003B404C8
:10127B0004C295C294EF64016004EFB40504D295E7
:10128B00C294EF64026004EFB40604D295C294EFEB
:10129B0064036008EF640760030214B80213F6904E
:1012AB00009CE0FF6003B40404D295C294EF640188
:1012BB006004EFB40504D295C294EF64026004EFAE
:1012CB00B40604C295D294EF64036008EF64076020
:1012DB00030214B802143090009CE0FF6003B404C6
:1012EB0004D295C294EF64016004EFB40504D29567
:1012FB00C294EF64026004EFB40604D295D294EF6B
:10130B0064036008EF640760030214B8021467906B
:10131B00009CE0FF6003B40404C295C294EF640127
:10132B006004EFB40504D295D294EF64026004EF2D
:10133B00B40604D295D294EF64036008EF6407609F
:10134B00030214B80213F690009CE0FF6003B40490
:10135B0004D295C294EF64016004EFB40504C29506
:10136B00D294EF64026004EFB40604D295D294EFEA
:10137B0064036008EF640760030214B802146790FB
:10138B00009CE0FF6003B40404D295C294EF6401A7
:10139B006004EFB40504C295D294EF64026004EFCD
:1013AB00B40604D295D294EF64036008EF6407602F
:1013BB00030214B8806F90009CE0FF6003B4040438
:1013CB00D295C294EF64016004EFB40504D295C2C8
:1013DB0094EF64026004EFB40604D295C294EF64F8
:1013EB00036008EF640760030214B8C295C294222D
:1013FB0090009CE0FF6003B40404D295C294EF64A8
:10140B00016004EFB40504D295D294EF640260043A
:10141B00EFB40604D295D294EF64036008EF64072F
:10142B0060030214B8D295D2942290009CE0FF6026
:10143B0003B40404D295C294EF64016004EFB405C5
:10144B0004D295D294EF64026004EFB40604D295F3
:10145B00D294EF64036005EF64077051D295C29488
:10146B002290009CE0FF6003B40404D295C294EF79
:10147B0064016004EFB40504C295D294EF6402607A
:10148B0004EFB40604C295D294EF64036005EF64D5
:10149B0007701AC295D29422C297C296C295C29473
:0E14AB00C29322D297D296D295D294D2932297
:0D14B900D292C291C2A3C2B490009EE0FF87
:1014C600EFB40700400302169B9014D6F828287341
:1014D6000214EB0215290215670215A50215E20290
:1014E600161F02165E90009CE0FF6003B40406C25D
:1014F60097C296C293EF64016004EFB40506D297D3
:10150600D296D293EF64026004EFB40606C297D275
:1015160096C293EF64036046EF6407600302169B6E
:1015260002165790009CE0FF6003B40406D297C2EF
:1015360096C293EF64016004EFB40506D297D29683
:10154600D293EF64026004EFB40606C297C296C255
:1015560093EF64036008EF6407600302169B0216AC
:101566005790009CE0FF6003B40406C297C296C27F
:1015760093EF64016004EFB40506D297D296D29336
:10158600EF64026004EFB40606D297C296C293EFE8
:1015960064036008EF6407600302169B0216579007
:1015A600009CE0FF6003B40406C297C296D293EF94
:1015B60064016004EFB40506D297D296D293EF6425
:1015C600026004EFB40606C297C296C293EF6403A4
:1015D6006008EF6407600302169B807590009CE02C
:1015E600FF6003B40406C297D296C293EF6401600B
:1015F60004EFB40506D297D296D293EF6402600444
:10160600EFB40606C297C296C293EF64036008EF72
:101616006407600302169B803890009CE0FF60031D
:10162600B40406C297C296C293EF64016004EFB495
:101636000506D297D296D293EF64026004EFB40601
:1016460006C297C296D293EF64036005EF640770F3
:1016560044D297D296D2932290009CE0FF6003B4C6
:101666000406C297C296C293EF64016004EFB40504
:1016760006C297C296C293EF64026004EFB40606F0
:10168600C297C296C293EF64036004EFB40706C222
:0616960097C296C29322E8
:0C2BAA000000000000000000000000001F
:04214F0041006A00E1
:102A6900E4900068F0A3F0900064F0A3F0A3F0A351
:102A7900F090006304F0900062F090006104F0228D
:100DDE0078067C007D017BFF7A2B79AA7E007F0C42
:100DEE0012067E9000121208B70000000090001646
:100DFE001208B700000000900068E0FEA3E0FF902C
:100E0E000066E0FCA3E0FDD39FEC9E50030211FEB2
:100E1E00ED9FFFEC9EFED3EF9464EE940040030230
:100E2E0011F4E4FCFD9000061208ABE490005FF0B4
:100E3E00900056E0FCA3E0FDA3E0FEA3E0FFA312AA
:100E4E0008AB900052E0FCA3E0FDA3E0FEA3E0FFA0
:100E5E00A31208AB900006E0FCA3E0FDA3E0FEA306
:100E6E00E0FF9000521208AB900056E0FCA3E0FDAC
:100E7E00A3E0FEA3E0FF900052E0F8A3E0F9A3E0A8
:100E8E00FAA3E0FBD312089A4033900056E0F8A381
:100E9E00E0F9A3E0FAA3E0FB900052E0FCA3E0FD32
:100EAE00A3E0FEA3E09BFFEE9AFEED99FDEC98FC0D
:100EBE009000061208ABE490005EF0803190005274
:100ECE00E0F8A3E0F9A3E0FAA3E0FBA3E0FCA3E0C3
:100EDE00FDA3E0FEA3E0C39BFFEE9AFEED99FDECB1
:100EEE0098FC9000061208AB90005E7401F0E47F4F
:100EFE0002FEFDFC900056E0F8A3E0F9A3E0FAA391
:100F0E00E0FB12075990000E1208AB90005AE0FC5D
:100F1E00A3E0FDA3E0FEA3E0FF900052E0F8A3E003
:100F2E00F9A3E0FAA3E02FFFEA3EFEE93DFDE83C1F
:100F3E00FC90000EE0F8A3E0F9A3E0FAA3E0FBC3F7
:100F4E0012089A504B90005AE0FCA3E0FDA3E0FE7D
:100F5E00A3E0FF900052E0F8A3E0F9A3E0FAA3E0CB
:100F6E002FFFEA3EFEE93DFDE83CFC90000EE0F866
:100F7E00A3E0F9A3E0FAC3EF9BFFEE9AFEED99FD15
:100F8E00EC98FC90000E1208ABE4900060F0805DCF
:100F9E0090000EE0FCA3E0FDA3E0FEA3E0FFC00482
:100FAE00C005C006C00790005AE0FCA3E0FDA3E018
:100FBE00FEA3E0FF900052E0F8A3E0F9A3E0FAA34D
:100FCE00E02FFBEA3EFAE93DF9E83CF8D007D006FF
:100FDE00D005D004C3EF9BFFEE9AFEED99FDEC9881
:100FEE00FC90000E1208AB9000607401F09000614E
:100FFE00E0FFE4FCFDFE900006E0F8A3E0F9A3E0BC
:10100E00FAA3E0FB1207599000061208AB9000629B
:10101E00E0FFE4FCFDFE900052E0F8A3E0F9A3E04F
:10102E00FAA3E0FB12075990000A1208AB90006376
:10103E00E0FFE4FCFDFE90000EE0F8A3E0F9A3E073
:10104E00FAA3E0FB12075990000E1208AB90005E57
:10105E00E0702D900012E0FCA3E0FDA3E0FEA3E003
:10106E00FF900006E0F8A3E0F9A3E0FAA3E0FBEF9F
:10107E002BFFEE3AFEED39FDEC38FC900012802B82
:10108E00900016E0FCA3E0FDA3E0FEA3E0FF9000BD
:10109E0006E0F8A3E0F9A3E0FAA3E0FBEF2BFFEEE6
:1010AE003AFEED39FDEC38FC9000161208AB9000BC
:1010BE005FE0702E900012E0FCA3E0FDA3E0FEA323
:1010CE00E0FF900006E0F8A3E0F9A3E0FAA3E0FB4E
:1010DE00EF2BFFEE3AFEED39FDEC38FC90001212CC
:1010EE0008AB900060E0702B900012E0FCA3E0FDD6
:1010FE00A3E0FEA3E0FF90000EE0F8A3E0F9A3E06A
:10110E00FAA3E0FBEF2BFFEE3AFEED39FDEC38FCD7
:10111E00A3802B900016E0FCA3E0FDA3E0FEA3E06D
:10112E00FF90000EE0F8A3E0F9A3E0FAA3E0FBEFD6
:10113E002BFFEE3AFEED39FDEC38FC90001612084E
:10114E00AB900012E0F8A3E0F9A3E0FAA3E0FB9065
:10115E000064E0FEA3E0FFE4FCFDEB2FFFEA3EFEA1
:10116E00ED39FDEC38FC9000121208AB900016E041
:10117E00FCA3E0FDA3E0FEA3E0FF900012E0F8A3C5
:10118E00E0F9A3E0FAA3E0FBD312089A40629000C4
:10119E0016E0F8A3E0F9A3E0FAA3E0FB900012E05A
:1011AE00FCA3E0FDA3E0FEA3E09BFFEE9AFEED990B
:1011BE00FDEC98FC9000061208ABE47F64FEFDFC8B
:1011CE00900006E0F8A3E0F9A3E0FAA3E0FBC31257
:1011DE00089A5012900006A3A3E0FFA3E0900064CB
:1011EE00CFF0A3EFF022900064E4F0A37464F02239
:0711FE00E4900064F0A3F08F
:0112050022C6
:100026000203E7E86480F8E933E83360110460F01E
:10003600ED33EC337009E8FCE9FDEAFEEBFF220440
:1000460060DED3EB9FEA9EE99DE8C2E78CF0C2F73B
:1000560095F0400CE8CCF8E9CDF9EACEFAEBCFFB07
:100066001203B285D0F05804700320D5B3E80470AB
:10007600075002B2D50203F192D5EC0460F7E4CC46
:10008600C0E0C398F8603B94186008400DD0E0FBD0
:100096000203C9E4FBFAC9FC8028E830E406E4C997
:1000A600FBE4CAFCE830E305E4C9CACBFCE8540724
:1000B6006010F8C3E913F9EA13FAEB13FBEC13FC2F
:1000C600D8F130F52FC3E49CFCEF9BFFEE9AFEEDD2
:1000D60099FDD0E0FBEF4E4D4C701222DB0302037C
:1000E600EEEC2CFCEF33FFEE33FEED33FDED30E7A7
:1000F600EB0203C9EF2BFFEE3AFEED39FDD0E0FB34
:1001060050130BBB00030203F1ED13FDEE13FEEFDC
:0801160013FFEC13FC0203C906
:10011E00EC4D6011E8497017ED33EC3304600DE4DB
:10012E00FCFFFEFD22E933E8330470F80203E71208
:10013E0003B258046009E4CC248150062850090209
:10014E0003F12840030203EEC0E0EB4A7044B9808D
:10015E0006D0E0FB0203DDEF4E701CBD8008EBFF06
:10016E00EAFEE9FD80EBE98DF0A4FEE5F002020760
:10017E00E9CDF9EAFEEBFFEF89F0A4FCE5F0CE89BC
:10018E00F0A42EFFE435F0CD89F0A42DFEE435F079
:10019E008067EF4E7005BD80D780C3EF8BF0A4ACA7
:1001AE00F0EE8BF0A42CFCE435F0F8EF8AF0A42CE2
:1001BE00E5F038FCE433CB8DF0A42CFCE5F03BF8F5
:1001CE00EE8AF0A42CFCE5F038F8E433CF89F0A4E5
:1001DE002CFCE5F038CF3400CE89F0A42FFFE5F0EB
:1001EE003EFEE433C98DF0A42EFEE5F039CD8AF043
:1001FE00A42FFFE5F03EFEE43DFD33D0E0FB5007BB
:10020E000BBB000F0203F1EC2CFCEF33FFEE33FEC1
:06021E00ED33FD0203C9EF
:100224000203F1EC5D046005E8590470030203E77E
:100234001203B2580460F6EC4860F2EC7004FDFE60
:10024400FF22C860DB2481C85009C39860025006AD
:100254000203EE9850CAF582E9294B4A7005AB8235
:100264000203DD75F0007C1A7880C3EF9BEE9AEDF3
:1002740099400DC3EF9BFFEE9AFEED99FDE842F025
:10028400DC23ACF0D0E0FFD0E0FED0E0FDAB822078
:10029400E7101BEB60BAEC2CFCEF33FFEE33FEED02
:1002A40033FD0203C9E803F830E705C0F075F00038
:1002B400EF2FFFEE33FEED33FD40B830E7C280AAE6
:1002C40074F8CC6480CCC86480C8F58204604FC3E1
:1002D400EB9FF5F0EA9E42F0E99D42F0E89C45F080
:1002E400603C501DE5825FFFE582D313CB5BCBF40A
:1002F4002B5582FB50280ABA002409B90020088033
:100304001DE5825BFBE582D313CF5FCFF4C3132FCC
:100314005582FF50090EBE00050DBD00010CC3EB54
:100324009FF5F0EA9E42F0E99D42F0E89C45F060BA
:0903340007CC4820E701B3EC22DC
:10033D0075F020800E75F010800575F0087D007E3B
:10034D00007F003392D530D503120876EC33401080
:10035D00EF33FFEE33FEED33FDEC33FCD5F0ED2244
:0E036D00E5F0247EA2D513CC92E7CDCEFF2280
:10037B00EDD2E7CD33EC3392D524814006E4FFFE7A
:10038B00FDFC22FCE4CFCECDCC24E0501174FF80D9
:10039B00EDC3CC13CCCD13CDCE13CECF13CF047076
:0703AB00F030D5DE020876F8
:10095B00E5082404F582E43400F583E005082290D1
:10096B000001300703900004E475F0011208E8025F
:10097B0006A42000E97F2ED2008018EF540F24909C
:10098B00D43440D4FF30040BEF24BFB41A0050030F
:10099B002461FFE50960021509050CE50C700205E1
:1009AB000B30070E900001E475F0011208E8EF021E
:1009BB0006EA022BE77403D2078003E4C207F508AB
:1009CB009000011208FFE4F509F50BF50CE5096041
:1009DB00077F2012099E80F5750AFFC201C200C273
:1009EB0002C203C205C206C20812096AFF700D30AB
:1009FB0007057F001209AFAF0CAE0B22B4255FC207
:100A0B00D5C20412096AFF24D0B40A00501A75F03B
:100A1B000A780930D50508B6FF0106C6A426F620CC
:100A2B00D5047002D20380D924CFB41A00EF50043E
:100A3B00C2E5D204020CA1D20180C6D20080C0D282
:100A4B000280BCD2D580BAD20580B47F2012099E19
:100A5B002002077401B5090040F112095BFF12096E
:100A6B009E0209D8D208D206809512095BFB1209A7
:100A7B005BFA12095BF94A4B7006799F7A0D7BFF83
:100A8B0020022EE509602A7E008E827583001206F5
:100A9B00BD60060EEE650A70F0C2D5EBC0E0EAC091
:100AAB00E0E9C0E0EE120D02D0E0F9D0E0FAD0E0C0
:100ABB00FB1206A4FF60AAEBC0E0EAC0E0E9C0E0CD
:100ACB0012099ED0E02401F9D0E03400FAD0E0FB0B
:100ADB00E50A0460DCD50AD98087D20280A2120C09
:100AEB00E460F7E50A7001041203FCA90A600DE546
:100AFB000A600914F50A120D8CEF60F3EA30E70275
:100B0B00F404C3995079EAF4250A0430E701E404AC
:100B1B00F50A800D120CE460C1EA050A250A1203DE
:100B2B00FCEA900030F030E701E4250A04D50A0412
:100B3B0020050114120D02E4C0E0120D8C90003060
:100B4B00E0601320E70714F0120986802204F0D02E
:100B5B00E014C0E07F00120986E50A600712097DE8
:100B6B00150A800B30050312097DD0E00209D8D09D
:100B7B00E00480C4120CE4609EE50A041203FC90AE
:100B8B000030EAF0E50A2005026001042404120D8E
:010B9B000257
:100B9C0074FF04C0E0120D8C120986E50A200502D0
:100BAC00600312097DD0E0B50AE87F4512099090E8
:100BBC000030E07F2B30E7047F2DF404C0E01209F5
:100BCC009ED0E075F00A84C0F0120987D0E01209BB
:100BDC00870209D8791080027908C206C2088008F9
:100BEC00D2D5790A8004790AC2D5E50A047002F5D7
:100BFC000AE4FAFDFEFF12095BFC7B0820011312CC
:100C0C00095BFD7B1030000A12095BFE12095BFFC9
:100C1C007B20EC3382D592D55013C3E43000069F71
:100C2C00FFE49EFEE42001039DFDE49CFCE4CBF874
:100C3C00C201EC700CCFCECDCCE824F8F870F38068
:100C4C0017C3EF33FFEE33FEED33FDEC33FCEB3328
:100C5C00FB994002FB0FD8E9EB300105F8D0E0C45A
:100C6C0048B201C0E00AEC4D4E4F78207B0070C2B8
:100C7C00EAB50A0040BCC0E0120D04D0F0D0E02070
:100C8C000104C4C0E0C4B201C0F0120987D0F0D591
:100C9C00F0EB0209D81209080A75530BE0580A4602
:100CAC004C0A42420BE44F0BEC440BEC490A5B43FD
:100CBC000BF2550B1F460B7F450AE9470DBF500A37
:100CCC004A2D0A4E2E0A712B0A52230A6F200DA8A8
:100CDC002A0A0A4800000A69E50AB4FF03750A06E5
:100CEC0012095BFC12095BFD12095BFE12095BFF2A
:100CFC00900029020439790AA2D520031430050981
:100D0C00B910020404B9080104A2D520060250014E
:100D1C00042002689202B509005034C0E07F2030F4
:100D2C0003197F30A20272067205500F120D5BC2BE
:100D3C0002C206C205C2087F30800F300503E9C02D
:100D4C00E012099E300503D0E0F9D0E0B509CC30B3
:100D5C0005177F30B9100C12099E7F583004077F9D
:100D6C00788003B9080312099E3002057F2D020911
:100D7C009E7F202008F87F2B2006F322920280CF42
:100D8C007F00B40700500B2429F582E43400F5836E
:100D9C00E0FF22286E756C6C2900D20112095B30C1
:100DAC0001F8C201780930D50108F6020A0A2D5063
:100DBC0043495812095B2403B405004001E4900D2B
:100DCC00BA9312098F743A12098FD203750904026F
:020DDC000BE02A
:1003B200E9D2E7C933E833F892D5EDD2E7CD33EC91
:0703C20033FC5002B2D5220A
:1003C900EC30E7100FBF000C0EBE00080DBD000495
:1003D9000BEB6014A2D5EB13FCED92E7FD2274FF41
:1003E900FCFDFEFF22E480F8A2D574FF13FC7D809A
:0303F900E480EFAE
:1003FC00F920E73624F950037907E4F42402FBE5ED
:10040C0082158270021583DBF6E024FB501BE96039
:10041C0014E4F0E582158270021583E004F0B40A4E
:0D042C0008E4F0D9EE7401F00A22C2D522D6
:10043900ED33EC3392D5FA602AB4FF33EDC2E77B92
:10044900FF60067A04795EE4227A04796720D5048C
:100459007A047962224E614E002B494E46002D499D
:100469004E4600E47A08F0A3DAFC7B00740722C048
:1004790083C082ECC0E0EDC0E0EEC0E0EFC0E0EA8E
:1004890075F010A4CAABF075F04DA42BFBE435F060
:10049900FCEA2410FAEB34C5FBEC34D9FCEDC2E7D5
:1004A900FF75F056A4F42411C5F0F434C58FF0A4F7
:1004B9002AE5F03BE43CF020E71412056ED0E0FF9A
:1004C900D0E0FED0E0FDD0E0FC1202278014F40455
:1004D90012056ED0E0FFD0E0FED0E0FDD0E0FC12C6
:1004E900011ED082D083E0FAEDD2E7CD33EC33247C
:1004F90082FBE4C3CF33CFCE33CECD33CD33DBF361
:100509007B0775F00A846004F0A31B0AE5F0F0A3E9
:100519008FF0740AA4FFACF08EF0740AA42CFEAC20
:10052900F050010C8DF0740AA42CFDE435F0F0A311
:05053900DBDE74072267
:10053E003F8000004120000042C80000447A0000C5
:10054E00461C400047C35000497424004B18968047
:10055E004CBEBC205A0E1BCA6753C21C749DC5AE3E
:10056E00FB60065407601C232312059CEB54386075
:10057E000912058812059712011EECF8EDF9EEFA34
:10058E00EFCB22EB12059780F1543803241C900513
:10059E003EFE93FC0EEE93FD0EEE930ECE93FF22D7
:1024BB00021ECCE493A3F8E493A34003F68001F24D
:1024CB0008DFF48029E493A3F85407240CC8C33322
:1024DB00C4540F4420C8834004F456800146F6DFF1
:1024EB00E4800B0102040810204080902084E47EDD
:1024FB00019360BCA3FF543F30E509541FFEE493E6
:10250B00A360010ECF54C025E060A840B8E493A3AC
:10251B00FAE493A3F8E493A3C8C582C8CAC583CAD7
:10252B00F0A3C8C582C8CAC583CADFE9DEE780BE8F
:01215300008B
:1005AE00E709F608DFFA8046E709F208DFFA803E2F
:1005BE0088828C83E709F0A3DFFA8032E309F6081C
:1005CE00DFFA8078E309F208DFFA807088828C8384
:1005DE00E309F0A3DFFA806489828A83E0A3F60838
:1005EE00DFFA805889828A83E0A3F208DFFA804C12
:1005FE0080D280FA80C680D4806980F280338010E9
:10060E0080A680EA809A80A880DA80E280CA803351
:10061E0089828A83ECFAE493A3C8C582C8CCC583C9
:10062E00CCF0A3C8C582C8CCC583CCDFE9DEE78099
:10063E000D89828A83E493A3F608DFF9ECFAA9F018
:10064E00EDFB2289828A83ECFAE0A3C8C582C8CC6E
:10065E00C583CCF0A3C8C582C8CCC583CCDFEADE87
:10066E00E880DB89828A83E493A3F208DFF980CCE9
:10067E0088F0EF60010E4E60C388F0ED2402B404E2
:10068E000050B9F582EB2402B4040050AF23234589
:06069E0082239005FE73AB
:1006A400BB010689828A83E0225002E722BBFE0254
:0906B400E32289828A83E4932287
:1006BD00BB010CE58229F582E5833AF583E02250F2
:1006CD0006E92582F8E622BBFE06E92582F8E2223C
:0D06DD00E58229F582E5833AF583E4932256
:1006EA00BB010689828A83F0225002F722BBFE01EF
:0206FA00F322E9
:1006FC00EF8DF0A4A8F0CF8CF0A428CE8DF0A42E12
:02070C00FE22CB
:10070E00C5F0F8A3E028F0C5F0F8E5821582700276
:06071E001583E038F02213
:10072400A3F8E0C5F025F0F0E58215827002158388
:06073400E0C838F0E822E5
:10073A00BB010A89828A83F0E5F0A3F0225006F70A
:0F074A0009A7F01922BBFE06F3E5F009F3192207
:10075900E88FF0A4CC8BF0A42CFCE98EF0A42CFC3F
:100769008AF0EDA42CFCEA8EF0A4CDA8F08BF0A4BD
:100779002DCC3825F0FDE98FF0A42CCD35F0FCEB1C
:100789008EF0A4FEA9F0EB8FF0A4CFC5F02ECD39E1
:0F079900FEE43CFCEAA42DCE35F0FDE43CFC224E
:1007A80075F008758200EF2FFFEE33FECD33CDCC08
:1007B80033CCC58233C5829BED9AEC99E58298408B
:1007C8000CF582EE9BFEED9AFDEC99FC0FD5F0D668
:1007D800E4CEFBE4CDFAE4CCF9A88222B800C1B992
:1007E8000059BA002DEC8BF084CFCECDFCE5F0CBD0
:1007F800F97818EF2FFFEE33FEED33FDEC33FCEB09
:1008080033FB10D703994004EB99FB0FD8E5E4F9C3
:10081800FA227818EF2FFFEE33FEED33FDEC33FCB0
:10082800C933C910D7059BE99A4007EC9BFCE99AA4
:10083800F90FD8E0E4C9FAE4CCFB2275F010EF2FE9
:10084800FFEE33FEED33FDCC33CCC833C810D707E9
:100858009BEC9AE899400AED9BFDEC9AFCE899F824
:0E0868000FD5F0DAE4CDFBE4CCFAE4C8F922B7
:0E087600C3E49FFFE49EFEE49DFDE49CFC2293
:10088400EB9FF5F0EA9E42F0E99D42F0EC6480C8EB
:0608940064809845F0228B
:10089A00EB9FF5F0EA9E42F0E99D42F0E89C45F0B4
:0108AA00222B
:0C08AB00ECF0A3EDF0A3EEF0A3EFF022C0
:1008B700A8828583F0D083D0821208CE1208CE1288
:1008C70008CE1208CEE473E493A3C583C5F0C583AD
:1008D700C8C582C8F0A3C583C5F0C583C8C582C88B
:0108E70022EE
:1008E800F8E0FBA3A3E0F925F0F0E5821582700299
:0708F8001583E0FA38F0223D
:0908FF00EBF0A3EAF0A3E9F022FA
:10090800D083D082F8E4937012740193700DA3A37E
:1009180093F8740193F5828883E473740293686092
:06092800EFA3A3A380DF92
:10092E00EC8EF0A4CCC5F0CCCDF8EFA4CEC5F02D56
:10093E00FDE43CFCE8A42EC8C5F03DFDE43CFCEF14
:0D094E00A4FFE5F028FEE43DFDE43CFC22A2
:00000001FF
