:030000000225597D
:0C255900787FE4F6D8FD7581220225A0F1
:10209300206B65795F7363616E0D0A00204B4559B0
:1020A3005F325F505245530D0A002564200D0A002C
:1020B3000D0A3D3D3D3D3D3D3D3D3D3D3D3D3D3DB0
:1020C3003D3D3D3D3D3D3D3D3D3D3D3D3D3D3D3D3D
:1020D3003D3D3D3D0D0A00736B753A4B2564200D64
:1020E3000A00736F66742076657273696F6E3A25A2
:1020F30073200D0A00312E30302E303000676170AE
:10210300202564200D0A0074696D65722025642002
:102113000D0A00496E7075745F566F6C7461676564
:102123005F737464203D2025640D0A003D3D3D3DF1
:102133003D3D3D3D3D3D3D3D3D3D3D3D3D3D3D3DCC
:102143003D3D3D3D3D3D3D3D3D3D3D3D3D3D0D0A1F
:01215300008B
:0D2154004200CD00004100D0004100CF004E
:101EF500E4900000F09000CFE0700A122671900087
:101F050000EFF08005E4900000F0900000E064012F
:101F150070319000C6E0702B7BFF7A207993120A0E
:101F25001B122B7AEF700A7F01122B80E4FF022A25
:101F3500ABE4FF122B801225E51224CB9000D07460
:101F450001F022122B7AEF6003021FD1900000E00E
:101F5500640270307BFF7A20799F120A1B9000B1D2
:101F6500E0C394095005E004F080069000B17401C7
:101F7500F09000D07401F01224CB9000B1E0FF1274
:101F85002B988045900000E0640370409000B2E01B
:101F9500C394055005E004F08005E49000B2F0908C
:101FA50000B1E0D394014016A3E0FF70059000B0A6
:101FB5008009EFD3940340069000A17402F09000CD
:0C1FC500B2E0FF122B921225E512295702
:011FD10022ED
:08221100900006EEF0A3EFF0CF
:10221900900086E06402706A9000C6E06401706212
:10222900900006A3E0FFE4900086F09000B504F06A
:10223900900067E0FED3940F4048EED39F400CE036
:102249009F9000B3F0A37401F08016900067E0FE40
:10225900C3EF9EFF9000B3F01200009000B4740227
:10226900F09000B3E0FFC394024006EFD39414400A
:1022790007E49000B3F0A3F01229577D027F021200
:102289002A509000B4E0FDB401149000B3E0FF7E41
:1022990000900006EE8FF0120763AFF0FE22EDB456
:1022A90002189000B3E0FFC3900007E09FFF900081
:1022B90006E09400FEF0A3EFF022900006E0FEA3F2
:0222C900E0FF34
:0122CB0022F0
:0C16AA00900006ECF0A3EDF0AB07AA06E0
:1016B600E4A3F0A3F0A3F0A37428F0A312090C008E
:1016C60000000090001012090C00000000C3EB940B
:1016D6005AEA9400500302176EAE02AF03AD07AC90
:1016E60006E4120342E4FBFA797A78441202279060
:1016F600000C120900900006E0FCA3E0FDE41203D2
:1017060042E4FBFA797A7844120227900010120913
:101716000090000CE0F8A3E0F9A3E0FAA3E0FBA335
:10172600E0FCA3E0FDA3E0FEA3E0FF120029900089
:101736000CE0F8A3E0F9A3E0FAA3E0FB1202277B92
:10174600007A80793B784412011E90000C12090041
:10175600E4FFFEFDFC90000CE0F8A3E0F9A3E0FA3C
:10176600A3E0FB1202C450057E007FFF227F147E99
:10177600AE7DC37C4290000CE0F8A3E0F9A3E0FA4A
:10178600A3E0FB1202C4603F403D7F147EAE7DC3E2
:101796007CC290000CE0F8A3E0F9A3E0FAA3E0FB1A
:1017A60012002D7BCD7ACC79CC783E12022712031B
:1017B6007B900008EEF0A3EFF090000BE02FF09086
:1017C600000AE03EF0803C90000CE0F8A3E0F9A3AC
:1017D600E0FAA3E0FB7F147EAE7DC37C42120029B3
:1017E6007BCD7ACC79CC783E12022712037B90000F
:1017F60008EEF0A3EFF0C390000BE09FF090000A14
:10180600E09EF09000B1E0B4030E90000BE024FBE4
:10181600F090000AE034FFF090000AE0FEA3E0FF3B
:01182600229F
:101AA200E4900000F0A3F0A3F0A3F0A3F0A3F09061
:101AB20000CEE004F070069000CDE004F09000CD7E
:101AC200E0FEA3E0FFE4FCFD7B507AC3F9F8D312F9
:101AD20008D94003021BD8E49000CDF0A3F07B01AB
:101AE20090000904F0A37400F0A37404F07A007962
:101AF20002121BD9900002E0FEA3E0FFA3E0FCA3C8
:101B0200E0FD1216AA900000EEF0A3EFF0122211EF
:101B1200900000EEF0A3EFF07BFF7A2079AD900009
:101B220039EEF0A3EFF0120A1BD3900003E0945AAF
:101B3200900002E094005003021BC5122B7AEF7052
:101B42005BFF122B8C9000D0E0B40121E4F0D39023
:101B52000001E09432900000E094004006E490001E
:101B6200A780059000A77401F09000A6F0900000F5
:101B7200E0FEA3E0FF7C007D0A1206FC90009DEED1
:101B8200F0A3EFF0120E339000B2E0FF122B92900E
:101B920000B1E0FF122B981227E980219000C6E0E5
:101BA200B4010DE4FF122AAB122B681229C9800D71
:101BB2007F01122B8CE4FF122AAB122B68E49000F7
:101BC200CFF022E49000C6F07FFF122B8C1229A3E3
:061BD2009000CF7401F049
:011BD80022EA
:101FD200122B5E122906122A31D2AF12000E122BD8
:101FE2001C121969122A117FC87E0012297D7F02F4
:101FF200122B391228DC122B717FB07E04122AC3F5
:10200200122B68122A6F7BFF7A2079B3120A1B7B8C
:10201200FF7A2079DA900039741FF0A374A9F012C4
:102022000A1B90003974FFF0A37420F0A374F8F037
:102032007BFF7A2079E5120A1B7BFF7A21790090D7
:1020420000B1E0FF900039E4F0A3EFF0120A1B7B2D
:10205200FF7A21790A9000B2E0FF900039E4F0A300
:10206200EFF0120A1B7BFF7A2179169000BAE0FF8B
:10207200A3E0900039CFF0A3EFF0120A1B7BFF7AA6
:1020820021792F120A1B121AA2121EF5122B9E8000
:01209200F558
:0A2B5E00758E5190FE917401F02273
:1027E9007F649000BAE07004A3E06402700D900069
:1027F90099E0C313F0A3E013F07F329000A6E0B490
:102809000102800C9000A6E07009900099A3E0FFF6
:03281900122AABD5
:01281C002299
:1024CB009000B1E014B4090040030225589024E6B3
:1024DB0075F003A4C58325F0C5837302250102257E
:1024EB000C02251702252202252D02253802254331
:1024FB0002254302254E90009B7401F0A3745EF0FD
:10250B002290009B7401F0A3747CF02290009B74CA
:10251B0001F0A37490F02290009B7401F0A374D689
:10252B00F02290009B7402F0A37412F02290009B97
:10253B007402F0A37462F02290009B7402F0A374F7
:0E254B00C6F02290009B7402F0A374F8F022F8
:102A6F00E4FFFE12243AD3EF9440EE94069000BA9E
:0D2A7F00E44006F0A37402F022F0A304F07E
:012A8C002227
:0E2B2B00EF1F70011E144E6004000080F322A4
:102AC3007D407C03ED1D70011C144C70F7EF1F70EB
:062AD300011E144E70EA22
:012AD90022DA
:102A310090FF037401F090FF07F090FF02F075B46E
:0F2A4100817F507E00122B2B90FE9B7449F02258
:102ADA00E4FFFE75B50743B440E5B430E5FB53B4F3
:052AEA00DFAEB7AFB63E
:012AEF0022C4
:102AF000E4FFFE75B50343B440E5B430E5FB53B4E1
:052B0000DFAEB7AFB627
:012B050022AD
:102B0600E4FFFE75B50243B440E5B430E5FB53B4CB
:052B1600DFAEB7AFB611
:012B1B002297
:0B1BD900900006EBF0A3EAF0A3E9F097
:101BE40090000C12090C00000000E4900010F0F0CA
:101BF40090000CE0F8A3E0F9A3E0FAA3E0FB122ABA
:101C0400F0E4FCFDEB2FFFEA3EFEED39FDEC38FC81
:101C140090000C120900900010E004F0E0C3940559
:101C240040CE90000CE0FCA3E0FDA3E0FEA3E0FFA7
:101C3400E47B05FAF9F812083990000C120900E463
:101C44007FA07E0FFDFC90000CE0F8A3E0F9A3E078
:101C5400FAA3E0FB1207AEE47BFF7A0FF9F812084F
:101C640039900006E0FBA3E0FAA3E0F9EE8FF0124E
:101C7400078F7F147E00122B2B90000C12090C008E
:101C8400000000E4900010F090000CE0F8A3E0F9EC
:101C9400A3E0FAA3E0FB122ADAE4FCFDEB2FFFEA4F
:101CA4003EFEED39FDEC38FC90000C12090090006A
:101CB40010E004F0E0C3940540CE90000CE0FCA3D7
:101CC400E0FDA3E0FEA3E0FFE47B05FAF9F81208C7
:101CD4003990000C120900E47FA07E0FFDFC9000F7
:101CE4000CE0F8A3E0F9A3E0FAA3E0FB1207AEE4EA
:101CF4007BFF7A0FF9F8120839900009E0FBA3E0A2
:0A1D0400FAA3E0F9EE8FF002078F5A
:10243A0090000012090C00000000E4900004F0F083
:10244A00900000E0F8A3E0F9A3E0FAA3E0FB122B66
:10245A0006E4FCFDEB2FFFEA3EFEED39FDEC38FC0D
:10246A00900000120900900004E004F0E0C3940513
:10247A0040CE900000E0FCA3E0FDA3E0FEA3E0FF55
:10248A00E47B05FAF9F8120839900000120900E411
:10249A007FA07E0FFDFC900000E0F8A3E0F9A3E026
:1024AA00FAA3E0FB1207AEE4FB7A10F9F812083936
:1024BA00900000120900900000A3A3E0FEA3E0FF31
:0124CA0022EF
:101D0E000D0A3D3D3D3D3D3D3D3D3D3D3D3D3D3D58
:101D1E003D3D3D3D3D3D3D3D3D3D3D3D3D3D3D3DE5
:101D2E003D3D3D3D3D3D3D3D3D3D0D0A00706F77D6
:101D3E006572206F6E20666C617368206761703A01
:101D4E002564202074696D65723A2564200D0A00A1
:101D5E00706F776572206F6E20666C617368207687
:101D6E00616C75653A256420207369676E3A256447
:101D7E00200D0A003D3D3D3D3D3D3D3D3D3D3D3D42
:101D8E003D3D3D3D3D3D3D3D3D3D3D3D3D3D3D3D75
:101D9E003D3D3D3D3D3D3D3D3D3D3D3D0D0A003D05
:101DAE003D3D3D3D3D3D3D3D3D3D3D3D6669727395
:101DBE007420696E697420646174613D3D3D3D3DE2
:101DCE003D3D3D3D3D3D200D0A00307825303458D7
:101DDE002020307825303458202030782530345863
:101DEE002020307825303458200D0A00666C61733F
:101DFE0068206761703A2564202074696D65723AB7
:061E0E002564200D0A000E
:102161004500B100000000004400B62020050141F7
:0821710000BC014200BA0000AD
:062B7A009000BCE0FF2208
:062B80009000BCEFF02202
:1029EF00D310AF01C3C0D075FDF075FC0F8EFA8FF9
:1029FF00F975FDD275FC2D75FDE175FC1ED0D092D9
:022A0F00AF22F4
:10292F00D310AF01C3C0D08FFB75FDF075FC0FAE98
:10293F0004AF058EFA8FF975FDB475FC4B75FDE18B
:08294F0075FC1ED0D092AF22EE
:0C26EF007B017A0079B17D057F047E3C00
:1026FB00D310AF01C3C0D0900008EEF0A3EFF0A34E
:0B270B00EDF0A3EBF0A3EAF0A3E9F06F
:10271600E4A3F0C2AFF090000AE0FF90000EE0C321
:102726009F502C90000BE0FBA3E475F00112077993
:10273600A9F0FA1206A4FF900008E475F00112074A
:1027460079ADF0FC12292F90000EE004F080C7D27C
:01275600AFD3
:05275700D0D092AF227A
:040003008F828E83D7
:03000700E493FF80
:01000A0022D3
:1027A900900008EEF0A3EFF0A3EBF0A3EAF0A3E9A1
:1027B900F0AF051DEF6028900008E475F0011207DD
:1027C9007985F082F583E493FF90000AE0FBA3E4A6
:1027D90075F001120779A9F0FAEF1206EA80D22200
:10281D00E4FDFCED2400FFE4343CFE12000374B62D
:10282D002DF582E43400F583E0B507030C80037FBA
:10283D0000220DEDB404DCECC3940440037F0122AF
:02284D007F000A
:01284F002266
:10196900E4900000F090FE927404F012281DEF70CC
:101979000790000004F0807C7BFF7A1D790E120A23
:101989001B7B017A0079B17D057F047E3C1227A972
:101999007BFF7A1D793B9000B1E0FF900039E4F0BC
:1019A900A3EFF09000B2E0FF90003BE4F0A3EFF06A
:1019B900120A1B7BFF7A1D795E9000B3E0FF90004D
:1019C90039E4F0A3EFF09000B4E0FF90003BE4F0BD
:1019D900A3EFF0120A1B7BFF7A1D7982120A1B9072
:1019E90000B1E0D394095006A3E0940540069000A5
:1019F900007401F0900000E06401707A7BFF7A1DA9
:101A090079AD120A1B9000B17401F0A3F07F007E3A
:101A19003C1229EFFB7A0079B67D041226FB1226C7
:101A2900EF7B017A0079B67D047F007E3C1227A9FD
:101A39007BFF7A1D79D89000B6E0FF900039E4F079
:101A4900A3EFF09000B7E0FF90003BE4F0A3EFF0C4
:101A59009000B8E0FF90003DE4F0A3EFF09000B9EA
:101A6900E0FF90003FE4F0A3EFF0120A1B7BFF7A3E
:101A79001D7982120A1B7BFF7A1D79FA9000B1E069
:101A8900FF900039E4F0A3EFF09000B2E0FF90007E
:091A99003BE4F0A3EFF0020A1B8C
:102957007F047E3C1229EF7B017A0079B67D047FE4
:10296700001226FB1226EF7B017A0079B17D057FE5
:06297700047E3C0227A9CA
:102179005E00680000000000000000000000000090
:102189000000000000000000000000000000000046
:09219900004100860041006700CE
:1029060090FF1674C1F090FF157460F090FFA074EC
:1029160026F090FFA114F075CEFF75CD9875CC0604
:09292600759E02759810D2AC22D6
:0C2B4600C2AC8F993099FDC299D2AC222C
:032BA200022B46BD
:0B28830090000DEBF0A3EAF0A3E9F0D9
:10288E00E4FEEEC39D501A90000DE0FBA3E0FAA308
:10289E00E0F98E827583001206BDFF122BA20E8008
:0128AE00E148
:0128AF002206
:102A50009000087455F0A3EFF0A3EDF0A3740DF00F
:0F2A6000A3740AF07B017A0079087D05022883B0
:062B8600AE07122B4622EF
:0300230002275C55
:0D275C00C0E0C083C082C0D075D000C007AF
:10276900E59830E030AF995398FE900086E0146008
:1027790019047021EFB4551D900068F0900066E0CF
:1027890004F09000867401F0800B900067EFF090E0
:0527990000867402F04F
:0B279E00D007D0D0D082D083D0E03232
:1021A2004100C6004100BD004200BE00004100C027
:0F21B200004200C100004100C3014200C4000010
:0F2B1C0090FF177460F090FF00F090FF01F0221F
:1022CC00E4900002F0A28133900001F09000BDE098
:1022DC0014602614604E14700302236F24036003F1
:1022EC00022378900001E0600302237D9000BEF091
:1022FC00A3F09000BD04F08078900001E0706B902A
:10230C0000BFE004F070069000BEE004F0C3900043
:10231C00BFE094039000BEE09400403E9000BD747A
:10232C0002F08036900001E0B40106A37404F08042
:10233C003B9000BFE004F070069000BEE004F0C3D8
:10234C009000BFE094C89000BEE09400400C900058
:10235C00027405F09000BD7403F07F0A7E00122A0F
:10236C00C3800E900001E0B401078000E49000BD32
:06237C00F0900002E0FFFA
:012382002238
:10238300E4900002F0A28033900001F09000C0E0DE
:1023930014602614604E1470030224262403600381
:1023A30002242F900001E060030224349000C1F066
:1023B300A3F09000C004F08078900001E0706B906F
:1023C30000C2E004F070069000C1E004F0C3900086
:1023D300C2E094039000C1E09400403E9000C074BA
:1023E30002F08036900001E0B40106A37404F0808B
:1023F3003B9000C2E004F070069000C1E004F0C31B
:102403009000C2E094909000C1E09401400C9000D1
:10241300027406F09000C07403F07F0A7E00122A53
:10242300C3800E900001E0B401078000E49000C077
:06243300F0900002E0FF42
:012439002280
:102671001222CCBF05037F0122122383BF06211240
:102681002B7ABF01149000B5E0700E9000C604F0E3
:102691009000B5F0122957803CE49000C6F08035D7
:1026A1009000C3E0602330A70320801D9000C6E0A6
:1026B10070177F32FE122AC3E49000C3F020A703F3
:1026C1007F022220800F7F032230A70930800690ED
:1026D10000C37401F0308113D39000C5E0940190E0
:0D26E10000C4E094004004E4F0A3F07F008A
:0126EE0022C9
:0421C1004100D10008
:102AAB007E009000D1E0FD7C00120983E47B64FA88
:072ABB00F9F81208398FDF62
:012AC20022F1
:10297D0090FF1D74C0F090FF9C7435F0AC06AD0750
:10298D007E7A7F1212070EEF149000D1F074FFF0D3
:06299D00F5DE75DD972256
:0D2B390075BD17EF75F02BA490FEA0F022E3
:042B9E0043BD102201
:102850007365742074696D65207365636F6E643A87
:1028600025640D0A0074696D65207365636F6E647D
:102870003A2564200D0A0074696D65206F66662034
:032880000D0A003E
:1021C5004200AC00004200AA00004200AE000041FF
:1021D50000A0004100A1004100B0004100A700425D
:1021E50000A200004200A800004200A40000410037
:0221F500A60042
:102A8D009000AAEEF0A3EFF0E4A3F0A3F07BFF7AA1
:0E2A9D00287950900039EEF0A3EFF0020A1BEA
:1028B0009000A7E0B401249000A2E475F001120793
:1028C00063FED3E5F0940EEE9401400FE49000A770
:0C28D000F09000A2F0A3F09000A6F0220F
:1025E500E49000ACF0A3F09000B2E0FF700890001A
:1025F500AAF0A3F08052EFB4010C9000AA7407F082
:10260500A304F0E48042EFB4020D9000AA740EF02A
:10261500A37410F0E48031EFB4030D9000AA741C8C
:10262500F0A37420F0E48020EFB4040D9000AA74A8
:1026350038F0A37440F0E4800FEFB405179000AABA
:102645007470F0A37480F0E49000AEF0A3F09000F5
:10265500A8F0A3F07BFF7A2879659000AAE0FFA394
:0C266500E0900039CFF0A3EFF0020A1B58
:10000E00E490FE80F0F589758CF5758A9643A8020A
:04001E0043881022E1
:03000B00021827B1
:10182700C0E0C0F0C083C082C0D075D000C000C087
:1018370001C002C003C004C005C006C007122B7A4E
:10184700EF60030219249000ADE004F070069000E9
:10185700ACE004F0C39000ADE094F49000ACE094E9
:1018670001500302194B1228B09000B0E0B4022DCA
:101877009000AFE004F070069000AEE004F0D39063
:1018870000AFE094409000AEE0943840109000B074
:10189700E4F09000AEF0A3F09000A004F0D3900025
:1018A700ABE094009000AAE094004042A3E024FF3C
:1018B700F09000AAE034FFF09000A1E064027057B6
:1018C7009000AFE004F070069000AEE004F0D39013
:1018D70000AFE094409000AEE09438403A9000A00A
:1018E7007401F0A3E4F09000AEF0A3F0802990001B
:1018F700B2E060237F01122B809000AAE4F0A3F0EE
:101907009000AEF0A3F09000A1F09000B0F07BFF44
:101917007A287977120A1B9000ACE480249000C6DD
:10192700E0B401209000A4E475F001120763FED330
:10193700E5F09460EE94EA400B9000C6E4F0900066
:10194700A4F0A3F0121E14D007D006D005D004D0FF
:1019570003D002D001D000D0D0D082D083D0F0D035
:02196700E0326C
:1021F7004200CB00004100CA004100C9004100C7AE
:05220700004100C800C9
:1028DC0043D1E890FF62E04406F090FF61E04408C9
:1028EC00F090FF60E04410F090FF6AE044F8F0C212
:0A28FC0097C296C295C294C29322BF
:062B8C009000C9EFF022E9
:092B68009000CB74CEF0A3F02222
:1029A3009000C7E0FF700F9000CB74CEF0A3F090BF
:1029B30000C77401F022EFB4010B9000CB74FFF059
:0529C300E49000C7F0E4
:0129C80022EC
:1029C9009000C8E0FF700F9000CB74CEF0A3F09098
:1029D90000C87401F022EFB4010B9000CB741EF013
:0529E900E49000C8F0BD
:0129EE0022C6
:062B92009000CCEFF022E0
:062B98009000CBEFF022DB
:092B71009000CB74CCF0A3F0221B
:101E14009000C9E0FF600EF4600B9000C6E064011E
:101E24006003021EEA43D1E89000CAE0B40800400F
:101E340003021EE4901E3FF8282873021E57021E58
:101E440067021E78021E8B021EA0021EB0021EC173
:101E5400021ED453D1EF12150E12125B9000CA74F5
:101E640001F022C292D29112151212125B9000CA92
:101E74007402F022C292C291D2A312151412125B00
:101E84009000CA7403F022C292C291C2A3D2B412C7
:101E9400151612125B9000CA7404F02243D110127A
:101EA400150E12125B9000CA7405F022C292D291F0
:101EB40012151212125B9000CA7406F022C292C26A
:101EC40091D2A312151412125B9000CA7407F02267
:101ED400C292C291C2A3D2B412151612125B800030
:101EE400E49000CAF0229000C9E0B4010375D168FF
:011EF40022CB
:05125B009000CBE0FF54
:10126000EF12095D12C70112FF02133703136F0457
:1012700013A70513DF06141607145008148A091261
:101280008F1E1503CC14F8CE14C1FF0000150D906D
:1012900000CAE0FF6003B40404C295C294EF640185
:1012A0006004EFB40504D295D294EF64026004EFB9
:1012B000B40604D295D294EF64036008EF6407602B
:1012C0000302150D0214F39000CAE0FF6003B4049A
:1012D00004C295C294EF64016004EFB40504D29592
:1012E000C294EF64026004EFB40604D295C294EF96
:1012F00064036008EF6407600302150D02144B904D
:1013000000CAE0FF6003B40404D295C294EF640104
:101310006004EFB40504D295C294EF64026004EF58
:10132000B40604C295D294EF64036008EF640760CA
:101330000302150D0214859000CAE0FF6003B40497
:1013400004D295C294EF64016004EFB40504D29511
:10135000C294EF64026004EFB40604D295D294EF15
:1013600064036008EF6407600302150D0214BC906B
:1013700000CAE0FF6003B40404C295C294EF6401A4
:101380006004EFB40504D295D294EF64026004EFD8
:10139000B40604D295D294EF64036008EF6407604A
:1013A0000302150D02144B9000CAE0FF6003B40461
:1013B00004D295C294EF64016004EFB40504C295B1
:1013C000D294EF64026004EFB40604D295D294EF95
:1013D00064036008EF6407600302150D0214BC90FB
:1013E00000CAE0FF6003B40404D295C294EF640124
:1013F0006004EFB40504C295D294EF64026004EF78
:10140000B40604D295D294EF64036008EF640760D9
:101410000302150D806F9000CAE0FF6003B404045E
:10142000D295C294EF64016004EFB40504D295C272
:1014300094EF64026004EFB40604D295C294EF64A2
:10144000036008EF6407600302150DC295C2942281
:101450009000CAE0FF6003B40404D295C294EF6424
:10146000016004EFB40504D295D294EF64026004E5
:10147000EFB40604D295D294EF64036008EF6407DA
:10148000600302150DD295D294229000CAE0FF604D
:1014900003B40404D295C294EF64016004EFB40570
:1014A00004D295D294EF64026004EFB40604D2959E
:1014B000D294EF64036005EF64077051D295C29433
:1014C000229000CAE0FF6003B40404D295C294EFF6
:1014D00064016004EFB40504C295D294EF64026025
:1014E00004EFB40604C295D294EF64036005EF6480
:1014F00007701AC295D29422C297C296C295C2941E
:0E150000C29322D297D296D295D294D2932241
:0D150E00D292C291C2A3C2B49000CCE0FF03
:10151B00EF14605D1470030215BA1470030215F812
:10152B0014700302163214700302166C2405600348
:10153B000216A99000CAE0FF6003B40406C297C26A
:10154B0096C293EF64016004EFB40506D297D2966E
:10155B00D293EF64026004EFB40606C297D296C230
:10156B0093EF64036046EF640760030216A902164B
:10157B00A39000CAE0FF6003B40406D297C296C2E0
:10158B0093EF64016004EFB40506D297D296D29321
:10159B00EF64026004EFB40606C297C296C293EFE3
:1015AB0064036008EF640760030216A90216A39098
:1015BB0000CAE0FF6003B40406C297C296C293EF61
:1015CB0064016004EFB40506D297D296D293EF6410
:1015DB00026004EFB40606D297C296C293EF64037F
:1015EB006008EF640760030216A90216A39000CAF5
:1015FB00E0FF6003B40406C297C296D293EF640176
:10160B006004EFB40506D297D296D293EF640260D2
:10161B0004EFB40606C297C296C293EF640360054B
:10162B00EF6407707980719000CAE0FF6003B40427
:10163B0006C297D296C293EF64016004EFB405061D
:10164B00D297D296D293EF64026004EFB40606C22F
:10165B0097C296C293EF64036005EF6407703F80F7
:10166B00379000CAE0FF6003B40406C297C296C26B
:10167B0093EF64016004EFB40506D297D296D29330
:10168B00EF64026004EFB40606C297C296D293EFE2
:0F169B0064036004EFB40706D297D296D293226D
:0C2B520000000000000000000000000077
:04220C0041009F00EE
:102A1100E490009DF0A3F0900099F0A3F0A3F0A33F
:102A2100F090009804F0900097F090009604F02246
:100E330078067C007D017BFF7A2B79527E007F0C44
:100E430012067E90001212090C000000009000169A
:100E530012090C0000000090009DE0FEA3E0FF904B
:100E6300009BE0FCA3E0FDD39FEC9E5003021253D2
:100E7300ED9FFFEC9EFED3EF9464EE9400400302DB
:100E83001249E4FCFD900006120900E4900094F07E
:100E930090008BE0FCA3E0FDA3E0FEA3E0FFA31220
:100EA3000900900087E0FCA3E0FDA3E0FEA3E0FFC0
:100EB300A3120900900006E0FCA3E0FDA3E0FEA35B
:100EC300E0FF90008712090090008BE0FCA3E0FD97
:100ED300A3E0FEA3E0FF900087E0F8A3E0F9A3E01E
:100EE300FAA3E0FBD31208EF403390008BE0F8A3A2
:100EF300E0F9A3E0FAA3E0FB900087E0FCA3E0FDA8
:100F0300A3E0FEA3E09BFFEE9AFEED99FDEC98FCB7
:100F1300900006120900E4900093F080319000875E
:100F2300E0F8A3E0F9A3E0FAA3E0FBA3E0FCA3E06D
:100F3300FDA3E0FEA3E0C39BFFEE9AFEED99FDEC5B
:100F430098FC9000061209009000937401F0E47F6E
:100F530002FEFDFC90008BE0F8A3E0F9A3E0FAA306
:100F6300E0FB1207AE90000E12090090008FE0FC28
:100F7300A3E0FDA3E0FEA3E0FF900087E0F8A3E079
:100F8300F9A3E0FAA3E02FFFEA3EFEE93DFDE83CCA
:100F9300FC90000EE0F8A3E0F9A3E0FAA3E0FBC3A2
:100FA3001208EF504B90008FE0FCA3E0FDA3E0FE9E
:100FB300A3E0FF900087E0F8A3E0F9A3E0FAA3E041
:100FC3002FFFEA3EFEE93DFDE83CFC90000EE0F811
:100FD300A3E0F9A3E0FAC3EF9BFFEE9AFEED99FDC0
:100FE300EC98FC90000E120900E4900095F0805DEF
:100FF30090000EE0FCA3E0FDA3E0FEA3E0FFC0042D
:10100300C005C006C00790008FE0FCA3E0FDA3E08D
:10101300FEA3E0FF900087E0F8A3E0F9A3E0FAA3C2
:10102300E02FFBEA3EFAE93DF9E83CF8D007D006A9
:10103300D005D004C3EF9BFFEE9AFEED99FDEC982B
:10104300FC90000E1209009000957401F090009638
:10105300E0FFE4FCFDFE900006E0F8A3E0F9A3E066
:10106300FAA3E0FB1207AE90000612090090009766
:10107300E0FFE4FCFDFE900087E0F8A3E0F9A3E0C5
:10108300FAA3E0FB1207AE90000A12090090009841
:10109300E0FFE4FCFDFE90000EE0F8A3E0F9A3E01E
:1010A300FAA3E0FB1207AE90000E12090090009322
:1010B300E0702D900012E0FCA3E0FDA3E0FEA3E0AE
:1010C300FF900006E0F8A3E0F9A3E0FAA3E0FBEF4A
:1010D3002BFFEE3AFEED39FDEC38FC900012802B2D
:1010E300900016E0FCA3E0FDA3E0FEA3E0FF900068
:1010F30006E0F8A3E0F9A3E0FAA3E0FBEF2BFFEE91
:101103003AFEED39FDEC38FC900016120900900010
:1011130094E0702E900012E0FCA3E0FDA3E0FEA398
:10112300E0FF900006E0F8A3E0F9A3E0FAA3E0FBF8
:10113300EF2BFFEE3AFEED39FDEC38FC9000121276
:101143000900900095E0702B900012E0FCA3E0FDF5
:10115300A3E0FEA3E0FF90000EE0F8A3E0F9A3E014
:10116300FAA3E0FBEF2BFFEE3AFEED39FDEC38FC82
:10117300A3802B900016E0FCA3E0FDA3E0FEA3E018
:10118300FF90000EE0F8A3E0F9A3E0FAA3E0FBEF81
:101193002BFFEE3AFEED39FDEC38FC9000161209F8
:1011A30000900012E0F8A3E0F9A3E0FAA3E0FB90BB
:1011B3000099E0FEA3E0FFE4FCFDEB2FFFEA3EFE17
:1011C300ED39FDEC38FC900012120900900016E096
:1011D300FCA3E0FDA3E0FEA3E0FF900012E0F8A370
:1011E300E0F9A3E0FAA3E0FBD31208EF406290001A
:1011F30016E0F8A3E0F9A3E0FAA3E0FB900012E005
:10120300FCA3E0FDA3E0FEA3E09BFFEE9AFEED99B5
:10121300FDEC98FC900006120900E47F64FEFDFCDF
:10122300900006E0F8A3E0F9A3E0FAA3E0FBC31201
:1012330008EF5012900006A3A3E0FFA3E0900099EB
:10124300CFF0A3EFF022900099E4F0A37464F022AE
:07125300E4900099F0A3F004
:01125A002271
:100026000203E7E86480F8E933E83360110460F01E
:10003600ED33EC337009E8FCE9FDEAFEEBFF220440
:1000460060DED3EB9FEA9EE99DE8C2E78CF0C2F73B
:1000560095F0400CE8CCF8E9CDF9EACEFAEBCFFB07
:100066001203B285D0F05804700320D5B3E80470AB
:10007600075002B2D50203F192D5EC0460F7E4CC46
:10008600C0E0C398F8603B94186008400DD0E0FBD0
:100096000203C9E4FBFAC9FC8028E830E406E4C997
:1000A600FBE4CAFCE830E305E4C9CACBFCE8540724
:1000B6006010F8C3E913F9EA13FAEB13FBEC13FC2F
:1000C600D8F130F52FC3E49CFCEF9BFFEE9AFEEDD2
:1000D60099FDD0E0FBEF4E4D4C701222DB0302037C
:1000E600EEEC2CFCEF33FFEE33FEED33FDED30E7A7
:1000F600EB0203C9EF2BFFEE3AFEED39FDD0E0FB34
:1001060050130BBB00030203F1ED13FDEE13FEEFDC
:0801160013FFEC13FC0203C906
:10011E00EC4D6011E8497017ED33EC3304600DE4DB
:10012E00FCFFFEFD22E933E8330470F80203E71208
:10013E0003B258046009E4CC248150062850090209
:10014E0003F12840030203EEC0E0EB4A7044B9808D
:10015E0006D0E0FB0203DDEF4E701CBD8008EBFF06
:10016E00EAFEE9FD80EBE98DF0A4FEE5F002020760
:10017E00E9CDF9EAFEEBFFEF89F0A4FCE5F0CE89BC
:10018E00F0A42EFFE435F0CD89F0A42DFEE435F079
:10019E008067EF4E7005BD80D780C3EF8BF0A4ACA7
:1001AE00F0EE8BF0A42CFCE435F0F8EF8AF0A42CE2
:1001BE00E5F038FCE433CB8DF0A42CFCE5F03BF8F5
:1001CE00EE8AF0A42CFCE5F038F8E433CF89F0A4E5
:1001DE002CFCE5F038CF3400CE89F0A42FFFE5F0EB
:1001EE003EFEE433C98DF0A42EFEE5F039CD8AF043
:1001FE00A42FFFE5F03EFEE43DFD33D0E0FB5007BB
:10020E000BBB000F0203F1EC2CFCEF33FFEE33FEC1
:06021E00ED33FD0203C9EF
:100224000203F1EC5D046005E8590470030203E77E
:100234001203B2580460F6EC4860F2EC7004FDFE60
:10024400FF22C860DB2481C85009C39860025006AD
:100254000203EE9850CAF582E9294B4A7005AB8235
:100264000203DD75F0007C1A7880C3EF9BEE9AEDF3
:1002740099400DC3EF9BFFEE9AFEED99FDE842F025
:10028400DC23ACF0D0E0FFD0E0FED0E0FDAB822078
:10029400E7101BEB60BAEC2CFCEF33FFEE33FEED02
:1002A40033FD0203C9E803F830E705C0F075F00038
:1002B400EF2FFFEE33FEED33FD40B830E7C280AAE6
:1002C40074F8CC6480CCC86480C8F58204604FC3E1
:1002D400EB9FF5F0EA9E42F0E99D42F0E89C45F080
:1002E400603C501DE5825FFFE582D313CB5BCBF40A
:1002F4002B5582FB50280ABA002409B90020088033
:100304001DE5825BFBE582D313CF5FCFF4C3132FCC
:100314005582FF50090EBE00050DBD00010CC3EB54
:100324009FF5F0EA9E42F0E99D42F0E89C45F060BA
:0903340007CC4820E701B3EC22DC
:10033D0075F020800E75F010800575F0087D007E3B
:10034D00007F003392D530D5031208CBEC3340102B
:10035D00EF33FFEE33FEED33FDEC33FCD5F0ED2244
:0E036D00E5F0247EA2D513CC92E7CDCEFF2280
:10037B00EDD2E7CD33EC3392D524814006E4FFFE7A
:10038B00FDFC22FCE4CFCECDCC24E0501174FF80D9
:10039B00EDC3CC13CCCD13CDCE13CECF13CF047076
:0703AB00F030D5DE0208CBA3
:1009B000E50D2439F582E43400F583E0050D22903D
:1009C0000036301003900039E475F00112093D0241
:1009D00006A42009E97F2ED2098018EF540F249035
:1009E000D43440D4FF300D0BEF24BFB41A005003B1
:1009F0002461FFE50E6002150E0511E51170020578
:100A00001030100E900036E475F00112093DEF022F
:100A100006EA022B867403D2108003E4C210F50D9F
:100A2000900036120954E4F50EF510F511E50E604C
:100A3000077F201209F380F5750FFFC20AC209C2B1
:100A40000BC20CC20EC20FC2111209BFFF700D30D3
:100A500010057F00120A04AF11AE1022B4255FC248
:100A6000D5C20D1209BFFF24D0B40A00501A75F088
:100A70000A780E30D50508B6FF0106C6A426F62072
:100A8000D5047002D20C80D924CFB41A00EF5004E0
:100A9000C2E5D20D020CF6D20A80C6D20980C0D2BD
:100AA0000B80BCD2D580BAD20E80B47F201209F35D
:100AB000200B077401B50E0040F11209B0FF1209B6
:100AC000F3020A2DD211D20F80951209B0FB120940
:100AD000B0FA1209B0F94A4B700679F47A0D7BFF2F
:100AE000200B2EE50E602A7E008E82758300120692
:100AF000BD60060EEE650F70F0C2D5EBC0E0EAC037
:100B0000E0E9C0E0EE120D57D0E0F9D0E0FAD0E015
:100B1000FB1206A4FF60AAEBC0E0EAC0E0E9C0E077
:100B20001209F3D0E02401F9D0E03400FAD0E0FB60
:100B3000E50F0460DCD50FD98087D20B80A2120D9F
:100B40003960F7E50F7001041203FCA90F600DE591
:100B50000F600914F50F120DE1EF60F3EA30E702C0
:100B6000F404C3995079EAF4250F0430E701E40452
:100B7000F50F800D120D3960C1EA050F250F120324
:100B8000FCEA900065F030E701E4250F04D50F047E
:100B9000200E0114120D57E4C0E0120DE190006523
:100BA000E0601320E70714F01209DB802204F0D084
:100BB000E014C0E07F001209DBE50F60071209D2E4
:100BC000150F800B300E031209D2D0E0020A2DD08F
:100BD000E00480C4120D39609EE50F041203FC90FE
:100BE0000065EAF0E50F200E026001042404120DF6
:010BF00057AD
:100BF10074FF04C0E0120DE11209DBE50F200E02C3
:100C010060031209D2D0E0B50FE87F451209E590E3
:100C11000065E07F2B30E7047F2DF404C0E012096A
:100C2100F3D0E075F00A84C0F01209DCD0E01209BB
:100C3100DC020A2D791080027908C20FC2118008E6
:100C4100D2D5790A8004790AC2D5E50F047002F57C
:100C51000FE4FAFDFEFF1209B0FC7B08200A131213
:100C610009B0FD7B1030090A1209B0FE1209B0FF6C
:100C71007B20EC3382D592D55013C3E43009069F13
:100C8100FFE49EFEE4200A039DFDE49CFCE4CBF816
:100C9100C20AEC700CCFCECDCCE824F8F870F3800A
:100CA10017C3EF33FFEE33FEED33FDEC33FCEB33D3
:100CB100FB994002FB0FD8E9EB300A05F8D0E0C4FC
:100CC10048B20AC0E00AEC4D4E4F78207B0070C25A
:100CD100EAB50F0040BCC0E0120D59D0F0D0E020C1
:100CE1000A04C4C0E0C4B20AC0F01209DCD0F0D5D5
:100CF100F0EB020A2D12095D0ACA530C35580A9B02
:100D01004C0A97420C394F0C41440C41490AB043FB
:100D11000C47550B74460BD4450B3E470E14500A35
:100D21009F2D0AA32E0AC62B0AA7230AC4200DFD54
:100D31002A0A5F4800000ABEE50FB4FF03750F06DB
:100D41001209B0FC1209B0FD1209B0FE1209B0FF80
:100D510090005E020439790AA2D5200C14300E09E4
:100D6100B910020404B9080104A2D5200F025001F0
:100D710004200B68920BB50E005034C0E07F203088
:100D81000C197F30A20B720F720E500F120DB0C2F0
:100D91000BC20FC20EC2117F30800F300E03E9C0AB
:100DA100E01209F3300E03D0E0F9D0E0B50ECC30FB
:100DB1000E177F30B9100C1209F37F58300D077FE1
:100DC100788003B908031209F3300B057F2D02095E
:100DD100F37F202011F87F2B200FF322920B80CF7D
:100DE1007F00B40700500B245EF582E43400F583E4
:100DF100E0FF22286E756C6C2900D20A1209B0300E
:100E01000AF8C20A780E30D50108F6020A5F2D50A1
:100E11004349581209B02403B405004001E4900E7F
:100E21000F931209E4743A1209E4D20C750E04020C
:020E31000C357E
:1003B200E9D2E7C933E833F892D5EDD2E7CD33EC91
:0703C20033FC5002B2D5220A
:1003C900EC30E7100FBF000C0EBE00080DBD000495
:1003D9000BEB6014A2D5EB13FCED92E7FD2274FF41
:1003E900FCFDFEFF22E480F8A2D574FF13FC7D809A
:0303F900E480EFAE
:1003FC00F920E73624F950037907E4F42402FBE5ED
:10040C0082158270021583DBF6E024FB501BE96039
:10041C0014E4F0E582158270021583E004F0B40A4E
:0D042C0008E4F0D9EE7401F00A22C2D522D6
:10043900ED33EC3392D5FA602AB4FF33EDC2E77B92
:10044900FF60067A04795EE4227A04796720D5048C
:100459007A047962224E614E002B494E46002D499D
:100469004E4600E47A08F0A3DAFC7B00740722C048
:1004790083C082ECC0E0EDC0E0EEC0E0EFC0E0EA8E
:1004890075F010A4CAABF075F04DA42BFBE435F060
:10049900FCEA2410FAEB34C5FBEC34D9FCEDC2E7D5
:1004A900FF75F056A4F42411C5F0F434C58FF0A4F7
:1004B9002AE5F03BE43CF020E71412056ED0E0FF9A
:1004C900D0E0FED0E0FDD0E0FC1202278014F40455
:1004D90012056ED0E0FFD0E0FED0E0FDD0E0FC12C6
:1004E900011ED082D083E0FAEDD2E7CD33EC33247C
:1004F90082FBE4C3CF33CFCE33CECD33CD33DBF361
:100509007B0775F00A846004F0A31B0AE5F0F0A3E9
:100519008FF0740AA4FFACF08EF0740AA42CFEAC20
:10052900F050010C8DF0740AA42CFDE435F0F0A311
:05053900DBDE74072267
:10053E003F8000004120000042C80000447A0000C5
:10054E00461C400047C35000497424004B18968047
:10055E004CBEBC205A0E1BCA6753C21C749DC5AE3E
:10056E00FB60065407601C232312059CEB54386075
:10057E000912058812059712011EECF8EDF9EEFA34
:10058E00EFCB22EB12059780F1543803241C900513
:10059E003EFE93FC0EEE93FD0EEE930ECE93FF22D7
:10256500021FD2E493A3F8E493A34003F68001F29B
:1025750008DFF48029E493A3F85407240CC8C33377
:10258500C4540F4420C8834004F456800146F6DF46
:10259500E4800B0102040810204080902154E47E61
:1025A500019360BCA3FF543F30E509541FFEE4933B
:1025B500A360010ECF54C025E060A840B8E493A302
:1025C500FAE493A3F8E493A3C8C582C8CAC583CA2D
:1025D500F0A3C8C582C8CAC583CADFE9DEE780BEE5
:0122100000CD
:1005AE00E709F608DFFA8046E709F208DFFA803E2F
:1005BE0088828C83E709F0A3DFFA8032E309F6081C
:1005CE00DFFA8078E309F208DFFA807088828C8384
:1005DE00E309F0A3DFFA806489828A83E0A3F60838
:1005EE00DFFA805889828A83E0A3F208DFFA804C12
:1005FE0080D280FA80C680D4806980F280338010E9
:10060E0080A680EA809A80A880DA80E280CA803351
:10061E0089828A83ECFAE493A3C8C582C8CCC583C9
:10062E00CCF0A3C8C582C8CCC583CCDFE9DEE78099
:10063E000D89828A83E493A3F608DFF9ECFAA9F018
:10064E00EDFB2289828A83ECFAE0A3C8C582C8CC6E
:10065E00C583CCF0A3C8C582C8CCC583CCDFEADE87
:10066E00E880DB89828A83E493A3F208DFF980CCE9
:10067E0088F0EF60010E4E60C388F0ED2402B404E2
:10068E000050B9F582EB2402B4040050AF23234589
:06069E0082239005FE73AB
:1006A400BB010689828A83E0225002E722BBFE0254
:0906B400E32289828A83E4932287
:1006BD00BB010CE58229F582E5833AF583E02250F2
:1006CD0006E92582F8E622BBFE06E92582F8E2223C
:0D06DD00E58229F582E5833AF583E4932256
:1006EA00BB010689828A83F0225002F722BBFE01EF
:0206FA00F322E9
:1006FC00EF8DF0A4A8F0CF8CF0A428CE8DF0A42E12
:02070C00FE22CB
:10070E00BC000BBE0029EF8DF084FFADF022E4CCCF
:10071E00F875F008EF2FFFEE33FEEC33FCEE9DEC98
:10072E00984005FCEE9DFE0FD5F0E9E4CEFD22EDDE
:10073E00F8F5F0EE8420D21CFEADF075F008EF2F28
:10074E00FFED33FD4007985006D5F0F222C398FD19
:05075E000FD5F0EA22B6
:10076300C5F0F8A3E028F0C5F0F8E5821582700221
:060773001583E038F022BE
:10077900A3F8E0C5F025F0F0E58215827002158333
:06078900E0C838F0E82290
:10078F00BB010A89828A83F0E5F0A3F0225006F7B5
:0F079F0009A7F01922BBFE06F3E5F009F31922B2
:1007AE00E88FF0A4CC8BF0A42CFCE98EF0A42CFCEA
:1007BE008AF0EDA42CFCEA8EF0A4CDA8F08BF0A468
:1007CE002DCC3825F0FDE98FF0A42CCD35F0FCEBC7
:1007DE008EF0A4FEA9F0EB8FF0A4CFC5F02ECD398C
:0F07EE00FEE43CFCEAA42DCE35F0FDE43CFC22F9
:1007FD0075F008758200EF2FFFEE33FECD33CDCCB3
:10080D0033CCC58233C5829BED9AEC99E582984035
:10081D000CF582EE9BFEED9AFDEC99FC0FD5F0D612
:10082D00E4CEFBE4CDFAE4CCF9A88222B800C1B93C
:10083D000059BA002DEC8BF084CFCECDFCE5F0CB7A
:10084D00F97818EF2FFFEE33FEED33FDEC33FCEBB3
:10085D0033FB10D703994004EB99FB0FD8E5E4F96E
:10086D00FA227818EF2FFFEE33FEED33FDEC33FC5B
:10087D00C933C910D7059BE99A4007EC9BFCE99A4F
:10088D00F90FD8E0E4C9FAE4CCFB2275F010EF2F94
:10089D00FFEE33FEED33FDCC33CCC833C810D70794
:1008AD009BEC9AE899400AED9BFDEC9AFCE899F8CF
:0E08BD000FD5F0DAE4CDFBE4CCFAE4C8F92262
:0E08CB00C3E49FFFE49EFEE49DFDE49CFC223E
:1008D900EB9FF5F0EA9E42F0E99D42F0EC6480C896
:0608E90064809845F02236
:1008EF00EB9FF5F0EA9E42F0E99D42F0E89C45F05F
:0108FF0022D6
:0C090000ECF0A3EDF0A3EEF0A3EFF0226A
:10090C00A8828583F0D083D0821209231209231286
:10091C000923120923E473E493A3C583C5F0C583AB
:10092C00C8C582C8F0A3C583C5F0C583C8C582C835
:01093C002298
:10093D00F8E0FBA3A3E0F925F0F0E5821582700243
:07094D001583E0FA38F022E7
:09095400EBF0A3EAF0A3E9F022A4
:10095D00D083D082F8E4937012740193700DA3A329
:10096D0093F8740193F5828883E47374029368603D
:06097D00EFA3A3A380DF3D
:10098300EC8EF0A4CCC5F0CCCDF8EFA4CEC5F02D01
:10099300FDE43CFCE8A42EC8C5F03DFDE43CFCEFBF
:0D09A300A4FFE5F028FEE43DFDE43CFC224D
:00000001FF
