:03000000022515C1
:0C251500787FE4F6D8FD75812202255C79
:10210C00206B65795F7363616E0D0A00204B455936
:10211C005F325F505245530D0A002564200D0A00B2
:10212C000D0A3D3D3D3D3D3D3D3D3D3D3D3D3D3D36
:10213C003D3D3D3D3D3D3D3D3D3D3D3D3D3D3D3DC3
:10214C003D3D3D3D0D0A00736B753A4B2564200DEA
:10215C000A00736F66742076657273696F6E3A2528
:10216C0073200D0A00312E30302E30300067617034
:10217C00202564200D0A0074696D65722025642089
:10218C000D0A00496E7075745F566F6C74616765EB
:10219C005F737464203D2025640D0A003D3D3D3D78
:1021AC003D3D3D3D3D3D3D3D3D3D3D3D3D3D3D3D53
:1021BC003D3D3D3D3D3D3D3D3D3D3D3D3D3D0D0AA6
:0121CC000012
:0D2046004200D000004100D3004100D20054
:101E9D00E4900000F09000D2E0700A12262D900020
:101EAD0000EFF08005E4900000F0900000E0640188
:101EBD0070319000C9E0702B7BFF7A21790C1209EB
:101ECD00C6122B62EF700A7F01122B68E4FF022A03
:101EDD0093E4FF122B681225A11224879000D3746E
:101EED0001F022122B62EF6003021F79900000E0D7
:101EFD00640270307BFF7A2179181209C69000B404
:101F0D00E0C394095005E004F080069000B474011C
:101F1D00F09000D37401F01224879000B4E0FF120A
:101F2D002B808045900000E0640370409000B5E088
:101F3D00C394055005E004F08005E49000B5F090E1
:101F4D0000B4E0D394014016A3E0FF70059000B2F9
:101F5D008009EFD3940340069000A17402F0900025
:0C1F6D00B5E0FF122B7A1225A1122945C5
:011F79002245
:0821CD00900006EEF0A3EFF014
:1021D500900086E06402706A9000C9E06401706254
:1021E500900006A3E0FFE4900086F09000B804F0AC
:1021F500900067E0FED3940F4048EED39F400CE07B
:102205009F9000B6F0A37401F08016900067E0FE81
:10221500C3EF9EFF9000B6F0122B2E9000B774020C
:10222500F09000B6E0FFC394024006EFD39414404B
:1022350007E49000B6F0A3F01229457D027F021253
:102245002A389000B7E0FDB401149000B6E0FF7E97
:1022550000900006EE8FF012070EAFF0FE22EDB4EF
:1022650002189000B6E0FFC3900007E09FFF9000C2
:1022750006E09400FEF0A3EFF022900006E0FEA336
:02228500E0FF78
:012287002234
:0C165500900006ECF0A3EDF0AB07AA0635
:10166100E4A3F0A3F0A3F0A37428F0A31208B70039
:101671000000009000101208B700000000C3EB94B6
:101681005AEA94005003021719AE02AF03AD07AC3A
:1016910006E4120342E4FBFA797A784412022790B5
:1016A100000C1208AB900006E0FCA3E0FDE412037D
:1016B10042E4FBFA797A784412022790001012086A
:1016C100AB90000CE0F8A3E0F9A3E0FAA3E0FBA3E0
:1016D100E0FCA3E0FDA3E0FEA3E0FF1200299000DF
:1016E1000CE0F8A3E0F9A3E0FAA3E0FB1202277BE8
:1016F100007A80793B784412011E90000C1208ABED
:10170100E4FFFEFDFC90000CE0F8A3E0F9A3E0FA91
:10171100A3E0FB1202C450057E007FFF227F147EEE
:10172100AE7DC37C4290000CE0F8A3E0F9A3E0FA9F
:10173100A3E0FB1202C4603F403D7F147EAE7DC337
:101741007CC290000CE0F8A3E0F9A3E0FAA3E0FB6F
:1017510012002D7BCD7ACC79CC783E120227120370
:101761007B900008EEF0A3EFF090000BE02FF090DB
:10177100000AE03EF0803C90000CE0F8A3E0F9A301
:10178100E0FAA3E0FB7F147EAE7DC37C4212002908
:101791007BCD7ACC79CC783E12022712037B900064
:1017A10008EEF0A3EFF0C390000BE09FF090000A69
:1017B100E09EF09000B4E0B4030E90000BE024FB37
:1017C100F090000AE034FFF090000AE0FEA3E0FF91
:0117D10022F5
:101B8200E4900000F0A3F0A3F0A3F0A3F0A3F09080
:101B920000D1E004F070069000D0E004F09000D094
:101BA200E0FEA3E0FFE4FCFD7B507AC3F9F8D31218
:101BB20008844003021CB5E49000D0F0A3F07B013E
:101BC20090000904F0A37400F0A37404F07A007981
:101BD20002121A4D900002E0FEA3E0FFA3E0FCA374
:101BE200E0FD121655900000EEF0A3EFF01221CDA9
:101BF200900000EEF0A3EFF07BFF7A2179269000AF
:101C020039EEF0A3EFF01209C6D3900003E0945A24
:101C1200900002E094005003021CA2122B62EF70AB
:101C220058FF122B749000D3E0B40121E4F0D3905A
:101C32000001E09432900000E094004006E490003D
:101C4200A780059000A77401F09000A6F090000014
:101C5200E0FEA3E0FF7C007D0A1206FC90009DEEF0
:101C6200F0A3EFF0120DDE9000B5E0FF122B7A9098
:101C720000B4E0FF122B8080219000C9E0B4010D76
:101C8200E4FF122A93122B50122991800D7F011228
:101C92002B74E4FF122A93122B50E49000D2F0220C
:101CA200E49000C9F07FFF122B7412296B9000D2CE
:031CB2007401F0CA
:011CB500220C
:101F7A00122B461228F4122A19D2AF12000E122B73
:101F8A00041219141229F97FC87E001229D97F0276
:101F9A00122B211228CA122B597FB07E04122AABA7
:101FAA00122B50122A577BFF7A21792C1209C67BF1
:101FBA00FF7A217953900039741FF0A374A9F012A3
:101FCA0009C690003974FFF0A37421F0A37471F06C
:101FDA007BFF7A21795E1209C67BFF7A2179799093
:101FEA0000B4E0FF900039E4F0A3EFF01209C67BD9
:101FFA00FF7A2179839000B5E0FF900039E4F0A3DD
:10200A00EFF01209C67BFF7A21798F9000BDE0FFBD
:10201A00A3E0900039CFF0A3EFF01209C67BFF7A54
:10202A002179A81209C6121B82121E9D900099E0FE
:0C203A00FEA3E0FF122718122B8680EA9C
:0A2B4600758E5190FE917401F0228B
:102487009000B4E014B4090040030225149024A27C
:1024970075F003A4C58325F0C583730224BD022408
:1024A700C80224D30224DE0224E90224F40224FF12
:1024B7000224FF02250A90009B7401F0A3745EF0CA
:1024C7002290009B7401F0A3747CF02290009B740F
:1024D70001F0A37490F02290009B7401F0A374D6CE
:1024E700F02290009B7402F0A37412F02290009BDC
:1024F7007402F0A37462F02290009B7402F0A3743C
:0E250700C6F02290009B7402F0A374F8F0223C
:102A5700E4FFFE1223F6D3EF9440EE94069000BDF8
:0D2A6700E44006F0A37402F022F0A304F096
:012A7400223F
:0E2B1300EF1F70011E144E6004000080F322BC
:102AAB007D407C03ED1D70011C144C70F7EF1F7003
:062ABB00011E144E70EA3A
:012AC10022F2
:102A190090FF037401F090FF07F090FF02F075B486
:0F2A2900817F507E00122B1390FE9B7449F02288
:102AC200E4FFFE75B50743B440E5B430E5FB53B40B
:052AD200DFAEB7AFB656
:012AD70022DC
:102AD800E4FFFE75B50343B440E5B430E5FB53B4F9
:052AE800DFAEB7AFB640
:012AED0022C6
:102AEE00E4FFFE75B50243B440E5B430E5FB53B4E4
:052AFE00DFAEB7AFB62A
:012B030022AF
:0B1A4D00900006EBF0A3EAF0A3E9F024
:101A580090000C1208B700000000E4900010F0F0AD
:101A680090000CE0F8A3E0F9A3E0FAA3E0FB122A47
:101A7800D8E4FCFDEB2FFFEA3EFEED39FDEC38FC27
:101A880090000C1208AB900010E004F0E0C394053D
:101A980040CE90000CE0FCA3E0FDA3E0FEA3E0FF35
:101AA800E47B05FAF9F81207E490000C1208ABE49D
:101AB8007FA07E0FFDFC90000CE0F8A3E0F9A3E006
:101AC800FAA3E0FB120759E47BFF7A0FF9F8120733
:101AD800E4900006E0FBA3E0FAA3E0F9EE8FF01231
:101AE800073A7F147E00122B1390000C1208B700DF
:101AF800000000E4900010F090000CE0F8A3E0F97A
:101B0800A3E0FAA3E0FB122AC2E4FCFDEB2FFFEAF4
:101B18003EFEED39FDEC38FC90000C1208AB90004D
:101B280010E004F0E0C3940540CE90000CE0FCA364
:101B3800E0FDA3E0FEA3E0FFE47B05FAF9F8120755
:101B4800E490000C1208ABE47FA07E0FFDFC90002F
:101B58000CE0F8A3E0F9A3E0FAA3E0FB120759E4CC
:101B68007BFF7A0FF9F81207E4900009E0FBA3E085
:0A1B7800FAA3E0F9EE8FF002073A3D
:1023F6009000001208B700000000E4900004F0F01E
:10240600900000E0F8A3E0F9A3E0FAA3E0FB122AAB
:10241600EEE4FCFDEB2FFFEA3EFEED39FDEC38FC69
:102426009000001208AB900004E004F0E0C39405AD
:1024360040CE900000E0FCA3E0FDA3E0FEA3E0FF99
:10244600E47B05FAF9F81207E49000001208ABE401
:102456007FA07E0FFDFC900000E0F8A3E0F9A3E06A
:10246600FAA3E0FB120759E4FB7A10F9F81207E425
:102476009000001208AB900000A3A3E0FEA3E0FFCB
:012486002233
:101CB6000D0A3D3D3D3D3D3D3D3D3D3D3D3D3D3DB1
:101CC6003D3D3D3D3D3D3D3D3D3D3D3D3D3D3D3D3E
:101CD6003D3D3D3D3D3D3D3D3D3D0D0A00706F772F
:101CE6006572206F6E20666C617368206761703A5A
:101CF6002564202074696D65723A2564200D0A00FA
:101D0600706F776572206F6E20666C6173682076DF
:101D1600616C75653A256420207369676E3A25649F
:101D2600200D0A003D3D3D3D3D3D3D3D3D3D3D3D9A
:101D36003D3D3D3D3D3D3D3D3D3D3D3D3D3D3D3DCD
:101D46003D3D3D3D3D3D3D3D3D3D3D3D0D0A003D5D
:101D56003D3D3D3D3D3D3D3D3D3D3D3D66697273ED
:101D66007420696E697420646174613D3D3D3D3D3A
:101D76003D3D3D3D3D3D200D0A003078253034582F
:101D860020203078253034582020307825303458BB
:101D96002020307825303458200D0A00666C617397
:101DA60068206761703A2564202074696D65723A0F
:061DB6002564200D0A0067
:102053004500B400000000004400B9202005014100
:0820630000BF014200BD0000B6
:062B62009000BFE0FF221D
:062B68009000BFEFF02217
:1029B700D310AF01C3C0D075FDF075FC0F8EFA8F31
:1029C700F975FDD275FC2D75FDE175FC1ED0D09211
:0229D700AF222D
:10291D00D310AF01C3C0D08FFB75FDF075FC0FAEAA
:10292D0004AF058EFA8FF975FDB475FC4B75FDE19D
:08293D0075FC1ED0D092AF2200
:0C26AB007B017A0079B47D057F047E3C41
:1026B700D310AF01C3C0D0900008EEF0A3EFF0A392
:0B26C700EDF0A3EBF0A3EAF0A3E9F0B4
:1026D200E4A3F0C2AFF090000AE0FF90000EE0C366
:1026E2009F502C90000BE0FBA3E475F0011207242D
:1026F200A9F0FA1206A4FF900008E475F00112078F
:1027020024ADF0FC12291D90000EE004F080C7D227
:01271200AF17
:05271300D0D092AF22BE
:040003008F828E83D7
:03000700E493FF80
:01000A0022D3
:1027CB00900008EEF0A3EFF0A3EBF0A3EAF0A3E97F
:1027DB00F0AF051DEF6028900008E475F0011207BB
:1027EB002485F082F583E493FF90000AE0FBA3E4D9
:1027FB0075F001120724A9F0FAEF1206EA80D22233
:10280B00E4FDFCED2400FFE4343CFE12000374B93C
:10281B002DF582E43400F583E0B507030C80037FCC
:10282B0000220DEDB404DCECC3940440037F0122C1
:02283B007F001C
:01283D002278
:10191400E4900000F090FE927404F012280BEF7033
:101924000790000004F0807C7BFF7A1C79B61209D2
:10193400C67B017A0079B47D057F047E3C1227CBF7
:101944007BFF7A1C79E39000B4E0FF900039E4F067
:10195400A3EFF09000B5E0FF90003BE4F0A3EFF0BC
:101964001209C67BFF7A1D79069000B6E0FF90004D
:1019740039E4F0A3EFF09000B7E0FF90003BE4F00F
:10198400A3EFF01209C67BFF7A1D792A1209C690CB
:1019940000B4E0D394095006A3E0940540069000F7
:1019A400007401F0900000E06401707A7BFF7A1DFE
:1019B40079551209C69000B47401F0A3F07F007E3B
:1019C4003C1229B7FB7A0079B97D041226B7122696
:1019D400AB7B017A0079B97D047F007E3C1227CB72
:1019E4007BFF7A1D79809000B9E0FF900039E4F024
:1019F400A3EFF09000BAE0FF90003BE4F0A3EFF017
:101A04009000BBE0FF90003DE4F0A3EFF09000BC39
:101A1400E0FF90003FE4F0A3EFF01209C67BFF7AE9
:101A24001D792A1209C67BFF7A1D79A29000B4E0C1
:101A3400FF900039E4F0A3EFF09000B5E0FF9000D0
:091A44003BE4F0A3EFF00209C637
:102945007F047E3C1229B77B017A0079B97D047F2B
:10295500001226B71226AB7B017A0079B47D057F7C
:06296500047E3C0227CBBA
:10206B005E0068000000000000000000000000009F
:10207B000000000000000000000000000000000055
:09208B00004100860041006700DD
:1028F40090FF1674C1F090FF157460F090FFA074FF
:1029040026F090FFA114F075CEFF75CD9875CC0616
:09291400759E02759810D2AC22E8
:0C2B2E00C2AC8F993099FDC299D2AC2244
:032B8A00022B2EED
:0B28710090000DEBF0A3EAF0A3E9F0EB
:10287C00E4FEEEC39D501A90000DE0FBA3E0FAA31A
:10288C00E0F98E827583001206BDFF122B8A0E8032
:01289C00E15A
:01289D002218
:102A38009000087455F0A3EFF0A3EDF0A3740DF027
:0F2A4800A3740AF07B017A0079087D05022871DA
:062B6E00AE07122B2E221F
:0300230002277E33
:0D277E00C0E0C083C082C0D075D000C0078D
:10278B00E59830E030AF995398FE900086E01460E6
:10279B0019047021EFB4551D900068F0900066E0AD
:1027AB0004F09000867401F0800B900067EFF090BE
:0527BB0000867402F02D
:0B27C000D007D0D0D082D083D0E03210
:102094004100C9004100C0004200C100004100C32A
:0F20A400004200C400004100C6014200C7000016
:0F2B040090FF177460F090FF00F090FF01F02237
:10228800E4900002F0A28133900001F09000C0E0D9
:1022980014602614604E14700302232B2403600379
:1022A800022334900001E060030223399000C1F05A
:1022B800A3F09000C004F08078900001E0706B906B
:1022C80000C2E004F070069000C1E004F0C3900082
:1022D800C2E094039000C1E09400403E9000C074B6
:1022E80002F08036900001E0B40106A37404F08087
:1022F8003B9000C2E004F070069000C1E004F0C317
:102308009000C2E094C89000C1E09400400C900096
:10231800027405F09000C07403F07F0A7E00122A50
:10232800AB800E900001E0B401078000E49000C08B
:06233800F0900002E0FF3E
:01233E00227C
:10233F00E4900002F0A28033900001F09000C3E01F
:10234F0014602614604E1470030223E2240360030A
:10235F000223EB900001E060030223F09000C4F031
:10236F00A3F09000C304F08078900001E0706B90B0
:10237F0000C5E004F070069000C4E004F0C39000C4
:10238F00C5E094039000C4E09400403E9000C374F5
:10239F0002F08036900001E0B40106A37404F080CF
:1023AF003B9000C5E004F070069000C4E004F0C359
:1023BF009000C5E094909000C4E09401400C900010
:1023CF00027406F09000C37403F07F0A7E00122A95
:1023DF00AB800E900001E0B401078000E49000C3D1
:0623EF00F0900002E0FF87
:0123F50022C5
:10262D00122288BF05037F012212233FBF0621120C
:10263D002B62BF01149000B8E0700E9000C904F039
:10264D009000B8F0122945803CE49000C9F0803527
:10265D009000C6E0602330A70320801D9000C9E0E4
:10266D0070177F32FE122AABE49000C6F020A7034C
:10267D007F022220800F7F032230A7093080069031
:10268D0000C67401F0308113D39000C8E09401901E
:0D269D0000C7E094004004E4F0A3F07F00CB
:0126AA00220D
:0420B3004100D40014
:102A93007E009000D4E0FD7C0012092EE47B64FAF2
:072AA300F9F81207E48FDFD0
:012AAA002209
:1029D900900000EEF0A3EFF090FF1D74C0F090FF9F
:1029E9009C7435F09000D474FFF0F5DE75DD972204
:0D2B210075BD17EF75F02BA490FEA0F022FB
:042B860043BD102219
:10283E007365742074696D65207365636F6E643A99
:10284E0025640D0A0074696D65207365636F6E648F
:10285E003A2564200D0A0074696D65206F66662046
:03286E000D0A0050
:1020B7004200AC00004200AA00004200B00000410C
:1020C70000A0004100A1004100B2004100B300415F
:1020D70000A7004200A200004200A800004200A49E
:0B20E70000004100A6004200AE000017
:10271800900000EEF0A3EFF0122B62EF70579000DC
:10272800BDE07004A3E06401700D900001E025E0B5
:10273800F0900000E033F09000AFE004F0700690F5
:1027480000AEE004F09000AEE0FEA3E0FFD39000FE
:1027580001E09F900000E09E40047F648002E4FF57
:10276800122A939000AEE07004A3E064C87006904B
:0627780000AEF0A3F02208
:102A75009000AAEEF0A3EFF0E4A3F0A3F07BFF7AB9
:0E2A850028793E900039EEF0A3EFF00209C66A
:10289E009000A7E0B401249000A2E475F0011207A5
:1028AE000EFED3E5F0940EEE9401400FE49000A7D7
:0C28BE00F09000A2F0A3F09000A6F02221
:1025A100E49000ACF0A3F09000B5E0FF700890005B
:1025B100AAF0A3F08052EFB4010C9000AA7407F0C6
:1025C100A304F0E48042EFB4020D9000AA740EF06F
:1025D100A37410F0E48031EFB4030D9000AA741CD1
:1025E100F0A37420F0E48020EFB4040D9000AA74ED
:1025F10038F0A37440F0E4800FEFB405179000AAFF
:102601007470F0A37480F0E49000B0F0A3F0900037
:10261100A8F0A3F07BFF7A2879539000AAE0FFA3EA
:0C262100E0900039CFF0A3EFF00209C6F2
:10000E00E490FE80F0F589758CF5758A9643A8020A
:04001E0043881022E1
:03000B000217D207
:1017D200C0E0C0F0C083C082C0D075D000C000C0DD
:1017E20001C002C003C004C005C006C007122B62BC
:1017F200EF60030218CF9000ADE004F07006900095
:10180200ACE004F0C39000ADE094F49000ACE0943E
:101812000150030218F612289E9000B2E0B4022D85
:101822009000B1E004F070069000B0E004F0D390B4
:1018320000B1E094409000B0E0943840109000B2C3
:10184200E4F09000B0F0A3F09000A004F0D3900078
:10185200ABE094009000AAE094004042A3E024FF91
:10186200F09000AAE034FFF09000A1E0640270570B
:101872009000B1E004F070069000B0E004F0D39064
:1018820000B1E094409000B0E09438403A9000A05B
:101892007401F0A3E4F09000B0F0A3F0802990006E
:1018A200B5E060237F01122B689000AAE4F0A3F058
:1018B2009000B0F0A3F09000A1F09000B2F07BFF96
:1018C2007A2879651209C69000ACE480249000C998
:1018D200E0B401209000A4E475F00112070EFED3DB
:1018E200E5F09460EE94EA400B9000C9E4F09000B9
:1018F200A4F0A3F0121DBCD007D006D005D004D0AE
:1019020003D002D001D000D0D0D082D083D0F0D08A
:02191200E032C1
:1020F2004200CE00004100CD004100CC004100CAA8
:05210200004100CB00CC
:1028CA0043D1E890FF62E04406F090FF61E04408DB
:1028DA00F090FF60E04410F090FF6AE044F8F0C224
:0A28EA0097C296C295C294C29322D1
:062B74009000CCEFF022FE
:092B50009000CE74CEF0A3F02237
:10296B009000CAE0FF700F9000CE74CEF0A3F090F1
:10297B0000CA7401F022EFB4010B9000CE74FFF08B
:05298B00E49000CAF019
:012990002224
:102991009000CBE0FF700F9000CE74CEF0A3F090CA
:1029A10000CB7401F022EFB4010B9000CE741EF045
:0529B100E49000CBF0F2
:0129B60022FE
:062B7A009000CFEFF022F5
:062B80009000CEEFF022F0
:092B59009000CE74CCF0A3F02230
:101DBC009000CCE0FF600EF4600B9000C9E0640171
:101DCC006003021E9243D1E89000CDE0B4080040BD
:101DDC0003021E8C901DE7F8282873021DFF021EBB
:101DEC000F021E20021E33021E48021E58021E69DC
:101DFC00021E7C53D1EF1214B91212069000CD744E
:101E0C0001F022C292D2911214BD1212069000CD92
:101E1C007402F022C292C291D2A31214BF12120603
:101E2C009000CD7403F022C292C291C2A3D2B4121C
:101E3C0014C11212069000CD7404F02243D110127A
:101E4C0014B91212069000CD7405F022C292D291F0
:101E5C001214BD1212069000CD7406F022C292C26A
:101E6C0091D2A31214BF1212069000CD7407F02267
:101E7C00C292C291C2A3D2B41214C1121206800033
:101E8C00E49000CDF0229000CCE0B4010375D16851
:011E9C002223
:051206009000CEE0FFA6
:10120B00EF12090812720112AA0212E203131A0456
:10121B00135205138A0613C10713FB081435091261
:10122B003A1E14AECC14A3CE146CFF000014B8906D
:10123B0000CDE0FF6003B40404C295C294EF6401D7
:10124B006004EFB40504D295D294EF64026004EF0E
:10125B00B40604D295D294EF64036008EF64076080
:10126B00030214B802149E9000CDE0FF6003B40497
:10127B0004C295C294EF64016004EFB40504D295E7
:10128B00C294EF64026004EFB40604D295C294EFEB
:10129B0064036008EF640760030214B80213F6904E
:1012AB0000CDE0FF6003B40404D295C294EF640157
:1012BB006004EFB40504D295C294EF64026004EFAE
:1012CB00B40604C295D294EF64036008EF64076020
:1012DB00030214B80214309000CDE0FF6003B40495
:1012EB0004D295C294EF64016004EFB40504D29567
:1012FB00C294EF64026004EFB40604D295D294EF6B
:10130B0064036008EF640760030214B8021467906B
:10131B0000CDE0FF6003B40404C295C294EF6401F6
:10132B006004EFB40504D295D294EF64026004EF2D
:10133B00B40604D295D294EF64036008EF6407609F
:10134B00030214B80213F69000CDE0FF6003B4045F
:10135B0004D295C294EF64016004EFB40504C29506
:10136B00D294EF64026004EFB40604D295D294EFEA
:10137B0064036008EF640760030214B802146790FB
:10138B0000CDE0FF6003B40404D295C294EF640176
:10139B006004EFB40504C295D294EF64026004EFCD
:1013AB00B40604D295D294EF64036008EF6407602F
:1013BB00030214B8806F9000CDE0FF6003B4040407
:1013CB00D295C294EF64016004EFB40504D295C2C8
:1013DB0094EF64026004EFB40604D295C294EF64F8
:1013EB00036008EF640760030214B8C295C294222D
:1013FB009000CDE0FF6003B40404D295C294EF6477
:10140B00016004EFB40504D295D294EF640260043A
:10141B00EFB40604D295D294EF64036008EF64072F
:10142B0060030214B8D295D294229000CDE0FF60F5
:10143B0003B40404D295C294EF64016004EFB405C5
:10144B0004D295D294EF64026004EFB40604D295F3
:10145B00D294EF64036005EF64077051D295C29488
:10146B00229000CDE0FF6003B40404D295C294EF48
:10147B0064016004EFB40504C295D294EF6402607A
:10148B0004EFB40604C295D294EF64036005EF64D5
:10149B0007701AC295D29422C297C296C295C29473
:0E14AB00C29322D297D296D295D294D2932297
:0D14B900D292C291C2A3C2B49000CFE0FF56
:1014C600EF14605D1470030215651470030215A312
:1014D6001470030215DD1470030216172405600349
:1014E6000216549000CDE0FF6003B40406C297C212
:1014F60096C293EF64016004EFB40506D297D296C4
:10150600D293EF64026004EFB40606C297D296C285
:1015160093EF64036046EF640760030216540216F5
:101526004E9000CDE0FF6003B40406D297C296C287
:1015360093EF64016004EFB40506D297D296D29376
:10154600EF64026004EFB40606C297C296C293EF38
:1015560064036008EF6407600302165402164E9097
:1015660000CDE0FF6003B40406C297C296C293EFB3
:1015760064016004EFB40506D297D296D293EF6465
:10158600026004EFB40606D297C296C293EF6403D4
:101596006008EF6407600302165402164E9000CDF1
:1015A600E0FF6003B40406C297C296D293EF6401CB
:1015B6006004EFB40506D297D296D293EF64026028
:1015C60004EFB40606C297C296C293EF64036005A1
:1015D600EF6407707980719000CDE0FF6003B4047A
:1015E60006C297D296C293EF64016004EFB4050673
:1015F600D297D296D293EF64026004EFB40606C285
:1016060097C296C293EF64036005EF6407703F804C
:10161600379000CDE0FF6003B40406C297C296C2BD
:1016260093EF64016004EFB40506D297D296D29385
:10163600EF64026004EFB40606C297C296D293EF37
:0F16460064036004EFB40706D297D296D29322C2
:0C2B3A000000000000000000000000008F
:0421070041009F00F4
:1029F900E490009DF0A3F0900099F0A3F0A3F0A358
:102A0900F090009804F0900097F090009604F0225E
:100DDE0078067C007D017BFF7A2B793A7E007F0CB2
:100DEE0012067E9000121208B70000000090001646
:100DFE001208B70000000090009DE0FEA3E0FF90F7
:100E0E00009BE0FCA3E0FDD39FEC9E50030211FE7D
:100E1E00ED9FFFEC9EFED3EF9464EE940040030230
:100E2E0011F4E4FCFD9000061208ABE4900094F07F
:100E3E0090008BE0FCA3E0FDA3E0FEA3E0FFA31275
:100E4E0008AB900087E0FCA3E0FDA3E0FEA3E0FF6B
:100E5E00A31208AB900006E0FCA3E0FDA3E0FEA306
:100E6E00E0FF9000871208AB90008BE0FCA3E0FD42
:100E7E00A3E0FEA3E0FF900087E0F8A3E0F9A3E073
:100E8E00FAA3E0FBD312089A403390008BE0F8A34C
:100E9E00E0F9A3E0FAA3E0FB900087E0FCA3E0FDFD
:100EAE00A3E0FEA3E09BFFEE9AFEED99FDEC98FC0D
:100EBE009000061208ABE4900093F080319000870A
:100ECE00E0F8A3E0F9A3E0FAA3E0FBA3E0FCA3E0C3
:100EDE00FDA3E0FEA3E0C39BFFEE9AFEED99FDECB1
:100EEE0098FC9000061208AB9000937401F0E47F1A
:100EFE0002FEFDFC90008BE0F8A3E0F9A3E0FAA35C
:100F0E00E0FB12075990000E1208AB90008FE0FC28
:100F1E00A3E0FDA3E0FEA3E0FF900087E0F8A3E0CE
:100F2E00F9A3E0FAA3E02FFFEA3EFEE93DFDE83C1F
:100F3E00FC90000EE0F8A3E0F9A3E0FAA3E0FBC3F7
:100F4E0012089A504B90008FE0FCA3E0FDA3E0FE48
:100F5E00A3E0FF900087E0F8A3E0F9A3E0FAA3E096
:100F6E002FFFEA3EFEE93DFDE83CFC90000EE0F866
:100F7E00A3E0F9A3E0FAC3EF9BFFEE9AFEED99FD15
:100F8E00EC98FC90000E1208ABE4900095F0805D9A
:100F9E0090000EE0FCA3E0FDA3E0FEA3E0FFC00482
:100FAE00C005C006C00790008FE0FCA3E0FDA3E0E3
:100FBE00FEA3E0FF900087E0F8A3E0F9A3E0FAA318
:100FCE00E02FFBEA3EFAE93DF9E83CF8D007D006FF
:100FDE00D005D004C3EF9BFFEE9AFEED99FDEC9881
:100FEE00FC90000E1208AB9000957401F0900096E4
:100FFE00E0FFE4FCFDFE900006E0F8A3E0F9A3E0BC
:10100E00FAA3E0FB1207599000061208AB90009766
:10101E00E0FFE4FCFDFE900087E0F8A3E0F9A3E01A
:10102E00FAA3E0FB12075990000A1208AB90009841
:10103E00E0FFE4FCFDFE90000EE0F8A3E0F9A3E073
:10104E00FAA3E0FB12075990000E1208AB90009322
:10105E00E0702D900012E0FCA3E0FDA3E0FEA3E003
:10106E00FF900006E0F8A3E0F9A3E0FAA3E0FBEF9F
:10107E002BFFEE3AFEED39FDEC38FC900012802B82
:10108E00900016E0FCA3E0FDA3E0FEA3E0FF9000BD
:10109E0006E0F8A3E0F9A3E0FAA3E0FBEF2BFFEEE6
:1010AE003AFEED39FDEC38FC9000161208AB9000BC
:1010BE0094E0702E900012E0FCA3E0FDA3E0FEA3EE
:1010CE00E0FF900006E0F8A3E0F9A3E0FAA3E0FB4E
:1010DE00EF2BFFEE3AFEED39FDEC38FC90001212CC
:1010EE0008AB900095E0702B900012E0FCA3E0FDA1
:1010FE00A3E0FEA3E0FF90000EE0F8A3E0F9A3E06A
:10110E00FAA3E0FBEF2BFFEE3AFEED39FDEC38FCD7
:10111E00A3802B900016E0FCA3E0FDA3E0FEA3E06D
:10112E00FF90000EE0F8A3E0F9A3E0FAA3E0FBEFD6
:10113E002BFFEE3AFEED39FDEC38FC90001612084E
:10114E00AB900012E0F8A3E0F9A3E0FAA3E0FB9065
:10115E000099E0FEA3E0FFE4FCFDEB2FFFEA3EFE6C
:10116E00ED39FDEC38FC9000121208AB900016E041
:10117E00FCA3E0FDA3E0FEA3E0FF900012E0F8A3C5
:10118E00E0F9A3E0FAA3E0FBD312089A40629000C4
:10119E0016E0F8A3E0F9A3E0FAA3E0FB900012E05A
:1011AE00FCA3E0FDA3E0FEA3E09BFFEE9AFEED990B
:1011BE00FDEC98FC9000061208ABE47F64FEFDFC8B
:1011CE00900006E0F8A3E0F9A3E0FAA3E0FBC31257
:1011DE00089A5012900006A3A3E0FFA3E090009996
:1011EE00CFF0A3EFF022900099E4F0A37464F02204
:0711FE00E4900099F0A3F05A
:0112050022C6
:100026000203E7E86480F8E933E83360110460F01E
:10003600ED33EC337009E8FCE9FDEAFEEBFF220440
:1000460060DED3EB9FEA9EE99DE8C2E78CF0C2F73B
:1000560095F0400CE8CCF8E9CDF9EACEFAEBCFFB07
:100066001203B285D0F05804700320D5B3E80470AB
:10007600075002B2D50203F192D5EC0460F7E4CC46
:10008600C0E0C398F8603B94186008400DD0E0FBD0
:100096000203C9E4FBFAC9FC8028E830E406E4C997
:1000A600FBE4CAFCE830E305E4C9CACBFCE8540724
:1000B6006010F8C3E913F9EA13FAEB13FBEC13FC2F
:1000C600D8F130F52FC3E49CFCEF9BFFEE9AFEEDD2
:1000D60099FDD0E0FBEF4E4D4C701222DB0302037C
:1000E600EEEC2CFCEF33FFEE33FEED33FDED30E7A7
:1000F600EB0203C9EF2BFFEE3AFEED39FDD0E0FB34
:1001060050130BBB00030203F1ED13FDEE13FEEFDC
:0801160013FFEC13FC0203C906
:10011E00EC4D6011E8497017ED33EC3304600DE4DB
:10012E00FCFFFEFD22E933E8330470F80203E71208
:10013E0003B258046009E4CC248150062850090209
:10014E0003F12840030203EEC0E0EB4A7044B9808D
:10015E0006D0E0FB0203DDEF4E701CBD8008EBFF06
:10016E00EAFEE9FD80EBE98DF0A4FEE5F002020760
:10017E00E9CDF9EAFEEBFFEF89F0A4FCE5F0CE89BC
:10018E00F0A42EFFE435F0CD89F0A42DFEE435F079
:10019E008067EF4E7005BD80D780C3EF8BF0A4ACA7
:1001AE00F0EE8BF0A42CFCE435F0F8EF8AF0A42CE2
:1001BE00E5F038FCE433CB8DF0A42CFCE5F03BF8F5
:1001CE00EE8AF0A42CFCE5F038F8E433CF89F0A4E5
:1001DE002CFCE5F038CF3400CE89F0A42FFFE5F0EB
:1001EE003EFEE433C98DF0A42EFEE5F039CD8AF043
:1001FE00A42FFFE5F03EFEE43DFD33D0E0FB5007BB
:10020E000BBB000F0203F1EC2CFCEF33FFEE33FEC1
:06021E00ED33FD0203C9EF
:100224000203F1EC5D046005E8590470030203E77E
:100234001203B2580460F6EC4860F2EC7004FDFE60
:10024400FF22C860DB2481C85009C39860025006AD
:100254000203EE9850CAF582E9294B4A7005AB8235
:100264000203DD75F0007C1A7880C3EF9BEE9AEDF3
:1002740099400DC3EF9BFFEE9AFEED99FDE842F025
:10028400DC23ACF0D0E0FFD0E0FED0E0FDAB822078
:10029400E7101BEB60BAEC2CFCEF33FFEE33FEED02
:1002A40033FD0203C9E803F830E705C0F075F00038
:1002B400EF2FFFEE33FEED33FD40B830E7C280AAE6
:1002C40074F8CC6480CCC86480C8F58204604FC3E1
:1002D400EB9FF5F0EA9E42F0E99D42F0E89C45F080
:1002E400603C501DE5825FFFE582D313CB5BCBF40A
:1002F4002B5582FB50280ABA002409B90020088033
:100304001DE5825BFBE582D313CF5FCFF4C3132FCC
:100314005582FF50090EBE00050DBD00010CC3EB54
:100324009FF5F0EA9E42F0E99D42F0E89C45F060BA
:0903340007CC4820E701B3EC22DC
:10033D0075F020800E75F010800575F0087D007E3B
:10034D00007F003392D530D503120876EC33401080
:10035D00EF33FFEE33FEED33FDEC33FCD5F0ED2244
:0E036D00E5F0247EA2D513CC92E7CDCEFF2280
:10037B00EDD2E7CD33EC3392D524814006E4FFFE7A
:10038B00FDFC22FCE4CFCECDCC24E0501174FF80D9
:10039B00EDC3CC13CCCD13CDCE13CECF13CF047076
:0703AB00F030D5DE020876F8
:10095B00E50D2439F582E43400F583E0050D229092
:10096B000036301003900039E475F0011208E802EC
:10097B0006A42009E97F2ED2098018EF540F24908A
:10098B00D43440D4FF300D0BEF24BFB41A00500306
:10099B002461FFE50E6002150E0511E511700205CD
:1009AB001030100E900036E475F0011208E8EF02DB
:1009BB0006EA022B6E7403D2108003E4C210F50D0D
:1009CB009000361208FFE4F50EF510F511E50E60F8
:1009DB00077F2012099E80F5750FFFC20AC209C25C
:1009EB000BC20CC20EC20FC21112096AFF700D307E
:1009FB0010057F001209AFAF11AE1022B4255FC2F4
:100A0B00D5C20D12096AFF24D0B40A00501A75F032
:100A1B000A780E30D50508B6FF0106C6A426F620C7
:100A2B00D5047002D20C80D924CFB41A00EF500435
:100A3B00C2E5D20D020CA1D20A80C6D20980C0D267
:100A4B000B80BCD2D580BAD20E80B47F2012099E07
:100A5B00200B077401B50E0040F112095BFF120960
:100A6B009E0209D8D211D20F809512095BFB120995
:100A7B005BFA12095BF94A4B7006799F7A0D7BFF83
:100A8B00200B2EE50E602A7E008E827583001206E7
:100A9B00BD60060EEE650F70F0C2D5EBC0E0EAC08C
:100AAB00E0E9C0E0EE120D02D0E0F9D0E0FAD0E0C0
:100ABB00FB1206A4FF60AAEBC0E0EAC0E0E9C0E0CD
:100ACB0012099ED0E02401F9D0E03400FAD0E0FB0B
:100ADB00E50F0460DCD50FD98087D20B80A2120CF6
:100AEB00E460F7E50F7001041203FCA90F600DE53C
:100AFB000F600914F50F120D8CEF60F3EA30E7026B
:100B0B00F404C3995079EAF4250F0430E701E404A7
:100B1B00F50F800D120CE460C1EA050F250F1203CF
:100B2B00FCEA900065F030E701E4250F04D50F04D3
:100B3B00200E0114120D02E4C0E0120D8C90006522
:100B4B00E0601320E70714F0120986802204F0D02E
:100B5B00E014C0E07F00120986E50F600712097DE3
:100B6B00150F800B300E0312097DD0E00209D8D08F
:100B7B00E00480C4120CE4609EE50F041203FC90A9
:100B8B000065EAF0E50F200E026001042404120D4B
:010B9B000257
:100B9C0074FF04C0E0120D8C120986E50F200E02C2
:100BAC00600312097DD0E0B50FE87F4512099090E3
:100BBC000065E07F2B30E7047F2DF404C0E01209C0
:100BCC009ED0E075F00A84C0F0120987D0E01209BB
:100BDC00870209D8791080027908C20FC2118008E7
:100BEC00D2D5790A8004790AC2D5E50F047002F5D2
:100BFC000FE4FAFDFEFF12095BFC7B08200A1312BE
:100C0C00095BFD7B1030090A12095BFE12095BFFC0
:100C1C007B20EC3382D592D55013C3E43009069F68
:100C2C00FFE49EFEE4200A039DFDE49CFCE4CBF86B
:100C3C00C20AEC700CCFCECDCCE824F8F870F3805F
:100C4C0017C3EF33FFEE33FEED33FDEC33FCEB3328
:100C5C00FB994002FB0FD8E9EB300A05F8D0E0C451
:100C6C0048B20AC0E00AEC4D4E4F78207B0070C2AF
:100C7C00EAB50F0040BCC0E0120D04D0F0D0E0206B
:100C8C000A04C4C0E0C4B20AC0F0120987D0F0D57F
:100C9C00F0EB0209D81209080A75530BE0580A4602
:100CAC004C0A42420BE44F0BEC440BEC490A5B43FD
:100CBC000BF2550B1F460B7F450AE9470DBF500A37
:100CCC004A2D0A4E2E0A712B0A52230A6F200DA8A8
:100CDC002A0A0A4800000A69E50FB4FF03750F06DB
:100CEC0012095BFC12095BFD12095BFE12095BFF2A
:100CFC0090005E020439790AA2D5200C14300E093A
:100D0C00B910020404B9080104A2D5200F02500145
:100D1C0004200B68920BB50E005034C0E07F2030DD
:100D2C000C197F30A20B720F720E500F120D5BC29A
:100D3C000BC20FC20EC2117F30800F300E03E9C000
:100D4C00E012099E300E03D0E0F9D0E0B50ECC30A5
:100D5C000E177F30B9100C12099E7F58300D077F8B
:100D6C00788003B9080312099E300B057F2D020908
:100D7C009E7F202011F87F2B200FF322920B80CF27
:100D8C007F00B40700500B245EF582E43400F58339
:100D9C00E0FF22286E756C6C2900D20A12095B30B8
:100DAC000AF8C20A780E30D50108F6020A0A2D504C
:100DBC0043495812095B2403B405004001E4900D2B
:100DCC00BA9312098F743A12098FD20C750E040261
:020DDC000BE02A
:1003B200E9D2E7C933E833F892D5EDD2E7CD33EC91
:0703C20033FC5002B2D5220A
:1003C900EC30E7100FBF000C0EBE00080DBD000495
:1003D9000BEB6014A2D5EB13FCED92E7FD2274FF41
:1003E900FCFDFEFF22E480F8A2D574FF13FC7D809A
:0303F900E480EFAE
:1003FC00F920E73624F950037907E4F42402FBE5ED
:10040C0082158270021583DBF6E024FB501BE96039
:10041C0014E4F0E582158270021583E004F0B40A4E
:0D042C0008E4F0D9EE7401F00A22C2D522D6
:10043900ED33EC3392D5FA602AB4FF33EDC2E77B92
:10044900FF60067A04795EE4227A04796720D5048C
:100459007A047962224E614E002B494E46002D499D
:100469004E4600E47A08F0A3DAFC7B00740722C048
:1004790083C082ECC0E0EDC0E0EEC0E0EFC0E0EA8E
:1004890075F010A4CAABF075F04DA42BFBE435F060
:10049900FCEA2410FAEB34C5FBEC34D9FCEDC2E7D5
:1004A900FF75F056A4F42411C5F0F434C58FF0A4F7
:1004B9002AE5F03BE43CF020E71412056ED0E0FF9A
:1004C900D0E0FED0E0FDD0E0FC1202278014F40455
:1004D90012056ED0E0FFD0E0FED0E0FDD0E0FC12C6
:1004E900011ED082D083E0FAEDD2E7CD33EC33247C
:1004F90082FBE4C3CF33CFCE33CECD33CD33DBF361
:100509007B0775F00A846004F0A31B0AE5F0F0A3E9
:100519008FF0740AA4FFACF08EF0740AA42CFEAC20
:10052900F050010C8DF0740AA42CFDE435F0F0A311
:05053900DBDE74072267
:10053E003F8000004120000042C80000447A0000C5
:10054E00461C400047C35000497424004B18968047
:10055E004CBEBC205A0E1BCA6753C21C749DC5AE3E
:10056E00FB60065407601C232312059CEB54386075
:10057E000912058812059712011EECF8EDF9EEFA34
:10058E00EFCB22EB12059780F1543803241C900513
:10059E003EFE93FC0EEE93FD0EEE930ECE93FF22D7
:10252100021F7AE493A3F8E493A34003F68001F237
:1025310008DFF48029E493A3F85407240CC8C333BB
:10254100C4540F4420C8834004F456800146F6DF8A
:10255100E4800B0102040810204080902046E47EB4
:10256100019360BCA3FF543F30E509541FFEE4937F
:10257100A360010ECF54C025E060A840B8E493A346
:10258100FAE493A3F8E493A3C8C582C8CAC583CA71
:10259100F0A3C8C582C8CAC583CADFE9DEE780BE29
:01210B0000D3
:1005AE00E709F608DFFA8046E709F208DFFA803E2F
:1005BE0088828C83E709F0A3DFFA8032E309F6081C
:1005CE00DFFA8078E309F208DFFA807088828C8384
:1005DE00E309F0A3DFFA806489828A83E0A3F60838
:1005EE00DFFA805889828A83E0A3F208DFFA804C12
:1005FE0080D280FA80C680D4806980F280338010E9
:10060E0080A680EA809A80A880DA80E280CA803351
:10061E0089828A83ECFAE493A3C8C582C8CCC583C9
:10062E00CCF0A3C8C582C8CCC583CCDFE9DEE78099
:10063E000D89828A83E493A3F608DFF9ECFAA9F018
:10064E00EDFB2289828A83ECFAE0A3C8C582C8CC6E
:10065E00C583CCF0A3C8C582C8CCC583CCDFEADE87
:10066E00E880DB89828A83E493A3F208DFF980CCE9
:10067E0088F0EF60010E4E60C388F0ED2402B404E2
:10068E000050B9F582EB2402B4040050AF23234589
:06069E0082239005FE73AB
:1006A400BB010689828A83E0225002E722BBFE0254
:0906B400E32289828A83E4932287
:1006BD00BB010CE58229F582E5833AF583E02250F2
:1006CD0006E92582F8E622BBFE06E92582F8E2223C
:0D06DD00E58229F582E5833AF583E4932256
:1006EA00BB010689828A83F0225002F722BBFE01EF
:0206FA00F322E9
:1006FC00EF8DF0A4A8F0CF8CF0A428CE8DF0A42E12
:02070C00FE22CB
:10070E00C5F0F8A3E028F0C5F0F8E5821582700276
:06071E001583E038F02213
:10072400A3F8E0C5F025F0F0E58215827002158388
:06073400E0C838F0E822E5
:10073A00BB010A89828A83F0E5F0A3F0225006F70A
:0F074A0009A7F01922BBFE06F3E5F009F3192207
:10075900E88FF0A4CC8BF0A42CFCE98EF0A42CFC3F
:100769008AF0EDA42CFCEA8EF0A4CDA8F08BF0A4BD
:100779002DCC3825F0FDE98FF0A42CCD35F0FCEB1C
:100789008EF0A4FEA9F0EB8FF0A4CFC5F02ECD39E1
:0F079900FEE43CFCEAA42DCE35F0FDE43CFC224E
:1007A80075F008758200EF2FFFEE33FECD33CDCC08
:1007B80033CCC58233C5829BED9AEC99E58298408B
:1007C8000CF582EE9BFEED9AFDEC99FC0FD5F0D668
:1007D800E4CEFBE4CDFAE4CCF9A88222B800C1B992
:1007E8000059BA002DEC8BF084CFCECDFCE5F0CBD0
:1007F800F97818EF2FFFEE33FEED33FDEC33FCEB09
:1008080033FB10D703994004EB99FB0FD8E5E4F9C3
:10081800FA227818EF2FFFEE33FEED33FDEC33FCB0
:10082800C933C910D7059BE99A4007EC9BFCE99AA4
:10083800F90FD8E0E4C9FAE4CCFB2275F010EF2FE9
:10084800FFEE33FEED33FDCC33CCC833C810D707E9
:100858009BEC9AE899400AED9BFDEC9AFCE899F824
:0E0868000FD5F0DAE4CDFBE4CCFAE4C8F922B7
:0E087600C3E49FFFE49EFEE49DFDE49CFC2293
:10088400EB9FF5F0EA9E42F0E99D42F0EC6480C8EB
:0608940064809845F0228B
:10089A00EB9FF5F0EA9E42F0E99D42F0E89C45F0B4
:0108AA00222B
:0C08AB00ECF0A3EDF0A3EEF0A3EFF022C0
:1008B700A8828583F0D083D0821208CE1208CE1288
:1008C70008CE1208CEE473E493A3C583C5F0C583AD
:1008D700C8C582C8F0A3C583C5F0C583C8C582C88B
:0108E70022EE
:1008E800F8E0FBA3A3E0F925F0F0E5821582700299
:0708F8001583E0FA38F0223D
:0908FF00EBF0A3EAF0A3E9F022FA
:10090800D083D082F8E4937012740193700DA3A37E
:1009180093F8740193F5828883E473740293686092
:06092800EFA3A3A380DF92
:10092E00EC8EF0A4CCC5F0CCCDF8EFA4CEC5F02D56
:10093E00FDE43CFCE8A42EC8C5F03DFDE43CFCEF14
:0D094E00A4FFE5F028FEE43DFDE43CFC22A2
:00000001FF
